:100000006F20205300000000782000007C200000BA
:1000100000000000000000000000000000000000E0
:1000200000000000000000000000000000000000D0
:10003000E81D000000000000022500000000000094
:100040000425000006250000082500000A25000000
:10005000861E00000E25000010250000122500005D
:100060001425000016250000182500001A250000A0
:100070001C2500001E250000202500002225000070
:10008000242500002625000028250000241C00004F
:100090002C250000BE1C0000CC1C0000000000004D
:1000A000511126C022C206C4828282441244A24058
:1000B00031018280634E050263C305042E86AA8542
:1000C0007D5515C285466378B6006356C0000606A6
:1000D0008606E36CB6FE014563E4C500918D558D3F
:1000E00085820582F5FA82808682C93F2E858282CA
:1000F0003305A04063D70500B305B040C1B7B305D1
:10010000B0408682653F3305A0408282868263C705
:100110000500634905005D372E858282B305B04036
:10012000E35B05FE3305A040513F3305B0408282BA
:10013000000071112AC082471387F7FF3AC099C3A4
:100140000100D5BF11018280B71602409C4E0567A1
:1001500013070780D98F9CCE371701401C43C57603
:10016000C116F58F1CC31C43A9668D06D58F056685
:100170001CC3B73601401306F62B2394C6C21306E0
:10018000700C2396C6C203D6C6C1A165938706C06C
:1001900013668606239EC6C003D606C213660610E3
:1001A0002390C6C203D646C44D8E2392C6C403D63E
:1001B00006C0136616002390C6C083C6A180D4DF94
:1001C000C1671CCB8280371702401C4F9166D58FC8
:1001D0001CCFB717014003A70740B70610F0FD1664
:1001E000758F23A0E74003A70740B7069004558FFB
:1001F00023A0E740B74701401307101A2394E78074
:10020000096731072396E7808280EFF27FE9371490
:100210000140930700041CC80545213F93070008CF
:100220001CC805453937B70740001CC805451137BC
:10023000B70780001CC80545ED3D85BDEFF25FE6C0
:1002400037140140B70740001CC80545DD3593074A
:1002500000081CC80545F13D930700041CC8B1B552
:10026000EFF21FE46111AA872147371401409396EA
:100270008701E18663D506049306000414C805458A
:100280003EC23AC0930400086D35054504C8553593
:1002900092470247B7068000860714C87D1793F778
:1002A000F70F71F7930700041CC80545593505453C
:1002B00004C84135B706800014C82101FDB3B70654
:1002C00040006DBFEFF2DFDD61112AC013070004AB
:1002D000B717014098CB0545A93D21470144B71404
:1002E00001403AC29306000894C8054599359444E4
:1002F00006041374F40F93F60604124799C21364AC
:1003000014003AC2B706800094C805451D3512474F
:100310007D1761FB82473707400099E3130700040C
:1003200098C805453935B7140140930700089CC8A3
:1003300005450135B70780009CC80545DD3B93079F
:1003400000049CC8228521018DB3EFF27FD5711185
:100350002A842EC05D3D1305000A19371355840009
:1003600001371375F40FED3D82452E85D53DF935E6
:100370001545EF20005911010DBBEFF27FD271112D
:100380002A8461351305000AE13D13558400C93DF7
:100390001375F40FF135953D1305100AD13501455C
:1003A00015372AC0613D0245110101B3EFF25FCF5D
:1003B0002A84A13D13058007653501455535228501
:1003C0004535AD3DDDB1EFF2BFCD1305E00AF93F94
:1003D00013050002E13F0945D13F1305D008F93765
:1003E0005145E9371305F00AD137C1B1EFF25FCBC0
:1003F000938505FB2A8413F5F50F4D3F1375F40023
:100400007537135544004105553745B1931785019C
:10041000E18763C507029307F00363E1B70293D74F
:1004200035009E07AA97138501853E9593F77500C1
:100430008545B395F5001C21DD8D0CA18280B307A5
:10044000A54093F7F70F2A839383018563EFC704D1
:1004500082800503B307A34093F7F70F63F3C70444
:10046000AE82054493F7F20F3387B7401377F70F47
:10047000E371D7FE1307F007634367021307F00326
:10048000634F570013D732401E071A971E97042355
:100490009D8BB317F40093C7F7FFE58F1CA385026C
:1004A000D1B71244824421018280611122C226C048
:1004B00045BFB307A54093F7F70F2A8393830185C0
:1004C00063EDC70482800503B307A34093F7F70FDA
:1004D00063F1C704AE82054413F7F20FB307B740C8
:1004E00093F7F70FE3F1D7FE9307F00763C16702B5
:1004F0009307F00363CD570093D732409E079A9736
:100500009E9784231D8B3317E400258F98A38502C3
:10051000E1B71244824421018280611122C226C0C7
:1005200055BFEFF2FFB7311132C09387F6FF2A961D
:100530002A832E841376F60FAA843EC2639CC402DB
:10054000A29693F6F60F9304F3FF36C46309D4041E
:100550001A85A2851AC25D3D8247A2853385970020
:100560001375F50F65359307140013F4F70F124355
:10057000A246E1BF2685A28536C81AC632C479359F
:1005800092472685B305F40093F5F50F413513879F
:1005900014009374F70F22463243C24645B7510107
:1005A00029B6EFF2FFAF4111930706FE2EC293F773
:1005B000F70F9306E00563E6F606931726003E96CE
:1005C0004206418293070606130656061394070156
:1005D00093170601C183AA8441803EC02285713BE6
:1005E0002A8381463356D340058A01CE9247268519
:1005F0001AC6B385D70093F5F50F36C4013D3243D3
:10060000A24685061D46E39FC6FC9307140013947B
:10061000070182471387140041809374F70FE31F8B
:10062000F4FA410159B4EFF2BFA771112A84AE87E1
:10063000B2840386040019CABE8522853EC019040F
:100640008D3785041374F40F8247E5B71101B1BCEF
:10065000EFF21FA5AA84751585461D461375F50F83
:100660002E84813D9305D4FF26858D46054693F55E
:10067000F50F8135930514008D46054693F5F50F6A
:100680002685053D1DB4EFF2BFA17111938401854C
:100690000144A2850145993B8D3E13058007C9366B
:1006A00013050004753E81473387F40008233EC0DC
:1006B000453E8247130700088507E397E7FEBD3EE6
:1006C00005041374F40FA14793840408E313F4FCA6
:1006D00011016FF09F9DB727014023AAA74203A7EE
:1006E0008740B7064000558F23A4E74037270140D5
:1006F00083270740898BEDDF0325C74442054181ED
:100700008280EFF2FF99371702401C4FB706F100C5
:10071000FD1693E757231CCFB71701409843758FF9
:1007200098C39843B7060855558F98C3414798CB4F
:10073000B727014003A78740B7061E008506558FDF
:1007400023A4E74049314134EFF01FA0054561374C
:10075000B7070020239DA70E0145B53F2392A18036
:100760009305A00A0145D536014501399307A00A32
:100770006315F50005472382E1826FF01F93EFF2C6
:100780003F921301C1FB0545B9372A840145A137C2
:10079000B71701403707002094470346870F130718
:1007A000870FC18A32C0B337D00001C693B6160096
:1007B00036C01CA3B707002083D7A70F03D74180FB
:1007C000B307F440C207198D4205C1871307200300
:1007D00041856351F71C9387E7FC9D878507139735
:1007E000070141879307200363D6A71C9307E5FC05
:1007F0009D878507C207C18783C681808945369753
:100800009386818036C68D4663DAE5009306C0077D
:1008100063D4E6001307C0079376F70F3247094603
:1008200014A303C79180BA97138791803AC80D47E4
:10083000635AF6001307C0036354F7009307C0031D
:1008400013F7F70FC2471384018598A38147130755
:100850000040B306F400238006008507E39BE7FE13
:100860009306000413060008814501455D39814463
:1008700013F5F40FAD45593E850493070008E3993D
:10088000F4FE03C7618293866182914736C263F2A8
:10089000E714373600001306C6B58D45154561339C
:1008A00037360000130606B68D4513053002A53B0A
:1008B00037360000130646B68D4513051004A533E0
:1008C00037360000130686B68D451305F005A13BAB
:1008D000924798238D4763EEE70083C74182638286
:1008E000071237360000130686B78D45130520071B
:1008F0001D3BC2479823A94763EFE7009247854411
:100900009C23138797FF1377F70F63E5E410824763
:10091000639E070E02C0924785449C2363969726E8
:10092000A5465D46894511456936E5461306300200
:10093000AD451545FD3637360000130606B8BD45F2
:100940002945D53137360000130686B8E5452945D7
:10095000D939B247130710029C23E91793F7F70F11
:100960006365F720C247DD469823930747FF93F757
:10097000F70F63ECF61ED947AD467D4663E3E71EED
:10098000B5451D453D3682476386071E8D47124794
:100990001CA3CDA29306E0FC0147E3D5D7E49387DF
:1009A000270313D7F7411377F7073E971D877D1766
:1009B000420705BD9306E0FC8147E35FD5E21305DE
:1009C00025039357F54193F7F707AA979D87FD17DE
:1009D00015B56319F700373600001306C6B58D4507
:1009E0001545F5B5373600001306C6B68D451545D5
:1009F0001D3937360000130606B78D451305300242
:100A0000F9B5373600001306C6B7C5B59547124786
:100A10001CA309B71387B7FF1377F70F63E1E40C43
:100A2000B2475D479C23F11793F7F70F636DF7000B
:100A3000A5465D4689451145AD3C824789C7924729
:100A400002C023800700B2475D479C239387E7FDE0
:100A500093F7F70F6365F702A5465D4689451305D1
:100A60002002813C824781CF9247982395476318A3
:100A7000F7001247994702C01CA323880182B2479E
:100A80005D479C23938707FC93F7F70F636FF7008D
:100A9000A5465D46894513050004EFF09FA18247F6
:100AA00089C71247954702C01CA3B2475D479C23E4
:100AB000938727FA93F7F70FE36FF7E4A5465D46B0
:100AC00089451305E005EFF0DF9E8247E38407E4E4
:100AD000924798239547E310F7E4A1470DBF1147CC
:100AE0006397E702B2475D479C23F11793F7F70F2F
:100AF000E363F7E2A5465D4689451145EFF07F9B2C
:100B00008247E38907E092472380070021B5E394F9
:100B100007E0B2475D479C23F11793F7F70F636D2A
:100B2000F700A5465D4689451145EFF09F9882473D
:100B300081C7924702C084A3B24779479C23938719
:100B4000E7FD93F7F70FE368F7DCA546794689459B
:100B500013052002EFF0FF958247E38D07DA8947FE
:100B60007DB5DD451D45EFF0DF94824781C7924793
:100B700023800700C2478C23B2478823D13C21360B
:100B8000130141046FF06FD20947639BE708A54644
:100B90007946894513052002EFF0BF91E54613061B
:100BA0003002AD4513053002EFF0BF973736000035
:100BB000130606B9BD4513058002B534373600006B
:100BC000130646B9E54513058002B13CB247130749
:100BD00010029C239387C7FD93F7F70FE367F7F89D
:100BE000C247DD469823930747FF93F7F70FE3EEDD
:100BF000F6F6D947AD467D4663EBE700B5451305EC
:100C00005002EFF01F8B8247B5D7914749B3DD45BE
:100C100013055002EFF0FF898247A9DF954785BB96
:100C20000D476390E70A9306800213060005BD4551
:100C30006145EFF01F8F61441375F40FE145EFF04C
:100C4000EFFC050493078006E318F4FE3736000036
:100C5000130686B9C5457145EFF0FF9C3736000095
:100C6000130606BAF9457945EFF0FF9BAD46654698
:100C70009305A00213051004EFF0BF8A3736000079
:100C8000130686B79305C00213058004EFF0BF99E1
:100C9000C24725479C23938757FD93F7F70FE36BD4
:100CA000F7ECB2475D479C239387E7FB93F7F70F79
:100CB000E362F7ECA5465D469305B00213052004F8
:100CC0005DB511476398E720930680021306C006BE
:100CD000BD452945EFF0FF8437360000130606B9FD
:100CE000D1453D45EFF03F94AD464546C945130516
:100CF0006002EFF01F8337360000130686BAD14535
:100D000013059002EFF03F92AD465D46C9451305CD
:100D1000C003EFF01F81373600001306C6B3D1457C
:100D20001305F003EFF03F90C24729479C23B91702
:100D300093F7F70F6360F718B2473D479C239387FB
:100D400097FD93F7F70F6360F702A5463D46CD4543
:100D500013057002EFF0EFF5824791C7A3829182ED
:100D6000B717014084CBB24755479C23938737FC84
:100D700093F7F70F6361F702A5465546CD45130576
:100D8000D003EFF00FF3824799C7A3820182416736
:100D9000B717014098CB373600001306C6BA930543
:100DA00080023D45EFF03F888346442A8307642A4A
:100DB0000307542A93E606022302D42A1367070581
:100DC0008346042E93E787F8A302E42A2303F42A38
:100DD0000307F42D8307E42D93E606021367070546
:100DE00093E787F82300D42E130600039546930556
:100DF000B0021305A002A30FE42C230FF42CEFF094
:100E00004FF203C6A1808D469305C0021306B607B4
:100E100006061376E60F1305C002EFF08FE9C2470E
:100E200031471384A1809C23938797FD93F7F70F95
:100E3000E362F7D4B24721479C239387F7FD93F7EA
:100E4000F70F6368F7029D4615469305A002130548
:100E50003002EFF00FE6824789CF1C201547637AF6
:100E6000F700FD1793F7F70F1CA037370140232E2B
:100E7000F7C2B24721479C23938757FA93F7F70F9E
:100E8000E36AF7CE9D4615469305A0021305C005FB
:100E9000EFF02FE28247E38F07CC1C206147E36B22
:100EA000F7CC850793F7F70F1CA037370140232EA7
:100EB000F7C2C9B183C75182AD4681CB4546C9450A
:100EC00013056002EFF0EFDEF9B55D46C945130585
:100ED000C003CDBF15476388E700138797FF1377DB
:100EE000F70FE3E5E42603C6718083C62183938769
:100EF00021833EC4138771806315D60083C7618048
:100F0000B1CB9387818281462246042213061003C7
:100F1000B69493F4F40F63659602938404288604D0
:100F2000268536CC3ECAEFF04FC5D24788A313853D
:100F30001400EFF08FC4D247E24688B31387718064
:100F4000850611468907E391C6FCA2479C231CA392
:100F500023830180930620031306C007B545094586
:100F6000EFF02FDCB54493F5F40F7145EFF00FCAA5
:100F700085049307F003E398F4FEB7360000138668
:100F800006B9C1451545EFF00FEA373700001306E3
:100F9000C7BAE1451545EFF00FE9B73700001386F2
:100FA00007BB930500021545EFF0EFE7B7340000EB
:100FB000138644BB930580021545EFF0CFE69247B8
:100FC000B7360000373700008C23B73700001546CE
:100FD00036D23AD43ED626D8639CC502B247614782
:100FE0009C23F51793F7F70F6364F702C247314765
:100FF0009C23637FF700138707FF1377F70F99464A
:1010000063E5E642A5466146BD450D45EFF06FCA72
:1010100013878182938781823ACEC14402CC3EDA23
:10102000A24762479C23BA9793F7F70F3ED0025727
:101030009307100363E0E70CF24723110104130741
:10104000A0039C232301E104A9453EDEF2479C3323
:101050003ECA8257138717003A853ADCEFF08F8536
:101060006257130505032300A104A9453A85EFF053
:10107000EF8913050503A300A1049000A6851305BD
:101080000002EFF04FDAF25705476395E73E3EDC8A
:101090009257A68513054003138607B9EFF0AFD822
:1010A0005247E2576303F73C373600001306C6B3D6
:1010B000A6851305C004EFF00FD783C7118302572D
:1010C000639CE7009385F4FFA5461306000593F59E
:1010D000F50F7945EFF0EFBDE24785073ECC9387EA
:1010E000A40093F4F70FF247624789073ECE914779
:1010F000E318F7F2834734179304100793E7470088
:10110000A309F4168347241793E787002309F416ED
:101110008347441793E78700230AF41613F5F40F67
:10112000D145EFF0AFAE850493076007E398F4FE76
:101130009304100713F5F40F93052003EFF00FADA0
:10114000850493076007E397F4FE8347243793E70A
:1011500087002309F4368347443793E78700230A3F
:10116000F4368347343793E70701A309F4369247EF
:10117000982395476317F70CB24735479C2393870D
:1011800027F993F7F70F6365F706C24721479C23BA
:10119000C11793F7F70F6361F70295462546C545DA
:1011A00013050007EFF0EFB0824799C7A2479C23D1
:1011B00081C72247FD171CA3C24721479C23938761
:1011C00027FD93F7F70F6365F702954625469305CC
:1011D000100313050007EFF0CFAD824791CBA24774
:1011E0001307D0029C236365F700224785071CA3E1
:1011F000B247130710059C23911793F7F70F63600D
:10120000F740C24788239307700245151377F50FFF
:1012100063E7E73EA945EFE0FFE99374F50F939587
:101220002400A6958605BD052A84A546130600055B
:1012300093F5F50F7945EFF0CFA78247639A072E14
:1012400002C0924798239D476316F70C9306C0028D
:1012500013068005A9455145EFF06F9E9306C00225
:1012600013068005A9455145EFF0AFAB37360000B6
:101270001306C6BBB9451305D002EFF0CFBA22471B
:1012800083C711831823854413841183998F525780
:101290008607BA979C233ECA63999740BD46694624
:1012A000F9457945EFF0EFA737360000130686BA07
:1012B0009305200213053002EFF0EFB6BD466946F4
:1012C000F94513056004EFF0CFA53736000013068B
:1012D000C6B39305200213058004EFF0CFB4C247D4
:1012E00035479C23851793F7F70F6366F762B2477C
:1012F000E1469C23138717FE1377F70F63E3E63865
:10130000B5466146FD457D45EFF0AF9A824763974C
:10131000073002C092479823A147E31DF784930644
:10132000300213064006BD453945EFF04F91930654
:10133000300213064006BD453945EFF08F9E373623
:101340000000130606BFD1457945EFF0CFADB54695
:101350007946930500026545EFF0AF9C37360000F3
:101360001306C6BF930530027945EFF0CFABB54603
:1013700065469305000213056004EFF08F9A373637
:101380000000130606C0930530021305A004EFF019
:101390008FA9C2472D479C239387F7FD93F7F70F3B
:1013A0006362F75AB247F1469C23138767FE1377AF
:1013B000F70F63E6E656AD467146930510026945A0
:1013C000EFF02F8F8247638707FA130400502285BE
:1013D0009305F00FEFE07FF7130514004205930526
:1013E000F00F41810904EFE05FF64204418093076A
:1013F0004056E31EF4FC05472383E18012479547DE
:101400001CA3B247130740069C23C91793F7F70F95
:10141000E366F780C247130730029C23C51793F792
:10142000F70F636DF7FE6FF0EFF4938697FE93F678
:10143000F60F1D476366D700A5466146DD45F1B648
:10144000938617FE93F6F60F6366D700A5466146AE
:10145000FD4565BE938797FD93F7F70FE36AF7BAEB
:10146000A5466146930570024DB637360000130657
:1014700086B33DB989466390D704A257A685130564
:1014800040031386C7BAEFF00F9A52479547630A95
:10149000F700E547630CF70037360000130686B403
:1014A00001B937360000130606B419B1373600000B
:1014B000130646B4F5BE8D466399D704B257A68588
:1014C00013054003138607BBEFF0EF95D24705479E
:1014D000638EE70052479547630FF700A947630102
:1014E000F70237360000130686B5D9B63736000046
:1014F0001306C6B475BE37360000130606B54DBEDA
:1015000037360000130646B565B691EFC25713860D
:1015100047BBA68513054003EFF0EF90B7370000F7
:10152000138687BB71B6B7370000138687BBD5B764
:10153000A2479823930710033A9463CA87009387BE
:1015400011839423631AD40A12479D471CA3C247F0
:10155000854631479C2336C0E375F7CE3247E146D6
:10156000182375171377F70FE3ECE6CC938607FF84
:1015700093F6F60F19476377D708938687FE93F69D
:10158000F60F6374D708938607FE93F6F60F637120
:10159000D708938787FD93F7F70FE363F7CA81476F
:1015A0008144138711830823A6853EC013050528AF
:1015B0000605EFE09FD913871183082382470605AC
:1015C000BE8513051550EFE05FD805472383E18002
:1015D00093871183A9E098239306000363E4E60050
:1015E000050798A322479C2318230D07E35AF7C445
:1015F0002247F5171CA3A9B1BA9484A389BF8247D7
:10160000B9F73DB98547854469BFBD47894451BF96
:10161000A9478D4479B79D471247E9BF0820854502
:10162000060513051550EFE05FD252472383E18092
:10163000124795471CA31C20130700036364F7009F
:1016400085071CA022471C2018230D076355F700AF
:101650002247F5171CA3B247130780059C23B11737
:1016600093F7F70F636BF700C2471307C0029C2381
:10167000D91793F7F70FE37EF7C8124795471CA3D6
:1016800049B9938797FB93F7F70F63E6F628B546BA
:101690006146FD4513057004EFE0BFE18247E38A30
:1016A00007C6082081450605ADBF52478947631F1D
:1016B000F70EBD465D46F9456145EFE09FE63736DA
:1016C0000000130606B4930520026945EFE0BFF55C
:1016D000BD465D46F94513054003EFE09FE437360C
:1016E0000000130686B49305200213056003EFE0A3
:1016F0009FF3BD465D46F94513050005EFE07FE227
:1017000037360000130646B4930520021305200562
:10171000EFE07FF1C24735479C23851793F7F70F1A
:10172000636BF71EB24755479C23938677FE93F66B
:10173000F60F636FD700B5465546FD456545EFE0AA
:101740005FD78247E38707BC08209545060525A09B
:101750009386B7FC93F6F60F6366D702B5465546F7
:10176000FD4513055003EFE0DFD48247E38307BA5A
:101770000820BD45060513051550EFE01FBD238366
:1017800091807DB59387F7FA93F7F70F6365F718A4
:10179000B5465546FD4513051005EFE09FD182473C
:1017A000E38907B60820E5450605F1B752478D479E
:1017B0006316F714B14613064002E5456145EFE0B4
:1017C0005FD637360000130646BCED457545EFE0A1
:1017D0009FE5B14613064002E54513052004EFE0FE
:1017E0005FD4373600001306C6BCED451305700400
:1017F000EFE07FE3B14613064002930570026145B6
:10180000EFE03FD237360000130646BD9305900245
:101810007545EFE05FE1B1461306400293057002A3
:1018200013052004EFE0FFCF373600001306C6BDD6
:101830009305900213057004EFE0FFDEB2479306B4
:1018400020029C23138777FE1377F70F63EDE604DE
:10185000C247A9469C23138767FE1377F70F63EFF0
:10186000E60013062002E9456545EFE09FC4824784
:10187000E38107AA082085450605F5BD938787FD06
:1018800093F7F70F63E9F608A946130620029305BC
:1018900080026545EFE0FFC18247E38C07A6082080
:1018A000A9450605C9BD9387D7FB93F7F70F63E4F6
:1018B000F606C247A9469C23138767FE1377F70FE6
:1018C00063E8E60013062002E9451305300485BDF0
:1018D000938787FD93F7F70F63EFF602A946130688
:1018E00020029305800213053004EFE09FBC82477D
:1018F000E38107A20820F9450605B5BD373600008B
:10190000130646BEF9451305A002EFE0DFD182477A
:10191000E38107A031BB8247E39F07D2DDBA9387FB
:1019200097FB93F7F70F5D47636EF700AD465D4693
:101930009305100213057004EFE0BFB78247638B75
:1019400007A26DBC8247638707A265BC19476393F2
:10195000E7A2A5465D46894513052002EFE07FB565
:10196000B94613060005E5456145EFE09FBB3736F4
:101970000000130646C0F14513052002EFE0BFCA80
:1019800083C7818113848181639D070C1387018341
:101990000823130505280605EFE03F9E1387018302
:1019A0002AC40823060513051550EFE01F9DA24623
:1019B00093870183639F96041306F5FF1336160081
:1019C000A382C1826313D50437170140854614CB27
:1019D0009823050798A398239307100363F5E7005E
:1019E000124795471CA3824799E36FF0AF98C2470F
:1019F0009823A94763E4E7006FF0CF971247954714
:101A0000230004001CA36FF0EF9637170140C16656
:101A10007DBF09466399C6002385A180B736014082
:101A200023AEA6C275B70D466395C602854614A0BF
:101A30002AC4EF00506C224723AEA1801315170073
:101A40003A950E053A950A0523A0A1829387018352
:101A500059B71307F00FE38DE6F69246154798A2A3
:101A60009DBFEF00506983A7C1811D8D83A70182AF
:101A7000E36BF5F6938701839823230004000507A1
:101A800098A395B70145828082807D558280EFE2E0
:101A90002FE11C417111CC81DC43930531000546D7
:101AA000829711016FE06FE0EFE28FDF7111930514
:101AB00031004105EF00905F09E5888111016FE079
:101AC000CFDE7D55E5BFEFE2AFDD2E85B285EF00BD
:101AD000504D6FE08FDD13F7F50FC54763EDE7005D
:101AE0008D67938707C90A073E9793F705700C43E4
:101AF000CD8F5CD5828093F6050C1306000CFD5744
:101B0000E399C6FE9306700CE3E5E6FE93F7F50352
:101B10000D67130707C78A07BA979C430D6713071A
:101B200007C98A07BA9793F505709C43D1B713F795
:101B3000F50FC54763EDE7008D67938707C90A076F
:101B40003E9793F705700C43CD8F1CD5828093F69A
:101B5000050C1306000CFD57E399C6FE9306700CA6
:101B6000E3E5E6FE93F7F5030D67130707C78A075A
:101B7000BA979C430D67130707C98A07BA9793F56D
:101B800005709C43D1B7EFE2AFD19307803E1CC5EF
:101B90008D67938707CE1CC10CC9232205009305CE
:101BA000600C2A840D3F9305500C22854937585408
:101BB0001C546314F700FD575CD4FD571CD85CD847
:101BC0006FE0AFCEEFE2CFCDB74501409385058002
:101BD000138501C54D3F6FE04FCDEFE26FCC184547
:101BE00019E3EF0030545C4582976FE00FCC11E1B0
:101BF00001A0EFE2EFCA2A8408418545352B0DC1CB
:101C00001C40DE27858B89CF2285EF00101B084101
:101C10005C5D81C713054503C937084085450D2B19
:101C20006FE0AFC803A5418319C11105C93773001F
:101C3000203011E101A01C41DA27098B11EBDA27D2
:101C4000118B19E7DA27218B01E7DA27418B3DC792
:101C5000EFE20FC52A8489453E85F9291C4015C14C
:101C600089453E85F52185442285EF001015084100
:101C700092049384440326951C4591C3B93F6FE0B9
:101C8000CFC23E8591454D291C4011C591453E85E9
:101C9000C1218944D1BF3E85A14579291C4011C588
:101CA000A1453E8575218D44C1B7C1453E85692159
:101CB00045DD0840C145914461297DB7828003A577
:101CC000418319C11105B53773002030711122C04D
:101CD00013844183484011C51105113F4840110547
:101CE000893F0244110173002030EFE26FBB2A8468
:101CF000EF00704048C41C402285DC4B8297635A39
:101D00000500EF00503F5C441D8D1C44E365F5FE6B
:101D10007D556FE08FB9EFE2AFB86111AA8401443D
:101D20002EC232C0630DC4002685C1376349050049
:101D300092450246B387850088A30504D5B722855E
:101D400021016FE08FB6EFE2AFB55111014495C6A6
:101D5000B684AA8701443E8532C42EC23EC0713784
:101D6000634D05009245630AB5002246824733075A
:101D7000860008A30504E39084FE228531016FE00C
:101D8000CFB2EFE2EFB1E1206FE02FB2EFE24FB15F
:101D900085476301F50219C589476303F5020145CB
:101DA0006FE0AFB0114585458D2E37150140130505
:101DB0000580FDB7414585458D2637150140CDB7D6
:101DC000130500028545912E371501401305054086
:101DD000C1BF03A5018483A5418482808280EFE294
:101DE0002FACC53F6FE06FAC9387018403A307005E
:101DF00083A34700130713003335670098C3B30666
:101E00007500D4C3E13FB7F700E023A207007300D9
:101E10002030EFE2EFA837F400E023220400232073
:101E200004002324040003A5C1809305803EEFE055
:101E3000EFA87D1508C8BD471CC07D57B7E700E077
:101E40002386E740056723A0E7106FE00FA6EFE2C7
:101E50002FA5C1376FE06FA5814705476307E500F0
:101E60008507058193F7F70FD5BF370700208E0749
:101E700013070700BA97DC4391C7EFE26FA282977E
:101E80006FE0AFA28280611122C226C00544A14446
:101E90002285152019C52285352813150401418195
:101EA000653FFD140604EDF41244824421017300E1
:101EB000203082808280B70701401387074083A7C4
:101EC0000740584B698F09C77D8D3335A00082804C
:101ED00001458280B707014023AAA74082809C4524
:101EE000611122C226C013F7070113F3F70001C7DF
:101EF000D8413363E30092211377F60F29C7832378
:101F00000500014713048002930480048546B395BD
:101F1000E600B376B6006392D50293122700BD4661
:101F2000B396560093C6F6FFB3F37600B312530090
:101F3000B3E37200639787064CC90507A146E31710
:101F4000D7FC232075001307F00F6378C7048323A1
:101F50004500A14613048002930480040547B31290
:101F6000D700337756006394E202139726000117D7
:101F7000BD45B395E50093C5F5FFB3F37500331781
:101F8000E300B363770063928702232A5500850636
:101F90004147E395E6FC2322750012448244210167
:101FA0008280E39C97F80CC949BFE39297FE2328EF
:101FB0005500F1BF37030140032743009317350055
:101FC00063D00702B707C0FFF517F98F370700077F
:101FD000D98FD9CD370700F07D17798DC98F49A8E2
:101FE000635D0500B707E0FFED17F98F37070007BE
:101FF000D98FBDCD06050581D5B7B707300093163B
:1020000005013376F500C1826313F602370600F945
:102010007D16B377C70003274300798E2322C300C0
:10202000A1C95581131745003395E60045BF9317A5
:10203000B50063D407029357050113F6F7008D47E7
:10204000B397C70093C7F7FFF98F37070007D98FFA
:1020500085C1135755011207C1BF5581120533952C
:10206000A6009347F5FFF98F37070007D98FBDF515
:10207000370701405CC382807300203001A0EFE28B
:102080002F82371702405C4391462A84B18B6385C7
:10209000D700A146638DD706B7376E0193870760D7
:1020A0001CC0B7160240DC42918313F7F700B70754
:1020B000002093874705BA978C23DC42184093F59C
:1020C000F50F93F707083355B70081E73A85EFD04E
:1020D000FFFE48C008C448C4B7170240DC43AD83C4
:1020E000FD8B13D737008A07F18BD98F93F6370111
:1020F0000D476373D700D117370700201307070474
:10210000BA978C23EFD09FFB08C86FD01FFA5C43AF
:10211000B777DC02938707C061B799C537170240CC
:102120001C4F5D8D08CF8280B7170240984F134532
:10213000F5FF798D88CF82801E294A25ED8F4205D3
:10214000418189C76D8D3335A00082800145828031
:1021500093C5F5FFC205C1810EA98280EFD25FF45D
:102160001629F577FD17F58FF621DA252111D58F80
:102170001EA95625FD779387379FF58FD6212A8490
:102180002EC0D58F9625D58FB625D58F5EA55E2915
:10219000C207C18393F7F7CF5D8F5AA94800C535B1
:1021A000B74701409387078082456312F406C24710
:1021B0005A24139517003E9542070E0541873E9518
:1021C0008C41635807048605EFD05FEF9305400606
:1021D0002AC0EFD0BFEE8247931445009305400616
:1021E0003E85EFD07FF05E24C207C18763D507022A
:1021F0000E059305400613052503EFD03FEC1D891E
:10220000C98CC204C18006A461016FD01FEAB24725
:1022100045B78A0555BF12059305400613052503EA
:10222000EFD0DFE93D89E9BF91C55E250967D98F08
:102230005EA582805A25F977FD17F98FD5BF93F5F2
:10224000F51F4EA182804A211375F51F82805E29F9
:1022500089C593E787005EA98280C207C183DD9BA1
:10226000C207C183CDBF0A216D8D3335A0008280A6
:10227000B71702409843B706FFFC1367170098C3CF
:10228000D843758FD8C39843B706F7FEFD16758FF0
:1022900098C39843B706FCFFFD16758F98C3D443C7
:1022A00041777D17F98ED4C3B7069F0094C7B72630
:1022B00002409042719A90C290421366160090C2FA
:1022C000D443D4C3D443758FD8C3D843B7060001D1
:1022D000D8C39843558F98C3984393166700E3DD9E
:1022E00006FED843B7160240719BD8C3D843136784
:1022F0002700D8C32147DC42B18BE39EE7FE8280F2
:10230000EFD21FDA311102C402C602C8FD576313AF
:10231000F50001A093D7854093F4F7079377F50074
:10232000139727008D67938707D7BA979C4311812E
:102330003D892E843EC0EFF07FA52AC28DC485451D
:102340000545EFF09FDD9387F4FF6947636DF70064
:102350000D678A07130747D0BA979C438287854544
:102360000545EFF03FC593572440137734008D8B1C
:102370007DC73AC609476380E70E0D47638FE70CB8
:1023800005476388E70CC1473EC8EDA08145C9BF3A
:102390008545370500100905E9B785453705401023
:1023A000DDBF8145E5BF854537050080110555BF77
:1023B00085453705208075B7854537052080FDB7F1
:1023C0008145E5BF3705160085451305050451BF56
:1023D0008545370516001305050861B7854537059E
:1023E00016001305050CB5BF8145D5BF370518008C
:1023F000854513050510B5B7370518008545130544
:10240000052085B78545370518001305053091BFB0
:102410008145D5BF85452165A9B78145EDBF854576
:10242000370520008DBF8145E5BF85453705200074
:10243000B5BF8145E5BF85453705200069BF8145AA
:10244000E5BF8545370530001305054019BF8145B7
:10245000D5BFD14715BFE14705BFF14735B70547A0
:102460006383E70299C789466381D7029307800295
:1024700021BF02C8824712452C007C84EFF03FA6A2
:1024800051016FD09FC2914701B711840D88930706
:102490008004E31DE4FCCDBDFD577D57631DF500B1
:1024A00082806399A700EFD2BFBF8C45EFF05FE554
:1024B0006FD0BFBFB1059C41E395E7FE01A07D57FA
:1024C0009C416394E700014582806394A700C84162
:1024D0008280B105F5B7FD576307F500EFD25FBC09
:1024E000F93F6FD09FBC014582806305B50019C1DB
:1024F00081E5AA852E8582808145EDBF01A001A0DE
:1025000001A001A001A001A001A001A001A001A0C3
:1025100001A001A001A001A001A001A001A001A0B3
:1025200001A001A001A001A001A001A001A001A0A3
:1025300001A097E1FF1F9381613C138181F0171582
:1025400000001305A58B97E5FF1F9385A5AB1386A8
:10255000818163FAC5008322050023A0550011057F
:102560009105E3EAC5FE13858181938581D2637766
:10257000B500232005001105E36DB5FE93020008A8
:10258000739002308D427390428097E2FFFF9382F6
:1025900062A793E2320073905230170500001305D2
:1025A000653A512ED92EEFF0BFCC970200009382EE
:1025B000A233739012347300203071158280EFD2F1
:1025C0003FAE1301C1FDAA84084D32C60D662EC46C
:1025D000930586C53ACA36C8EFF0FFEF2AD0C84C3B
:1025E0008D66938506C4EFF01FEF2A8488508D65B1
:1025F000938585C2EFF03FEE2AC0C8508D65938564
:1026000005C1EFF05FED02570D668D662AC232CC30
:1026100036CE630B070ED04CFD566304D60063051F
:10262000040E9050FD566305D6008247638E070C5A
:10263000D050FD566305D60092476387070C3A8554
:10264000A285EFF09FEA824588C0EFF01FEA92452D
:1026500088C0EFF09FE988C045C93747014013079C
:102660000780631BE50085451165EFF01FAB13077D
:1026700000022386040298D4E247884C938587C5DC
:10268000EFF09FE119C4F247C84C938507C4EFF0FF
:10269000BFE08247814689CB88508D65938585C28E
:1026A000EFF09FDF93060010924799CBC8508D65DD
:1026B00093E60620938505C136C0EFF0FFDD824624
:1026C000A24703C7C40288409CC4B2471316270020
:1026D000DEA4D247138781843297FEA4C2471386B3
:1026E000440010C33147C8C09EA8BAA8D6A801E4C8
:1026F0008545EFF0DFB5C84093858400EFF01FA655
:10270000C8408545EFF05FB2130141026FD0FF99D9
:10271000EFD21F998D6783A747C80D67130707C9B5
:102720008A07BA9780438D65938585C52285EFF02A
:102730009FDA05C137050020F1659307450601477B
:1027400081460146938505201305450680CFEFF0AD
:102750001FE76FD09F95EFD2BF948347C5029305C3
:1027600000021397270093878184BA979C4388437C
:10277000EFF07FAF133515006FD03F93EFD25F922C
:102780008347C5029305000413972700938781842C
:10279000BA979C438843EFF01FAD133515006FD0F7
:1027A000DF90EFD2FF8F411137040020AA842EC2A0
:1027B000EFF02FE29307440683C7C7022AC413042D
:1027C000440685E70347C402938781840A07BA97C2
:1027D0009C43F1173EC0938781843EC68247C1EF78
:1027E00002C2124541016FD05F8C8D6783A747C835
:1027F0000D67130707C98A07BA979C438D669385AF
:1028000086C53E853EC0EFF01FCD8D6671D923068B
:102810000402138781841C4399EF8347C402850710
:1028200093F7F70F2306F402FDD7EFF07FEE83470F
:10283000C402C9DB75B70245938586C5EFF0BFC9F1
:102840000346C4021387818493172600BA979C43DA
:102850008D669C43E393A7FC35D6C1BFEFF06FD7DD
:10286000A247B307F5403335F500E39BA5F6130700
:10287000703EE367F7F60245EFF05FF065F19247CF
:10288000A6973EC4A247E38EF4F40245EFF01FEF93
:102890006DFD8347C402324785048A07BA979C437B
:1028A00083C5F4FF8843EFF09F99E9BF11E57D559B
:1028B00082807D556FD06FFFEFD28FFEAA842E8469
:1028C000EFF07FE97DF583C7C40213972700938754
:1028D0008184BA979C438843EFF0FF9608A0014596
:1028E000D1BF8280EFD2CFFBEFF0AFC9EFD07FE155
:1028F000EFD0FFE8F5BFEFD2AFFAEFF04FCE6FD0D9
:10290000CFFA05C1EFD2CFF92A84EFF04FCDAA84D8
:10291000EFF03FFDEFF0AFCC058DE36B85FE6FD0A0
:10292000CFF88280511106C409205111194506C4FF
:102930000D2205450124AA85814601460145B1A223
:102940005111970700009387674B22C217040000BC
:102950001304C44A1D8C26C006C40984BE8419E42D
:102960001244A240824431016FF0AFD47D1493171A
:102970002400A6979C438297DDB7511122C2970786
:10298000000093872747170400001304A4461D8CFA
:1029900026C006C40984814463968402EFF08FD177
:1029A00097070000938707451704000013040445A8
:1029B0001D8C0984814463928402A24012448244A3
:1029C00031018280139724003E97184385040297B3
:1029D0009707000093870742C1B7139724003E97DB
:1029E000184385040297970700009387A740E1B733
:1029F000FD4763F6B700D9471CC17D5582807C41F5
:102A0000411122C406C62E862A8491C71397250039
:102A1000BA97984319EB228532C0BD20AA8522853A
:102A200022440246B24041011DA885460145630883
:102A3000D700FD566319D700D9471CC00545B240E1
:102A40002244410182802E8523A007000297014580
:102A5000FDB793870181AA8588436FF07FF95111F3
:102A600022C22A842E85B28523A201D206C46D28F3
:102A7000FD576317F500938741D29C4391C31CC057
:102A8000A24012443101828051A89387C1849C43A3
:102A9000AA8399EF138781C923A6E18417D5FFFF85
:102AA00013054556BA8709C51C4123A0F1D2BA8740
:102AB000D8437D437D556346E304638D030203A33E
:102AC000870863000304931227009A9223A0C20090
:102AD0000325031005463316E600518D2320A3106D
:102AE00023A0D20889466397D30083264310558ECE
:102AF0002322C310930617000A07D4C3BA978CC7C2
:102B00000145828097D7FFFF9387C74F99C7170565
:102B10000000130525E36FF01FE282809307800514
:102B200023A2F1D27D5582809307800523A2F1D2A2
:102B30007D55828001A000004F4E20004F46460088
:102B40004D494E004D4158004D494400302E310052
:102B5000302E3500312E3000332E300045534300E7
:102B600052554E0053545000434C52005359530099
:102B70004C4F4144000000004F4B00004E47000006
:102B8000494E464F000000004558495400000000DF
:102B90004C4544005345440053595354454D00009F
:102BA00056312E30300000004F4E00005352560078
:102BB000444C5900454E44002D2D2D0053455420C2
:102BC00056414C00302E317300000000302E35731A
:102BD00000000000312E307300000000332E3073EF
:102BE000000000004E4F20504152414D00000000B7
:102BF000434C45415220414C4C3F00005945530045
:102C00004E4F000052554E4E494E472E2E2E00007C
:102C1000230000000038014018000000FFFFFFFF04
:102C20000000000000000000120000000038014019
:102C30000B000000FFFFFFFF00000000000000008D
:102C4000260000000038014018000000FFFFFFFFD1
:102C500000000000000000002500000000380140D6
:102C60000B000000FFFFFFFF00000000000000005D
:102C70000100000000000000060000000C00000041
:102C80000D0000000F000000100000000E0000000A
:102C90000100000002000000100000001100000010
:102CA00012000000130000001400000015000000D6
:102CB00016000000170000002000000021000000A6
:102CC0002200000023000000240000002500000076
:102CD00026000000270000000000000000000000A7
:102CE0008E1A0000C61A0000841A0000881A00001C
:102CF0008A1A0000A81A00008A1A0000161D000097
:102D0000461D00005E2300008C230000902300007D
:102D10009A230000A2230000A6230000B023000095
:102D2000B8230000C0230000C4230000D02300000B
:102D3000DC230000E8230000EC230000F82300005F
:102D40000424000010240000142400001A240000B1
:102D50001E240000262400002A2400003224000043
:102D6000362400003E240000422400004E240000CF
:102D70000100000002000000040000000800000044
:102D80001000000020000000400000008000000053
:102D90000000000000000000000000000000000033
:102DA0000000000000000000000000000000000023
:102DB0000000000000000000000000000000000013
:102DC0000000000000000000000000000000000003
:102DD00000000000000000000000000000000000F3
:102DE00000000000000000000000000000000000E3
:082DF000042B0000C41B0000CD
:102DF80014000000000000001400000000000000A3
:102E08001400000000000000140000000000000092
:102E18001400000000000000140000000000000082
:102E28001400000000000000140000000000000072
:102E38000204060804080C1008101820102030405E
:102E4800204060800102030405060708010203040C
:102E58000506070800000000000000000000000050
:102E6800000000000000000000000000FFFFFFFF5E
:102E7800FFFFFFFFFFFFFFFFFFFFFFFF0000000056
:102E88000100000000000000B02D0000D02D00005F
:102E9800902D00000000000000000000000000006D
:102EA800000000000000000000000000000000001A
:102EB800000000000000000000000000000000000A
:102EC80000000000000000000000000000000000FA
:102ED80000000000000000000000000000000000EA
:102EE800000000000000000001000002000201FFD5
:102EF80040200F00006CDC0294000020000000005D
:00000001FF
