:020000040000FA
:020000002128B5
:0800080021280B1D08000B115B
:10001000910A08301102031D080091018C0A3C303E
:100020000C02031D08008C018D0A3C300D02031DDB
:1000300008008D018E0A18300E02031D08008E0183
:100040000800850186018316FC3085008601813019
:10005000810083128B0180308600051485100F30DB
:10006000940064309500950B3328940B3128783038
:100070009A000514851005309500950B3D28051054
:10008000851405309500950B43289A0B39280510E7
:1000900085140F30940064309500950B4D28940B17
:1000A0004B288510860185018E018D018C019101FF
:1000B0008F015A2805200F0803196528013A0319F2
:1000C0006D28033A031980289528052085018601AB
:1000D000051D6B285A289001AA280520970A1708A1
:1000E00007399800E7208600C020920B5A28B120DB
:1000F00019089B00D72002308F00283093005A281F
:1001000005201B08970098010A309702031C8A28D3
:10011000980A8428E7208600C020930B5A28D7200D
:1001200003308F00283093005A2805201B089700C1
:100130000A309702031898280A3017079800E7201A
:100140008600C020930B5A28D720900A0330100253
:100150000319AF2801308F00643092005A288F01B4
:100160005A2810080319BA28FF3E0319BD280C08A5
:10017000990008000E08990008000D089900080071
:1001800010080319C728FF3E0319CF28CB280514F0
:100190008510E220080005108514E22008000514EF
:1001A0008510E22005108514E220851008008501E5
:1001B0000530940005201E309500950BDD28940B2A
:1001C000DA2808000F309600960BE428080018087B
:1001D0000F3982073F3406345B344F3466346D3454
:0801E0007D3407347F346F34D5
:02400E00F03F81
:00000001FF
