:100000006F20206F00000000162100001A21000060
:1000100000000000000000000000000000000000E0
:1000200000000000000000000000000000000000D0
:100030002A1B000000000000C22600000000000093
:10004000C4260000C6260000C8260000CA260000FC
:10005000C81B0000CE260000D0260000D2260000DB
:10006000D4260000D6260000D8260000DA2600009C
:10007000DC260000DE260000A0140000B6140000FC
:10008000E4260000E6260000E8260000C217000073
:10009000EC2600006C1800007A1800000000000038
:1000A0003D432A876373C3029377F700BDEFADE545
:1000B000937606FF3D8ABA960CC34CC30CC74CC757
:1000C0004107E36BD7FE11E28280B306C3408A0684
:1000D0009702000096966780A6002307B700A30644
:1000E000B7002306B700A305B7002305B700A30494
:1000F000B7002304B700A303B7002303B700A3028C
:10010000B7002302B700A301B7002301B700A30083
:10011000B7002300B700828093F5F50F9396850012
:10012000D58D93960501D58D61B7939627009702DB
:10013000000096968682E78086FA9680C1171D8F0A
:100140003E96E374C3F8A5B7511126C022C206C477
:10015000828282441244A240310182802A86014573
:1001600093F6150091C2329585810606F5F98280D5
:1001700000000000634E050263C305042E86AA85B5
:100180007D5515C285466378B6006356C0000606E5
:100190008606E36CB6FE014563E4C500918D558D7E
:1001A00085820582F5FA82808682C93F2E85828209
:1001B0003305A04063D70500B305B040C1B7B30510
:1001C000B0408682653F3305A0408282868263C745
:1001D0000500634905005D372E858282B305B04076
:1001E000E35B05FE3305A040513F3305B0408282FA
:1001F0000000EFF27FF51C4193F5F50F9C438297C9
:1002000089BFEFF27FF437040020130544188145BD
:10021000EF00F060B725060013054418938505A884
:10022000EF00901D89451D45EF20302E8945214561
:10023000EF20B02D89452545EF20302D0145EF10E9
:10024000F06D130544189305C003EF00D01B8145E2
:1002500013054418793F9305E00A13054418513FEC
:1002600093050002130544186937814513054418A6
:1002700049379305D00813054418A53FD145130508
:100280004418853F9305F00A130544189D3713055C
:100290004418EF00502675BDEFF21FEB5571930720
:1002A000310CE19B1305200C3EC0EF2070232AC4C3
:1002B0009307300663C5A7009307E01F3EC403C73A
:1002C0008184938781843EC601CFB707002083A530
:1002D00007102245613583A58180693D23A8A1804F
:1002E0001D45EF20B0319377F50F21453EC2EF2039
:1002F000F0309377F50F25453ECCEF2030309377E3
:10030000F50F3ECE938741803EC893844185924746
:1003100063900732C24705479C23639CE700EF20A8
:10032000F03623A6A184A38401845145EF20D03662
:1003300035A88DEF138491841C208DEBEF201035B0
:1003400083A7C1841D8D9307703E63F1A702130537
:10035000000CEF20F0182247B707002023A0A710B9
:1003600023A4E180854723A004001CA0C2471247B4
:100370001384518098A39387A1843ECA9387C18038
:100380003EC2E24785E7182085476311F70283C71D
:1003900081856393072CD24752479C2385078D8B19
:1003A0001CA323A004005145EF20102FE2471CA0FE
:1003B000F2471384618085E7182085476311F702AF
:1003C00083C78185639C072CD24752479C238D07A6
:1003D0008D8B1CA323A004005145EF20F02BF24786
:1003E00022451CA0D2479C2313972700916793872F
:1003F000479EBA978C439D339305E01F06059D3BAE
:10040000B2472ACE02D49C231357154099E783A7FD
:1004100001813387E7403AD43E8792478840B3044E
:10042000A7009823A94711E3D957B387F4401304D1
:10043000C05D7D14420441806314042A1305000C3E
:10044000EF20100AAA871304C05D7D144204418086
:100450006319042A83C7018502C402C813972700C1
:1004600091679387479FBA979C433ED89307F03F85
:100470003ECC93870185BEC81305000CEF205006C3
:10048000B2479C233ED689EBC24763D3A7002AC854
:10049000E2476353F5002ACCA257F2451D8D93170E
:1004A0004500898F8A073385A740E9311307D003B8
:1004B0003305A7408546894763D8A6006354A70043
:1004C0001305D0039377F50F2247D40836971CA362
:1004D000C257639C0724A24785073EC4224793075F
:1004E0005006E31BF7F8B25791EB6247C247BA9741
:1004F00013D7F701BA97858723A8F180A257F24551
:100500009D8C13954400058D0A05058DA531930733
:10051000D0033387A7403AC863D3E7003EC84247B9
:1005200089476353F7003EC8B70400209305C00312
:1005300013854418EF00206D814513854418553903
:1005400093051002138544186D31814513854418B5
:100550004D319305F0071385441861399305200246
:1005600013854418793181451385441859319D45C7
:1005700013854418BD3913854418EF00C07702C0B5
:1005800026C4A2479305C003008013854718EF00D7
:100590008067A24793050004814413854718913969
:1005A0009317340093F7F70F3ECE93E777003ED4CE
:1005B00082478E073ED6824785073EDAB257A107AB
:1005C0003EDE937714003ED842578147631E072CC6
:1005D00099452685D13E1377F50F15463ACCC2577B
:1005E000630DC70299452685513E1375F50F624785
:1005F000631A0424D247902393172600116613062A
:10060000469D3E962A961C2213952700AA971165AF
:10061000130505963E953A951C2103C68185631600
:100620000626631A042693C7F7FF93F7F70FADACBE
:1006300012478547E31CF7D2C2479C23E39807D2B1
:1006400083C79184E39307CE138481850820954561
:100650000505AD3E08A0D1B96398E7001387018571
:100660001C2385078D8B2DBB09476396E7009C40B3
:1006700095079CC00DBB0D476399E7009247124751
:100680009C2393C717001CA339BB1147E39DE7D0F8
:10069000B24732479C2393C71700F5B76398E7002A
:1006A000138701851C238D078D8B25B3094763961E
:1006B000E7009C40ED179CC005B30D476399E70028
:1006C000924712479C2393C717001CA331B31147CD
:1006D000E394E7D0B24732479C2393C71700F5B79E
:1006E0001305000C3EC4EF20A05F1247A247182359
:1006F0003335F5001345150013471700E31BE5D20A
:1007000035BB1305000C3EC4EF20805D9247982353
:10071000A24719C763D49700E35E95D2AA8735B381
:10072000E3DEF4FEE3CCA4FE35B3B7F700E0984770
:10073000024602DC3ADAD2566257814514C658C6E0
:10074000804BC257814605041385F7FF2286EF30A0
:10075000C01881461306803EEF201049824782462A
:10076000AAC69847DC47B7F000E098C2DCC2014750
:10077000814783A68000024582C036DE72568646D7
:1007800010C554C510415441032385008323C5007F
:1007900063E0D30663947600636CC304824690469C
:1007A000D44632D036D282469042D442B2C2B6C487
:1007B0001646825626453383C64033B666009256A7
:1007C0003385A640118D3E93B336F3003A953387B7
:1007D000A600824602459A879046D44610C154C16D
:1007E000E369B7F8E399E5CEB646E364D3F8E5B13B
:1007F000824603A3060083A346009046D44632D027
:1008000036D282563385664033B6A60092563303FD
:1008100085003335A300B38676403386C6403295D3
:100820005DB7DD47E3F297DA1306F0078147638A85
:10083000C4220247630307101D466311C4109307C7
:10084000000CEDA88947631AF400C647902393175C
:10085000260011661306469C6DB391476319F40098
:1008600092479023931726001386C18359BB1946DC
:10087000CD47E31BC4D8B2479C2313962700938728
:100880004183B297AA979C2341B38545631BB60861
:100890008945E30AB4D891456318B40089456317C4
:1008A000B6082D46E37196D8138714001377F70F17
:1008B0003ACC83448101BE85A2471387F4FF1377A6
:1008C000F70F138547183AD00924825713F6F7001B
:1008D000BD476317F602A247138547182929025717
:1008E0009307F007630EF700A2479305C003138533
:1008F0004718112EA2479305000413854718D538D1
:1009000083078101E3DF07F0A24713854718E52637
:10091000D2573EC00247A147E315F7C669616FF0A1
:100920005F839145E319B6F69945A5B78D45E31D5B
:10093000B6F62D46E37A96F6FDB18D47614663859E
:10094000C4121306E0076381C4121306B004639B4C
:10095000C40002470D4693E757056319C70493E7A0
:100960000708A9A03ED0E247A945138557FBB9382F
:10097000825705E1024705466305C700194663141F
:10098000C40093E7870002470946631CC70093E74A
:10099000070202470D46631BC70013F6140019C671
:1009A0007DBF1546E317C4FE93E72700138374FE4B
:1009B0001373F30F9809B305670003C645F8630E78
:1009C000030483C235F89375F60F63F4C20093F500
:1009D000F20F1375F60F6374560013F5F20F72479A
:1009E0006360E5042257636DB7027247014663E412
:1009F000E50013F6750022579D426364A7009372C9
:100A0000750005459375F60F63ECB200B315C5008C
:100A1000AD8F93F7F70F0506F5B7B282B28555BFD4
:100A2000094663606604654689456386C40013878A
:100A300064FE93351700424705453306B740050766
:100A40002E97B256634CD600F2566359D600937572
:100A50007600B315B500CD8F93F7F70F0506E312B7
:100A6000E6FE62470507A9B59307F00FDDBF014514
:100A700082801A2D6A293305A74082807E29162D8F
:100A80002A8763F8D7001449BE96850788227EAB73
:100A900082807D5582807A291E2D6376F7001C495D
:100AA000BA97882382807D558280084D8327050A66
:100AB00081CFEFF26FE98327450A23110502130561
:100AC000850982976FF0EFE88280EFF2EFE78347C6
:100AD00045027111CC812A84B1C3263193070040AD
:100AE000850463C997041E3163FF970093070002D2
:100AF00063F4F40093040002484CA685EF20A07133
:100B000009CD48CC06B036305C4C98810545B69787
:100B100098A33E3085073EB019A801A0054693056D
:100B2000310013058502EF00301013351500110157
:100B30006FF02FE20145E5BFEFF20FE103474502F9
:100B400061112A84B28725C3263113070040B2946D
:100B5000636997041A31AE86637497041307000221
:100B600063F4E40093040002484CA6853EC236C0FC
:100B7000EF20606A824692471DC148CC06B03A30E9
:100B8000484C3E86B6853A953EC0EF2020443A3028
:100B900082473E973AB03E8521016FF08FDB01A07E
:100BA000F9FC8147CDBF42064182130585023EC054
:100BB000EF009007824765D1EDB71C4581CBEFF27E
:100BC000AFD8AA850D4682976FF0AFD88280930781
:100BD000803E1CC591679387C7A01CC191672328DD
:100BE00005082320050A9387C7BDD847232205009F
:100BF00078C19C4B3CC58280EFF20FD5130585026E
:100C000045236FF00FD5854786052302F5022CADED
:100C10002311050282805E2963F6B702EFF2CFD27C
:100C2000930700022E8463F4F50013040002AA84E3
:100C30000849A285EF20205E09C588C8C2A86FF0C8
:100C40004FD101A08280EFF22FD0004D44556111A9
:100C5000032704091DCF76281A2C63ECE6022AC06C
:100C6000A68522854D3F82470848268693858703BF
:100C7000EF20C03583270409231B040006AC26C2DD
:100C800099E3EF206026832744094C00130584086C
:100C9000829721016FF0EFCB584D11CBEFF2CFCA05
:100CA000123181453A85EFF0AFBF6FF08FCA828075
:100CB000EFF28FC903472508854791446319F7026E
:100CC0002E873631504D2C2D2A8413058502B123F1
:100CD0008D47914463E7A70093874184AA97838453
:100CE00007002285553F231104022302040213F555
:100CF000F40F6FF00FC6EFF22FC58545553F6FF02B
:100D00004FC5EFF26FC42A84231B0500231C050086
:100D1000084909C552288145EFF08FB82311040214
:100D200022859D3F6FF0EFC2EFF20FC2AA846841A7
:100D30001301C1FA13047103EF10F05E8145EF1047
:100D4000D07CEC400947619893D74500BD8B0145A5
:100D50006369F700370700208A0713070700BA976F
:100D60008843BD898547B395B700C205C181EF109F
:100D7000A010631B051CA844EF10F05A8545EF1026
:100D8000D078D1473EC4AC440947014593D74500CC
:100D9000BD8B6369F700370700208A071307070038
:100DA000BA9788438547BD89B395B700C205C1810D
:100DB000EF10600DB7F700E0984702C825463AC625
:100DC000B2464247814514CC58CC83A207018146E4
:100DD000938712003E853ED6EF2030301306803ECA
:100DE0008146EF206060184C5C4CAA8218C85CC831
:100DF0002E8381470147B7F600E0944602CC36CAFD
:100E00005246E24610CC54CC10485448084C4C4C46
:100E100063E0D5146394B600636CC512104C544C57
:100E2000084832C036C282464C48B383A64033B627
:100E3000760092463385B640118DBE93B3B6F3006B
:100E4000104C3A953387A600544C10C89E8754C85E
:100E5000E36367FA6314E300E3EF53F8AC44094734
:100E6000014593D74500BD8B6369F7003707002024
:100E70008A0713070700BA9788438547BD89B3954A
:100E8000B700C205C181EF00D07FB7F700E09847F7
:100E900002D025463ACEF2460257814514C458C4C2
:100EA00083A207018146938712003E853ED6EF203C
:100EB000D0221306803E8146EF20005318445C4444
:100EC000AA8218C05CC02E8381470147B7F600E0B4
:100ED000944602D436D21256A25610C454C41040BE
:100EE000544008444C4463EBD5086394B6006367F0
:100EF000C50810445444084032C036C282464C40B3
:100F0000B383A64033B6760092463385B640118D42
:100F1000BE93B3B6F30010443A953387A600544409
:100F200010C09E8754C0E36367FA6314E300E3EFE5
:100F300053F8A247FD173EC4E39707E4A844EF1017
:100F4000903E8145EF10705C130141056FF06FA07A
:100F500008484C48104C544C32C036C28246B380CC
:100F6000A64033B6160092468D8E3386C640B256E2
:100F7000B383D00033B513003295C1B508404C405F
:100F80001044544432C036C28246B380A64033B6C1
:100F9000160092468D8E3386C640B256B383D0007B
:100FA00033B513003295ADB7EFF20F9A9397150052
:100FB000FD1593B51500A302F5022301B508A301A1
:100FC000C5082302D50823280500232A0500231C71
:100FD0000500230D050028C1232E0500232005024E
:100FE000230205022A84893383465402930484022F
:100FF000E16511669385056A26858D20834724085F
:1010000089EFB71500009385A5AA26854129B71554
:101010000000938565C4268541216FF08F93EFF220
:10102000AF922E868146854541376FF08F92EFF261
:10103000AF9113854188613E6FF0AF91EFF2CF9091
:101040001384418891679387C7A0130584091CC046
:10105000AD361305840895366FF0AF8F6301051424
:10106000EFF28F8E31112A84484D36C691662EC01C
:10107000938546AB32C4EF10405F2AC80850916494
:101080009385C4A9EF10605E4247916636C2AA8577
:1010900063040710630205103A85EF10006108C071
:1010A000630C050E37570040130707406319E5022C
:1010B000854537052000EF100017814537052000D2
:1010C000EF106016854537052000EF1000127947B4
:1010D00058D07D4718D41307440023AEE18408504C
:1010E0009385C4A9EF1080549247484C938547AB31
:1010F000EF10C05308408247E1669386066A48C0F5
:10110000368763F1F602B7260600938606A836876F
:1011100063FAF600B7460F0093860624014763E39F
:10112000F60036878247E16618C4231604009386CA
:10113000066A116763E4F60031677D17B2477AA447
:10114000130700401EA8A2473AA80347A4055EA8BB
:1011500005EF5A2154500546136707705AA113D75B
:10116000560013070704B315D6000A07B7E600E0D8
:1011700036970CC30C5413D75500130707040A07FE
:101180003316B600369710C393058400EF00305C29
:1011900008408545EF00D06951016FE09FFB8280D8
:1011A000EFE29FFA61671307076A71112A84AE8420
:1011B000BA876371B70237270600130707A8BA87F3
:1011C000637AB70037470F0013070724814763632B
:1011D000B700BA87084081453EC0EF00706582477E
:1011E00061671307076A1CC4916763649700B1675E
:1011F000FD1708407EA493058400EF005055084079
:101200008545EF00F0628347A40589C708408545FE
:10121000EF00D06611016FE0DFF3EFE2FFF2311172
:101220002A842EC832C436C03AC2EF00B00EAA8457
:1012300048408545EF0090644840B7050200EF0044
:10124000B06939E5EF00100D2AC648408545B7045E
:101250000300EF00705F85044840A685EF009065AD
:1012600021C9EF00300B2AC6C24548400146B704E9
:101270000700EF001063938424084840A685EF0020
:1012800070631DCD8247B5EB9247D1EF014531A880
:10129000EF005008058D8D47E3F0A7FA924789C704
:1012A00048408545EF00F05B154551016FE07FEA4E
:1012B000EF005006B2471D8D8D47E3FFA7F8F9BF39
:1012C000EF005005B2471D8D8D47E3F8A7FAF9B737
:1012D0004840B705001093850508EF00F05F11CD79
:1012E000A2474840850783C5F7FF3EC4EF00B05AC8
:1012F0008247FD17C207C1833EC08247F1FBEF0062
:101300007001B70407002AC0938444084840A685AA
:10131000EF00505A35F9EF00E07F82471D8D8D4771
:10132000E3F6A7FE51B748408545EF009053B9BF9B
:10133000EFE29FE12A840841B7040010938504403E
:10134000EF00905911C5084093850440EF00F05B11
:101350000840B704001093850410EF00F05711C542
:10136000084093850410EF00505A6FE09FDEEFE2D3
:10137000BFDD2A840841B7050010C105EF00D05534
:1013800009C508408545EF00B04A6FE09FDCEFE2F9
:10139000BFDB2A840841B704001093850404EF00E2
:1013A000B05301C9938404040840A685EF00D052CD
:1013B00015E50840C145EF00F04F31E50840B7059D
:1013C000001093850508EF00305109C55C5899C39A
:1013D000228582972285A93F6FE0BFD70840EF00A2
:1013E000D04B834784057D47E360F7FC8347840542
:1013F000A297238CA70283478405850793F7F70FED
:10140000230CF40455B78347840593F7F70F5CD496
:10141000230C04045C546356F0001C5899C32285C5
:1014200082972285A93759BFEFE21FD23111AA84D2
:101430002EC432C6EF00006E2AC202C00144B24779
:101440006366F400024551016FE0BFD0A247C84077
:10145000A2978C2305041374F40FEF00D043B70751
:101460000600938747083EC8C245C840EF00904435
:1014700079F5EF00206A92471D8D894763EBA7003D
:101480008840EF00904445DD26855D352685C535CD
:10149000E1BF95473EC065B70CD982804CD98280A8
:1014A00003A5C1859387818198437115050798C36A
:1014B000F93D73002030938741819843050798C315
:1014C0007300203082807D558280EFE2FFC71C418F
:1014D0007111CC81DC4393053100054682971101DF
:1014E0006FE03FC7EFE25FC6711193053100410520
:1014F000EF10C05E09E5888111016FE09FC57D5541
:10150000E5BFEFE27FC42E85B285EF10804C6FE01F
:101510005FC413F7F50FC54763EDE7009167938745
:10152000C7BD0A073E9793F705700C43CD8F5CD576
:10153000828093F6050C1306000CFD57E399C6FE56
:101540009306700CE3E5E6FE93F7F50311671307C6
:10155000C7BB8A07BA979C4311671307C7BD8A07A1
:10156000BA9793F505709C43D1B713F7F50FC547AC
:1015700063EDE70091679387C7BD0A073E9793F72E
:1015800005700C43CD8F1CD5828093F6050C130695
:10159000000CFD57E399C6FE9306700CE3E5E6FEEA
:1015A00093F7F50311671307C7BB8A07BA979C43E4
:1015B00011671307C7BD8A07BA9793F505709C4357
:1015C000D1B7EFE27FB89307803E1CC59167938740
:1015D000C7C21CC10CC9232205009305600C2A84D4
:1015E0000D3F9305500C2285493758541C54631401
:1015F000F700FD575CD4FD571CD85CD86FE07FB571
:10160000EFE29FB4B7450140938505801385C192F1
:101610004D3F6FE01FB4EFE23FB31C452A8481CBFE
:101620000D46AA85829723240400232604002285E0
:101630006FE03FB2B7370140938707C06308F500FA
:10164000B70700406316F50005458280014582809A
:1016500041657D158280EFE23FAF2A84084DD93F76
:10166000AA8413058401EF1020158A0413850186CE
:101670002695232A0400930444082320050013041C
:10168000440363878400C1142685EFF00FD3D5BFD0
:101690006FE03FACEFE25FAB71112A84C1642E852D
:1016A0002EC0FD14413F82456313950001A01C4CE0
:1016B00091C301A093172500138501863E959307DA
:1016C00044011CC1930700085CD4930700041CD894
:1016D0000CCC1305840140C8232E040023200402EF
:1016E00023120402EF10E009130544032D371305FC
:1016F0004404153713054405393F13054406213FBB
:1017000013054407093F084C23200400232204004A
:10171000232404002326040023280400232E04008D
:1017200004D08545EF00F036084C9305C401EF0066
:10173000703111016FE0FFA1EFE21FA1232E05021E
:1017400023260504232E050423260506232E05063D
:10175000232C05008137B7E700E0214723A2E710DB
:101760001307000223A2E7101307000423A2E710C7
:101770006FE03F9EEFE25F9D184519E3EF10C076E2
:101780005C4582976FE0FF9C11E101A0EFE2DF9BD7
:101790002A8408418545EF00703115C11C40DE27C1
:1017A000858B91CF2285EF00907D08415C5D81C7DC
:1017B00013054503C13708408545EF00B0306FE0A1
:1017C0005F9903A5018619C111057D3F7300203083
:1017D00011E101A01C41DA27098B11EBDA27118BEB
:1017E00019E7DA27218B01E7DA27418B3DCFEFE2BA
:1017F000BF952A8489453E85EF00502B1C401DC1B2
:1018000089453E85EF00102C85442285EF00307716
:10181000084192049384440326951C4591C3993F43
:101820006FE03F933E859145EF0050281C4019C55D
:1018300091453E85EF0010298944C1BF3E85A145F1
:10184000EF00D0261C4019C5A1453E85EF0090272A
:101850008D4465BFC1453E85EF0050255DD50840EC
:10186000C1459144EF0010264DB7828003A5018643
:1018700019C11105B13F73002030711122C01384CA
:101880000186484011C511050137484011058937C7
:101890000244110173002030EFE21F8B2A84EF1005
:1018A000E05E48C41C402285DC4B8297635A0500E9
:1018B000EF10C05D5C441D8D1C44E365F5FE7D5555
:1018C0006FE03F89EFE25F886111AA8401442EC274
:1018D00032C0630DC4002685C137634905009245B7
:1018E0000246B387850088A30504D5B72285210168
:1018F0006FE03F86EFE25F855111014495C6B684E3
:10190000AA8701443E8532C42EC23EC07137634D62
:1019100005009245630AB5002246824733078600D8
:1019200008A30504E39084FE228531016FE07F82E5
:10193000EFE29F81B12C6FE0DF81EFE2FF8085470E
:101940006302F50219C589476305F50201456FE099
:101950005F8011458545EF0070073715014013057D
:101960000580F5B741458545EF0050063715014024
:10197000F9BF130500028545EF00500537150140FA
:1019800013050540E9B7EFE22FFC9165938505A3A8
:10199000EF0070503D819377F50125476373F700A1
:1019A00001A01165130505C53E9508216FE06FFA8A
:1019B000EFE28FF9B7270140938707406317F500DF
:1019C000854513050020EF00700003A5C181931722
:1019D000350163C707009165938505A3EF001045A6
:1019E0006FE02FF7EFE24FF68145BD2C6FE06FF609
:1019F000EFE28FF50111AA84614681452800EFE0EE
:101A00002FEA939734012313010063D907008567F8
:101A1000850763E597006380F40801A091659385CD
:101A200005A32685EF0070442A842685A93FAA874E
:101A300022853EC023AE9180A53F3165C52505476F
:101A4000230EE1002C0037070E0022853ACA02CC93
:101A500002C602C402C8D122854522852320040083
:101A60002124824722859D4693F5F70F05460D24D4
:101A700085452285112489452285C12C6DDD7C4454
:101A80002285C207C1837C83B13F2285A52228839A
:101A900005616FE00FEC37240140A14713040440B7
:101AA00041BFEFE26FEA916651119385C6AC2AC03F
:101AB000EF00B03BEFF01FB81317250093840186A9
:101AC000BA948C401384018602468DE59166938515
:101AD000C6AC32853AC4EF0050392AC2130540081B
:101AE000EF10A03D92452AC0EFF01FC59C408246F2
:101AF000224794C3B307E4009C43804309C822856E
:101B0000EFF07FB5930540082285EF10403D31018D
:101B10006FE02FE403A5818683A5C1868280828041
:101B2000EFE28FE2C53F6FE0CFE29387818603A3A8
:101B3000070083A34700130713003335670098C3DA
:101B4000B3067500D4C3E13FB7F700E023A2070056
:101B500073002030EFE24FDF37F400E0232204006F
:101B6000232004002324040003A541829305803E22
:101B7000EFE0CFE07D1508C8BD471CC07D57B7E733
:101B800000E02386E740056723A0E7106FE06FDCE5
:101B9000EFE28FDBC1376FE0CFDB8147054763079B
:101BA000E5008507058193F7F70FD5BF37070020BC
:101BB0008E071307C700BA97DC4391C7EFE2CFD86F
:101BC00082976FE00FD98280611122C226C005443E
:101BD000A14422855D2219C522857D2A13150401A1
:101BE0004181653FFD140604EDF412448244210155
:101BF00073002030B727014093870740631EF5002C
:101C0000EFE28FD4854513050020FD2B8145130598
:101C10000020DD2B6FE0EFD382805C413707F1FFBE
:101C20001307F7EF7D8FDC419441A207D58FD98F41
:101C30005CC11C4537F7F1FF1307D77FD4457D8F73
:101C40009C49D58F94458606D58FD98F1CC55C5588
:101C5000370710FF7D177D8FDC29FD1793F7F70FEE
:101C6000D207D98F5CD582801C4589C593E71700C0
:101C70001CC58280F99BEDBF1C4591C537075000FC
:101C8000D98F1CC582803707B0FF7D17F98FD5BF6C
:101C9000A54763F8B704138765FF931717008322DE
:101CA000C500BA971D433313F3001343F3FF337397
:101CB0005300B397F600B3E767005CC5994763E349
:101CC000C7047D16931726003E965859FD47B397D3
:101CD000C70093C7F7FFF98FB395C500DD8D4CD9C9
:101CE00082809397150003230501AE971D47331794
:101CF000F7001347F7FF33776700B397F6005D8F60
:101D000018C96DBFB14763E2C70265169317260075
:101D10003E961859FD47B397C70093C7F7FFF98F51
:101D2000B395C500DD8D0CD982804D1613172600A2
:101D300054553A96FD47B397C70093C7F7FFF58F01
:101D4000B395C500DD8D4CD5828008416D8D33354E
:101D5000A0008280138701821C43938601A13E95D7
:101D60006369D500938601D463E5A60008C33E8568
:101D70008280FD57EDBF82808280B70701401387C4
:101D8000074083A70740584B698F09C77D8D3335BE
:101D9000A000828001458280B707014023AAA740A6
:101DA00082809C45611122C226C013F7070113F3FC
:101DB000F70001C7D8413363E30092211377F60F90
:101DC00029C783230500014713048002930480047C
:101DD0008546B395E600B376B6006392D5029312BA
:101DE0002700BD46B396560093C6F6FFB3F37600C0
:101DF000B3125300B3E37200639787064CC905071B
:101E0000A146E317D7FC232075001307F00F637872
:101E1000C70483234500A146130480029304800471
:101E20000547B312D700337756006394E202139745
:101E300026000117BD45B395E50093C5F5FFB3F343
:101E400075003317E300B363770063928702232A98
:101E5000550085064147E395E6FC232275001244B0
:101E6000824421018280E39C97F80CC949BFE39228
:101E700097FE23285500F1BF08456D8D3335A0002E
:101E800082800CC982804CC98280370301400327BD
:101E900043009317350063D00702B707C0FFF5175B
:101EA000F98F37070007D98FD9CD370700F07D1795
:101EB000798DC98F49A8635D0500B707E0FFED176D
:101EC000F98F37070007D98FBDCD06050581D5B736
:101ED000B7073000931605013376F500C18263130E
:101EE000F602370600F97D16B377C70003274300D3
:101EF000798E2322C300A1C955811317450033955C
:101F0000E60045BF9317B50063D407029357050158
:101F100013F6F7008D47B397C70093C7F7FFF98F04
:101F200037070007D98F85C1135755011207C1BF65
:101F3000558112053395A6009347F5FFF98F3707B2
:101F40000007D98FBDF5370701405CC38280EFE2FF
:101F5000AF9F111146212A8428002EC0D12AC246E3
:101F6000C204C18093F404FCB7450F009385052497
:101F70003685C20436C2C180EFE04FA0458D4205D0
:101F800041814AA01E209246C207C183F99BC20725
:101F9000C1831EA082479043E1679387076A931528
:101FA000160063E6C7043685EFE04F9DAA87420519
:101FB000418191466373D500914713950701418193
:101FC0004AAC1E20024793E717001EA01E2056238E
:101FD0003227C207C183D18E93F757BFD58F1EA07A
:101FE00016275E27D58F1EA471016FE08F9682475A
:101FF000EA23B167FD176310F502B2953685EFE06D
:10200000EF97420541819317450199E31365150048
:10201000A1675D8D75B7B387C5008E07B385C7000F
:102020003685EFE0AF954205418191675D8DE1BF57
:102030001E2189C593E717001EA18280C207C183B4
:10204000F99BC207C183CDBF1E2189C593E7071045
:102050001EA18280C207C18393F7F7EFC207C18335
:10206000C5BF1E2189C593E707201EA18280C20734
:10207000C18393F7F7DFC207C183C5BF1E2189C59E
:1020800093E707401EA18280C207C18393F7F7BF81
:10209000C207C183C5BF0EA982800A291375F50F37
:1020A000828093F7E50F19C293E71500C207C18339
:1020B0001EA982805E290A2D42055D8D6D8D220547
:1020C00021810D8D1335150082805E290A2D420570
:1020D0005D8D220521818280611102C002C293D7E9
:1020E000C5012AC23EC08247A205A18199CB924771
:1020F000D1073EC29247884321016D8D3335A00040
:1021000082809247C181E107EDB793C5F5FFC20513
:10211000C1814EA982807300203001A0B716024011
:10212000DC4241771307F77FF98F5D8DC8C282804B
:10213000EFE28F81371702405C4391462A84B18BCE
:102140006385D700A146638DD706B7376E019387A5
:1021500007601CC0B7160240DC42918313F7F700FA
:10216000B707002093870706BA978C23DC421840F4
:1021700093F5F50F93F707083355B70081E73A85D4
:10218000EFD0DFFF48C008C448C4B7170240DC43A3
:10219000AD83FD8B13D737008A07F18BD98F93F668
:1021A00037010D476373D700D11737070020130796
:1021B000C704BA978C23EFD07FFC08C86FD07FF993
:1021C0005C43B777DC02938707C061B799C53717BF
:1021D00002401C4F5D8D08CF8280B7170240984F98
:1021E0001345F5FF798D88CF828099C53717024056
:1021F0005C4F5D8D48CF8280B7170240D84F1345A2
:10220000F5FF798DC8CF828099C5371702405C47AA
:102210005D8D48C78280B7170240D8471345F5FF48
:10222000798DC8C7828099C5371702401C4B5D8DD8
:1022300008CB8280B7170240984B1345F5FF798D84
:1022400088CB82801E2137370140130707C0C207A1
:10225000C1836306E500370700406316E500BA2135
:1022600093F7F7F8D98FFA2193F7F7CFC207C18315
:10227000D98F1EA1DE215EB59E211EB5B737014064
:10228000938707C06314F5009C251EB985475EA996
:1022900082801E2189C593E707081EA18280C2079C
:1022A000C18393F7F7F7C207C183C5BF1E294A252B
:1022B000ED8F4205418189C76D8D3335A000828045
:1022C0000145828093C5F5FFC205C1810EA98280B8
:1022D000EFD29FE71629F577FD17F58FF621DA255E
:1022E0002111D58F1EA95625FD779387379FF58F2E
:1022F000D6212A842EC0D58F9625D58FB625D58F89
:102300005EA55E29C207C18393F7F7CF5D8F5AA9F7
:102310004800EFF0FFE1B74701409387078082450F
:102320006312F406C2475A24139517003E954207DC
:102330000E0541873E958C41635807048605EFD012
:10234000FFE3930540062AC0EFD05FE38247931472
:102350004500930540063E85EFD01FE55E24C20789
:10236000C18763D507020E059305400613052503B3
:10237000EFD0DFE01D89C98CC204C18006A46101D1
:102380006FD03FDDB24745B78A0555BF12059305AB
:10239000400613052503EFD07FDE3D89E9BF91C5D7
:1023A0005E250967D98F5EA582805A25F977FD17CA
:1023B000F98FD5BF93F5F51F4EA182804A21137581
:1023C000F51F82805E2989C593E787005EA9828018
:1023D000C207C183DD9BC207C183CDBF0A216D8DBA
:1023E0003335A0008280B71702409843B706FFFC40
:1023F0001367170098C3D843758FD8C39843B7069F
:10240000F7FEFD16758F98C39843B706FCFFFD16BF
:10241000758F98C3D44341777D17F98ED4C3B7061F
:102420009F0094C7B72602409042719A90C2904292
:102430001366160090C2D443D4C3D443758FD8C357
:10244000D843B7060001D8C39843558F98C3984323
:1024500093166700E3DD06FED843B7160240719B72
:10246000D8C3D84313672700D8C32147DC42B18BB8
:10247000E39EE7FE8280FD577D576317F500014517
:1024800082806387A700B1059C41E39CE7FEC5BF3E
:1024900005458280EFD25FCB311102C402C602C86B
:1024A000FD576313F50001A093D7854093F4F70718
:1024B0009377F500139727009167938787CCBA9796
:1024C0009C4311813D892E843EC0EFF00FC72AC284
:1024D0008DC485450545EFF07FCF9387F4FF6947AD
:1024E000636DF70011678A071307C7C5BA979C4346
:1024F000828785450545EFF05F9993572440137710
:1025000034008D8B7DC73AC609476380E70E0D47BF
:10251000638FE70C05476388E70CC1473EC8EDA011
:102520008145C9BF8545370500100905E9B78545CF
:1025300037054010DDBF8145E5BF85453705008083
:10254000110555BF85453705208075B78545370589
:102550002080FDB78145E5BF370516008545130589
:10256000050451BF8545370516001305050861B7F9
:102570008545370516001305050CB5BF8145D5BF48
:1025800037051800854513050510B5B73705180040
:1025900085451305052085B78545370518001305C2
:1025A000053091BF8145D5BF85452165A9B78145D6
:1025B000EDBF8545370520008DBF8145E5BF8545C9
:1025C00037052000B5BF8145E5BF854537052000AB
:1025D00069BF8145E5BF85453705300013050540D6
:1025E00019BF8145D5BFD14715BFE14705BFF147A9
:1025F00035B705476383E70299C789466381D702E8
:102600009307800221BF02C8824712452C007C84B8
:10261000EFF02FF951016FD0DFB3914701B711846B
:102620000D8893078004E31DE4FCCDBDFD577D5765
:10263000631DF50082806399A700EFD2FFB08C453F
:10264000EFF05FE56FD0FFB0B1059C41E395E7FE89
:1026500001A07D579C416394E7000145828063940B
:10266000A700C8418280B105F5B7FD576307F500A3
:10267000EFD29FADF93F6FD0DFAD014582807D572E
:102680009C416394E7007D5582806394A700884550
:102690008280B105F5B7FD576307F500EFD2DFAAD9
:1026A000F93F6FD01FAB7D5582806305B50019C11E
:1026B00081E5AA852E8582808145EDBF01A001A01C
:1026C00001A001A001A001A001A001A001A001A002
:1026D00001A001A001A001A001A001A001A001A0F2
:1026E00001A001A001A001A001A001A001A001A0E2
:1026F00001A097E1FF1F9381E120138101F01715DD
:1027000000001305257797E5FF1F9385A58F138696
:10271000818463FAC5008322050023A055001105BA
:102720009105E3EAC5FE13858184938501A1637752
:10273000B500232005001105E36DB5FE93020008E6
:10274000739002308D427390428097E2FFFF938234
:10275000628B93E23200739052301705000013052C
:10276000E57AEF00C079EF00C07DEFF0DFC7970298
:1027700000009382623A7390123473002030711516
:102780008280EFD27F9C1841B7370140938707C002
:102790002A846318F7000565854513050580EFF069
:1027A000FFA21840B70700406316F70085450545AE
:1027B000EFF0BFA36FD0FF99EFD21F991841B73741
:1027C0000140938707C02A846318F7000565814597
:1027D00013050580EFF09F9F1840B7070040631670
:1027E000F70081450545EFF05FA06FD09F96EFD2CF
:1027F000BF951301C1FDAA84084D32C611662EC4CF
:10280000930546BA3ACA36C8EFF03FE62AD0C84C1C
:1028100091669385C6B8EFF05FE52A84885091658C
:10282000938545B7EFF07FE42AC0C8509165938542
:10283000C5B5EFF09FE30257116691662AC232CC0C
:1028400036CE630B070ED04CFD566304D6006305ED
:10285000040E9050FD566305D6008247638E070C28
:10286000D050FD566305D60092476387070C3A8522
:10287000A285EFF09FE3824588C0EFF01FE3924509
:1028800088C0EFF09FE288C045C937470140130771
:102890000780631BE50085451165EFF03F93130743
:1028A00000022386040298D4E247884C938547BAF5
:1028B000EFF0DFD719C4F247C84C9385C7B8EFF0E3
:1028C000FFD68247814689CB88509165938545B76D
:1028D000EFF0DFD593060010924799CBC850916571
:1028E00093E606209385C5B536C0EFF03FD4824607
:1028F000A24703C7C40288409CC4B24713162700EE
:10290000DEA4D247138701873297FEA4C2471386FD
:10291000440010C33147C8C09EA8BAA8D6A801E495
:102920008545EFF03FAAC84093858400EFF05F9A99
:10293000C8408545EFF0BFA6130141026FD07F81EB
:10294000EFD29F80916783A707BD11671307C7BDAB
:102950008A07BA9780439165938545BA2285EFF03F
:10296000DFD005C137050020F16593070507014752
:1029700081460146938505201305050780CFEFF0BA
:102980001FE76FD00FFDEFD22FFC8347C5029305E1
:1029900000021397270093870187BA979C438843C7
:1029A000EFF0DFA3133515006FD0AFFAEFD2CFF9F8
:1029B0008347C50293050004139727009387018777
:1029C000BA979C438843EFF07FA1133515006FD071
:1029D0004FF8EFD26FF7411137040020AA842EC2BE
:1029E000EFF04F939307040783C7C7022AC4130469
:1029F000040785E70347C402938701870A07BA974C
:102A00009C43F1173EC0938701873EC68247C1EFC2
:102A100002C2124541016FD0CFF3916783A707BD72
:102A200011671307C7BD8A07BA979C4391669385C0
:102A300046BA3E853EC0EFF05FC3916671D923066A
:102A40000402138701871C4399EF8347C40285075B
:102A500093F7F70F2306F402FDD7EFF07FEE8347DD
:102A6000C402C9DB75B70245938546BAEFF0FFBFD4
:102A70000346C4021387018793172600BA979C4325
:102A800091669C43E393A7FC35D6C1BFEFF08F88D6
:102A9000A247B307F5403335F500E39BA5F61307CE
:102AA000703EE367F7F60245EFF05FF065F192479D
:102AB000A6973EC4A247E38EF4F40245EFF01FEF61
:102AC0006DFD8347C402324785048A07BA979C4349
:102AD00083C5F4FF8843EFF0FF8DE9BF11E57D5515
:102AE00082807D556FD0EFE6EFD20FE6AA842E8468
:102AF000EFF07FE97DF583C7C40213972700938722
:102B00000187BA979C438843EFF05F8B08A001458B
:102B1000D1BF8280EFD24FE3EFE09FE1EFD06FEEC5
:102B2000EFD08FF7F5BF93574500BD8B094763661C
:102B3000F70211671307C7BD81471376F50FC94622
:102B40000C436397C50013750570C98F3E8582805D
:102B500085071107E396D7FED5BFC947C5BF937652
:102B6000850FAA878DEA1376F50F11671307C7BB88
:102B70000A063A96104213770570C545518F1376B1
:102B8000F70F63F2C5049375070C1305000C6389F6
:102B9000A50C7D5582801377050C1306000C7D551E
:102BA000631FC70A13F3F70F1307700C63616706FF
:102BB00013F7F70311661306C6BB0A0732971023F3
:102BC00045476366C70411671307C7BD0A063A96EF
:102BD000084213F7F70F8DC293F6070C1306000C8B
:102BE000130700706393C60293F6F70F1306700C79
:102BF000636DD60013F7F70391660A079386C6BB89
:102C0000369718435D8F13770770598D89A813077E
:102C1000700C6360670213F7F70311661306C6BBF7
:102C20000A07329718431306000C1377070CE312B8
:102C3000C7F69305700C7D5563E3650213F6F70341
:102C400011671307C7BB0A063A96104213F70770BD
:102C5000518F1376F70F1377F70363F9C50082805E
:102C60009305700C1377F703E3E5C5F211660A07C5
:102C70001306C6BB3297184391659385C5BD0A07F5
:102C80002E97084313F7F70F8DC293F6070C9305A1
:102C9000000C13070070E39AB6F693F6F70F93054E
:102CA000700CE3E4D5F613F7F7030A07329791BFE8
:102CB0006387C502637DB600918D8547B397B700E2
:102CC000636EF50005053355B5007D15828001C999
:102CD0000505B305B6403315B500C5BF0145828073
:102CE000EFD28FC6EFF0BFE7FD57630EF5001384F8
:102CF00081820C40EFE0DFCF03A6C1820C40EFF0F1
:102D00003FFB6FD00FC50145EDBF9377F50F4547EA
:102D10006366F70811678A071307C7BD3E97184314
:102D200093770570D98F7D576389E70CEFD2CFC1B8
:102D300013D42700138741971374C40322971843B1
:102D400093F4F700511133579700938641972EC0A3
:102D5000058B36C205CB91653E859385C5AC3EC4D7
:102D6000EFF06FF1A24709C53E85EFE09FD3A24780
:102D700012473A940547B3149700184093C4F4FFE0
:102D8000F98C04C0824615476368D706116713079C
:102D900087CE93952600BA95984102871377050C44
:102DA0009306000C631BD7041307700C6367F704CA
:102DB0009377F50311671307C7BB8A07BA979C433C
:102DC00011671307C7BD8A07BA979C43137505702F
:102DD000C98F91BF91453E85EFF0CFEB31016FD0A8
:102DE0004FB78D45CDBFE145FDB793058002E5B7EF
:102DF0008145D5B79D45C5B701A08280EFD2CFB43C
:102E00009377F50F45476366F70411678A07130741
:102E1000C7BDBA979C4313750570B365F50093D78A
:102E20004500BD8B094701456369F700370700205E
:102E30008A0713070700BA9788438547BD89B3956A
:102E4000B700C205C181EFF02F833335A0006FD0EA
:102E50004FB01377050C9306000CFD55E311D7FC1A
:102E60001307700CE36DF7FA9377F50311671307F7
:102E7000C7BB8A07BA979C4311671307C7BD8A0768
:102E8000BA978C4313750570C98D51BFEFD2CFAB84
:102E9000EFE01FC96FD0EFAB05C1EFD2EFAA2A84D4
:102EA000EFE01FC8AA84EFF0DFC6EFE07FC7058D13
:102EB000E36B85FE6FD0EFA98280511122C206C458
:102EC0002A8411E105442285C52811E5112811E164
:102ED00005200295CDBFA24012443101828001A895
:102EE0009387418788438280511106C41120D1A85D
:102EF0005111194506C4652E0545EF003026AA85F7
:102F0000814601460145C5A65111971700009387D8
:102F100027F622C2171400001304C4F51D8C26C026
:102F200006C40984BE8419E41244A24082443101DB
:102F30006FE07FE47D1493172400A6979C4382974B
:102F4000DDB7511122C2971700009387A7F117141C
:102F50000000130424F11D8C26C006C4098481449A
:102F600063968402EFE05FE197170000938787EF95
:102F7000171400001304C4EF1D8C0984814463926C
:102F80008402A240124482443101828013972400BB
:102F90003E9718438504029797170000938787ECA4
:102FA000C1B7139724003E971843850402979717DB
:102FB0000000938727EBE1B793870183AA858843B5
:102FC00049A293870183AA858843D1A8B3C7A500E6
:102FD0008D8B3307C50081E78D4763E7C702AA875A
:102FE000637EE50A942185078505A38FD7FEE3EB71
:102FF000E7FE8280942185078505A38FD7FEE3EB4A
:10300000E7FE02441101828093763500AA8789CABF
:10301000942185078505A38FD7FE93F63700C5BF9A
:103020009376C7FF138606FE63F5C706711122C0AB
:10303000C04903A3050083A38500C0CB804D23A016
:10304000670003A3450080CFC04D23A2670083A281
:10305000C50003A3050193854502C0CF03A4C5FFA6
:1030600023A4770023A6570023A86700938747026D
:1030700023AE87FEE3EEC7FAE3F3D7F8904191075A
:10308000910523AEC7FECDBF90419107910523AEB8
:10309000C7FEE3EBD7FEE3E7E7F482808280CDC191
:1030A00083A7C5FF511122C206C426C01384C5FFE1
:1030B00063D307003E94AA84C124938781879C43ED
:1030C00099EB2322040023AC81861244A24026857A
:1030D000824431015DA4637EF40014403307D400C0
:1030E0006396E7009843DC43369718C05CC0E1BFA5
:1030F000BA87D84319C3E37DE4FE94433386D700EF
:10310000631F86001040B29694C33386D700E31E37
:10311000C7FA10435843B29694C3D8C37DB76375BA
:10312000C400B1479CC055B71040B306C400631635
:10313000D70014435843B29614C058C0C0C371B7E7
:103140008280411126C293843500F19806C622C4BC
:10315000A104B14763F5F404B14463E4B4042AC0A4
:10316000212C1387818714438247368439E01387E3
:10317000C187184301EB3E8581453EC05D2023AEEB
:10318000A18682473E85A6853EC061287D5782473D
:103190006314E506314798C33E85C52229A0E3DEC6
:1031A00004FAB1471CC10145B24022449244410196
:1031B00082801840058F634E07022D466376E60035
:1031C00018C03A9404C031A058406392860223ACE0
:1031D000E1863E855D221305B40013074400619922
:1031E000B307E540F1D33E94098F18C075BFD8C22C
:1031F000CDB7A28640409DBF130435007198E3030C
:1032000085FCB305A4403E853EC021287D578247FA
:10321000E31AE5FA41B7938701832E86AA8588438E
:10322000B1AA511122C22A842E8523A601A006C468
:10323000EFE05FB2FD576317F5009387C1A09C4391
:1032400091C31CC0A240124431018280FD4763F645
:10325000B700D9471CC17D5582807C41411122C4F1
:1032600006C62E862A8491C713972500BA979843DD
:1032700019EB228532C0BD20AA8522852244024650
:10328000B24041011DA8854601456308D700FD569F
:103290006319D700D9471CC00545B24022444101FB
:1032A00082802E8523A0070002970145FDB79387F2
:1032B0000183AA8588436FF07FF9511122C22A84C5
:1032C0002E85B28523A601A006C45925FD57631794
:1032D000F5009387C1A09C4391C31CC0A240124437
:1032E0003101828085A5938701889C43AA8399EF49
:1032F0001387019823A0E18817D5FFFF130585D018
:10330000BA8709C51C4123A4F1A0BA87D8437D43DD
:103310007D556346E304638D030203A387086300BE
:103320000304931227009A9223A0C20003250310DE
:1033300005463316E600518D2320A31023A0D208A2
:1033400089466397D30083264310558E2322C310EA
:10335000930617000A07D4C3BA978CC70145828029
:1033600097D7FFFF938707CA99C717050000130572
:10337000E5B96FF0DFB882808280828081E5B28516
:103380006FF03FDC311106C822C626C411EAEFF007
:103390001FD18147C2403244A2443E855101828000
:1033A0002E8432C0AA843D200246A287E374C5FE63
:1033B000B285268532C2EFF0DFD8AA8761DD1246DA
:1033C000A2852AC0EFF09FC0A2852685EFF03FCDF1
:1033D0008247C9B783A7C5FF1385C7FF63D5070019
:1033E000AA959C413E958280130141FD06D422D2CC
:1033F00026D02A87AE8763910620B68432832A843A
:1034000063FEC50EC166AE826363D626B7060001B1
:103410006367D64893558601E1449716000093866A
:103420006694AE969422B69493060002858E99CA4D
:10343000B397D700B35497003313D600B3E2F40028
:103440003314D70093540301A68516851AC216C0FB
:10345000EFC09FD5124382422AC693170301C1834E
:10346000A68516851AC43EC0EFC05FD1AA852AC2C0
:103470000245EFC0BFCE3247935704019246420740
:10348000D98F224363FAA7009A971387F6FF63E464
:10349000670063ECA742BA86898FA6853E8536C64B
:1034A0001AC83EC4EFC05FD0A247A6852AC23E8597
:1034B000EFC0DFCCAA85AA84024542044180EFC058
:1034C000FFC99242B246C20233E48200637CA40088
:1034D00042439387F4FF1A9463656400F9146363AD
:1034E000A400BE849397060133E597008146B68514
:1034F000A250125482541301C102828011EA2EC2DA
:103500002AC081450545EFC07FC7924702472A83FD
:10351000C1666365D314B70600016366D3381356DA
:103520008301E144971600009386C683B29683C256
:10353000060013060002A6923306564063120614D4
:10354000131703014183B3876740935403013AC0C3
:103550008546A6853E8536C81AC63EC2EFC0DFC482
:1035600092472AC4A6853E85EFC05FC182452AC224
:10357000EFC0DFBE22479357040132434207D98F81
:10358000C24663FBA70012469A971307F6FF63E44F
:10359000670063EFA7323AC2898FA6853E8536C899
:1035A0001ACA3EC6EFC05FC0B247A6852AC43E8590
:1035B000EFC0DFBC8245AA844204EFC03FBAA242FA
:1035C0004180C246C20233E48200637CA4005243BD
:1035D0009387F4FF1A9463656400F9146363A4008D
:1035E000BE849247C20733E59700B685A2501254B5
:1035F00082541301C102828063E1D504C16563E78F
:10360000B604B705000163E8B62893D58601614387
:1036100017050000130505752E950C219A951303C7
:1036200000023303B340631D031063E2F628B3378F
:10363000C70013C51700814619A081460145B6850C
:10364000A250125482541301C10282809305F00FDC
:1036500063F2D52693D5860021435DBF9306F00F14
:103660001A86E3F166EC13568300A14465BD930608
:10367000F00FB285E3F3C6DA93558600A14471BB1F
:103680003313C300B3D6570093540301B397C70055
:10369000B35257003314C70013170301B3E7F20006
:1036A0004183A68536853EC21AC83AC036C4EFC0EB
:1036B000BFAFA2462AC6A6853685EFC03FACAA8515
:1036C0002AC40245EFC09FA932469247A24642064D
:1036D000C183D18F424363FBA7009A971387F6FFFC
:1036E00063E3671E63F1A71EF9169A973387A74015
:1036F000A6853A8536CA1AC83AC4EFC0FFAA22473F
:103700002AC6A6853A85EFC07FA7AA852AC40245A6
:10371000EFC0DFA4B24730822247C207D18F4243B5
:10372000D24663FBA7009A971306F7FF63E9671871
:1037300063F7A71879179A97C206898FD98E11BD9A
:103740003355B600B3966600C98EB353B7003ACC72
:103750003317660013D40601B3D4B7003AC4B39745
:10376000670013970601B3E7F3004183A28526851E
:103770003EC01ACA36C83AC2EFC01FA32AC6A285E5
:103780002685EFC0BF9FAA85AA841245EFC01F9D62
:10379000B2438247C246C20313D6070133E6C300D1
:1037A00052436247637BA60036969385F4FF636AB3
:1037B000D6106378A610F9143696098EA285328544
:1037C0003ACC1ACA36CE32C8EFC01F9E4246A285F6
:1037D0002AC63285EFC09F9AAA852A841245EFC077
:1037E000FF97B24230805243C20233E6C2006247C2
:1037F000637CA600F2469305F4FF3696636FD60A03
:10380000637DA60A79143696C1669382F6FFA246B6
:1038100093970401C18F33F45700098EB3F2560019
:1038200032C293D3070193D4060122859685EFC057
:10383000FF922AC0A6852285EFC05F922A849685D2
:103840001E85EFC0BF91AA82A6851E85EFC01F917D
:1038500082461694C182369463745400C1663695CC
:10386000935604013695924663E3A6026385A6004B
:103870003E858146E9B3416682457D16B376C40034
:10388000C2066D8E33176700B296E373D7FE1385B9
:10389000F7FF81466DB393D50601414395BB935520
:1038A0000601C1449DBE13560301C144A5B981461A
:1038B000054571B3B6850143A1BB2E84B1B73287EC
:1038C000A5BDAE84DDBDBA8615B5F9169A97E9B6E1
:1038D0001307E6FF3AC29A97C1B121112AC236C036
:1038E00006CAAA8622C826C6328732C48147014545
:1038F000014333866600937317003304F50093D2B7
:10390000F6010583B33466008607638503003385BB
:10391000840032838606B3E7570061FFAA8789C512
:103920002245EFC0BF83AA97024711C71245BA8547
:10393000EFC0DF82AA97D2404244B2441A85BE85C6
:10394000610182809307800523A6F1A07D558280C6
:103950009307800523A6F1A07D55828001A0000079
:103960003E5149453E00427F400042615149462157
:1039700041454B311814127F1027454545393C4AC3
:103980004949300171090503364949493606494913
:10399000291E00606000001F2040201F7F090901D0
:1039A0000101017F01017E1111117E3E4141412241
:1039B0007F4141221C04027F020420407F402000FE
:1039C000000000000C1301000C1302000C13050092
:1039D0000C0100000B050A000B020A000B010A0093
:1039E0000B000A05170100007000000038000000FD
:1039F0001C00000000000000050000001400000092
:103A0000320000000000000000000000CA0A0000B0
:103A1000380B00006E0A0000020D0000720A000060
:103A20007C0A0000960A0000C4180000F418000088
:103A3000020000000024014000000000010000001E
:103A40000024014000800000140000000024014018
:103A5000000001002200000000240140008001005D
:103A600023000000002401400000020025000000A7
:103A700000240140008002000600000000240140F4
:103A80000000030004000000002401400080030047
:103A9000FFFFFFFF00000000000000001200000018
:103AA000005400400F000000FFFFFFFF0000000077
:103AB0000000000011000000005400400F00000052
:103AC000FFFFFFFF000000000000000024000000D6
:103AD000000000400B9100002300000000000040A7
:103AE0000B11010010000000000000400B910100CC
:103AF00027000000000000400B110200220000001F
:103B0000002C01400B8D000001000000002C014042
:103B10000B0D010013000000002C01400B8D010073
:103B200014000000002C01400B0D020020000000DA
:103B3000002C01400B8D000002000000002C014011
:103B40000B0D010021000000002C01400B8D010035
:103B5000FFFFFFFF00000000000000002300000046
:103B60000038014018000000FFFFFFFF00000000C8
:103B70000000000012000000003801400B000000AF
:103B8000FFFFFFFF00000000000000002600000013
:103B90000038014018000000FFFFFFFF0000000098
:103BA0000000000025000000003801400B0000006C
:103BB000FFFFFFFF00000000000000000100000008
:103BC00000000000060000000C0000000D000000D6
:103BD0000F000000100000000E00000001000000B7
:103BE00002000000100000001100000012000000A0
:103BF0001300000014000000150000001600000073
:103C0000170000002000000021000000220000003A
:103C10002300000024000000250000002600000012
:103C2000270000000000000000000000CA1400008F
:103C3000021500006E0A0000C4140000C614000043
:103C4000E4140000C6140000C4180000F4180000BA
:103C5000000102030405060708090000F224000021
:103C600020250000242500002E2500003625000018
:103C70003A250000442500004C2500005425000092
:103C80005825000064250000702500007C250000F8
:103C9000802500008C25000098250000A425000048
:103CA000A8250000AE250000B2250000BA250000BE
:103CB000BE250000C6250000CA250000D225000050
:103CC000D6250000E22500000100000002000000EF
:103CD00004000000080000001000000020000000A8
:103CE0004000000080000000D42D0000E22D000004
:103CF000E62D0000EA2D0000F02D0000F42D00005C
:103D000000000000000000000000000000000000B3
:103D100000000000000000000000000000000000A3
:103D20000000000000000000000000000000000093
:103D30000000000000000000000000000000000083
:103D40000000000000000000000000000000000073
:103D50000000000000000000000000000000000063
:103D60000001020203030303040404040404040422
:103D700005050505050505050505050505050505F3
:103D800006060606060606060606060606060606D3
:103D900006060606060606060606060606060606C3
:103DA00007070707070707070707070707070707A3
:103DB0000707070707070707070707070707070793
:103DC0000707070707070707070707070707070783
:103DD0000707070707070707070707070707070773
:103DE0000808080808080808080808080808080853
:103DF0000808080808080808080808080808080843
:103E00000808080808080808080808080808080832
:103E10000808080808080808080808080808080822
:103E20000808080808080808080808080808080812
:103E30000808080808080808080808080808080802
:103E400008080808080808080808080808080808F2
:103E500008080808080808080808080808080808E2
:0C3E6000603300002E100000001600006F
:043E6C003C10000006
:103E7000000801400010014000140140140000003F
:103E8000000000001400000000000000140000000A
:103E900000000000140000000000000014000000FA
:103EA00000000000140000000000000014000000EA
:103EB00000000000140000000000000002040608DA
:103EC00004080C100810182010203040204060809A
:103ED000010203040506070801020304050607089A
:103EE00000000000000000000000000000000000D2
:103EF0000000000000000000FFFFFFFFFFFFFFFFCA
:103F0000FFFFFFFFFFFFFFFF0000000001000000B8
:103F100000000000203D0000403D0000003D00008A
:103F20000000000000000000000000000000000091
:103F30000000000000000000000000000000000081
:103F40000000000000000000000000000000000071
:103F50000000000000000000000000000000000061
:103F60000000000000000000000000000000000051
:103F7000FE01000001010100FE010000010000003F
:103F8000FE0100000100000001000000FFFFFFFF34
:103F900010030020006CDC020A0000000A00000090
:103FA000A0000020130E0F1313100F130D13131284
:083FB0000D13131100010203BF
:00000001FF
