:100000006F00307F00000000A8010000AA0100007E
:1000100000000000000000000000000000000000E0
:1000200000000000000000000000000000000000D0
:10003000F00F000000000000F00F000000000000C2
:10004000F00F0000F00F0000F00F0000F00F0000B4
:10005000F00F0000F00F0000F00F0000F00F0000A4
:10006000F00F0000F00F0000F00F0000F00F000094
:10007000F00F0000F00F0000F00F0000F00F000084
:10008000F00F0000F00F0000F00F0000F00F000074
:10009000F00F0000F00F0000F00F0000F00F000064
:0800A000F00F00000000000059
:1000A800511126C022C206C4828282441244A24050
:1000B80031018280634E050263C305042E86AA853A
:1000C8007D5515C285466378B6006356C00006069E
:1000D8008606E36CB6FE014563E4C500918D558D37
:1000E80085820582F5FA82808682C93F2E858282C2
:1000F8003305A0406347B000B305B040C1B7B305AE
:10010800B0408682653F3305A0408282868263C7FD
:100118000500634905005D372E858282B305B0402E
:10012800E35B05FE3305A040513F3305B0408282B2
:10013800000015C22A8385466367B500FD5613077C
:10014800F6FF3A93BA9583830500230073007D1662
:100158003693B6956DFA82802A8311C62300B300C0
:100168007D16050365FE82802320150040C104C565
:10017800232625000145828083200500404104454F
:100188000321C50013B515002E95828010219421F6
:10019800050585056313D60075FA3305D6408280B8
:1001A80001A0B707EFBE37E700E0938707083CC711
:1001B80001A07D15CD4763E8A708EFF27FEE8967B8
:1001C800938787190A053E951C414111AE848287A1
:1001D8004144371501401305054021A8114437153E
:1001E80001401305058031A00544E5B705443715DE
:1001F8000140C1473EC64C0085472AC02313010071
:1002080060823EC4EF00B078024533369000A28584
:10021800EF100000410151BD0944D1BF1144C1BFD5
:100228002144F1B74144E1B713040002C9B71304EC
:10023800000475BF130400085DBF114459BF214471
:1002480049BF094469BF82807D15CD4763EAA70885
:10025800EFF21FE589679387871E0A053E951C41C3
:10026800411182874144371501401305054021A8F3
:100278001144371501401305058031A00544E5B741
:10028800054437150140930780044C002AC0231306
:100298000100231401002315010060823EC6EF000F
:1002A800106F0245A285EF00F0754101FDBB0944BE
:1002B800C9BF1144F9B72144E9B74144D9B7130478
:1002C8000002C1B7130400046DBF1304000855BF32
:1002D800114451BF214441BF094461BF0145F1B7F1
:1002E80001458280EFF2DFDB1111E1473EC485470B
:1002F8003EC2C167938707063EC602C002C802CA4B
:1003080002CC9307F00F63D8B7029305F00FEC8186
:1003180085476316F50237150140C1478A851305DD
:1003280005407C80EF00B0666C0037050040EF1098
:10033800403371019DBBE3DC05FC8145C9BF5147D2
:100348006311E50237150140A1478A851305054069
:100358007C80EF00D0636C0037050040EF10E03A76
:10036800C9BF29476310E5028A85371501407C809B
:10037800EF00F061373501406C00130505C0EF1040
:10038800404645BFAD47E316F5FA89478A853715D4
:1003980001407C80EF00B05F373501406C001305E9
:1003A80005C0EF10404D71B79307F5FF4D476363E4
:1003B800F70EEFF2FFCE09678A0713078723BA976C
:1003C8009C4351118287094459158547B397A70063
:1003D800231101002312010023130100231401003B
:1003E800231501007C808A853715014081A81944AE
:1003F800E1BF0D4491473715014023110100231235
:1004080001002313010023140100231501007C803F
:100418008A85130505401DA0054489473715014005
:1004280023110100231201002313010023140100EA
:10043800231501007C808A8513050580EF0030555F
:10044800A285372401409D46054613050440EF0068
:10045800104A854513050440EF00F0479304044013
:1004680089452685EF00F05165DD13050440EF004E
:10047800D05031011DB9014491474DB71D44C147C2
:100488009DBF1144A14785BF25443DBF21442DBFD1
:100498000145C5B701458280EFF29FC03971054516
:1004A800EF108005EF00F02DEF10C056156585455B
:1004B800130545A3EF10601085450545EF10C011E1
:1004C800B7140140930700023EC60544E1476C009B
:1004D8001385044022C83ECAEF00704B93070004FE
:1004E8007C866C009147138504403ECAEF00304A71
:1004F800F167B74401409387072002D03ECC2C080F
:10050800B147138504802311F10202CE02D2EF1005
:10051800C043854513850480EF10E04C3165EF003A
:10052800507E6146814528100539230E8102372403
:100538000140B7070E002C10130504403EDAEF0007
:10054800B033130504408545EF00F03737340140D8
:100558009307F00F7C828A859307A00B130504C0CC
:100568007C80231101002313010023140100EF10E4
:1005780080088A8537050040EF10E007130504C09E
:100588008545EF10C035854537050040EF1020350B
:100598008545130504C0EF10E039216139B6EFF243
:1005A8003FB0374501409305000213050580EF1061
:1005B800C0457D1513351500CDBCEFF27FAE37442D
:1005C800014093040480930500022685EF10E04360
:1005D8007DD913050480EF10C04262056185F1B42E
:1005E800EFF21FACAA85096513058528EF10902D39
:1005F80037050020854513058503BD3EEFF25FAA48
:10060800793F05C13745014013050580EF10603F6C
:10061800620561858D476316F5000965130585290F
:10062800C13761B483A70182942381C6850723A0BB
:10063800F18282807D4603A701821C23FD1793F770
:10064800F70F6373F6008280050723A0E182E5B700
:10065800EFF21FA52A84F93F83A701829C236394A4
:100668008700C93799B409651305052A953FEFF244
:100678003FA3C93783A7018209679306173D9C23C7
:10068800B6979C23918B95E709651305852A893FC1
:1006980033056502938707FD850623A0D1823E9521
:1006A80083A601829C223306F7001022118A6DF27C
:1006B800EDBA1307173D01452943DDB7EFF25F9EF9
:1006C80009222A84853F83A701821307B0029C234D
:1006D8006388E7001307D0026389E7002285F1B237
:1006E8009137C5202A94B937F9BF2D3FD928098CED
:1006F800DDBFEFF2FF9A711185442D3F03A70182F8
:100708009306D00200236316D400293FB304904017
:10071800EDB793068002631DD400293745372A8434
:100728001305900235373385840211016FF0FF9766
:1007380089653A850D469385052B3AC0EF10D0227E
:10074800024705E10D071305800223A0E18209375E
:10075800B5372A8413059002E53D2285B1312A84F4
:10076800D9B789653A8509469385452B3AC0EF1074
:10077800B01F024719ED09071305800223A0E18283
:10078800C13D2D3F2A8413059002D93522856D3C41
:10079800F9B709671307173D229718230D8B05C36F
:1007A80089476313F7000114B53D9307F4FB370736
:1007B80000208A071307C705BA978043ADB7453DA0
:1007C80079BFEFF2FF8D35372A84AD3583A70182D3
:1007D8001307A0029C236389E7001307F002638BC9
:1007E800E70022856FF07F8C353D21373304A40262
:1007F8009135E9BF053DF53DAA8509E5096513056C
:10080800852BF93B2285EFF0FF8A2A84D5B7EFF2D2
:100818003F89711165352A84313D83A70182896535
:1008280009469385052C3E853EC0EF10F01311ED67
:100838008247890723A0F182513533258500134467
:100848001500228511016FF05F860245896509460A
:100858009385452CEF10501109E98247890723A099
:10086800F182A93D3325A400D9BF0245896509460F
:100878009385852CEF10500F824709E9890723A03B
:10088800F1822D3D018D3334A00065BF9C231307F1
:10089800C0036397E700793315353324A40055B7AF
:1008A8001307E0036397E700B53B093D3324850050
:1008B80049BF1307D003E396E7F8AD330135018D3F
:1008C80013341500BDBFB70700202A871385470CCE
:1008D800142199E2014582801C31A207D58FE38C4F
:1008E800E7FEE349F7FE09051C210505F5FFCDB72D
:1008F800EFF20FFB3707002071119304470C2A848D
:100908002EC01307470C902001EE0245EF10D004CB
:10091800B70700201387470C31E111016FF0EFF89A
:100928009430A206B3E5C60063DC850489049420EC
:100938008504F5FEC9BF090614220506F5FE142232
:10094800FDFA3307E64085662A97F11663DAE60072
:1009580009651305C52CEF102079C1B73A86C5B7CC
:10096800058E0D05A68505062695EFF08FFC8245B8
:1009780080A013852400218480B0EF10E07C71BF33
:10098800E315B4F89385240094218505F5FEB38614
:10099800E5400566158E2685EFF0AFF9BDB7EFF295
:1009A8002FF07111413903A4018289651546938599
:1009B800452D2285EF10407B49E1150423A0818253
:1009C800054709643AC0BD3183A701829306200216
:1009D80002479C236395D702B13183A7018293060E
:1009E800200298236306D72619E30547E1BF13873A
:1009F800170023A0E1828823EF108073F9BF9306C4
:100A0800B0036386D7009306C0026395D7001939EF
:100A180001474DBF81CF9306A0036389D700793979
:100A2800AA851305C42DEF10E069C1B731C3096564
:100A38001305052DEF10406B25A889650D46938594
:100A4800052E2285EF1040721DE50D0423A081823A
:100A5800B5312A84C53683A7018298239307C0023B
:100A68006313F700C1369939AA852285EFF06FF430
:100A780011016FF08FE389650D469385452E228518
:100A8800EF10806E0DE50D0423A0818205392A84BC
:100A9800553683A7018298239307C0026313F70092
:100AA80051362939AA852285EFF0DF83D1B78965C8
:100AB80011469385852E2285EF10006B15E11104F0
:100AC80023A081822AC0DD3E82472A84E3D287FAA6
:100AD80005453EC0EF009077153682478507FDB77C
:100AE80089650D469385052F2285EF10E06711E98A
:100AF80009650D041305452F23A08182EF10805C42
:100B080085BF896511469385C52F2285EF10C0657D
:100B180005E1110423A081825536753309C50905FD
:100B280023A0A182B1B7096513054530EFF05FAB8B
:100B3800896509469385C5302285EF10E06221E179
:100B4800090423A08182E1312AC0ED3403A4018283
:100B580089651146938505312285EF10E06082474B
:100B680001E5110423A08182E39E07E283A70182A5
:100B78009823E30F07EE850723A0F182C5BF896597
:100B88001146938585312285EF10005E39CD896540
:100B98000D46938585322285EF10005DE30A05EC4A
:100BA80089650D469385C5322285EF10E05B21E506
:100BB80037050020056681451305450CEFF0CFD9B0
:100BC800096513050533BDB51C3009042286A20743
:100BD800DD8D13850432EF10E04E1C200504F5FF6F
:100BE800EFF0DFA10C20EDF161B53704002013040C
:100BF800440C8964C5BF1C2009671307173D3E973D
:100C080018230D8BE30607E689466313D70081177F
:100C18009387F7FB05043EC023A08182EFF09FA1D4
:100C280083A7018298239307D003631FF700EFF08F
:100C38007F9FEFF0BFA80247B70700209387C7053B
:100C48000A07BA9788C32DB509651305052AF9BDA2
:100C5800EFF05F9D59BBEFF2AFC4B70700206111F9
:100C68009387470C3EC292479C2381E721016FF08E
:100C7800CFC3924789073EC0024705073AC00347DA
:100C8800F7FF7DFB370500201305850323A0F182BC
:100C9800EFF08FCD61FD2133EFF05F9683A70182DE
:100CA800370700201307470CE3E2E7FC371700205B
:100CB8001307470CE3FCE7FA982309E71247824633
:100CC8006364D700F9173EC0824769BFEFF24FBD92
:100CD800130141FBEFF04FFC096513054533EF1095
:100CE800603E8144EFF07F8D930705FE93F7F70F81
:100CF8001307E0052A846363F706EF106043930740
:100D0800E003E3C197FE99A0EFF03F8B930705FE40
:100D180093F7F70F1307E0052A846376F702B547C0
:100D28006301F506A147E301F5FE9307F007E30D1C
:100D3800F5FC81448D47E317F4FA096513058536F8
:100D4800EF104038D1B7EF10A03E814493870404D8
:100D58007800BA97238087FC850469B7B547631183
:100D6800F51489671385072DEF100038938704045D
:100D78007800BA97238007FC99E4096513050536BE
:100D8800B9BF8144F9BF0307C10089679386173D3E
:100D980036971823118B25E7780081463A84938487
:100DA800173D22853AC436C2EF10003B92462247CF
:100DB800894563ECA6048965938585322285EFF021
:100DC800EFBC35E1493D55BF3305C502130707FDA3
:100DD80005043A9503070400B306F7009422918AA4
:100DE800E5F62AC0EFF01F85830704000245811746
:100DF80093B71700B305F400EFF09FAFBDBF0145EF
:100E080060009387173D2946F1B7830707003A85A5
:100E18003386970010220D8A6313B60081171CA130
:100E280085060507BDBF8964938584312285EFF067
:100E3800EFB501E99384843123A09182EFF03FB6A6
:100E48002DBF89659385C5322285EFF02FB419ED42
:100E580037050020056681451305450CEFF0CFAF37
:100E6800096513050533EF10202801BF89659385AF
:100E7800052F2285EFF08FB119E509651305452F78
:100E8800EF104024DDBD370500201305850323A09E
:100E98008182EFF06FADE31205EEEFF05FB0C9B7F6
:100EA800A1476306F5009307F007E315F5E8E38D1E
:100EB80004E4096513054536FD14EF10A0201DB59F
:100EC800EFF20F9E8946B72702403714024094C3B9
:100ED8001C403707FF68C17493E717001CC05C40CB
:100EE800FD14F98F5CC01C403707D7FE6D17F98FCA
:100EF80037071000D98F1CC01C403707FCFF7D172F
:100F0800F98F1CC05C40E58F5CC0B7079D001CC40E
:100F18001C4C93E707021CCCB71701409387074086
:100F280098431377F7F098C398431367070898C353
:100F380094CBE5245C4037070001B70600025CC08B
:100F48005C40E58F5CC05C405CC01C40D98F1CC015
:100F5800B71702409843758F75DFD843B71602401C
:100F6800719BD8C3D84313672700D8C32147DC42F5
:100F7800B18BE39EE7FEB7270240094798C36FF09D
:100F8800CF92371702405C43A146B18B6394D704D4
:100F98005C433775DC02130505C0B7160240D8421A
:100FA800B70700209387070011833D8BBA979C23CE
:100FB800D84293F5F70F13770708B357F50005E301
:100FC800EFF20F8EEFF08F8F370700202328A7004E
:100FD8006FF0AF8D37356E01130505607DBF37079C
:100FE80000202328F700828001A097010020938128
:100FF8006184171100201301610017150000130503
:10100800254D97F5FF1F938565FF17F6FF1F1306FC
:10101800660263FAC5008322050023A05500110566
:101028009105E3EAC5FE17F5FF1F1305A50097050F
:101038000020938565096377B50023200500110515
:10104800E36DB5FE896293820288739002308D4207
:101058007390428097F2FFFF938242FA93E2320044
:1010680073905230EFF0DFE597020000938242C69A
:1010780073901234730020305841B707F1FF9387FB
:10108800F7EF7D8FDC419441A207D58FD98F5CC1E2
:101098001845B7F7F1FF9387D77FD4457D8F9C49D3
:1010A800D58F94458606D58FD98F1CC55855B70757
:1010B80010FFFD177D8FDC29FD1793F7F70FD20777
:1010C800D98F5CD582801C4589C593E717001CC55C
:1010D8008280F99BEDBF1C4591C537075000D98F19
:1010E8001CC582803707B0FF7D17F98FD5BF0D4724
:1010F8003387E502032305019D47B397E70093C7AC
:10110800F7FFB3F76700B396E600DD8E14C9994779
:1011180063E2C70295477D163306F6025859FD4724
:10112800B397C70093C7F7FFF98F3396C5005D8E55
:1011380050D98280B14763E2C702954765163306E6
:10114800F6021859FD47B397C70093C7F7FFF98F01
:101158003396C5005D8E10D9828095474D163306AB
:10116800F6025855FD47B397C70093C7F7FFF98FA5
:10117800B395C500DD8D4CD5828068454205418117
:1011880082801C4133F5F5003335A00082809445F8
:1011980093F7060113F3F60081C7DC413363F300CC
:1011A80083D2050093F7F20FA9CF0C41611122C237
:1011B80026C08147930380023D4493048004054779
:1011C8003317F70033F6E2006310C702639776021D
:1011D80058C9139627003317C4001347F7FF6D8FBC
:1011E8003316C300B365E60085072147E399E7FC9A
:1011F80012440CC1824421018280E39C96FC18C9E8
:10120800C9BF82801C4533F5F5003335A0008280C4
:1012180019C20CC982804CC98280EFE27FE8511163
:1012280085451305C00302C002C202C47926B7F778
:10123800FF1F03A74770B70652009386066093778F
:10124800F7F06386D70A63E2F60CB70624009386A4
:1012580006606380D72063E0F604B7062200938611
:101268000660638FD72463EFF600C1779387F7F0A2
:10127800F98F3707200013070760639BE700930780
:10128800900F35A837072300130707606384E7200A
:1012980031016FE09FE1B7065000938606606383D3
:1012A800D71A63E0F604C1779387F7F07D8FB70705
:1012B800400093870760E39DE7FC9307900E37147F
:1012C80001407C808A8593078002130504803EC410
:1012D8007D3D9307F0077C808A85130504C0453D52
:1012E80045BF3707510013070760E393E7FA9307F1
:1012F8009006371401407C808A8593078002130585
:1013080004803EC46935AD47F9B737076400130751
:101318000760E386E7F66361F7063707620013079D
:101328000760E38CE7F86364F70437075300130793
:101338000760638DE70C3707610013070760E399BF
:10134800E7F493070008371401407C808A859307E7
:101358008002130504803EC41D3D930740078A851B
:10136800130504C07C8025359307800CADA0370792
:1013780063001307076081B73717730013070780E7
:101388006386E702636BF70037177000130707805F
:101398006388E704370771004DB7371774001307E0
:1013A8000780E397E7EE9307000C71BF9307000CE3
:1013B800371401407C808A859307800213050480D6
:1013C8003EC4F133930740078A85130504C07C8027
:1013D8007D3B9307900C7C808A853715014001B7C7
:1013E8009307000C371401407C808A85930780029C
:1013F800130504803EC4613B930740078A851305A3
:1014080004C07C8069339307B00CF1B7930790064A
:10141800371401407C808A85930780021305048075
:101428003EC4B533AD478A85130504C07C80853337
:101438009307C0028A85371501407C80893B930752
:10144800C006A1A09307800C7C80930780023EC44D
:1014580061B79307900F371401407C808A85930702
:101468008002130504803EC41D339307F0078A8564
:10147800130504C07C80213B9307900E8A8537159D
:1014880001407C8029339307D0087C808A85130526
:101498000440B1B59307900F371401407C808A85CA
:1014A80093078002130504803EC4D5319307F007E3
:1014B8008A85130504C07C80D939930760029DBFD3
:1014C8009307900F371401407C808A859307800228
:1014D800130504803EC465399307F0078A85130510
:1014E80004C07C806D31930700028A85371501405E
:1014F8007C807139B54751BFB717002023A2A70CCC
:101508008280B7160240DC423707FF7F1307F77F58
:10151800F98FC98FDCC28280EFE29FB8371702408B
:101528005C43A1462A84B18B6394D7085C43B777A0
:10153800DC02938707C01CC03716024054423707A5
:101548000020130787029182BD8A369708235842E4
:101558009375F50F1377070833D5A70001E73E8584
:10156800EFE0DFB548C008C448C4B7170240DC4301
:101578008D46AD83FD8B13D737008A07F18BD98F42
:1015880013F6370113F7370063F4C600138747FFD4
:10159800B7170240DC4363CA0700B70700209387E8
:1015A8004701BA978C23EFE07FB108C86FE0FFAF1F
:1015B800B7376E0193870760BDBF99C537170240DB
:1015C8001C4FC98F1CCF8280B7170240984F134514
:1015D800F5FF798D88CF828099C5371702405C4F17
:1015E800C98F5CCF8280B7170240D84F1345F5FFEB
:1015F800798DC8CF8280B7370140938707C06306CB
:10160800F500B7070040631DF5021E21BA21C20785
:10161800C18393F7F7F8D98FFA2193F7F7CFD98FCA
:101628001EA1DE215EB59E211EB5B7370140938706
:1016380007C06314F5009C251EB985475EA9828002
:10164800B717004093870780631CF5001E21BA2155
:10165800C207C18393F7F7F8D98F1EA1DE215EA5D3
:1016680082801E319A2103D38500C207C183F99B6A
:10167800C207C1831EB11E315221162DC207C18374
:10168800C206C18293F6C6F8D98EBA21F59B4206E6
:101698003367E300D98F37370140130707C041820A
:1016A8006316E502BA25DD9B03D3E500D98FDA215D
:1016B800ED9B1376F6CFD98FDA2533676700598EFD
:1016C800FA2152A116AD58D91EB1828037070040C1
:1016D800E318E5FE03574504060342074183499B87
:1016E800420741832312E50483524504DA2183D358
:1016F800A5000983B3E272003367570033676700B8
:10170800420741832312E50465BF1E31657713073D
:10171800F7CFC207C183BD9BC207C1831EB11E316B
:101728005221162D03D38500C207F98E9A21C18351
:1017380093F7F7FD2207D98EBA214206C20633670E
:10174800E3001207D98F37370140C207130707C0D4
:101758004182C182C1836314E504BA2593F7F7F780
:1017680003D3C5001207D98FDA21C207C183120734
:1017780093F7F7FBD98F7D771307F73F718FF22522
:10178800C207C183336666000A06518F1316070124
:101798004182FA2152A116AD18DD1EB182803707A9
:1017A8000040E318E5FE035745040E034207418352
:1017B8001377D7FC420741832312E504BA258352E5
:1017C80045040A073367670003D345001353130022
:1017D80033E3620033676700420741832312E5045D
:1017E8004DBF1E3103D38500C207C18393F7F7EFBE
:1017F800C207C1831EB1123156215A2D9E214206BD
:10180800420741831377C7F85D8FBE214182137663
:10181800F6DFB3E76700A2075D8EB7370140C2065F
:101828004206938707C0C18241826310F504FD77A1
:101838009387F77FF18FB22503D3C5002206D18F96
:10184800D221C207C183220693F7F7BFD18F13961F
:101858000701F577FD17F58FF6254182B3E6660097
:101868009206D58F93960701C182FE2156A15AADE3
:101878005CDD12B182801E317D777D17F98F1EB134
:101888001E315221562D65771307F7CFF98E9A210D
:1018980003D3850042062207D98E79777D17F98F01
:1018A800BA21C2064182336767003207D98F3737BA
:1018B8000140C207130707C0C182C183631BE5004B
:1018C80071777D17718FD2251A06518F131607016C
:1018D8004182FA2152A156AD38C11EB18280B73774
:1018E8000140938707C09DC16306F500B707004014
:1018F8006317F5001E2193E717001EA139A0B7173B
:10190800004093870780E307F5FE82806306F500B1
:10191800B70700406319F5001E21C207C183F99B70
:10192800C207C183D9BFB717004093870780E31E5A
:10193800F5FCDDB78357450491C52167D98F23127C
:10194800F5048280C607C583DDBFEFE26FF516296F
:10195800F577FD17FD8EFE21DA252111D58F1EA9F9
:101968005625FD779387379FFD8EDE212A84AE8426
:10197800D58F9625D58FB625D58F5EA55E29C2074A
:10198800C18393F7F7CFD98F5EA94800EFF0DFB88E
:10199800B7470140938707806315F404C24765453C
:1019A8003385A7028C408A05EFE04FF19305400686
:1019B8002AC0EFE0AFF093144500024593054006B6
:1019C800EFE08FF212059305400613052503EFE0BB
:1019D800EFEE3D89458D420541810AA461016FE022
:1019E800CFECB2476DBF5E2589C50967D98F5EA563
:1019F800828079777D17F98FDDBF93F5F51F4EA1AA
:101A080082804A211375F51F82800A216D8D333536
:101A1800A0008280EFE2CFE8B707002003A5070106
:101A2800B7157A0093850520EFE04FE91375F50F98
:101A3800B71700202385A70C9307803E3305F502CE
:101A4800B71700202394A70C6FE02FE6B7F700E044
:101A5800D843799BD8C3371700200357870C33071F
:101A6800A70298CB23A4070098431367170098C3CD
:101A7800D843058B75DF9843799B98C38280EFE242
:101A88002FE261112EC232C0014482476358F4022A
:101A9800B7440140B7470140930500041385078008
:101AA800AD376DD9924713850480B3868700838547
:101AB80006000504C205C1818937C1BF024521015D
:101AC8006FE0AFDE411106C62EC00DCD1841AA87C2
:101AD80005C358417D5511CB8546631BD7009847F0
:101AE8002300070023A207000545B2404101828078
:101AF8009847824614A39847050798C7D8437D1787
:101B0800D8C3DDB705468A859D3FF9BF011126CAAE
:101B180006CE22CC2AC02EC2B28493F71600634D9B
:101B280006082E853EC63AC436843D252247B2476C
:101B38002A83635195086351E504998C13040002C4
:101B4800C1EFA687634FF006A68763D304008147D9
:101B58009D8C635BE30233076740BA8602459305B1
:101B680000033AC83EC636C4B13FA246B247424710
:101B7800FD16EDF6BA9709A8898C098861D05DFF32
:101B880095CF8147130400033E871246B306F740FA
:101B9800B29683850600B9E1A6876349F0042686D4
:101BA80063D304000146F2406244D2443305E600A0
:101BB800056182808144D1B7014349B7130400030A
:101BC80049B70245A2853AC81AC63EC4E53DA247B0
:101BD80042473243FD17BDB78147A5BF02453AC604
:101BE8003EC4CD353247A247050745B70245A28511
:101BF8003AC43EC2C13D92472247FD1779BF3971A9
:101C080026DA06DE22DC2AC03EC42E83BA8491ED91
:101C1800A24693070003014726866C08FC86FD351B
:101C2800F2506254D25421618280B285368491CABE
:101C3800294701446317E6006355030033036040F6
:101C480005448647A309010213073103938767FCFC
:101C58003EC61A853ACA2EC81AC2EFE0EFC8A54791
:101C68001243C245524763D4A700B2473E951305B5
:101C780005039307F7FFA30FA7FE1A853ACC2ECAD0
:101C88001AC83EC2EFE08FC34243D245624763762B
:101C9800B30411C8B1C4A247898BB9C302459305DF
:101CA800D002FD140535A247918B85C306479307DB
:101CB8001006024593050003631EF70221359305BC
:101CC800800702450904F914F53B1647A2469245D8
:101CD80002452686253D2295A1B712472A8395BF3E
:101CE80092469307D0020144A38FF6FE9307E7FFBD
:101CF8003EC255BFC13B93058005E1B701458280CF
:101D080001458280130181FD22D006D226CE2AC643
:101D18002EC4328302C80144A2478385070091ED8F
:101D2800B24789C781453E85EFF0DFD992502285B9
:101D38000254F24413018102828093075002638C9B
:101D4800F50032451ACA0504EFF0DFD75243A2471F
:101D580085073EC4D1B7A24793841700838717002D
:101D6800639BB7003245930550021ACA0504EFF089
:101D78007FD526C4E1BFCDD71307D0026387E7021A
:101D8800634CF70013073002638EE7041307B002B1
:101D98006386E704814731A813070003E39CE7FE45
:101DA800A24793842700894729A0A2479384270044
:101DB8008547038704009306D0026301D70463C8EC
:101DC800E60293063002630ED7029306B002630C54
:101DD800D70226C40145A546A94281A0A2479384FB
:101DE80027004DBFA247938427009147D9B7930690
:101DF8000003E310D7FE93E7270031A08504854749
:101E0800C9BF93E747008504E9B733055502620760
:101E180061873A95224705073AC422470306070017
:101E2800130706FD9375F70FE3F1B6FE1307E002FB
:101E380099466312E60222478146254605073AC4B9
:101E4800A945224703070700130707FD9372F70FF9
:101E5800637A560236C822471306C00603070700EE
:101E68006302C7046349E602130680066306C708CF
:101E78001306A006630BC7081306C0046307C70848
:101E8800014635A8B386B60262076187BA9622472B
:101E980005073AC47DB7130640076308C70613064B
:101EA800A007E9BF2246830516000D466396E500A4
:101EB8002247114605073AC4224705073AC4224774
:101EC800930500060307070063D5E504930580071B
:101ED800E3CFE5E693052006E3DBE5E61307D7F94C
:101EE8001377F70FD545E3E4E5E689650A07938597
:101EF80085372E9718430287224683051600014628
:101F0800E39FE5FA2247090755BF224705073AC468
:101F180085BF9305700463C7E50213064004634E4A
:101F2800E61693063004E314D7E20327030093046C
:101F38004300A30C0100230CE100BE8601472A865A
:101F48002C08B1A09305800593061004E311B7E0AF
:101F580011476316E608832503000326430093040C
:101F6800830036C23EC00147AA87C1463245EFF01A
:101F7800FFD82A942683E1BB8325030093044300FA
:101F880081E58965938505374247BE862A863245AD
:101F9800EFF0DFB7F9BF11476310E6021307100629
:101FA8008325030003264300930483003AC23EC0FE
:101FB8000547AA87A9465DBF4247832503009304C6
:101FC80043003AC2130710063AC085462A872946B5
:101FD8003245EFF0DFC271BF9306100695BF424746
:101FE80083250300930443003AC236C02A878146FA
:101FF8004146F9BF1147631FE60013071006832502
:10200800030003264300930483003AC23EC00147FD
:10201800AA874DB7424783250300930443003AC279
:10202800130710063AC081462A8755B7114793E728
:102038004700631CE60013071006832503000326E8
:102048004300930483003AC231BF4247832503000B
:10205800930443003AC2130710063AC041BF114720
:102068006310E602130710068325030003264300C6
:10207800930483003AC23EC00147AA87A146FDB532
:10208800424783250300930443003AC2130710060E
:102098003AC081462A87214625BF130710048325A5
:1020A800030093048300032343003AC22A8732457E
:1020B8003EC01A86B687A946EFF09FC45DBD1307D8
:1020C8001006F1BF1301C1FD2EC832CAAA85100837
:1020D800014506C636CC3ACE3ED032C0EFF09FC29C
:1020E800B240130141028280411122C426C206C6B1
:1020F80083070500AA840144DC81050499EFA947F8
:102108009305310005460145DC81EFF05F97B24049
:10211800228522449244410182800546930531007C
:102128000145EFF0DF95B387840083870700E9B79F
:1021380041112AC08A850546014506C6EFF03F943D
:10214800B240054541018280AA8798218507850507
:10215800A38FE7FE7DFB8280AA879823850775FFFA
:102168003385A7407D15828015C27D160147B307C8
:10217800E500B386E5009C2394226396D7006304A8
:10218800C7000507EDF73385D74082800145828077
:10219800D80100001C0200001C0200001C02000004
:1021A8004A020000E40100001C020000F0010000E7
:1021B8001C020000F40100002002000024020000BC
:1021C800280200002C020000300200003602000045
:1021D8003C0200001C02000042020000460200000F
:1021E8006C020000E4020000E4020000E4020000C7
:1021F800E002000078020000E4020000840200000F
:10220800E402000088020000B6020000BA020000E2
:10221800BE020000C2020000C6020000CC0200009C
:10222800D2020000E4020000D8020000DC02000034
:10223800840400009804000098040000980400003A
:10224800200400007E0400009804000098040000A8
:10225800980400009004000094040000F6030000B5
:1022680098040000CE0300009804000098040000C1
:102278009804000098040000FA0300008A04000093
:102288000D0A4572726F723A2025730D0A0000001C
:10229800427265616B00000053796E4572720000EE
:1022A8004E756D3F0000000041444300494E000058
:1022B80044697630000000003C3D00003E3D0000CF
:1022C8003C3E000046756C6C0D0000005052494EB3
:1022D80054000000256400004F55540050574D002D
:1022E8005741495400000000434C53001B5B324ADD
:1022F8001B5B4800474F544F000000004C696E6557
:102308003F000000494600005448454E00000000C8
:102318004C4953540000000025642025730D0A0021
:1023280052554E004E4557004F4B0D000D0A43487D
:102338003332563030362054696E79204241534941
:10234800432076322E302028576F726C6420456403
:102358006974696F6E290D0A3E2000000820080084
:102368005E430D0A3E200000286E756C6C29000043
:10237800321F00009E1F0000C6200000C62000007B
:10238800C6200000561D0000561D0000561D000006
:10239800561D0000561D0000561D0000561D000069
:1023A8006620000034200000561D0000561D000065
:1023B800801F0000561D0000FC1F0000561D000075
:1023C800561D0000E01F00000020202020202020B3
:1023D80020202828282828202020202020202020CD
:1023E80020202020202020202088101010101010DD
:1023F8001010101010101010100404040404040429
:1024080004040410101010101010414141414141C2
:1024180001010101010101010101010101010101A4
:1024280001010101101010101010424242424242B4
:102438000202020202020202020202020202020274
:10244800020202021010101020000000000000001C
:102458000000000000000000000000000000000074
:102468000000000000000000000000000000000064
:102478000000000000000000000000000000000054
:102488000000000000000000000000000000000044
:102498000000000000000000000000000000000034
:1024A8000000000000000000000000000000000024
:1024B8000000000000000000000000000000000014
:0C24C80000000000000000000000000008
:1024D40001020304050607080102030405060708B0
:1024E400006CDC020204060804080C100810182012
:1024F40010203040204060800102030405060708D4
:082504000102030405060708AB
:00000001FF
