:100000006F00B07C00000000160B00001A0B00000F
:1000100000000000000000000000000000000000E0
:1000200000000000000000000000000000000000D0
:1000300082080000000000009A0F0000000000008D
:100040009C0F00009E0F0000A00F0000A20F0000F8
:1000500024090000A60F0000A80F0000AA0F00004E
:10006000AC0F0000AE0F0000B00F0000B20F000098
:10007000B40F0000B60F0000B80F0000BA0F000068
:10008000BC0F0000BE0F0000C00F0000BE06000045
:10009000C40F0000580700006607000000000000C1
:1000A000511126C022C206C4828282441244A24058
:1000B00031018280634E050263C305042E86AA8542
:1000C0007D5515C285466378B6006356C0000606A6
:1000D0008606E36CB6FE014563E4C500918D558D3F
:1000E00085820582F5FA82808682C93F2E858282CA
:1000F0003305A04063D70500B305B040C1B7B305D1
:10010000B0408682653F3305A0408282868263C705
:100110000500634905005D372E858282B305B04036
:10012000E35B05FE3305A040513F3305B0408282BA
:100130000000B71602409C4E056713070781D98F50
:100140009CCEB71701409843B706F1FFFD16758F97
:1001500098C39843B7060B001966558F98C3373775
:100160000140231407C29306F00F2316D7C283560B
:10017000C7C1D18E231ED7C0835607C20566D18E54
:100180002310D7C2835647C42166D18E2312D7C409
:10019000835707C093E717002310F7C082803717F3
:1001A00002405C4F93E717005CCFB707004013078E
:1001B000F0029AB77D57DAB79A23136717009AA30C
:1001C000828083C78181B9CF370700405E339306B1
:1001D000000463F9F6045E33938651819387F7FB3D
:1001E000C207C1835EB39822938761818E23131661
:1001F00097001387818332972E971023373701405A
:100200002320C7C49A231306F01F05074207418322
:100210009AA39A236378E600239007009C2293C751
:1002200017009CA28280371702401C4FB7160F00A0
:10023000FD1693E707011CCFB71701409843758F50
:1002400098C39843B7363083558F98C3D847136700
:100250008708D8C78280EFF2BFE421470144B7176F
:10026000014093168501E18663D10604D44793E6E5
:100270000604D4C7D4470605060493E60602D4C78D
:1002800094471375F50F1374F40F93F6060899C28B
:1002900013641400D4477D171377F70F93F6F6FD18
:1002A000D4C761F3393F228509B5D44793F6F6FBED
:1002B000C9B7371702401C4FFD76BD0693E707010B
:1002C0001CCFB71701409843758F98C398431367A5
:1002D000073398C3D84713676700D8C7828037179A
:1002E00001405C4793E727005CC7828037170140D5
:1002F0005C47F59B5CC78280371701405C4793E7FA
:1003000047005CC78280371701405C47ED9B5CC7A4
:100310008280EFF2FFD8E137C537C93FED3771B3BF
:10032000EFF21FD8E137C93F5D3F41B3EFF25FD72E
:10033000AA84214493978401E18763D1070245375A
:100340007D1486041374F40F453F93F4F40F653F56
:1003500075F071375537453FAD3581BB413FCDB75E
:10036000EFF21FD42A84753713058007C137014582
:10037000753F2285653F6D370DBBEFF27FD21305C8
:100380004006EF00507F1305E00AD93F1305000235
:10039000C13F0945F1371305000CD9371305000A91
:1003A000C1371305D0086D3F51455D3F1305F00A75
:1003B000453FE5B9EFF2DFCE1304000B22854D3740
:1003C0000145793F4145693FA93713058007B93F8A
:1003D00013050004A13F93040008FD14C204014565
:1003E000C180A937FDF82D3F05041374F40F93075E
:1003F000800BE315F4FC55B9EFF29FCA5D3D25353E
:100400000D3B713B9D3F7D37371701405C470D45E4
:10041000DD9B5CC7893501453D3D01452D3D0145CD
:100420001D3D01449384818301453535B3878400A4
:10043000134505F888A3050493070020E316F4FE8E
:10044000A38A0180238A0180239B0180B707004093
:10045000239207020547238CE18081B9EFF25FC444
:100460001304000B2285ED3D0145DD3D4145CD3DA9
:100470004D35130580075D3D13050004453D93048C
:100480000008FD140145C204F933C1804535F5F873
:10049000413D05041374F40F9307800BE314F4FC3F
:1004A000938701819843B706002083A6860F130720
:1004B000076098C36365D70223A00700B717014000
:1004C000D8470D4513678700D8C7D8475D9BD8C765
:1004D0005933014549330145BD3B0145AD3B1387C8
:1004E00041811C2381441384418193C717001CA3BD
:1004F000014595331C2013878183A607BA97A697D9
:10050000134505F888A3850493070020E392F4FEC1
:100510009387518198231C2093F7F70F6384E7009A
:100520004D31FDB759B60145828082807D5582806C
:10053000EFF21FB71C417111CC81DC4393053100F0
:1005400005468297110195B6EFF29FB5711193059B
:1005500031004105EF00F05C01E588811101B1B681
:100560007D55EDBFEFF2DFB32E85B285EF00504B26
:100570002DBE13F7F50FC54763EDE7008567938739
:1005800047620A073E9793F705700C43CD8F5CD501
:10059000828093F6050C1306000CFD57E399C6FE06
:1005A0009306700CE3E5E6FE93F7F5030567130782
:1005B00047608A07BA979C430567130747628A0713
:1005C000BA9793F505709C43D1B713F7F50FC5475C
:1005D00063EDE7008567938747620A073E9793F7C5
:1005E00005700C43CD8F1CD5828093F6050C130645
:1005F000000CFD57E399C6FE9306700CE3E5E6FE9A
:1006000093F7F5030567130747608A07BA979C437A
:100610000567130747628A07BA9793F505709C43ED
:10062000D1B7EFF2FFA79307803E1CC5856793877C
:1006300047671CC10CC9232205009305600C2A845E
:100640000D3F9305500C2285493758541C546314B0
:10065000F700FD575CD4FD571CD85CD8B9B4EFF255
:100660003FA4B745014093850580138581C3553F5D
:100670006FF0BFA3EFF2DFA2184519E3EF00B0510E
:100680005C4582976FF07FA211E101A0EFF25FA1BC
:100690002A840841854581230DC11C40DE27858BB6
:1006A00089CF2285EF00F01A08415C5D81C71305F0
:1006B0004503C937084085451D2B6FF01F9F03A5D3
:1006C000C18119C11105C9377300203011E101A0A2
:1006D0001C41DA27098B11EBDA27118B19E7DA278E
:1006E000218B01E7DA27418B3DC7EFF27F9B2A84FC
:1006F00089453E85CD211C4015C189453E85C529CA
:1007000085442285EF00F014084192049384440349
:1007100026951C4591C3B93F6FF03F993E859145A1
:100720005D291C4011C591453E85D1218944D1BF29
:100730003E85A1454D211C4011C5A1453E85452959
:100740008D44C1B7C1453E85792145DD0840C1458D
:10075000914471297DB7828003A5C18119C111051A
:10076000B53773002030711122C01384C181484015
:1007700011C51105113F48401105893F024411017F
:1007800073002030EFF2DF912A84EF00103E48C45E
:100790001C402285DC4B8297635A0500EF00F03C39
:1007A0005C441D8D1C44E365F5FE7D556FF0FF8FA5
:1007B000EFF21F8F6111AA8401442EC232C0630D73
:1007C000C4002685C1376349050092450246B387B8
:1007D000850088A30504D5B7228521016FF0FF8C21
:1007E000EFF21F8C5111014495C6B684AA870144CB
:1007F0003E8532C42EC23EC07137634D050092451E
:10080000630AB500224682473307860008A3050421
:10081000E39084FE228531016FF03F89EFF25F881B
:10082000F1206FF09F88EFF2BF8785476301F502E3
:1008300019C589476303F50201456FF01F8711450C
:1008400085459D2E3715014013050580FDB74145AF
:1008500085459D2637150140CDB713050002854516
:10086000A12E3715014013050540C1BF03A58182A4
:1008700083A5C18282808280EFF29F82C53F6FF0A4
:10088000DF829387818203A3070083A347001307B6
:1008900013003335670098C3B3067500D4C3E13F36
:1008A000B7F700E023A2070073002030EFF24FFFFC
:1008B00037F400E023220400232004002324040052
:1008C000B707002003A5C70F9305803EEFF00FFF89
:1008D0007D1508C8BD471CC07D57B7E700E02386DB
:1008E000E740056723A0E7106FF02FFCEFF24FFB06
:1008F000753F6FF08FFB814705476307E50085076C
:10090000058193F7F70FD5BF370700208E07130730
:100910000700BA97DC4391C7EFF28FF882976FF028
:10092000CFF88280611122C226C00544A1442285ED
:10093000152019C522853528131504014181653F0D
:10094000FD140604EDF412448244210173002030AA
:1009500082808280B70701401387074083A7074042
:10096000584B698F09C77D8D3335A00082800145C2
:100970008280B707014023AAA74082809C4561116D
:1009800022C226C013F7070113F3F70001C7D841AD
:100990003363E30092211377F60F29C78323050001
:1009A000014713048002930480048546B395E60052
:1009B000B376B6006392D50293122700BD46B39674
:1009C000560093C6F6FFB3F37600B3125300B3E3B9
:1009D0007200639787064CC90507A146E317D7FC49
:1009E000232075001307F00F6378C70483234500A5
:1009F000A14613048002930480040547B312D70074
:100A0000337756006394E202139726000117BD4521
:100A1000B395E50093C5F5FFB3F375003317E30015
:100A2000B363770063928702232A55008506414706
:100A3000E395E6FC23227500124482442101828062
:100A4000E39C97F80CC949BFE39297FE2328550011
:100A5000F1BF37030140032743009317350063D0EC
:100A60000702B707C0FFF517F98F37070007D98FBF
:100A7000D9CD370700F07D17798DC98F49A8635DFF
:100A80000500B707E0FFED17F98F37070007D98F8B
:100A9000BDCD06050581D5B7B70730009316050112
:100AA0003376F500C1826313F602370600F97D162E
:100AB000B377C70003274300798E2322C300A1C95F
:100AC0005581131745003395E60045BF9317B500D0
:100AD00063D407029357050113F6F7008D47B397C8
:100AE000C70093C7F7FFF98F37070007D98F85C174
:100AF000135755011207C1BF558112053395A60042
:100B00009347F5FFF98F37070007D98FBDF53707F2
:100B100001405CC382807300203001A0EFF24FD807
:100B2000371702405C4391462A84B18B6385D70016
:100B3000A146638DD706B7376E01938707601CC047
:100B4000B7160240DC42918313F7F700B707002085
:100B500093874705BA978C23DC42184093F5F50F2D
:100B600093F707083355B70081E73A85EFF00FD5C3
:100B700048C008C448C4B7170240DC43AD83FD8BAE
:100B800013D737008A07F18BD98F93F637010D47BA
:100B90006373D700D1173707002013070704BA97EC
:100BA0008C23EFF0AFD108C86FF02FD05C43B7773C
:100BB000DC02938707C061B799C5371702401C4F05
:100BC0005D8D08CF8280B7170240984F1345F5FF1F
:100BD000798D88CF82801E294A25ED8F420541817B
:100BE00089C76D8D3335A00082800145828093C511
:100BF000F5FFC205C1810EA98280EFF26FCA1629E6
:100C0000F577FD17F58FF621DA252111D58F1EA96D
:100C10005625FD779387379FF58FD6212A842EC0DE
:100C2000D58F9625D58FB625D58F5EA55E29C207AF
:100C3000C18393F7F7CF5D8F5AA94800C535B747F1
:100C400001409387078082456312F406C2475A2405
:100C5000139517003E9542070E0541873E958C413E
:100C6000635807048605EFF06FC5930540062AC058
:100C7000EFF0CFC4824793144500930540063E85AC
:100C8000EFF08FC65E24C207C18763D507020E0549
:100C90009305400613052503EFF04FC21D89C98C4B
:100CA000C204C18006A461016FF02FC0B24745B7EE
:100CB0008A0555BF12059305400613052503EFF07D
:100CC000EFBF3D89E9BF91C55E250967D98F5EA554
:100CD00082805A25F977FD17F98FD5BF93F5F51F57
:100CE0004EA182804A211375F51F82805E2989C535
:100CF00093E787005EA98280C207C183DD9BC2079C
:100D0000C183CDBF0A216D8D3335A0008280B71716
:100D100002409843B706FFFC1367170098C3D843F7
:100D2000758FD8C39843B706F7FEFD16758F98C325
:100D30009843B706FCFFFD16758F98C3D4434177DF
:100D40007D17F98ED4C3B7069F0094C7B72602401B
:100D50009042719A90C290421366160090C2D4439A
:100D6000D4C3D443758FD8C3D843B7060001D8C3C2
:100D70009843558F98C3984393166700E3DD06FEAA
:100D8000D843B7160240719BD8C3D84313672700D6
:100D9000D8C32147DC42B18BE39EE7FE8280EFF2AD
:100DA0002FB0311102C402C602C8FD576313F5000B
:100DB00001A093D7854093F4F7079377F500139735
:100DC0002700856793874770BA979C4311813D89B7
:100DD0002E843EC0EFF03FA52AC29DC08545054543
:100DE000E13B9387F4FF6947636CF70005678A0767
:100DF00013078769BA979C438287854505459139D2
:100E000093572440137734008D8B7DC73AC609472A
:100E10006380E70E0D47638FE70C05476388E70C97
:100E2000C1473EC8EDA08145D1BF854537050010BB
:100E30000905F1B7854537054010DDBF8145E5BFA0
:100E400085453705008011055DBF85453705208044
:100E50007DB7854537052080FDB78145E5BF37055E
:100E6000160085451305050459BF8545370516004D
:100E70001305050869B78545370516001305050CE8
:100E8000BDBF8145D5BF3705180085451305051041
:100E9000BDB7370518008545130505208DB7854575
:100EA000370518001305053099BF8145D5BF854525
:100EB0002165B1B78145EDBF8545370520008DBF60
:100EC0008145E5BF854537052000B5BF8145E5BFB4
:100ED00085453705200069BF8145E5BF8545370554
:100EE00030001305054021BF8145D5BFD14715BF4F
:100EF000E14705BFF14735B705476383E70299C767
:100F000089466381D7029307800221BF02C88247C6
:100F100012452C007C84EFF07FA651016FF0EF9812
:100F2000914701B711840D8893078004E31DE4FC09
:100F3000CDBDFD577D57631CF50082806398A700E7
:100F4000EFF20F968C45A13D6FF02F96B1059C41B5
:100F5000E396E7FE01A07D579C416394E7000145BD
:100F600082806394A700C8418280B105F5B7FD5720
:100F70006307F500EFF2CF92F93F6FF00F93014551
:100F800082806305B50019C181E5AA852E8582801E
:100F90008145EDBF01A001A001A001A001A001A019
:100FA00001A001A001A001A001A001A001A001A039
:100FB00001A001A001A001A001A001A001A001A029
:100FC00001A001A001A001A001A097010020938130
:100FD000E192138181F0170500001305657B97F5F9
:100FE000FF1F938525021386018163FAC5008322C2
:100FF000050023A0550011059105E3EAC5FE138500
:101000000181938501D16377B50023200500110587
:10101000E36DB5FE93020008739002308D42739029
:10102000428097F2FFFF9382E2FD93E232007390D9
:1010300052301705000013050538BD26452EEFF088
:101040001FCD9702000093826231739012347300B7
:10105000203071158280EFF2AF841301C1FDAA84A4
:10106000084D32C605662EC49305C65E3ACA36C818
:10107000FD3D2AD0C84C85669385465DCD3D2A84CA
:10108000885085659385C55BDD352AC0C850856568
:101090009385455AE93D0257056685662AC232CCDA
:1010A00036CE6304070ED04CFD566304D600630EA3
:1010B000040C9050FD566305D60082476387070CE9
:1010C000D050FD566305D60092476380070C3A85E1
:1010D000A285453D824588C06D35924588C055350D
:1010E00088C045C53747014013070780631BE500EB
:1010F00085451165EFF05FAC1307000223860402FB
:1011000098D4E247884C9385C75E253511C4F247D1
:10111000C84C9385475D313D8247814681CB8850DD
:1011200085659385C55B313593060010924791CB59
:10113000C850856593E606209385455A36C0D53B51
:101140008246A24703C7C40288409CC4B247131614
:101150002700DEA4D247138701833297FEA4C2473B
:101160001386440010C33147C8C09EA8BAA8D6A8A9
:1011700001E48545EFF09FB7C84093858400EFF008
:10118000DFA7C8408545EFF01FB4130141026FE0AF
:10119000DFF1EFE2FFF0856783A78761056713073B
:1011A00047628A07BA97804385659385C55E228525
:1011B0007D3B19CD37050020F165930745060147B2
:1011C00081460146938505201305450680CF61358C
:1011D0006FE0BFEDEFE2DFEC8347C502930500024D
:1011E0001397270093870183BA979C438843EFF0B6
:1011F0007FB1133515006FE05FEBEFE27FEA8347C5
:10120000C502930500041397270093870183BA97BB
:101210009C438843EFF01FAF133515006FE0FFE8E4
:10122000EFE21FE8411137040020AA842EC2EFF03C
:10123000EFE39307440683C7C7022AC41304440696
:1012400085E70347C402938701830A07BA979C4343
:10125000F1173EC0938701833EC68247D1EB02C29D
:10126000124541016FE07FE4856783A787610567C9
:10127000130747628A07BA979C4385669385C65EC3
:101280003E853EC0ED31856679D923060402138779
:1012900001831C4391EF8347C402850793F7F70F3F
:1012A0002306F402FDD7F5358347C402D9DB45BFD9
:1012B00002459385C65EEFF09FCB0346C4021387B9
:1012C000018393172600BA979C4385669C43E39459
:1012D000A7FC25DAC9BFEFF06FD9A247B307F540E5
:1012E0003335F500E39DA5F61307703EE369F7F685
:1012F000024521376DF19247A6973EC4A247E3818C
:10130000F4F60245DD3D75FD8347C402324785048E
:101310008A07BA979C4383C5F4FF8843EFF01F9C6C
:10132000F1BF11E57D5582807D556FE01FD8EFE25A
:101330003FD7AA842E84793D65F983C7C4021397E9
:10134000270093870183BA979C438843EFF09F99C6
:1013500008A00145D9BF8280EFE29FD4EFF00FCC07
:10136000EFF08F89EFF08F8FF5BFEFE27FD3EFF0D3
:10137000AFD06FE09FD319CDEFE29FD22A84EFF078
:10138000AFCFAA84C93FEFF02FCF058DE36C85FE68
:101390006FE0BFD18280511106C409205111194557
:1013A00006C40D220545F52AAA8581460146014558
:1013B000A9A25111970700009387873D22C2170405
:1013C00000001304E43C1D8C26C006C40984BE84BE
:1013D00019E41244A240824431016FF06FD77D14AA
:1013E00093172400A6979C438297DDB7511122C220
:1013F0009707000093874739170400001304C43887
:101400001D8C26C006C40984814463968402EFF0D3
:101410004FD4970700009387273717040000130461
:1014200024371D8C0984814463928402A2401244B3
:10143000824431018280139724003E97184385042B
:1014400002979707000093872734C1B713972400AA
:101450003E97184385040297970700009387C73289
:10146000E1B7FD4763F6B700D9471CC17D558280BF
:101470007C41411122C406C62E862A8491C7139747
:101480002500BA97984319EB228532C0B520AA856A
:10149000228522440246B240410115A885460145F5
:1014A0006308D700FD566319D700D9471CC005450E
:1014B000B2402244410182802E8523A0070002977A
:1014C0000145FDB793878180AA85884359BF511193
:1014D00022C22A842E85B28523A601D006C465289F
:1014E000FD576317F5009387C1D09C4391C31CC07F
:1014F000A24012443101828049A8938741839C43D2
:10150000AA8399EF138701C823AAE18217F5FFFF89
:10151000130545AFBA8709C51C4123A4F1D0BA878A
:10152000D8437D437D556346E304638D030203A3E3
:10153000870863000304931227009A9223A0C20035
:101540000325031005463316E600518D2320A31012
:1015500023A0D20889466397D30083264310558E73
:101560002322C310930617000A07D4C3BA978CC767
:101570000145828097F7FFFF9387C7A891C717059A
:101580000000130545E30DB582809307800523A66F
:10159000F1D07D5582809307800523A6F1D07D553B
:1015A000828001A0230000000038014018000000E4
:1015B000FFFFFFFF0000000000000000120000001D
:1015C000003801400B000000FFFFFFFF000000009B
:1015D0000000000026000000003801401800000054
:1015E000FFFFFFFF000000000000000025000000DA
:1015F000003801400B000000FFFFFFFF000000006B
:1016000000000000010000000000000006000000D3
:101610000C0000000D0000000F0000001000000092
:101620000E00000001000000020000001000000099
:101630001100000012000000130000001400000060
:101640001500000016000000170000002000000038
:101650002100000022000000230000002400000000
:101660002500000026000000270000000000000008
:1016700000000000300500006405000026050000A1
:101680002A0500002C050000480500002C0500007C
:10169000B0070000E0070000FA0D0000260E000071
:1016A0002A0E0000340E00003C0E0000400E000028
:1016B0004A0E0000520E00005A0E00005E0E00009E
:1016C0006A0E0000760E0000820E0000860E0000FA
:1016D000920E00009E0E0000AA0E0000AE0E00004A
:1016E000B40E0000B80E0000C00E0000C40E0000D2
:1016F000CC0E0000D00E0000D80E0000DC0E000062
:10170000E80E0000010000000200000004000000DC
:101710000800000010000000200000004000000051
:101720008000000000000000000000000000000039
:1017300000000000000000000000000000000000A9
:101740000000000000000000000000000000000099
:101750000000000000000000000000000000000089
:101760000000000000000000000000000000000079
:101770000000000000000000000000000000000069
:041780000000000065
:08178400741500005E06000070
:10178C001400000000000000140000000000000025
:10179C001400000000000000140000000000000015
:1017AC001400000000000000140000000000000005
:1017BC0014000000000000001400000000000000F5
:1017CC000204060804080C100810182010203040E1
:1017DC00204060800102030405060708010203048F
:1017EC0005060708000000000000000000000000D3
:1017FC00000000000000000000000000FFFFFFFFE1
:10180C00FFFFFFFFFFFFFFFFFFFFFFFF00000000D8
:10181C0001000000000000004417000064170000E5
:10182C002417000000000000000000000000000071
:10183C00000000000000000000000000000000009C
:10184C00000000000000000000000000000000008C
:10185C00000000000000000000000000000000007C
:10186C00000000000000000000000000000000006C
:10187C00000000000000000000000001006CDC0211
:08188C009400002000000000A0
:00000001FF
