:100000006F00903B00000000500100005201000012
:1000100000000000000000000000000000000000E0
:1000200000000000000000000000000000000000D0
:10003000B60B000000000000B60B0000000000003E
:10004000B60B0000B60B0000B60B0000B60B0000AC
:10005000B60B0000B60B0000B60B0000B60B00009C
:10006000B60B0000B60B0000B60B0000B60B00008C
:10007000B60B0000B60B0000B60B0000B60B00007C
:10008000B60B0000B60B0000B60B0000FE08000027
:10009000B60B0000B60B0000B60B0000B60B00005C
:0800A000B60B00000000000097
:1000A800511126C022C206C4828282441244A24050
:1000B80031018280634E050263C305042E86AA853A
:1000C8007D5515C285466378B6006356C00006069E
:1000D8008606E36CB6FE014563E4C500918D558D37
:1000E80085820582F5FA82808682C93F2E858282C2
:1000F8003305A0406347B000B305B040C1B7B305AE
:10010800B0408682653F3305A0408282868263C7FD
:100118000500634905005D372E858282B305B0402E
:10012800E35B05FE3305A040513F3305B0408282B2
:1001380000002A8309CA83830500230073007D1603
:10014800050385056DFA828001A0B707EFBE37E782
:1001580000E0938707083CC701A0B757004003D7C2
:10016800074093870740136707109AA3DA2B058B7C
:1001780075DF130780079AABB7570040938707408E
:10018800DA2B098B75DF9A2F23980700B7570040A1
:1001980093870740DA2B137707086DDF8AABB757C9
:1001A800004093860740DA2A137707086DDF03D7E4
:1001B8000740136707202390E7408280EFF25FEE45
:1001C8002A84138505FB1375F50F413F1355440029
:1001D8001365050159371375F4004137F9B5EFF286
:1001E8003FEC2A84AE8463F38400C1B5A28501453F
:1001F800F137B757004003D7074093860740136786
:1002080007102390E740DE2A858BF5DF93078007E8
:100218009EAAB757004093870740DA2B098B75DFF2
:100228009A2F130700049AAB37570040130707406B
:100238005E2B93F70708EDDF930700083757004058
:100248001306074023180600562A93F60608EDDE23
:10025800FD1793F7F70FEDF783570740050413745D
:10026800F40F93E707202310F740B5BF8D450145EC
:10027800BDB7EFF2FFE2311189654D46938585B12F
:100288000A85453D0144B307810088230504F135FB
:10029800CD47E31AF4FE510109BDEFF27FE0137672
:1002A800F60F5111930706FD2AC093F7F70F25475C
:1002B800AE84636FF70C130616FD1374F60F638A8A
:1002C800060E9947B307F4028146375400403EC2F0
:1002D8000245B385D40093F5F50F36C4C535835769
:1002E8000440A2461307044093E707102310F44084
:1002F8005E2B858BF5DF930780071EAB93070440C1
:10030800DA2B098B75DF9A2F130700049AAB1307B2
:1003180004405E2B93F70708EDDF939726000965E5
:100328003EC40146130545E78D4211439247814576
:10033800B297AA9783C30700814722473E9733D7CE
:10034800E340058B01CB139717003397E2004D8FDD
:100358009375F70F8507E39267FE930704408EAB0A
:10036800DA2B137707086DDF8EAB130704405E2B7B
:1003780093F70708EDDF05069947E319F6FA83575F
:10038800044093E707202310F44095C2310131BBA4
:100398001306D6FD1376F60F930760030144E3E0D6
:1003A800C7F289679387C7D1B297802309BF85466B
:1003B80005B70245A6851935B757004003D707404A
:1003C80093870740136707109AA3DA2B058B75DF0D
:1003D800130780079AABB757004093870740DA2B7B
:1003E800098B75DF9A2F130700049AAB3757004023
:1003F800130707405E2B93F70708EDDF9946B3060E
:10040800D40209668147130646E737570040194367
:10041800B385D700B2958C21130507400EA94E2944
:1004280093F50508EDDD8507E39467FE83570740DC
:1004380093E707202310F74091BFEFF27FC65111D1
:100448002A84B2849D4791C2B5470386040019E205
:100458003101A1B922853EC436C22EC03D3DA24716
:10046800924682453E9485041374F40FF9BFEFF267
:100478003FC3ED3B096685461306C6B28545094567
:100488006D3F09668546130646B385451305D003B7
:100498006D3721B9EFF2DFC0B706002083C7060326
:1004A80041112A838D8393860603B1C77D476393E1
:1004B800E700F94701473386E60000220D8021C096
:1004C8007D466313C40079449374F40F63F4870082
:1004D80093F4F70F1376F40F6374F40013F6F70F21
:1004E800B302E300637F960005079307D005631600
:1004F800F70041015DBE854775BFA2876DBF054402
:10050800E1B713F5F20F93D534001AC63AC432C2D4
:1005180016C06D31B757004003D507403243224714
:100528001365051012468242938507402390A74021
:10053800B707002093860703DE29858BF5DF93072D
:1005480080079EA9B757004093870740CE2B89891B
:10055800F5DD8E2F930500048EABB75500409385CB
:100568000540DE2993F70708EDDF13F5740085478A
:10057800B397A700C207C1839EA9B7570040138548
:1005880007404E2993F50508EDDD83D5074085041E
:1005980093F4F40F93E505202390B740A1B7EFF249
:1005A8003FB09377F50F51111387F7FC2EC01377DF
:1005B800F70F89462A8663E7E6089307F5FCE20702
:1005C800E187014789660A07938646E63697184306
:1005D8008A0723AEE1860967130787E5BA979C4324
:1005E8003707002023ACF186130707038147B706B6
:1005F800002083C54600B386E700130580028CA25D
:1006080032C43EC2EF00D05F9247370700209306FE
:10061800D0058507224613070703E39AD7FC32C2A1
:10062800B1311246854685452D4585391305300279
:1006380095350245EF00B05F23AE018623AC0186F5
:10064800514525A8130700036309E504635CA70067
:10065800130760036347A7029307C5FCE207E18716
:1006680005478DB793073002630CF5029306A00285
:1006780081470D47E308D5F40245EF00505B31018F
:100688002DB4938797FC93F7F70FE3E7F6FE9307EC
:1006980095FCE207E187094735B785470D471DB740
:1006A8008947EDBFEFF2DF9F011189657946938590
:1006B800C5B30A85BD3C0144B70400200A85EF1084
:1006C80020446364A4000561CDB2B307810083A50B
:1006D8000400038507000504D935CDB7EFF25F9C08
:1006E80009651305C5B5EF10003B0964130544B649
:1006F800EF10803C0965130505B9EF10E03B1305C1
:1007080044B6EF10603B0965130545BBEF10C03ACE
:1007180009651305C5BDEF10203A0965130505C025
:10072800EF1080390965130505C2EF10E038096537
:10073800130585C4EF1040380965130505C7EF1088
:10074800A0370965130545C9EF100037096413057B
:1007580004CBEF10603609651305C5CDEF10C03521
:10076800B707002083A507000965130585CEEF109C
:1007780080320965938501861305C5CFEF10A03136
:10078800130504CBEF1040330965130505D1EF10AD
:10079800803021BAEFF2DF901165130181FB8545A6
:1007A8001305150302C602C802CA02CC02CE02D043
:1007B80002D202D402D602D802DA02C002C223143C
:1007C800010002DC02DE82C082C2EF00301637056B
:1007D800200085450505EF005017930700037C8628
:1007E80037140140E1473ECA6C00854713050440B1
:1007F8003EC8A121930700047C866C00914713052D
:1008080004403ECA1D29F1673744014093870720F9
:100818003ECC2C08B147130504802311F102EF00E8
:10082800B02E130504808545EF00B03799477C86C4
:100838006C00F147371501403ECA0121375400408A
:10084800B7270600938707A82C10130504403ED449
:1008580023160102EF00A073130504408545EF003D
:10086800F0009307F00F8A85370500407C8223103B
:100878000100EF00700FC167938707063EDC2C1854
:100888009307000837050040231FF102EF0090147A
:10089800854537050040EF00701E130181046FF095
:1008A800DF80EFF2EFFF05645111130504808545E1
:1008B8001304F49502C002C223140100EF001007CC
:1008C8006082373401408A85130504C0EF00D009DF
:1008D8000546130504C08545EF00B01FB7E700E0E3
:1008E800214723A2E7108545130504C0EF0010191E
:1008F80031016FF08FFB373501408545130505C081
:10090800EF00501E3DC103A7C18735C383A6C18729
:1009180083A74188B69723A2F18803A6818783A677
:100928000188B29623A0D18803A7418883A60188AD
:100938008967938747D56183E1823E97B6971823E5
:100948009C23BA978583370700202302F700834743
:1009580047003707004093F7F70F5CDB3735014056
:100968008545130505C0EF00701973002030B707DF
:10097800004013070008D8DBD5B7EFF26FF271110A
:100988000545EF00207037040020EF00702419356A
:10099800093FEFF01F8EE13C9133B7440140B74760
:1009A80001409305000213850780EF00D02165D927
:1009B80013850480EF00B020131685016186930724
:1009C80000076319F600F9391305803EEF00302659
:1009D800793CF9A09307A0026306F60C63CCC70222
:1009E800B5476309F60093070002630BF60CA947A5
:1009F800631DF60C81479384018683C6D18563C63F
:100A0800D70A1305803EEF009022A38E018423802D
:100A180004007DBF9307B0026300F6069307D00277
:100A28006307F60683C7D1854547E368F7F61305DC
:100A380005FD1375F50F2547E361A7F693861700A3
:100A480093F6F60FA38ED18413870186BA9790A3E5
:100A5800369732C023000700EFF05F8102468546D3
:100A680085452D45EFF07F838146138601868D45A8
:100A78000145EFF09F9C2DA0832704004D47D9170F
:100A88006355F7002320F40021A8D147E5BF832749
:100A980004001307401FA907E356F7FE2320E400CC
:100AA8003539E5BD93070005F1BFB386F40083250A
:100AB8000400038506003EC0DD348247850735BF44
:100AC800A38E01842380018621B783C7D18545473A
:100AD800E365F7EC130505FD1375F50F2547E37F6F
:100AE800A7F413073002E31AE6EA89BFEFF24FDBF7
:100AF8008946B72702403714024094C31C40370781
:100B0800FF68C17493E717001CC05C40FD14F98F9F
:100B18005CC01C403707D7FE6D17F98F37071000E8
:100B2800D98F1CC01C403707FCFF7D17F98F1CC0EC
:100B38005C40E58F5CC0B7079D001CC41C4C93E764
:100B480007021CCCB71701409387074098431377D7
:100B5800F7F098C398431367070898C394CB892A7A
:100B68005C4037070001B70600025CC05C40E58FB7
:100B78005CC05C405CC01C40D98F1CC0B7170240E9
:100B88009843758F75DFD843B7160240719BD8C359
:100B9800D84313672700D8C32147DC42B18BE39EB3
:100BA800E7FEB7270240094798C36FF00FD001A0AE
:100BB80097010020938181C7171100201301014478
:100BC800171500001305C53897F5FF1F93850543D2
:100BD80017F6FF1F1306864563FAC5008322050032
:100BE80023A0550011059105E3EAC5FE17F5FF1F7F
:100BF8001305C543938501896377B5002320050054
:100C08001105E36DB5FE8962938202887390023004
:100C18008D427390428097F2FFFF9382223E93E2C7
:100C2800320073905230EFF07FEC9702000093820D
:100C380002D57390123473002030944593F706015F
:100C480013F3F60081C7DC413363F30083D2050058
:100C580093F7F20FA9CF0C41611122C226C0814738
:100C6800930380023D449304800405473317F7003B
:100C780033F6E2006310C7026397760258C91396E9
:100C880027003317C4001347F7FF6D8F3316C300CF
:100C9800B365E60085072147E399E7FC12440CC1D8
:100CA800824421018280E39C96FC18C9C9BF8280D6
:100CB800EFF20FBF511185451305C00302C002C2F0
:100CC80002C4AD21B7F7FF1F03A74770B70652004C
:100CD800938606609377F7F06386D70A63E2F60C8B
:100CE800B7062400938606606380D72063E0F60485
:100CF800B706220093860660638FD72463EFF60059
:100D0800C1779387F7F0F98F37072000130707603B
:100D1800639BE7009307900F35A837072300130755
:100D280007606384E72031016FF02FB8B7065000E1
:100D3800938606606383D71A63E0F604C1779387C6
:100D4800F7F07D8FB707400093870760E39DE7FCC6
:100D58009307900E371401407C808A8593078002A0
:100D6800130504803EC4D13D9307F0077C808A8533
:100D7800130504C0D93545BF37075100130707606D
:100D8800E393E7FA93079006371401407C808A853D
:100D980093078002130504803EC44535AD47F9B773
:100DA8003707640013070760E386E7F66361F70611
:100DB8003707620013070760E38CE7F86364F704FA
:100DC8003707530013070760638DE70C3707610087
:100DD80013070760E399E7F4930700083714014005
:100DE8007C808A8593078002130504803EC4B13550
:100DF800930740078A85130504C07C803D3D93070F
:100E0800800CADA0370763001307076081B7371759
:100E18007300130707806386E702636BF7003717D1
:100E28007000130707806388E704370771004DB720
:100E38003717740013070780E397E7EE9307000C52
:100E480071BF9307000C371401407C808A85930793
:100E58008002130504803EC4CD33930740078A857A
:100E6800130504C07C80D13B9307900C7C808A8555
:100E78003715014001B79307000C371401407C80F7
:100E88008A8593078002130504803EC47D33930747
:100E980040078A85130504C07C8045339307B00C4E
:100EA800F1B793079006371401407C808A85930731
:100EB8008002130504803EC44933AD478A85130573
:100EC80004C07C809D3B9307C0028A85371501408A
:100ED8007C80A5339307C006A1A09307800C7C8073
:100EE800930780023EC461B79307900F37140140FF
:100EF8007C808A8593078002130504803EC4353BB5
:100F08009307F0078A85130504C07C803D33930757
:100F1800900E8A85371501407C8005339307D008E9
:100F28007C808A8513050440B1B59307900F371468
:100F380001407C808A8593078002130504803EC4A3
:100F4800ED399307F0078A85130504C07C80F531D5
:100F5800930760029DBF9307900F371401407C8070
:100F68008A8593078002130504803EC4F9319307EC
:100F7800F0078A85130504C07C80C13193070002FD
:100F88008A85371501407C804D39B54751BFEFF24E
:100F98002F915E211111AA84C207C18393F707FC20
:100FA800C207C18328002E843EC2C520C247B74568
:100FB8000F00938505243E853EC0EFF02F909247A1
:100FC8000C40C98FC207C183DEA09E20C207C1831F
:100FD800F99BC207C1839EA0E1679387076A63E50F
:100FE800B70402458605EFF06F8DAA874205418157
:100FF80091466373D5009147C207C183DEAC9E203A
:101008005620322493E717009EA09E20D18EC20757
:10101800C18393F757BFD58F9EA016245E24D58F22
:101028009EA471016FF06F887620B167FD176393F6
:10103800F6028D47B385F5020245EFF02F88931726
:101048000501C1839396470199E293E71700A166CA
:10105800D58F6DB7E547B385F5020245EFF00F86EA
:1010680093170501C1839166D58FE9BF1E2189C5F4
:1010780093E717001EA18280C207C183F99BC207AC
:10108800C183CDBF23A4A1888280EFF26F81371777
:1010980002405C43A1462A84B18B6394D7085C4321
:1010A800B777DC02938707C01CC03716024054424A
:1010B80037070020130707029182BD8A3697082355
:1010C80058429375F50F1377070833D5A70001E742
:1010D8003E85EFE0BFFE48C008C448C4B7170240C9
:1010E800DC438D46AD83FD8B13D737008A07F18B20
:1010F800D98F13F6370113F7370063F4C600138747
:1011080047FFB7170240DC4363CA0700B707002050
:101118009387C700BA978C23EFE05FFA08C86FE09F
:10112800DFF8B7376E0193870760BDBF99C53717DA
:1011380002401C4FC98F1CCF8280B7170240984FBE
:101148001345F5FF798D88CF828099C537170240FE
:101158005C4FC98F5CCF8280B7170240D84F1345C8
:10116800F5FF798DC8CF8280B7370140938707C0D4
:101178006306F500B7070040631DF5021E21BA217A
:10118800C207C18393F7F7F8D98FFA2193F7F7CFFE
:10119800D98F1EA1DE215EB59E211EB5B73701404D
:1011A800938707C06314F5009C251EB985475EA97F
:1011B8008280B717004093870780631CF5001E21C3
:1011C800BA21C207C18393F7F7F8D98F1EA1DE2190
:1011D8005EA582801E319A2103D38500C207C18390
:1011E800F99BC207C1831EB11E315221162DC207B9
:1011F800C183C206C18293F6C6F8D98EBA21F59B7F
:1012080042063367E300D98F37370140130707C019
:1012180041826316E502BA25DD9B03D3E500D98F29
:10122800DA21ED9B1376F6CFD98FDA25336767007D
:10123800598EFA2152A116AD58D91EB182803707AE
:101248000040E318E5FE03574504060342074183BF
:10125800499B420741832312E50483524504DA215E
:1012680083D3A5000983B3E272003367570033675D
:101278006700420741832312E50465BFB737014081
:10128800938707C09DC16306F500B7070040631741
:10129800F5001E2193E717001EA139A0B7170040DB
:1012A80093870780E307F5FE82806306F500B7079A
:1012B80000406319F5001E21C207C183F99BC207CC
:1012C800C183D9BFB717004093870780E31EF5FC99
:1012D800DDB75E2501C6CD8F5EA5828093C5F5FF7B
:1012E800ED8FDDBF1E294A25ED8F4205418189C753
:1012F8006D8D3335A00082800145828093C5F5FF4E
:10130800C205C1810EA98280EFE29FD91629F5771F
:10131800FD17FD8EFE21DA252111D58F1EA9562530
:10132800FD779387379FFD8EDE212A84AE84D58F83
:101338009625D58FB625D58F5EA55E29C207C183B0
:1013480093F7F7CFD98F5EA948008133B74701409B
:10135800938707806315F404C24765453385A70260
:101368008C408A05EFE09FD5930540062AC0EFE040
:10137800FFD493144500024593054006EFE0DFD6FD
:1013880012059305400613052503EFE03FD33D8979
:10139800458D420541810AA461016FE01FD1B24722
:1013A8006DBF5E2589C50967D98F5EA5828079776B
:1013B8007D17F98FDDBF93F5F51F4EA182804A2175
:1013C8001375F51F82800A216D8D3335A000828048
:1013D800EFE21FCDB707002003A58700B7157A00F5
:1013E80093850520EFE09FCD1375F50F2387A1881E
:1013F8009307803E3305F5022396A1886FE0FFCA64
:10140800B7F700E0D843799BD8C303C7E18833070F
:10141800A70298CB23A4070098431367170098C323
:10142800D843058B75DF9843799B98C38280B7F7BB
:1014380000E0D843799BD8C303D7C1883307A702F4
:1014480098CB23A4070098431367170098C3D84381
:10145800058B75DF9843799B98C38280EFE25FC460
:1014680061112EC232C0014482476358F402B74466
:101478000140B74701409305000413850780A13751
:101488006DD9924713850480B3868700838506004B
:101498000504C205C1810537C1BF024521016FE0BE
:1014A800DFC0411106C62EC00DCD1841AA8705C35D
:1014B80058417D5511CB8546631BD70098472300BB
:1014C800070023A207000545B240410182809847E2
:1014D800824614A39847050798C7D8437D17D8C3F1
:1014E800DDB705468A859D3FF9BF011126CA06CE9C
:1014F80022CC2AC02EC2B28493F71600634D060888
:101508002E853EC63AC43684E52B2247B2472A8345
:10151800635195086351E504998C13040002C1EFE7
:10152800A687634FF006A68763D3040081479D8C86
:10153800635BE30233076740BA86024593050003FD
:101548003AC83EC636C4B13FA246B2474247FD1626
:10155800EDF6BA9709A8898C098861D05DFF95CF07
:101568008147130400033E871246B306F740B2963C
:1015780083850600B9E1A6876349F004268663D30C
:1015880004000146F2406244D2443305E600056196
:1015980082808144D1B7014349B71304000349B796
:1015A8000245A2853AC81AC63EC4E53DA24742474D
:1015B8003243FD17BDB78147A5BF02453AC63EC4B1
:1015C800CD353247A247050745B70245A2853AC43B
:1015D8003EC2C13D92472247FD1779BF397126DACD
:1015E80006DE22DC2AC03EC42E83BA8491EDA246D0
:1015F80093070003014726866C08FC86FD35F250E8
:101608006254D25421618280B285368491CA2947B6
:1016180001446317E6006355030033036040054443
:101628008647A309010213073103938767FC3EC667
:101638001A853ACA2EC81AC2EFE01FABA547124353
:10164800C245524763D4A700B2473E951305050328
:101658009307F7FFA30FA7FE1A853ACC2ECA1AC81C
:101668003EC2EFE0BFA54243D24562476376B3046A
:1016780011C8B1C4A247898BB9C302459305D002EA
:10168800FD140535A247918B85C3064793071006BD
:10169800024593050003631EF70221359305800771
:1016A80002450904F914F53B1647A246924502453E
:1016B8002686253D2295A1B712472A8395BF9246D3
:1016C8009307D0020144A38FF6FE9307E7FF3EC2BB
:1016D80055BFC13B93058005E1B7014582800145AF
:1016E8008280130181FD22D006D226CE2AC62EC4BE
:1016F800328302C80144A2478385070089EDB247B7
:1017080081C781453E85713B925022850254F2443F
:1017180013018102828093075002638BF5003245E2
:101728001ACA0504BD3B5243A24785073EC4E1B728
:10173800A2479384170083871700639AB70032453E
:10174800930550021ACA0504A93B26C4E9BFC5DBA4
:101758001307D0026387E702634CF70013073002D0
:10176800638EE7041307B0026386E704814731A854
:1017780013070003E39CE7FEA247938427008947E9
:1017880029A0A2479384270085470387040093066E
:10179800D0026301D70463C8E60293063002630EE1
:1017A800D7029306B002630CD70226C40145A546AA
:1017B800A94281A0A247938427004DBFA2479384E2
:1017C80027009147D9B793060003E310D7FE93E7A4
:1017D800270031A085048547C9BF93E747008504E2
:1017E800E9B733055502620761873A95224705072D
:1017F8003AC4224703060700130706FD9375F70F3F
:10180800E3F1B6FE1307E00299466312E6022247A7
:101818008146254605073AC4A9452247030707001C
:10182800130707FD9372F70F637A560236C82247EB
:101838001306C006030707006302C7046349E602EC
:10184800130680066306C7081306A006630BC708BD
:101858001306C0046307C708014635A8B386B60255
:1018680062076187BA96224705073AC47DB713060F
:1018780040076308C7061306A007E9BF2246830589
:1018880016000D466396E5002247114605073AC43F
:10189800224705073AC422479305000603070700B5
:1018A80063D5E50493058007E3C0E5E893052006C2
:1018B800E3DCE5E61307D7F91377F70FD545E3E53A
:1018C800E5E689650A079385C5EF2E9718430287D1
:1018D8002246830516000146E39FE5FA22470907D9
:1018E80055BF224705073AC485BF9305700463C7EF
:1018F800E50213064004634CE61693063004E3152C
:10190800D7E20327030093044300A30C0100230C30
:10191800E100BE8601472A862C08A9A09305800508
:1019280093061004E312B7E011476314E608832511
:101938000300032643009304830036C23EC00147D8
:10194800AA87C1463245513B2A942683F1BB832599
:1019580003009304430081E58965938545EF424779
:10196800BE862A863245EFF05FB8F9BF114763108B
:10197800E602130710068325030003264300930499
:1019880083003AC23EC00547AA87A94665BF4247B9
:1019980083250300930443003AC2130710063AC094
:1019A80085462A8729463245153979BF9306100698
:1019B800A5BF424783250300930443003AC236C0BB
:1019C8002A8781464146C5B71147631FE6001307BA
:1019D80010068325030003264300930483003AC2BC
:1019E8003EC00147AA8755B74247832503009304A1
:1019F80043003AC2130710063AC081462A875DB7EA
:101A0800114793E74700631CE60013071006832578
:101A1800030003264300930483003AC205B74247F4
:101A280083250300930443003AC2130710063AC003
:101A380041BF11476310E602130710068325030010
:101A480003264300930483003AC23EC00147AA8795
:101A5800A146CDBD424783250300930443003AC203
:101A6800130710063AC081462A8721462DBF13075F
:101A780010048325030093048300032343003AC220
:101A88002A8732453EC01A86B687A94689396DBD70
:101A980013071006F9BF1301C1FD2EC832CAAA8563
:101AA8001008014506C636CC3ACE3ED032C01539AC
:101AB800B240130141028280411122C426C206C6E7
:101AC80083070500AA840144DC81050499EFA9472E
:101AD8009305310005460145DC81EFF03F98B2409F
:101AE80022852244924441018280054693053100B3
:101AF8000145EFF0BF96B387840083870700E9B7F5
:101B0800AA879823850775FF3385A7407D158280AE
:101B1800AED580A81FD300408D14A1C8DA02817FFA
:101B2800A4A6AF0044544D4600000000524541446D
:101B3800590000003332313233333320323232200D
:101B48003336362033323132333333333232333271
:101B5800310000001B5B324A1B5B48003D3D3D3DA8
:101B68003D3D3D3D3D3D3D3D3D3D3D3D3D3D3D3D9D
:101B78003D3D3D3D3D3D3D3D3D3D3D3D3D3D3D3D8D
:101B88003D3D3D3D0D0000002020204348333256A6
:101B98003030362044544D46204D41535445522050
:101BA800434F4D4D414E4445520D0000205B302DB2
:101BB800392C2A2C235D203A20496E7075742064D4
:101BC800696769747320746F206275666665720D43
:101BD80000000000205B454E5445525D2020202027
:101BE8003A204469616C20616C6C2066726F6D20CC
:101BF8006275666665720D00205B705D202020208E
:101C0800202020203A20506C61792053656372654A
:101C18007420536F6E670D00205B2B5D2020202001
:101C2800202020203A20496E637265617365205434
:101C3800656D706F2028466173746572290D000008
:101C4800205B2D5D20202020202020203A20446584
:101C58006372656173652054656D706F2028536CDD
:101C68006F776572290D0000205B2A5D20202020F7
:101C7800202020203A2052657365742054656D70C9
:101C88006F20746F2038306D730D0000205B535047
:101C98004143455D202020203A20436C6561722035
:101CA8004275666665720D002D2D2D2D2D2D2D2D5D
:101CB8002D2D2D2D2D2D2D2D2D2D2D2D2D2D2D2D4C
:101CC8002D2D2D2D2D2D2D2D2D2D2D2D2D2D2D2D3C
:101CD8000D000000205354415455533A0D000000A4
:101CE800202054656D706F20203A202564206D7384
:101CF8000D0A00002020427566666572203A205B56
:101D080025735D0D0A00000020434F4D4D414E44A0
:101D1800203E20000C0000000000000B0000000026
:101D280000000000000000000000000000000000AB
:101D380000001200000D11100000000000000F004C
:101D480000000013000E0000000014008083868944
:101D58008C8F9295989C9FA2A5A8ABAEB0B3B6B94C
:101D6800BCBFC1C4C7C9CCCED1D3D5D7DADCDEE07D
:101D7800E2E4E6E8EAEBEDEEF0F1F3F4F5F6F7F875
:101D8800F9FAFBFBFCFDFDFEFEFEFEFEFFFEFEFE7D
:101D9800FEFEFEFDFDFCFBFBFAF9F8F7F6F5F4F3A1
:101DA800F1F0EEEDEBEAE8E6E4E2E0DEDCDAD7D5E6
:101DB800D3D1CECCC9C7C4C1BFBCB9B6B3B0AEAB22
:101DC800A8A5A29F9C9895928F8C898683807C7900
:101DD8007673706D6A6763605D5A5754514F4C490A
:101DE8004643403E3B383633312E2C2A28252321C2
:101DF8001F1D1B1917151412110F0E0C0B0A0908B9
:101E080007060504040302020101010101000101A2
:101E180001010101020203040405060708090A0B6F
:101E28000C0E0F1112141517191B1D1F212325281D
:101E38002A2C2E313336383B3E404346494C4F51CD
:101E480054575A5D6063676A6D707376797C0000D9
:101E5800B0A6790F00CE191160D5E712F0EDEB08A6
:101E6800D022DB0960D5E70A00780B0C00000000DF
:101E780000003E5149453E0000427F40000042615B
:101E8800514946002141454B31001814127F10007A
:101E98002745454539003C4A494930000171090543
:101EA8000300364949493600064949291E002214CB
:101EB8000814220008083E0808007F4141221C003F
:101EC80001017F0101007F0204027F007F090901EF
:101ED80001007F49494941007C1211127C007F09A9
:101EE800192946000304780403000000286E756C65
:101EF8006C2900000A19000074190000981A0000E3
:101F0800981A0000981A00003017000030170000D7
:101F1800301700003017000030170000301700009D
:101F2800301700003A1A0000081A000030170000A5
:101F3800301700005619000030170000D0190000B3
:0C1F48003017000030170000B419000032
:101F54005000000080000000006CDC02020406084F
:101F640004080C1008101820102030402040608015
:101F74000102030405060708010203040506070815
:00000001FF
