:100000006F10201F000000003E0D0000420D000098
:1000100000000000000000000000000000000000E0
:1000200000000000000000000000000000000000D0
:10003000AE0A000000000000C21100000000000035
:10004000C4110000C6110000C8110000CA11000050
:100050004C0B0000CE110000D0110000D2110000A6
:10006000D4110000D6110000D8110000DA110000F0
:10007000DC110000DE110000E0110000E2110000C0
:10008000E4110000E6110000E8110000EA08000099
:10009000EC1100008409000092090000000000003B
:1000A0003367B500FD530D8B79E7B7877F7F938763
:1000B000F7F710419441B372F6003363F600BE9235
:1000C000B3E262006395720C6318D6065041D441C6
:1000D000B372F6003363F600BE92B3E26200639639
:1000E000720A631BD60410459445B372F60033635D
:1000F000F600BE92B3E26200639F7208631ED602EE
:100100005045D445B372F6003363F600BE92B3E2B5
:100110006200639872086311D60210499449B37261
:10012000F6003363F600BE92B3E262006391720898
:100130005105D105E30FD6F6131706019397060173
:10014000631CF7001357060193D706013305F740E8
:100150009375F50F91E982804183C1833305F740A0
:100160009375F50F91E182801377F70F93F7F70FEF
:100170003305F7408280102194210505850563131E
:10018000D60075FA3305D640828011059105E31437
:10019000D6FE014582802105A105E31ED6FC01455E
:1001A00082803105B105E318D6FC01458280410506
:1001B000C105E312D6FC01458280511126C022C23E
:1001C00006C4828282441244A2403101828000002F
:1001D000634E050263C305042E86AA857D5515C2AC
:1001E00085466378B6006356C00006068606E36C53
:1001F000B6FE014563E4C500918D558D858205826B
:10020000F5FA82808682C93F2E8582823305A0401E
:1002100063D70500B305B040C1B7B305B0408682CF
:10022000653F3305A0408282868263C7050063492B
:1002300005005D372E858282B305B040E35B05FE85
:100240003305A040513F3305B04082820000EFF2F9
:10025000DFF651119307E0F77C80994723140100E2
:100260005C81BD5702C2DC8493D78540DC82C881A3
:100270004C83054781479D463306E1001022050760
:10028000B297C207C183E319D7FEB307F040C20794
:10029000C18313D787405C84D8838147B746014028
:1002A000294603D706801377070865DF3307F10077
:1002B000182385072392E680E395C7FE5145EF108A
:1002C000202E310101B7B71701409843B7160F0030
:1002D000FD16758F98C39843B7363083558F98C3F2
:1002E000D84713678708D8C78280A1460147B71748
:1002F000014013168501618663500604D0471366DA
:100300000604D0C7D0470605060713660602D0C705
:1003100090471375F50F1377F70F1376060819C278
:1003200013671700D047FD1693F6F60F1376F6FD08
:10033000D0C7E1F23A858280D0471376F6FBD1B779
:10034000371701405C4793E727005CC78280371767
:1003500001405C47F59B5CC78280371701405C47D2
:1003600093E747005CC78280371701405C47ED9BED
:100370005CC78280EFF27FE4E137C537C93FED37D4
:1003800091B5EFF29FE3E137C93F5D3F25BDEFF245
:10039000DFE2AA84214493978401E18763D00702B6
:1003A00045377D1486041374F40F453F93F4F40F1E
:1003B000653F75F071375537453F29B5493FD5B78A
:1003C000EFF2BFDF2A847D3713058007C937014567
:1003D0007D3F22856D3F7537F5B3EFF21FDE1305C4
:1003E000E00AF93F13050002E13F0945D13F13053B
:1003F000D008F9375145E9371305F00AD137D9B399
:10040000EFF2BFDB938505FB2A8413F5F50F4D3F13
:100410001375F400753713554400410555375DB326
:10042000EFF2BFD90144A2850145D93FA137130599
:100430008007B13F13050004993F93040008FD14A1
:10044000C2040145C180A137FDF8253F050413749E
:10045000F40FA147E319F4FCB5B3EFF21FD62A84D9
:10046000930704FE93F7F70F1307E0052E856374D7
:10047000F70013040002B2856137ED3D13058007D4
:10048000393713050004213793172400A297056418
:100490001304C47F3E949544034504F6FD1493F47D
:1004A000F40FF5350504EDF80145D535D93D19BBF7
:1004B000EFF2BFD07111AA842E84B28703850400A5
:1004C00019C93E86A2853EC01904413F85041374B4
:1004D000F40F8247E5B71101F5B1EFF21FCEAA8400
:1004E000813737150000014691451305057DC93751
:1004F00081E837150000094691451305857E4D3F7B
:10050000370400200325840F0946C1455537854728
:100510001304840F6399F4003715000011469145C8
:100520001305857E713748401146C145513737154F
:1005300000001D46D9451305C57E9D3F61B1EFF210
:10054000DFC751112AC02EC281441247939704017C
:10055000C18363F2E70A8247371701401394A4006E
:100560003E945C470D45DD9B5CC741331355040148
:100570001375F50F9D3B135584001375F50FB533B7
:100580001375F40F9D331304000B2285153D0145AF
:10059000053D41453535F93B13058007CD3B130536
:1005A0000004F5339307000801453EC43D3BC533C5
:1005B000A247FD17C207C183E5FBE13305041374AD
:1005C000F40F9307800BE312F4FC371401405C44F2
:1005D0002945850493E787005CC4EF00707C1C44C8
:1005E000C18BA5F7B71701409C47C18B89E7294507
:1005F000EF00107BC5BF3101F1B6EFF21FBCB7169B
:1006000002409C4E11671307D703D98F9CCEB717B2
:1006100001409843FD76BD06758F98C39843B70691
:1006200010FFFD161367075598C303A70740014441
:10063000758F23A0E74003A70740B706B000558F8A
:10064000856623A0E7409386863837470140231408
:10065000D7808966A1062316D7809843B706F1FF95
:10066000FD16758F98C39843B7060800558F98C339
:10067000D84713670701D8C7B9318533B71401408C
:10068000DC440D45DD9BDCC48D310145B9390145A4
:10069000A9391375F40F9139014581399386818306
:1006A000B387860088A3DC44050493E78700DCC495
:1006B0008D47E315F4FCB72500009385C59D138590
:1006C0008183A3810600EFF0BF9D35ED01442285B3
:1006D0002935B71401409C44C18BF5FF7945EF00E3
:1006E000306C9C44C18BF5F7EF00D06AAA84B71731
:1006F00001409C47C18B89E72945EF00706AC5BF5F
:10070000EF005069058D9307301F63E8A700F94794
:10071000E3F1A7FC134414005DBF193393051400E3
:100720000D4535369386818193171400BE96138745
:10073000018193172400BA978E2288430935814599
:100740005945313669B7BDBC8280014582808280BF
:100750007D558280EFF27FA61C417111CC81DC4374
:10076000930531000546829711016FF0BFA5EFF2A6
:10077000DFA47111930531004105EF00305D09E5FB
:10078000888111016FF01FA47D55E5BFEFF2FFA234
:100790002E85B285EF00504B6FF0DFA213F7F50FF7
:1007A000C54763EDE70089679387C7A70A073E97A8
:1007B00093F705700C43CD8F5CD5828093F6050CC2
:1007C0001306000CFD57E399C6FE9306700CE3E593
:1007D000E6FE93F7F50309671307C7A58A07BA97DB
:1007E0009C4309671307C7A78A07BA9793F5057053
:1007F0009C43D1B713F7F50FC54763EDE700896751
:100800009387C7A70A073E9793F705700C43CD8FD0
:100810001CD5828093F6050C1306000CFD57E39956
:10082000C6FE9306700CE3E5E6FE93F7F503096751
:100830001307C7A58A07BA979C4309671307C7A779
:100840008A07BA9793F505709C43D1B7EFF2FF96EC
:100850009307803E1CC589679387C7AC1CC10CC930
:10086000232205009305600C2A840D3F9305500C4C
:100870002285493758541C546314F700FD575CD443
:10088000FD571CD85CD86FF0FF93EFF21F93B7456C
:10089000014093850580138581844D3F6FF09F92C1
:1008A000EFF2BF91184519E3EF0090515C45829734
:1008B0006FF05F9111E101A0EFF23F902A840841AF
:1008C0008545352B0DC11C40DE27858B89CF2285C0
:1008D000EF00B01A08415C5D81C713054503C937B5
:1008E000084085450D2B6FF0FF8D03A5018219C1CE
:1008F0001105C9377300203011E101A01C41DA272E
:10090000098B11EBDA27118B19E7DA27218B01E725
:10091000DA27418B3DC7EFF25F8A2A8489453E85FD
:10092000F9291C4015C189453E85F521854422855C
:10093000EF00B014084192049384440326951C45AB
:1009400091C3B93F6FF01F883E8591454D291C40EA
:1009500011C591453E85C1218944D1BF3E85A14540
:1009600079291C4011C5A1453E8575218D44C1B72B
:10097000C1453E85692145DD0840C1459144612955
:100980007DB7828003A5018219C11105B5377300B7
:100990002030711122C013840182484011C5110515
:1009A000113F48401105893F024411017300203076
:1009B000EFF2BF802A84EF00F03D48C41C4022853E
:1009C000DC4B8297635A0500EF00D03C5C441D8DE0
:1009D0001C44E365F5FE7D556FF0CFFEEFF2EFFDB1
:1009E0006111AA8401442EC232C0630DC400268561
:1009F000C1376349050092450246B387850088A345
:100A00000504D5B7228521016FF0CFFBEFF2EFFA95
:100A10005111014495C6B684AA8701443E8532C46B
:100A20002EC23EC07137634D05009245630AB50082
:100A3000224682473307860008A30504E39084FE1C
:100A4000228531016FF00FF8EFF22FF7E1206FF000
:100A50006FF7EFF28FF685476301F50219C58947F5
:100A60006303F50201456FF0EFF5114585458D2EC5
:100A70003715014013050580FDB7414585458D2695
:100A800037150140CDB7130500028545912E371566
:100A9000014013050540C1BF03A5818283A5C18222
:100AA00082808280EFF26FF1C53F6FF0AFF19387E4
:100AB000818203A3070083A3470013071300333584
:100AC000670098C3B3067500D4C3E13FB7F700E0F1
:100AD00023A2070073002030EFF22FEE37F400E07E
:100AE00023220400232004002324040003A5818082
:100AF0009305803EEFF04FEE7D1508C8BD471CC042
:100B00007D57B7E700E02386E740056723A0E7109D
:100B10006FF04FEBEFF26FEAC1376FF0AFEA81474A
:100B200005476307E5008507058193F7F70FD5BFF4
:100B3000370700208E0713070700BA97DC4391C7D9
:100B4000EFF2AFE782976FF0EFE78280611122C288
:100B500026C00544A1442285152019C522853528C3
:100B6000131504014181653FFD140604EDF41244A0
:100B7000824421017300203082808280B7070140C7
:100B80001387074083A70740584B698F09C77D8D9E
:100B90003335A000828001458280B707014023AA37
:100BA000A74082809C45611122C226C013F707012D
:100BB00013F3F70001C7D8413363E30092211377A1
:100BC000F60F29C78323050001471304800293040D
:100BD00080048546B395E600B376B6006392D502ED
:100BE00093122700BD46B396560093C6F6FFB3F3A3
:100BF0007600B3125300B3E37200639787064CC9C3
:100C00000507A146E317D7FC232075001307F00F53
:100C10006378C70483234500A1461304800293042C
:100C200080040547B312D700337756006394E2027D
:100C3000139726000117BD45B395E50093C5F5FF51
:100C4000B3F375003317E300B36377006392870251
:100C5000232A550085064147E395E6FC23227500CB
:100C60001244824421018280E39C97F80CC949BF59
:100C7000E39297FE23285500F1BF37030140032775
:100C800043009317350063D00702B707C0FFF5177D
:100C9000F98F37070007D98FD9CD370700F07D17B7
:100CA000798DC98F49A8635D0500B707E0FFED178F
:100CB000F98F37070007D98FBDCD06050581D5B758
:100CC000B7073000931605013376F500C182631330
:100CD000F602370600F97D16B377C70003274300F5
:100CE000798E2322C300A1C955811317450033957E
:100CF000E60045BF9317B50063D40702935705017B
:100D000013F6F7008D47B397C70093C7F7FFF98F26
:100D100037070007D98F85C1135755011207C1BF87
:100D2000558112053395A6009347F5FFF98F3707D4
:100D30000007D98FBDF5370701405CC3828073007F
:100D4000203001A0EFF26FC7371702405C43914695
:100D50002A84B18B6385D700A146638DD706B73748
:100D60006E01938707601CC0B7160240DC42918376
:100D700013F7F700B707002093874705BA978C232E
:100D8000DC42184093F5F50F93F707083355B70089
:100D900081E73A85EFF04FC448C008C448C4B7178C
:100DA0000240DC43AD83FD8B13D737008A07F18BFC
:100DB000D98F93F637010D476373D700D1173707E3
:100DC000002013070704BA978C23EFF0EFC008C880
:100DD0006FF04FBF5C43B777DC02938707C061B702
:100DE00099C5371702401C4F5D8D08CF8280B71719
:100DF0000240984F1345F5FF798D88CF82801E29D8
:100E00004A25ED8F4205418189C76D8D3335A0009C
:100E100082800145828093C5F5FFC205C1810EA97C
:100E20008280EFF28FB91629F577FD17F58FF6213D
:100E3000DA252111D58F1EA95625FD779387379F77
:100E4000F58FD6212A842EC0D58F9625D58FB6252D
:100E5000D58F5EA55E29C207C18393F7F7CF5D8F5B
:100E60005AA94800C535B747014093870780824596
:100E70006312F406C2475A24139517003E954207A1
:100E80000E0541873E958C41635807048605EFF0B7
:100E9000AFB4930540062AC0EFF00FB48247931415
:100EA0004500930540063E85EFF0CFB55E24C207AE
:100EB000C18763D507020E05930540061305250378
:100EC000EFF08FB11D89C98CC204C18006A46101F5
:100ED0006FF04FAFB24745B78A0555BF120593056E
:100EE000400613052503EFF02FAF3D89E9BF91C5FB
:100EF0005E250967D98F5EA582805A25F977FD178F
:100F0000F98FD5BF93F5F51F4EA182804A21137545
:100F1000F51F82805E2989C593E787005EA98280DC
:100F2000C207C183DD9BC207C183CDBF0A216D8D7E
:100F30003335A0008280B71702409843B706FFFC04
:100F40001367170098C3D843758FD8C39843B70663
:100F5000F7FEFD16758F98C39843B706FCFFFD1684
:100F6000758F98C3D44341777D17F98ED4C3B706E4
:100F70009F0094C7B72602409042719A90C2904257
:100F80001366160090C2D443D4C3D443758FD8C31C
:100F9000D843B7060001D8C39843558F98C39843E8
:100FA00093166700E3DD06FED843B7160240719B37
:100FB000D8C3D84313672700D8C32147DC42B18B7D
:100FC000E39EE7FE8280EFF24F9F311102C402C61A
:100FD00002C8FD576313F50001A093D7854093F431
:100FE000F7079377F5001397270089679387C7B5AD
:100FF000BA979C4311813D892E843EC0EFF07FA5B6
:101000002AC29DC085450545E13B9387F4FF6947AA
:10101000636CF70009678A07130707AFBA979C4309
:1010200082878545054591399357244013773400CD
:101030008D8B7DC73AC609476380E70E0D47638FE6
:10104000E70C05476388E70CC1473EC8EDA0814522
:10105000D1BF8545370500100905F1B7854537052E
:101060004010DDBF8145E5BF85453705008011058E
:101070005DBF8545370520807DB7854537052080D4
:10108000FDB78145E5BF3705160085451305050405
:1010900059BF8545370516001305050869B785450D
:1010A000370516001305050CBDBF8145D5BF3705B3
:1010B0001800854513050510BDB73705180085458F
:1010C000130505208DB78545370518001305053034
:1010D00099BF8145D5BF85452165B1B78145EDBF34
:1010E0008545370520008DBF8145E5BF854537051E
:1010F0002000B5BF8145E5BF85453705200069BFA4
:101100008145E5BF8545370530001305054021BF02
:101110008145D5BFD14715BFE14705BFF14735B779
:1011200005476383E70299C789466381D70293071E
:10113000800221BF02C8824712452C007C84EFF058
:101140007FA651016FF00F88914701B711840D8878
:1011500093078004E31DE4FCCDBDFD577D57631C60
:10116000F50082806398A700EFF22F858C45A13DA2
:101170006FF04F85B1059C41E396E7FE01A07D57D6
:101180009C416394E700014582806394A700C841B5
:101190008280B105F5B7FD576307F500EFF2EF81E7
:1011A000F93F6FF02F82014582806305B50019C1B8
:1011B00081E5AA852E8582808145EDBF01A001A031
:1011C00001A001A001A001A001A001A001A001A017
:1011D00001A001A001A001A001A001A001A001A007
:1011E00001A001A001A001A001A001A001A001A0F7
:1011F00001A097F1FF1F93816170138181F0171592
:1012000000001305659E97F5FF1F9385A5DF1386E4
:10121000018263FAC5008322050023A05500110551
:101220009105E3EAC5FE13850182938501926377F8
:10123000B500232005001105E36DB5FE93020008FB
:10124000739002308D427390428097F2FFFF938239
:1012500062DB93E2320073905230170500001305F1
:101260002538852E4D2EEFF01FCD9702000093827A
:101270008231739012347300203071158280EFE256
:10128000DFF31301C1FDAA84084D32C609662EC4DE
:10129000930546A43ACA36C8FD3D2AD0C84C896693
:1012A0009385C6A2CD3D2A8488508965938545A142
:1012B000DD352AC0C85089659385C59FE93D025731
:1012C000096689662AC232CC36CE6304070ED04C3A
:1012D000FD566304D600630E040C9050FD56630562
:1012E000D60082476387070CD050FD566305D600B1
:1012F00092476380070C3A85A285453D824588C0A8
:101300006D35924588C0553588C045C53747014081
:1013100013070780631BE50085451165EFF05FAC9F
:10132000130700022386040298D4E247884C938571
:1013300047A4253511C4F247C84C9385C7A2313D57
:101340008247814681CB88508965938545A1313597
:1013500093060010924791CBC850896593E606200A
:101360009385C59F36C0D53B8246A24703C7C402BA
:1013700088409CC4B24713162700DEA4D2471387C7
:1013800001833297FEA4C2471386440010C331473D
:10139000C8C09EA8BAA8D6A801E48545EFF09FB7BB
:1013A000C84093858400EFF0DFA7C8408545EFF083
:1013B0001FB4130141026FE0FFE0EFE21FE0896715
:1013C00083A707A709671307C7A78A07BA978043A8
:1013D0008965938545A422857D3B19CD370500207D
:1013E000F16593074506014781460146938505202F
:1013F0001305450680CF61356FE0DFDCEFE2FFDBF0
:101400008347C50293050002139727009387018342
:10141000BA979C438843EFF07FB1133515006FE016
:101420007FDAEFE29FD98347C50293050004139743
:10143000270093870183BA979C438843EFF01FAF3F
:10144000133515006FE01FD8EFE23FD74111370485
:101450000020AA842EC2EFF02FE49307440683C72E
:10146000C7022AC41304440685E70347C4029387CE
:1014700001830A07BA979C43F1173EC09387018303
:101480003EC68247D9EB02C2124541016FE09FD3AD
:10149000896783A707A709671307C7A78A07BA97AA
:1014A0009C438966938546A43E853EC0EFF0BFCE3F
:1014B000896671D923060402138701831C4391EFC7
:1014C0008347C402850793F7F70F2306F402FDD77D
:1014D000ED358347C402D1DB7DB70245938546A431
:1014E000EFF07FCB0346C4021387018393172600D6
:1014F000BA979C4389669C43E394A7FC3DD6C9BF39
:10150000EFF08FD9A247B307F5403335F500E39CE0
:10151000A5F61307703EE368F7F6024519376DF13B
:101520009247A6973EC4A247E380F4F60245D53D14
:1015300075FD8347C402324785048A07BA979C43E6
:1015400083C5F4FF8843EFF0FF9BF1BF11E57D55A4
:1015500082807D556FE01FC7EFE23FC6AA842E84CC
:10156000713D65F983C7C4021397270093870183F0
:10157000BA979C438843EFF07F9908A00145D9BFF3
:101580008280EFE29FC3EFF02FCCEFF00F87EFF0F8
:10159000AF9BF5BFEFE27FC2EFF0CFD06FE09FC20D
:1015A00019CDEFE29FC12A84EFF0CFCFAA84C93FC3
:1015B000EFF04FCF058DE36C85FE6FE0BFC08280FA
:1015C000511106C409205111194506C40D220545C3
:1015D000F52AAA85814601460145A9A2511197071E
:1015E00000009387676022C2170400001304C45FE1
:1015F0001D8C26C006C40984BE8419E41244A2408E
:10160000824431016FF04FD77D1493172400A697C1
:101610009C438297DDB7511122C297070000938740
:10162000275C170400001304A45B1D8C26C006C4AD
:101630000984814463968402EFF02FD49707000059
:101640009387075A170400001304045A1D8C098459
:10165000814463928402A240124482443101828018
:10166000139724003E9718438504029797070000BC
:1016700093870757C1B7139724003E9718438504F3
:101680000297970700009387A755E1B7FD4763F6D8
:10169000B700D9471CC17D5582807C41411122C4CD
:1016A00006C62E862A8491C713972500BA979843B9
:1016B00019EB228532C0B520AA8522852244024634
:1016C000B240410115A8854601456308D700FD5683
:1016D0006319D700D9471CC00545B24022444101D7
:1016E00082802E8523A0070002970145FDB79387CE
:1016F000C180AA85884359BF511122C22A842E85F0
:10170000B28523AE019006C46528FD576317F50026
:101710009387C1919C4391C31CC0A24012443101E4
:10172000828049A8938741839C43AA8399EF1387BA
:10173000018923AAE18217F5FFFF1305A58CBA875B
:1017400009C51C4123ACF190BA87D8437D437D5530
:101750006346E304638D030203A387086300030465
:10176000931227009A9223A0C20003250310054676
:101770003316E600518D2320A31023A0D2088946FA
:101780006397D30083264310558E2322C3109306FC
:1017900017000A07D4C3BA978CC70145828097F710
:1017A000FFFF9387278691C717050000130545E3C0
:1017B0000DB582809307800523AEF1907D55828020
:1017C0009307800523AEF1907D55828001A0000033
:1017D0002D2D2D2053454C45435420564944454F0B
:1017E000202D2D2D000000003E0000005B484F4CD6
:1017F0004420544F20504C41595D0000000000002F
:101800000000005F00000007000700147F147F1431
:10181000242A7F2A12231308646236495522500075
:1018200005030000001C2241000041221C00140896
:101830003E081408083E0808005030000008080858
:101840000808006060000020100804023E5149456D
:101850003E00427F400042615149462141454B31A3
:101860001814127F1027454545393C4A4949300133
:10187000710905033649494936064949291E00368A
:1018800036000000563600000814224100141414DB
:101890001414004122140802015109063249794109
:1018A0003E7E1111117E7F494949363E4141412218
:1018B0007F4141221C7F494949417F090909013E75
:1018C0004149497A7F0808087F00417F4100204054
:1018D000413F017F081422417F404040407F020C7D
:1018E000027F7F0408107F3E4141413E7F09090984
:1018F000063E4151215E7F09192946464949493131
:1019000001017F01013F4040403F1F2040201F3F19
:101910004038403F6314081463070870080761519A
:10192000494543007F414100020408102000414125
:101930007F000402010204404040404000010204D4
:101940000020545454787F48444438384444442058
:10195000384444487F3854545418087E0901020C16
:101960005252523E7F0804047800447D40002040DB
:10197000443D007F1028440000417F40007C041853
:1019800004787C0804047838444444387C141414E3
:1019900008081414187C7C08040478485454542013
:1019A000043F4440203C4040207C1C2040201C3C04
:1019B0004030403C44281028440C5050503C446473
:1019C000544C44000836410000007F0000004136BE
:1019D000080010080810080000000000796173007A
:1019E000313A20426164204170706C652121000011
:1019F000323A20566964656F2032000023000000EF
:101A00000038014018000000FFFFFFFF0000000049
:101A10000000000012000000003801400B00000030
:101A2000FFFFFFFF00000000000000002600000094
:101A30000038014018000000FFFFFFFF0000000019
:101A40000000000025000000003801400B000000ED
:101A5000FFFFFFFF00000000000000000100000089
:101A600000000000060000000C0000000D00000057
:101A70000F000000100000000E0000000100000038
:101A80000200000010000000110000001200000021
:101A900013000000140000001500000016000000F4
:101AA00017000000200000002100000022000000BC
:101AB0002300000024000000250000002600000094
:101AC0002700000000000000000000005407000094
:101AD0008C0700004A0700004E0700005007000076
:101AE0006E07000050070000DC0900000C0A00002F
:101AF000221000004E100000521000005C10000088
:101B00006410000068100000721000007A100000DD
:101B10008210000086100000921000009E1000004D
:101B2000AA100000AE100000BA100000C61000009D
:101B3000D2100000D6100000DC100000E010000001
:101B4000E8100000EC100000F4100000F810000095
:101B5000001100000411000010110000010000003D
:101B60000200000004000000080000001000000057
:101B70002000000040000000800000000000000085
:101B80000000000000000000000000000000000055
:101B90000000000000000000000000000000000045
:101BA0000000000000000000000000000000000035
:101BB0000000000000000000000000000000000025
:101BC0000000000000000000000000000000000015
:0C1BD00000000000000000000000000009
:081BDC009E1700008A080000BA
:101BE40014000000000000001400000000000000C9
:101BF40014000000000000001400000000000000B9
:101C040014000000000000001400000000000000A8
:101C14001400000000000000140000000000000098
:101C24000204060804080C10081018201020304084
:101C34002040608001020304050607080102030432
:101C44000506070800000000000000000000000076
:101C5400000000000000000000000000FFFFFFFF84
:101C6400FFFFFFFFFFFFFFFFFFFFFFFF000000007C
:101C740001000000000000009C1B0000BC1B0000D1
:101C84007C1B0000000000000000000000000000B9
:101C94000000000000000000000000000000000040
:101CA4000000000000000000000000000000000030
:101CB4000000000000000000000000000000000020
:101CC4000000000000000000000000000000000010
:101CD4000000000000000000E0190000F0190000FE
:101CE400006CDC0294000020000020000000800052
:081CF4006419641900000000EE
:00000001FF
