:100000006F00501500000000600100006201000058
:1000100000000000000000000000000000000000E0
:1000200000000000000000000000000000000000D0
:10003000520900000000000052090000000000000A
:100040005209000052090000520900005209000044
:100050005209000052090000520900005209000034
:100060005209000052090000520900005209000024
:100070005209000052090000520900005209000014
:100080005209000052090000520900005209000004
:1000900052090000520900005404000052090000F7
:0800A0005209000000000000FD
:1000A800511126C022C206C4828282441244A24050
:1000B80031018280634E050263C305042E86AA853A
:1000C8007D5515C285466378B6006356C00006069E
:1000D8008606E36CB6FE014563E4C500918D558D37
:1000E80085820582F5FA82808682C93F2E858282C2
:1000F8003305A0406347B000B305B040C1B7B305AE
:10010800B0408682653F3305A0408282868263C7FD
:100118000500634905005D372E858282B305B0402E
:10012800E35B05FE3305A040513F3305B0408282B2
:1001380000002A8309CA83830500230073007D1603
:10014800050385056DFA82802A8311C62300B30052
:100158007D16050365FE828001A0B707EFBE37E76D
:1001680000E0938707083CC701A093178501E18742
:1001780063C60702FD4763E3B70293D735009E07BE
:10018800AA9737050020130505093E959D8905475F
:100198001C21B315B70001C6CD8F1CA1828093C561
:1001A800F5FFED8FDDBFEFF2BFEF1301C1FDAA87A9
:1001B8002EC2B2860386060001E613014102F5B598
:1001C8001377F60F130407FD1374F40FA54585067E
:1001D80063FD85009305F7FB93F5F50F65456361AE
:1001E800B50A130797FC1374F70F15473304E40295
:1001F8001167130707839382A70093F2F20F3A94CB
:100208003E87130617008343040092441376F60FC3
:1002180032C0014333D66340058A31C23A85054668
:10022800A68516D036CE3ECC1ACA1EC83AC4353F6B
:1002380002450546A685153F22479385140093F588
:10024800F50F3A8505462EC60D37B24502450546D7
:10025800293F8252F246E2475243C2432247890469
:1002680005031D4693F4F40FE316C3FA0907137741
:10027800F70F0504E397E2F8B10793F7F70F1DBFEF
:100288001307A00313045002E301E6F61304400227
:10029800A9BF7111A9473EC082471387F7FF3AC02B
:1002A800E5FF11018280EFF2BFDF0546894537156A
:1002B8000140EF00900A0546914537150140EF00CF
:1002C800D009C13F0146894537150140EF00F008C4
:1002D800C9370146914537150140EF001008F1B3C1
:1002E800EFF21FDC0146894537150140EF00F006A3
:1002F8000546914537150140EF003006593F054640
:10030800894537150140EF005005613779BBEFF299
:100318003FD92A84A14493178401E187054663C322
:1003280007000146894537150140EF00100395374E
:100338000546914537150140EF003002FD14913F05
:100348000146914537150140060493F4F40FEF0078
:10035800D0001374F40FE1F00546894537150140C4
:10036800EF00A07F3D370546914537150140EF0066
:10037800C07E05370146914537150140EF00E07D05
:100388002DB3EFF2FFD12A84393F13058007413797
:100398000145B53F2285A53FA13701BBEFF25FD0EC
:1003A80013054006EF00706A1305E00AD93F1305EC
:1003B800500DC13F13050008E9371305800AD137EE
:1003C8007D45C137130500046D3F1305D008553F1F
:1003D8005145453F130500026D3701455D3713054B
:1003E800100A45371305800C693F1305A00D513FCE
:1003F8000945413F1305F00A693745B9EFF25FCA6D
:1004080013051002BD3F0145AD3F1305F007953FA9
:1004180013052002BD370145AD370D459D376135C0
:1004280013058007ED3513050004B7040020C53512
:10043800014493840409B307940088230504C13D4B
:1004480093070020E319F4FE613D85B171118545DC
:100458003705004022C0EF00F05869CD83C7618896
:10046800054681CB03C7618893070002631AF7002A
:10047800014637150140C14513050540EF00E06D01
:1004880083C7618883C6618811671307478FD506BC
:1004980093F6F603860683C56188BA96962203D634
:1004A800418803D5218886079385B502BA97938634
:1004B80066F093F5F5039E2386054205C20641853D
:1004C8002E97C186B7350140938505C0B386A6022D
:1004D8001A2303D50188DCD9938767F04206C2073F
:1004E8004186130767F0C187B387C70242054207F1
:1004F80041854187A1869386A60FC206C18233072C
:10050800A702A1879387A70FC207C1839CDDD4DD0B
:100518003705004021871307A70F42074183B8C159
:1005280083C761888545850793F7F7032383F18897
:10053800EF00D04C0244110173002030EFF25FB697
:100548003971612605658545130555A3EF00700FC0
:1005580085450545EF00D0108544C1476C00371527
:1005680001403ECA26C626C8B52B194778866C00B6
:10057800514737150140371401403ACAA52311479E
:100588006C0013050480788602CAA92BC1476C0049
:10059800130504407C863ECA26C8A923E1471147B3
:1005A8006C00130504403ECA788626C8252B0947E7
:1005B8006C001305048078863523E1476C003715F5
:1005C80001407C860523916561469385C580281086
:1005D8008D36372401402C1013050440CD2E9D463E
:1005E8000546130504408145B12913050440854596
:1005F80035213734014002C29307301F8A8513051D
:1006080004C07C8202C023140100EF005007930746
:10061800000602CEFC842C089307A00F130504C023
:10062800FC87E48502D002D2EF00300C2C081305B9
:1006380004C0EF0010162C08130504C0EF00F022C8
:100648002C08130504C0EF00902B130504C0854542
:10065800EF00D036130504C08545EF00D03093076E
:10066800903A8A85370500407C8223100100EF000C
:100678001001B7E700E01307000423A2E7100546BE
:10068800854537050040EF00D034854537050040E3
:10069800EF00702D216111BCEFF29FA01301C1FD85
:1006A800713DEF009037DD3985473EC6930700005E
:1006B8003EC402C212468545371501407929924742
:1006C800C144014493C717003EC2B727014093872E
:1006D80007403EC002458545912E02458945ED2ECD
:1006E8006DDD0245F5262A9402C813071003C24798
:1006F8006355F718FD14F9FCB247118093140401EF
:10070800C180639007182245EF2090633385A44089
:100718009357F5413D8D1D8D9307200363D7A71689
:10072800916703A48797916703A54797A285EF2050
:100738003029A245EF20007B2AC02685EF20B0781B
:10074800A285EF20207A8245EF2080002AC4EF207E
:10075800306593140501C1802685EF20D076916716
:1007680083A50798EF20A034916783A54798EF20C9
:100778006077EF20F05C93058016EFF03F99B7079C
:10078800002083A707002AC0130790C1638BE700E6
:10079800B307F54013D7F741B98F998F05476358C9
:1007A800F70C02451164EF20D064916783A5879800
:1007B800EF204073916783A5C798EF20402F2AC682
:1007C800EF00F02F83250499EF20C071EF205057D8
:1007D800420541852392A1881167832547993245AF
:1007E800EF101077EF00B02D83250499EF20806F6C
:1007F800EF201055420541852391A1881167832573
:1008080087993245EF10D074EF00702B8325049937
:10081800EF20406DEF20D052420541852390A188FA
:100828003705002013060020814513050509EFF060
:10083800BF9102469165938545824808EF10D06EB6
:100848005008A1455145EFF01F96130580073385E1
:10085800A4028565FD158144EFF05F86AA8763CA07
:10086800F402693E0247B707002023A0E7001305FA
:100878004006EF00901D02C635BDC24785073EC839
:10088800BDB5916703A4479779BD916703A4C7973E
:1008980059BD138444001374F40F0546ED452285B1
:1008A8003EC6EFF09F8C0546F1452285EFF0FF8BA1
:1008B8000546F5452285EFF05F8B0546F94522850B
:1008C800EFF0BF8AB247850459BFEFF26FFD894642
:1008D800B724024094C0371402401C403707FF6811
:1008E80093E717001CC05C40F98F5CC01C403707B9
:1008F800D7FE6D17F98F37071000D98F1CC01C4021
:100908003707FCFF7D17F98F1CC05C4041777D17C6
:10091800F98F5CC0B7079D001CC41C4C93E7070205
:100928001CCCB71701409387074098431377F7F01B
:1009380098C398431367070898C394CB25245C4051
:100948005CC085479CC06FF04FF601A0970100205E
:10095800938141EB171100201301416A17350000FC
:100968001305056197F5FF1F93854569138601886F
:1009780063FAC5008322050023A0550011059105DF
:10098800E3EAC5FE138501889385C1A86377B5009E
:10099800232005001105E36DB5FE89629382028864
:1009A800739002308D427390428097F2FFFF9382DA
:1009B800E26493E2320073905230EFF01FF1970235
:1009C80000009382A2CD73901234730020305841F6
:1009D800B707F1FF9387F7EF7D8FDC419441A207BA
:1009E800D58FD98F5CC11845B7F7F1FF9387D77FAB
:1009F800D4457D8F9C49D58F94458606D58FD98F50
:100A08001CC55855B70710FFFD177D8FDC29FD174A
:100A180093F7F70FD207D98F5CD582801C4589C51B
:100A280093E717001CC58280F99BEDBF1C4591C553
:100A380037075000D98F1CC582803707B0FF7D1754
:100A4800F98FD5BF0D473387E502032305019D477D
:100A5800B397E70093C7F7FFB3F76700B396E600CD
:100A6800DD8E14C9994763E2C70295477D163306A0
:100A7800F6025859FD47B397C70093C7F7FFF98F98
:100A88003396C5005D8E50D98280B14763E2C702B4
:100A9800954765163306F6021859FD47B397C70000
:100AA80093C7F7FFF98F3396C5005D8E10D9828002
:100AB80095474D163306F6025855FD47B397C700BC
:100AC80093C7F7FFF98FB395C500DD8D4CD58280AC
:100AD80068454205418182801C4133F5F500333574
:100AE800A0008280944593F7060113F3F60081C7AE
:100AF800DC413363F30083D2050093F7F20FA9CFEB
:100B08000C41611122C226C08147930380023D44F3
:100B18009304800405473317F70033F6E2006310A7
:100B2800C7026397760258C9139627003317C40083
:100B38001347F7FF6D8F3316C300B365E6008507CB
:100B48002147E399E7FC12440CC1824421018280C9
:100B5800E39C96FC18C9C9BF828019C20CC982805F
:100B68004CC98280EFF2CFD3511185451305C003DC
:100B780002C002C202C4F124B7F7FF1F03A74770DF
:100B8800B7065200938606609377F7F06386D70A14
:100B980063E2F60CB7062400938606606380D720CC
:100BA80063E0F604B706220093860660638FD724B5
:100BB80063EFF600C1779387F7F0F98F37072000C6
:100BC80013070760639BE7009307900F35A8370763
:100BD8002300130707606384E72031016FF0EFCC2F
:100BE800B7065000938606606383D71A63E0F6045D
:100BF800C1779387F7F07D8FB70740009387076029
:100C0800E39DE7FC9307900E371401407C808A85AA
:100C180093078002130504803EC4E9359307F00763
:100C28007C808A85130504C0753D45BF3707510090
:100C380013070760E393E7FA930790063714014018
:100C48007C808A8593078002130504803EC4593D41
:100C5800AD47F9B73707640013070760E386E7F67F
:100C68006361F7063707620013070760E38CE7F84C
:100C78006364F7043707530013070760638DE70CB5
:100C88003707610013070760E399E7F49307000843
:100C9800371401407C808A859307800213050480FD
:100CA8003EC48935930740078A85130504C07C80B4
:100CB800153D9307800CADA0370763001307076045
:100CC80081B737177300130707806386E702636BE2
:100CD800F70037177000130707806388E7043707A2
:100CE80071004DB73717740013070780E397E7EED5
:100CF8009307000C71BF9307000C371401407C80E8
:100D08008A8593078002130504803EC4E13B93075C
:100D180040078A85130504C07C80E9339307900C4B
:100D28007C808A853715014001B79307000C37147A
:100D380001407C808A8593078002130504803EC4A5
:100D48005533930740078A85130504C07C80593BB7
:100D58009307B00CF1B793079006371401407C80D5
:100D68008A8593078002130504803EC4A53BAD47DE
:100D78008A85130504C07C80B5339307C0028A8531
:100D8800371501407C80B93B9307C006A1A09307A3
:100D9800800C7C80930780023EC461B79307900F54
:100DA800371401407C808A859307800213050480EC
:100DB8003EC40D3B9307F0078A85130504C07C8069
:100DC80015339307900E8A85371501407C80193BAF
:100DD8009307D0087C808A8513050440B1B5930732
:100DE800900F371401407C808A8593078002130591
:100DF80004803EC4C5399307F0078A85130504C0EB
:100E08007C80CD31930760029DBF9307900F371404
:100E180001407C808A8593078002130504803EC4C4
:100E2800D1319307F0078A85130504C07C805D39AA
:100E3800930700028A85371501407C806531B547E4
:100E480051BF99C5371702401C4FC98F1CCF8280EC
:100E5800B7170240984F1345F5FF798D88CF8280E8
:100E680099C5371702405C4FC98F5CCF8280B7178E
:100E78000240D84F1345F5FF798DC8CF8280B73728
:100E88000140938707C06306F500B7070040631D5C
:100E9800F5021E21BA21C207C18393F7F7F8D98F4B
:100EA800FA2193F7F7CFD98F1EA1DE215EB59E21D7
:100EB8001EB5B7370140938707C06314F5009C251A
:100EC8001EB985475EA98280B717004093870780BF
:100ED800631CF5001E21BA21C207C18393F7F7F8F6
:100EE800D98F1EA1DE215EA582801E319A2103D3EF
:100EF8008500C207C183F99BC207C1831EB11E3199
:100F08005221162DC207C183C206C18293F6C6F8C4
:100F1800D98EBA21F59B42063367E300D98F37375C
:100F28000140130707C041826316E502BA25DD9B1D
:100F380003D3E500D98FDA21ED9B1376F6CFD98F4D
:100F4800DA2533676700598EFA2152A116AD58D9B0
:100F58001EB1828037070040E318E5FE03574504B9
:100F6800060342074183499B420741832312E50454
:100F780083524504DA2183D3A5000983B3E27200C2
:100F88003367570033676700420741832312E5043C
:100F980065BF1E3165771307F7CFC207C183BD9BB5
:100FA800C207C1831EB11E315221162D03D38500FD
:100FB800C207F98E9A21C18393F7F7FD2207D98ECC
:100FC800BA214206C2063367E3001207D98F3737C2
:100FD8000140C207130707C04182C182C18363145D
:100FE800E504BA2593F7F7F703D3C5001207D98F9D
:100FF800DA21C207C183120793F7F7FBD98F7D77F0
:101008001307F73F718FF225C207C1833366660065
:101018000A06518F131607014182FA2152A116AD13
:1010280018DD1EB1828037070040E318E5FE03573C
:1010380045040E03420741831377D7FC42074183D7
:101048002312E504BA25835245040A07336767006B
:1010580003D345001353130033E36200336767007B
:10106800420741832312E5044DBF1E3103D3850097
:10107800C207C18393F7F7EFC207C1831EB11231CC
:1010880056215A2D9E214206420741831377C7F8FD
:101098005D8FBE2141821376F6DFB3E76700A207B2
:1010A8005D8EB7370140C2064206938707C0C182EA
:1010B80041826310F504FD779387F77FF18FB2259E
:1010C80003D3C5002206D18FD221C207C1832206CD
:1010D80093F7F7BFD18F13960701F577FD17F58FB3
:1010E800F6254182B3E666009206D58F93960701EE
:1010F800C182FE2156A15AAD5CDD12B182801E313B
:101108007D777D17F98F1EB11E315221562D6577D7
:101118001307F7CFF98E9A2103D3850042062207D9
:10112800D98E79777D17F98FBA21C2064182336744
:1011380067003207D98F37370140C207130707C046
:10114800C182C183631BE50071777D17718FD2253A
:101158001A06518F131607014182FA2152A156AD82
:1011680038C11EB18280B7370140938707C09DC13F
:101178006306F500B70700406317F5001E2193E7E3
:1011880017001EA139A0B717004093870780E3070F
:10119800F5FE82806306F500B70700406319F50085
:1011A8001E21C207C183F99BC207C183D9BFB717E4
:1011B800004093870780E31EF5FCDDB7835745049D
:1011C80091C52167D98F2312F5048280C607C5838C
:1011D800DDBF5E2501C6CD8F5EA5828093C5F5FF74
:1011E800ED8FDDBF1E294A25ED8F4205418189C754
:1011F8006D8D3335A00082800145828093C5F5FF4F
:10120800C205C1810EA9828093F5F51F4EA1828087
:101218000A216D8D3335A0008280EFE27FE8B707A1
:10122800002003A54700B7157A0093850520EFE055
:10123800FFE81375F50F2385A1A89307803E3305B2
:10124800F5022394A1A86FE05FE6B7F700E0D84362
:10125800799BD8C303D781A83307A70298CB23A4C7
:10126800070098431367170098C3D843058B75DFA9
:101278009843799B98C38280EFE29FE261112EC266
:1012880032C0014482476358F402B7440140B7476B
:10129800014093050004138507809D3F6DD992474F
:1012A80013850480B3868700838506000504C2057C
:1012B800C181993FC1BF024521016FE01FDF311194
:1012C80022C6370400809307F4FF3717493F06C842
:1012D800E98F130787FD636AF7003244C24001466D
:1012E8009305000051016F0090393707807F63E94B
:1012F800E700AA85EF10D06CC240324451018280C9
:101308008A850D2893773500054792450245638AFB
:10131800E70009476389E70081EF0546EF003036AB
:10132800E1BF5126D1BF0546EF007035218DE9B7E1
:101338009D2EEDBFB706008079719387F6FF3716AB
:10134800493F22D406D626D2E98F130686FD2E847D
:101358006368F60008C093070000DCC18144B1A8A7
:1013680037D616402AC8130636BE636EF60EC11667
:10137800B3F4A6006350A00897F5FF1F83A585C89E
:10138800EF101064B717C93F2AC0938707FD638C15
:10139800F40297F5FF1F83A525C7EF107062AA8591
:1013A800AA840245EF10D06197F5FF1F83A5C5C534
:1013B800EF10106148C004C08544B25022542685FD
:1013C80092544561828097F5FF1F83A525C4EF10CD
:1013D800305F97F5FF1F83A5A5C32AC0EF10505EA5
:1013E800AA85AA840245EF10B05D97F5FF1F83A573
:1013F80025C27DBF97F5FF1F83A5C5C0EF104035F7
:10140800B717C93F2AC0938707FD6387F40297F58A
:10141800FF1F83A565BFEF10A033AA85AA840245E4
:10142800EF10105A97F5FF1F83A505BEEF10403245
:1014380048C004C0FD5451B797F5FF1F83A505BDEB
:10144800EF10003197F5FF1F83A585BC2AC0EF1068
:101458002030AA85AA840245EF10905697F5FF1F01
:1014680083A505BBE1B737164943130606F8636140
:10147800F6183EC62ACAEF00103197F5FF1F83A55C
:1014880065B92AC0EF10102697F5FF1F83A5C5B8C8
:10149800EF10002CEF20C00AAA84EF20801597F5E2
:1014A800FF1F83A525B62AC4EF10D023AA850245BD
:1014B800EF1010512AC0224597F5FF1F83A5C5B428
:1014C800EF1050222AC27D46B2476348960252471F
:1014D800B7060080938606F01386F4FFF98E0A0695
:1014E800172700001307474B329718436387E60016
:1014F800AA850245EF10D04C0DA0924502453EC684
:10150800EF10104CB247135775011377F70FDD87AB
:101518003387E740A14663C4E60008C095A022458A
:1015280097F5FF1F83A585AE3ECAEF10B01BAA85AD
:101538002AC20245EF10D048AA852AC60245EF10F4
:1015480030489245EF10D0472AC0224597F5FF1F33
:1015580083A505ACEF1010198245EF1070462AC21A
:10156800AA853245EF10D045D24713577501137736
:10157800F70F998F6547634CF702B24708C03EC022
:1015880018400245BA853AC4EF1090439245EF10CF
:101598003043C24748C0E3D207E22247B70700807A
:1015A8003D8FA98F18C05CC0B304904039B522455F
:1015B80097F5FF1F83A585A6EF10D012AA852AC22A
:1015C8003245EF10F03FAA852AC03245EF10503F50
:1015D8009245EF10F03E2AC2224597F5FF1F83A5DA
:1015E80025A4EF1030109245EF10903D2AC209B79C
:1015F800B706807F63E8D700AA85EF10703C48C023
:1016080008C0A9BB13D677411306A6F713177601AE
:10161800B384E740268532C2EF109072EF10707DD8
:10162800AA852ACC2685EF10B03997F5FF1F83A528
:10163800659FEF10300B2AC0EF109070EF10707B91
:10164800AA852ACEAA840245EF10903797F5FF1F86
:1016580083A5459DEF101009930500002AD0EF10CF
:10166800407912468D4619E993050000268532C057
:10167800EF1020780246B336A000850697270000B1
:10168800938787390947A2852808B922C247AA84BF
:10169800E3D507D21C4037070080B98F1CC05C40D7
:1016A800B98F5CC011B721112AC0824726C606CA65
:1016B800860722C82EC493D417003707003263F672
:1016C800E400EF10F0676304051082452E85EF10E3
:1016D800700197F5FF1F83A525942A84EF109000C9
:1016E8002AC297F5FF1F83A5A5942285EF10807F56
:1016F80097F5FF1F83A50594EF108005A285EF10CD
:10170800607E97F5FF1F83A52593EF10702BA285A8
:10171800EF10407D97F5FF1F83A54592EF1040031A
:10172800A285EF10207C97F5FF1F83A56591EF1028
:101738003029A285EF10007B97F5FF1F83A58590C0
:10174800EF100001A285EF10E079A285EF108079F3
:101758002A84A2450245EF10E078AA852285EF1079
:10176800302637A7993E130797992A846362970210
:10177800AA851245EF10D024AA8517F5FF1F032567
:10178800E58AEF10F023D2404244B24461018280DE
:101798003707483F63689702370700FFB385E400BF
:1017A80017F5FF1F032585882EC0EF10702182458D
:1017B800AA841245EF10D020A285EF107020AA85C8
:1017C8002685C1B797F5FF1F83A50586D1BF17F5F5
:1017D800FF1F0325A58545BF65713ACA3ED60A078E
:1017E8009727000093878757BA979C43232481182B
:1017F800232611183EC69387F6FF3ECC2322911864
:101808002AD42EC432CE36D0F15701446349F600AB
:101818009307D6FF13D4F7411D883E940D84930790
:1018280014008E073ED21257F247998F3EC0E24706
:101838006247B306F440B247B6843386E7005C09D2
:101848003387D4406352E6028256501A8257324791
:10185800B387F640634DF706580993972600BA9761
:10186800930400000147A1A81305000063CF0400FA
:101878003ED8B2571397240032C83E97084336C261
:10188800EF103057C2574246924688C385049107E5
:1018980045BF131527003AC822578C4336DA3A95C4
:1018A800084132D83EC2EF10E063AA852685EF00D2
:1018B800306A4247D25642569247AA840507E24503
:1018C800F117E3D8E5FC04C28506110641B7B24713
:1018D800B2448A07938747048A973EDA931724000D
:1018E8003ED893972400D80093870714BA9783A704
:1018F80007FB3A8626846348800E82453E853AC2B5
:10190800EF00807397E5FF1F83A545742A84EF10C5
:10191800605DAD2D97E5FF1F83A58573EF10805C93
:10192800AA852285EF10D0092A84EF1070412AC8B1
:10193800EF10304CAA852285EF1090088247124795
:101948002A846351F0109387F4FF8A07D4009387A1
:101958000714B697024683A607EC4245A145918D28
:1019680033D6B64032953316B600918E024623A080
:10197800D7EC9D47918F2AC8B3D7F6403EC292470D
:10198800635AF00EC2478146014385073EC81306D5
:10199800F00F9305001063C7961482476359F0004F
:1019A800024785476306F71689476301F718124708
:1019B80089476311F70CA28517E5FF1F0325056703
:1019C8001ADCEF10E07F62532A846305030A82451C
:1019D80017E5FF1F032585658525AA852285EF1054
:1019E800207E2A8441A83ADC17E7FF1F1307C76542
:1019F8000C433E8532DE3EC8EF10C04EEF10503427
:101A0800EF10303F97E7FF1F9387C7618C432AC2C7
:101A18007D14EF10204DC247AA853E85EF10407A0D
:101A2800EF1010327256581A93172400BA9708C24A
:101A38008C43124532C8EF00B05142466257AA871C
:101A4800110655BD824781EF9387F4FF8A07938774
:101A58000714D400B69783A707EC9D8705B797E5C9
:101A6800FF1F83A5655B3AC2EF10603E12476358BB
:101A7800050602C2930500002285EF108037631522
:101A880005169387F4FF0147B24663DDD70A65C799
:101A98008247FD14E1173EC09397240093874704BB
:101AA8008A979C43F5D7824517E5FF1F03250558FC
:101AB80061232A84A68763D5071C268763470724E2
:101AC80093172700541A3383D700172600001306EC
:101AD80026269306000081473384E44001AC8947F9
:101AE8003EC24DB51C43631B030089CFB387F54045
:101AF8001CC38506110763DB96001C43B307F64039
:101B08001CC38547850611073E8371B5054371B52A
:101B18009387F4FF8A07D80093870714BA9703A717
:101B280007EC1377F70723A0E7EC51B59387F4FF89
:101B38008A07D80093870714BA9703A707EC137787
:101B4800F703D5B793962700938646048A9694425E
:101B5800FD17558F15BF0504F11798436DDF8257A0
:101B6800580913861400A6978A073E972694635748
:101B7800C400A284BDB3D2570544F9BFC2573AC8BE
:101B8800325793142600A697BA97884332C2EF10AB
:101B9800502642471246814708C33A8393060000FD
:101BA800E24563D8F5005C1ABE9494C00506110797
:101BB8007DBF139527003EC8A25783250300BAC0EE
:101BC8003E95084132DC1AC236DEEF10A031F256DB
:101BD800AA853685EF00D037C247124306476256BA
:101BE800AA86850771136DBF925772472285B38500
:101BF800E740992197E7FF1F9387C7428C432ACC78
:101C0800EF10E02463450506624597E5FF1F83A5AD
:101C1800A543EF10202DEF10B012EF10901D9397F1
:101C2800240013870714DC003304F70097E7FF1F2D
:101C38009387473F8C432ACE8504EF10A02AAA85B4
:101C48006245EF10E057EF10B00F82472320A4EC55
:101C580013942400A10772453EC0D80093070414CA
:101C68003384E700EF10D00D2320A4EC2DBD93970B
:101C7800240093870714D80062453384E700DDB752
:101C8800139727003ECC5C1AB386E70093074704F6
:101C980033872700084336C0EF10B015A285EF1030
:101CA800602497E7FF1F9387273A82468C4388C2B0
:101CB8002285EF102023E2472A84FD17EDBB8325F8
:101CC800030008423ED03ACE1ACC32C036D2EF10CA
:101CD80060219256AA853685EF00902782570246E2
:101CE80062437247AA86850711061103B24563C489
:101CF800F500E356F4FC0A0493070414D000338477
:101D0800C7002320D4F67D1755BB5247894763C2C5
:101D1800E7026347E00C1305000035C7C24783207C
:101D2800C118032481188324411813F577005961D9
:101D3800828052478D47E313F7FEDC111397240086
:101D48003384E700A2872686F1176346C00AA68671
:101D580005477114634AD70C130500000544634D09
:101D6800940E92479E562E5763910710A24794C32C
:101D7800D8C388C765B793972400D811BA978C43FE
:101D8800FD14EF00F01CE3D804FE924781C7B707A3
:101D980000803D8DA24788C351B793172400D811FE
:101DA800BA978C437D14EF00B01AE35804FE12472B
:101DB800AA8701C7B7070080A98F2247AA851E55A1
:101DC8001CC3C011EF10C03F8547110463DEF40047
:101DD800924781C7B70700803D8DA247C8C33DBF62
:101DE800268413050000D1B70C403EC0EF00501602
:101DF80082478507D9BF98437D1632CE3AC0D8436B
:101E080002453ECCBA853AC6EF009014AA852ACA84
:101E18000245EF10E03AB245EF009013E247D24690
:101E28007246C8C394C30DB71C40FD1636CC3EC0DD
:101E38005C400245BE853EC6EF009011AA852ACABD
:101E48000245EF10E037B245EF009010D247E24666
:101E580048C01CC00547F5BD93972400D811BA9710
:101E68008C43FD14EF00D00EDDBD2246B70700807D
:101E7800BD8E3D8FA98F14C258C21CC645B511111D
:101E88009317150022CA26C806CC2EC485833707A7
:101E980000322A84B28463F5E700EF10606A59C5FE
:101EA800A2852285EF100004AA852AC02285EF109A
:101EB80060032AC2024597E5FF1F83A5A519EF1005
:101EC800600297E5FF1F83A52519EF10602F824553
:101ED800EF10400197E5FF1F83A54518EF00500755
:101EE8008245EF10200097E5FF1F83A56517EF10C7
:101EF800202D8245EF00107F97E5FF1F83A58516EB
:101F0800EF0010052AC68DE8AA850245EF00907DEE
:101F180097E5FF1F83A54515EF10802A9245EF002E
:101F2800707CAA852285EF00B0022A84E2402285CF
:101F38005244C24471018280224597E5FF1F83A560
:101F4800A50DEF00307AB245AA841245EF009079CA
:101F5800AA852685EF10C0268245EF00B078A245F5
:101F6800EF100026AA84124597E5FF1F83A5C50F29
:101F7800EF005077AA852685EF00807DAA85228507
:101F8800EF1000245DB7060505818280411122C447
:101F98001314150026C293541400618006C6130456
:101FA80014F8D947AA8563CB87062AC06358040268
:101FB80097E5FF1F83A5850BEF0080799305000047
:101FC800EF00F06802476359A0006355070637071A
:101FD80080BF99E037070080BA85B9A0B7078000AD
:101FE8009384F7FFB3D48440B3F6A40095CE97E565
:101FF800FF1F83A5A507A92F93050000EF003065F3
:102008000247E35BA0FC63570700B7078000B3D71C
:1020180087403E9793C4F4FF658F7DBFB707807FE5
:1020280063E4F4003527AA85B240224492442E8501
:102038004101828001474DB713161500AA8769CE62
:1020480051111357160006C422C23706807F6366F3
:10205800C700AA85F52DAA87A5A8B376C5002E8442
:10206800A1EA97E5FF1F83A5A500EF00B0675177A8
:10207800130707CBAA87634FE406135775411377F5
:10208800F70F1D17B1669386063563D5860217E5E7
:10209800FF1F0325A5FD63D6070017E5FF1F0325CE
:1020A800A5FD97E5FF1F83A565FCEF00B06365B745
:1020B8005D83C9BFB30587001307E00FE349B7FC89
:1020C800635DB000B7078080FD17DE05E98FCD8F0F
:1020D800A24012443E8531018280295763D1E5022E
:1020E80017E5FF1F032505F963D6070017E5FF1F4E
:1020F8000325C5F897E5FF1F83A5C5F77DB7B70783
:102108008080E505FD17139775017D8D97E5FF1F05
:1021180083A505F7598D51BF8280411106C62EC08F
:102128000DCD1841AA8705C358417D5511CB854669
:10213800631BD70098472300070023A20700054523
:10214800B240410182809847824614A39847050708
:1021580098C7D8437D17D8C3DDB705468A85EFF001
:10216800AF91F1BF011126CA06CE22CC2AC02EC2D9
:10217800B28493F71600634E06082E853EC63AC40D
:102188003684EF1020672247B2472A8363519508A7
:102198006351E504998C13040002C1EFA687634FCD
:1021A800F006A68763D3040081479D8C635BE30236
:1021B80033076740BA860245930500033AC83EC60E
:1021C80036C4A13FA246B2474247FD16EDF6BA977C
:1021D80009A8898C098861D05DFF95CF81471304D0
:1021E80000033E871246B306F740B2968385060081
:1021F800B9E1A6876349F004268663D30400014643
:10220800F2406244D2443305E6000561828081448D
:10221800D1B7014349B71304000349B70245A28562
:102228003AC81AC63EC4D53DA24742473243FD17B5
:10223800BDB78147A5BF02453AC63EC4F93D3247FE
:10224800A247050745B70245A2853AC43EC2F13503
:1022580092472247FD1779BF397126DA06DE22DC5C
:102268002AC03EC42E83BA8491EDA2469307000388
:10227800014726866C08FC86F535F2506254D25424
:1022880021618280B285368491CA29470144631747
:10229800E600635503003303604005448647A309FD
:1022A800010213073103938767FC3EC61A853ACAB1
:1022B8002EC81AC2EFD05FE3A5471243C245524762
:1022C80063D4A700B2473E95130505039307F7FFAC
:1022D800A30FA7FE1A853ACC2ECA1AC83EC2EFD061
:1022E800FFDD4243D2456247637AB30419C8B1C8D7
:1022F800A247898BB9C702459305D002FD14EFF0B8
:10230800DFE1A247918B95C3064793071006024564
:10231800930500036311F704EFF03FE0930580078E
:1023280002450904F914EFF05FDF1647A24692450B
:1023380002452686EFF01FE3229581B712472A83CC
:10234800B5B792469307D0020144A38FF6FE9307D0
:10235800E7FF3EC27DB7EFF05FDC93058005C9B7A4
:102368000145828001458280130181FD22D006D279
:1023780026CE2AC62EC4328302C80144A2478385CA
:10238800070091EDB24789C781453E85EFF0FFD838
:10239800925022850254F2441301810282809307ED
:1023A8005002638CF50032451ACA0504EFF0FFD6D7
:1023B8005243A24785073EC4D1B7A247938417006A
:1023C80083871700639BB7003245930550021ACAEA
:1023D8000504EFF09FD426C4E1BFCDD71307D00280
:1023E8006387E702634CF70013073002638EE70444
:1023F8001307B0026386E704814731A81307000377
:10240800E39CE7FEA24793842700894729A0A247B7
:10241800938427008547038704009306D00263014D
:10242800D70463C8E60293063002630ED702930608
:10243800B002630CD70226C40145A546A94281A073
:10244800A247938427004DBFA24793842700914752
:10245800D9B793060003E310D7FE93E7270031A00E
:1024680085048547C9BF93E747008504E9B7330565
:102478005502620761873A95224705073AC4224701
:1024880003060700130706FD9375F70FE3F1B6FE81
:102498001307E00299466312E60222478146254661
:1024A80005073AC4A945224703070700130707FD94
:1024B8009372F70F637A560236C822471306C0068E
:1024C800030707006302C7046349E6021306800690
:1024D8006306C7081306A006630BC7081306C004E3
:1024E8006307C708014635A8B386B6026207618745
:1024F800BA96224705073AC47DB713064007630812
:10250800C7061306A007E9BF2246830516000D4635
:102518006396E5002247114605073AC42247050796
:102528003AC42247930500060307070063D5E5046C
:1025380093058007E3CFE5E693052006E3DBE5E6B0
:102548001307D7F91377F70FD545E3E4E5E6916567
:102558000A07938545D72E97184302872246830595
:1025680016000146E39FE5FA2247090755BF2247AF
:1025780005073AC485BF9305700463C7E5021306CF
:102588004004634EE61693063004E314D7E20327AB
:10259800030093044300A30C0100230CE100BE8652
:1025A80001472A862C08B1A09305800593061004DC
:1025B800E311B7E011476316E608832503000326F5
:1025C80043009304830036C23EC00147AA87C14630
:1025D8003245EFF0FFD82A942683E1BB8325030018
:1025E8009304430081E591659385C5D64247BE862D
:1025F8002A863245EFF01FB7F9BF11476310E6028C
:102608001307100683250300032643009304830061
:102618003AC23EC00547AA87A9465DBF42478325FF
:102628000300930443003AC2130710063AC08546D4
:102638002A8729463245EFF03FC271BF930610063C
:1026480095BF424783250300930443003AC236C02E
:102658002A8781464146F9BF1147631FE6001307E1
:1026680010068325030003264300930483003AC21F
:102678003EC00147AA874DB742478325030093040C
:1026880043003AC2130710063AC081462A8755B755
:10269800114793E74700631CE600130710068325DC
:1026A800030003264300930483003AC231BF424724
:1026B80083250300930443003AC2130710063AC067
:1026C80041BF11476310E602130710068325030074
:1026D80003264300930483003AC23EC00147AA87F9
:1026E800A146FDB5424783250300930443003AC23F
:1026F800130710063AC081462A87214625BF1307CB
:1027080010048325030093048300032343003AC283
:102718002A8732453EC01A86B687A946EFF09FC47D
:102728005DBD13071006F1BF130141FD32CE3ED443
:102738002AC67008FD57480006CC36D03AD202C2E5
:102748003EC432C0EFF05FC2E2401301C102828092
:102758004111370780007D1793D6750126C293541F
:102768007501B377A70022C46D8F93F4F40F135447
:10277800F50106C613F5F60FFD818E070E073386A1
:10278800A4406301B404635FC00031ED630E071019
:102798009306F6FF638B062A9305F00F630AB616B5
:1027A800368689A861C2330695406399041CFDCB1F
:1027B8009306F6FF6385062C1303F00F630866146F
:1027C8003686E1A2A2866357C01471C19305F00F43
:1027D8006380B414B70500044D8FED4563D6C51E5C
:1027E8008507268689A09306F00F6383D412B7065F
:1027F8000004558FED45854663CDC500930600025C
:10280800918EB316D7003356C7003337D000B3665E
:10281800E600958F37070004B3F6E700D5E613F70F
:102828007700268651C313F7F70091466303D70054
:102838009107370700047D8F25CB13051600130772
:10284800F00FA286630EE506139767001375F50F60
:102858002583B24022445E05598DFE069244558D6B
:10286800410182809386140093F6E60F6393061461
:10287800D9E86382072075CB3385E740B7060004A3
:10288800E98E63820622B307F7402E848DA809CF0C
:102898009305F6FF6383051A1305F00F630AA6066E
:1028A8002E8625BF2E84BA871307F00F8D836310F9
:1028B800E60CC9CF81461305F00F3707400051BF1A
:1028C8001305F00F014771B77D17B3F6E70036859A
:1028D80036C0EF00B06B82466D15B396A600634014
:1028E8009506058D93071500130700021D8F339772
:1028F800E600B3D7F6003337E000D98F014613F767
:10290800770015F33DB7639707144DD72E84BA8720
:102918008D8345B729C233069540FDE4C9D7930591
:10292800F6FF638C05101303F00FE30266FE2E8694
:10293800ED4563D5C512930717002A86EDB5B7078D
:1029480000FCFD173386A440F58F55BFA2861305FA
:10295800F00F0147FDBD138614009375E60FCDED0A
:10296800E5E863830712631307128D830146A60700
:1029780013D797001375F60FA286E1BD9306F00FE3
:10298800E306D5F8B7060004D58F6D438546634D39
:10299800C30093060002918EB396D70033D6C700C2
:1029A800B337D000B366F600B307D740AA842E84A5
:1029B80095B5B386E74037060004758E3DEA81FA7F
:1029C80081460145014771B593050002918DB31504
:1029D800B7003357C7003336B000518FBA9737075F
:1029E80000047D8FE30D07E2138614001305F00F32
:1029F8000147E300A6E6B706007E13D71700FD16C9
:102A0800858B758FD98FE5BD9305F00FE301B5F080
:102A1800B7050004CD8F29BF9305F00FE302B6EA8E
:102A28003E979357170093F67700E39E06DE8D8353
:102A38003DBFB306F7402E8459BDBA973707000447
:102A48007D8F0946854445FBD9BB998F8544D9B309
:102A5800E38F07EAE31007E68D83A1BD9305000223
:102A6800918DB395B700B3D7C7003336B000D18F77
:102A7800BA97AA84ADB729D72E84BA87FDB5B3070C
:102A8800F7402E84854479B3BA87C5B5BA97B70697
:102A98000004FD8E0146C1DE370700FC7D17F98F63
:102AA80005468D83E9B5AA8701DD8D83C9B5130174
:102AB800C1FD9357750126CC9316950006D022CEFA
:102AC80093F7F70FAE84A5821357F501E1C31306F8
:102AD800F00F6382C70C8E0637060004D18E13836D
:102AE80017F80144814293D774019395940093F7A2
:102AF800F70FA581FD80B5CB1306F00F6383C70AD6
:102B08008E0537060004D18D938717F80145BD431C
:102B1800334697003303F34063EE831A971300009C
:102B28009383832A0A041E941C409E9782879307E6
:102B3800F00F01478250724413957701598D7E0634
:102B4800E244518D1301410282808D476389F2006E
:102B58008547639DF20E2A8681470147E1BF0146FA
:102B68009307F00F37074000F1B7D9E91364140051
:102B7800B54733469700E3EC87FA9715000093852D
:102B8800A5280A042E941C40AE978287A1EA114416
:102B98000143854289BF95EE21441303F00F894212
:102BA80099B795E1136424007514AD453346970031
:102BB800E3E485FA17150000130585280A042A940A
:102BC8000C40AA958285136434009307F00F0D45D5
:102BD8003DBF31441303F00F8D4231B736853AC2F9
:102BE80036C0EF00B03A82469307B5FF1247B39656
:102BF800F6009307A0F83383A74001448142E5B566
:102C08002E851AC836C616C43AC22EC0EF00103830
:102C180082459307B5FF1247B395F5009307A0F8CF
:102C2800898FA242B24642430145D5B5130313F03A
:102C380089473A85E39BF2F02A869307F00F01470C
:102C4800D5BD8D47E30DF5F02685AE862A86930718
:102C5800F307635FF00213F7760019C713F7F6005E
:102C680091456303B700910637070008758F19C7A8
:102C7800B70700F8FD17FD8E930703081307E00F49
:102C8800E347F7EA13976600258393F7F70F5DB5D7
:102C9800854599C79D8D6D4581470147E34CB5E84A
:102CA8001307E3093397E6003337E000B3D7B600DC
:102CB800D98F13F7770019C713F7F7009146630305
:102CC800D7009107370700047D8F630D07108547EC
:102CD80001478DB5C16793945500FD1713D70401BB
:102CE800E58F3AC03EC263FEB60A3685BA8532C859
:102CF8001AC636C4EFD08FBC9247A246324342462A
:102D0800B302F5022A84B6877D13814682453E8543
:102D180032CA36C816C61AC4EFD00FBDC246B24270
:102D280093170501D58F2243524663F85700A6979B
:102D38009306F4FF63F3970A36848245B3875740B6
:102D48003E8532CA1AC83EC6EFD04FB79247824571
:102D58002AC4B303F502B2473E851EC2EFD0CFB8EE
:102D6800924393160501A2424243524663F176020A
:102D7800B3879600B3B5D7001385F2FFBE8699E5F1
:102D880063F67700F912B386970011A0AA82131789
:102D98000401B386764033675700B336D000D98E26
:102DA8007DB5824593D716003E8532CA1AC836C605
:102DB8003EC4EFD0AFB0B24692475246FE06B302C9
:102DC800F5024243A2472A84C18289B726852A860A
:102DD80061B3014637074000B1BBE3FF57F47914EC
:102DE800A697A1BF9A0713D797008147A1B3268555
:102DF800A1B593567501B7078000FD1713D6750165
:102E080093F6F60F1303F00FB3F2A7001357F5016B
:102E1800ED8F1376F60FFD81054563826602630721
:102E280066006394C6006384F20082808280014554
:102E3800E30DB7FE0545F5FA333550008280E316F9
:102E4800D6FEB3E7F200F5F33345B7008280135698
:102E58007501370780007D1793D675011376F60F35
:102E68001303F00FB372A7009357F5016D8F13F595
:102E7800F60FFD8163056602630A650005EA09E944
:102E880039C3639E0204A1C92E85828039E719E2FD
:102E9800E38B02FE6399B7009DCF3E858280639ED7
:102EA80002026305C50205459DE782806DDDE39C4E
:102EB800B7FEE34AC5FEE341A6FEE36657FE0145B9
:102EC800E3ECE2FC8280E39002FE828019E7E39C57
:102ED800B7FC014582807D55828079558280E38EDA
:102EE800B7FCD1B7011126CA935475011316950082
:102EF80006CE22CC93F4F40F25829356F50163870E
:102F080004109307F00F6388F4100E06B707000447
:102F18005D8E938414F80147814293D77501139409
:102F2800950093F7F70F2580FD81E9C71305F00F8A
:102F3800638FA704938717F8370500040E04498C9C
:102F48003385970093041500294326C08147634CB5
:102F5800E30E33C3B60089469A8363C9E6047D1736
:102F6800854563E7E514638ED70A05471E83639199
:102F7800E70681478143F240624413957701336540
:102F880075007E03D2443365650005618280138530
:102F9800F40F49CC9384041033C3B60026C01367DA
:102FA8003700A9449A8363C4E4208D478546339744
:102FB800E6009376075399CE89476384F2068D47D6
:102FC8006384F2029687054732841E83E383E7FA17
:102FD800024591A29376072481EA1377870869CB83
:102FE800AE832286BE82C9BF01439307F00FB703A1
:102FF800400051B751E02685930415001367170068
:10300800294326C08547E356E3F435A821E611474E
:103018008144854219B715EA21479304F00F894284
:10302800EDBD1E839307F00F8143B1B7938704105A
:103038003EC0136727002943B9438947E35BE3F0A0
:103048002D47E38FE3F8B68385BF31479304F00F2C
:103058008D42E1B532852EC436C232C0052F0246F4
:103068009307B5FF9304A0F89246A2453316F600DD
:10307800898C0147814255B5228532C816C63AC4A3
:103088002EC236C021279307B5FF3385A440130508
:10309800A5F82247930415008246294326C0331415
:1030A800F4009245B24242468147E354E3EA61BFE5
:1030B800C1631387F3FF9356060193520401798E77
:1030C800618FB305C7023387E60293D705013386BC
:1030D800C2023A96B297B386560263F3E7009E9609
:1030E80041667D1633F7C700F18D42072E971316F8
:1030F800670013D407016983B337C0003694D98FAA
:103108001A045D8CB7070008E18F91C702459357F1
:10311800140005885D8C9307F5076350F004137756
:10312800740019C71377F40091466303D70011049C
:1031380037070008618F19C7B70700F8FD177D8C9E
:10314800930705081307E00F634AF7049313640015
:1031580093D3930093F7F70F39BD054799C71D8F90
:10316800ED4681478143E3C8E6E01305E5093315D9
:10317800A400B357E4003337A000D98F13F77700C2
:1031880019C713F7F70091466303D700910737076C
:1031980000047D8F01CB85478143F1BB9307F00F76
:1031A8008143D1BB9A0793D397008147E9B33D4543
:1031B8000143B7034000E300A7DCAD438D4749B5A1
:1031C80037078000411193D675017D17B377A700A3
:1031D80022C46D8F1354F50126C206C69354750197
:1031E8001303F00F13F5F60F93F4F40FA2868E076E
:1031F800FD81131637006303650493C515003387F3
:10320800A440630FB4006356E03035E1630C061444
:103218009306F7FF638E0628630F67023687A9A80F
:103228006355E0306DC963886402B70500044D8EAC
:10323800ED4563DFE512850726878DA8138714F00F
:1032480045E693C515006301B40E630A0718638643
:1032580004102E84B2878D83937614001305F00F23
:10326800BDCB81461305F00FB7074000ADA0E3843E
:1032780064FEB7060004558EED45854663CDE5002E
:1032880093060002998EB316D6003356E6003337FC
:10329800D000B366E600958F37070004B3F6E70061
:1032A8006391061093F677002687CDCE93F6F70044
:1032B80011466383C6009107B7060004FD8EDDC280
:1032C80005071306F00F937614006308C70C9A07D6
:1032D8001375F70FA583B24022445E055D8DFE0687
:1032E8009244558D41018280E311B4F631C3639F46
:1032F800041A1307F00FB5C79305F7FF6387051284
:103308001303F00F6304671A6D476359B71A9307DD
:1033180016002A8761BF39C69305F7FF6387051032
:10332800E30B67F22E8729B701C7E1D4814725B798
:10333800138714009375E70F6394051463970416B5
:103348006385071A6315061A8D830147A607A583A7
:103358001375F70F93761400BDBF1307F00FFDE741
:103368002E84B2879306F00F8D83E307D7EEF9BF5B
:1033780093050002998DB315B600B335B0003356E6
:10338800E6004D8EB297370700047D8F01DF138763
:1033980014001306F00F6312C70A1305F00F8147D4
:1033A8001DBF7D177D8F3A853AC0CD2602476D1522
:1033B800B316A70063499504058D930715001307F5
:1033C80000021D8F3397E6003337E000B3D7F600CD
:1033D800D98F014793F67700E39A06ECF1BD13877E
:1033E80014001377E70F1DE7CDE8E5CF31DE33870B
:1033F800C740B7060004F98E63880610B307F64085
:1034080001472E84C1BFB70700FCFD173387A440CE
:10341800F58FC9B73387C740B7060004F98ED1E2E4
:1034280059F38146014581477DB5B297B706000437
:10343800FD8E09478544E38706E63706007E93D666
:1034480017007D16858BF18ED58F69B79306F7FF28
:10345800C1C61303F00F2E84630A6704ED450547C0
:1034680063CCD50013070002158F3397E700B3D656
:10347800D7003337E000558FB307E640AA8429BD4B
:103488009305F00FE30BB7F03E969357160093F6AB
:103498007700E39D06E08D8355BD91EFE30306DCDD
:1034A8004DBB3307F6402E84FDBD91E7B28765B367
:1034B800918F8544D5B3E30006DA65B3130700029C
:1034C8000D8F3397E700B3D5B700B337E000DD8D34
:1034D800B387C500AA8445BDB307F6402E8485444A
:1034E80065BB21D22E84B28785B5B287B1BDB297AC
:1034F800B7060004FD8E0147D9DE370700FC7D17AB
:10350800F98F8D83054799B509DFBA878D83014700
:1035180035BDE30607ECB30695403687E38104E43E
:1035280037070004D98F2E8415BFE30307E0B305DE
:10353800954099E02E87C1B337070004D98FE9B3C6
:1035480037068000135775019307F6FF1377F70FB7
:103558009305E007B3F6A7009357F50163DBE50091
:103568009305D00963D9E500370500807D153E95A0
:1035780082800145828093055009D18E63CDE50094
:10358800130660093307E640B3D6E6003305D0409A
:10359800F5F3368582801307A7F6B396E600FDB7E4
:1035A80013577501370680009307F6FF1377F70F57
:1035B8009305E007B3F6A7009357F501014563D3D8
:1035C800E50091C382809307E0097D55E3CCE7FECF
:1035D80093055009B3E7C60063D7E5001305A7F6BE
:1035E8003395A700828013056009198D33D5A7008C
:1035F8008280511106C422C226C021C11357F54149
:10360800B344A700998CAA87268513D4F701BD2A4D
:10361800AA861305E009B307D54013076009634B71
:10362800F7022147638BE608138586FF3397A400CA
:103638002607258313F5F70F21A00144014501470B
:10364800A2409317F40112445E05598D82445D8DA2
:1036580031018280130790096344F70415471386E4
:10366800B6FF6384E600B394C400370600FC7D16F9
:1036780093F5740033F7C40099CDBD889145638CE8
:10368800B4001107B7050004F98D91C51305F009B9
:10369800718FB307D5401A07258313F5F70F4DB778
:1036A8001387B60115463397E400158E33D6C40048
:1036B8003337E000B364E6004DBF139794002583C9
:1036C80013056009B5BF21C1511122C206C42A845D
:1036D8007528AA861305E009B307D54013076009C2
:1036E8006348F7022147638DE608138586FF331781
:1036F800A4002607258313F5F70FA24012445E05A0
:10370800598D31018280014501475E05598D8280BE
:10371800130790096349F70415471386B6FF6384B6
:10372800E6003314C400370600FC7D169375740058
:103738003377C40099CD3D889145630CB4001107D7
:10374800B7050004F98D91C51305F009718FB3070A
:10375800D540A24012441A0713F5F70F25835E05DA
:10376800598D310182801386B60115473316C4007E
:10377800158F3336C0003357E4003364E60065B76D
:103788001317940025831305600985BFC167637506
:10379800F5029337051093C717008E071307000229
:1037A8001D8F3355F500970700009387676CAA971C
:1037B80088233305A7408280B7070001637FF5009F
:1037C800C1473355F500970700009387676AAA97A2
:1037D800882341473305A7408280E1473355F500E8
:1037E800970700009387C768AA978823214733055E
:1037F800A7408280AA879823850775FF3385A7404D
:103808007D1582800000000000000000010000001B
:1038180000000E00000000000100000025303364A5
:1038280020444547000000003E5149453E00427F84
:10383800400042615149462141454B311814127FDD
:103848001027454545393C4A494930017109050366
:103858003649494936064949291E7E1111117E7F8C
:10386800494949363E414141227F4141221C7F4915
:103878004949417F090909013E4149497A7F0808B8
:10388800087F00417F41002040413F017F0814220A
:10389800417F404040407F020C027F7F0408107F38
:1038A8003E4141413E7F090909063E4151215E7F63
:1038B80009192946464949493101017F01013F401B
:1038C80040403F1F2040201F3F4038403F631408BE
:1038D8001463070870080761514945430000000058
:1038E800000036360000080808080800FA0012012F
:1038F8002B01430159016F0183019601A701B5010D
:10390800C201CC01D401DA01DD01DE01DC01D801FC
:10391800D201C901BE01B101A20191017E016A0172
:1039280054013D0125010C01F300DA00C200A90091
:1039380092007B006600520040003000230018000F
:103948000F00090005000400050008000E0016001D
:1039580021002E003D004E00610076008C00A3007F
:10396800BB00D400ED0006011F0138010000803FB4
:103978009A99193FCDCC4C3D00F07F450000B443E7
:10398800DB0F49400000344300007F43A60A06408D
:10399800A60A8640000FC93F000F494000CB964059
:1039A800000FC9400053FB4000CB164100ED2F41EA
:1039B800000F49410031624100537B41003A8A417E
:1039C80000CB9641005CA34100EDAF41007EBC41B5
:1039D800000FC94100A0D5410031E24100C2EE41CB
:1039E8000053FB4100F20342003A0A4200831042AE
:1039F80000CB164200141D42005C234200A5294258
:103A080000ED2F4200363642007E3C4200C742425B
:103A1800000F4942A2000000F900000083000000E6
:103A28006E0000004E000000440000001500000079
:103A380029000000FC0000002700000057000000DB
:103A4800D1000000F500000034000000DD00000097
:103A5800C0000000DB0000006200000095000000CC
:103A6800990000003C0000004300000090000000A6
:103A780041000000FE00000051000000630000004B
:103A8800AB000000DE000000BB000000C500000025
:103A980061000000B7000000240000006E00000074
:103AA8003A000000420000004D000000D200000073
:103AB800E000000006000000490000002E000000A1
:103AC800EA00000009000000D10000009200000098
:103AD8001C000000FE0000001D000000EB000000BC
:103AE8001C000000B100000029000000A700000031
:103AF8003E000000E80000008200000035000000E1
:103B0800F50000002E000000BB000000440000008B
:103B180084000000E90000009C0000007000000024
:103B280026000000B40000005F0000007E000000D6
:103B3800410000003900000091000000D60000009C
:103B48003900000083000000530000003900000025
:103B5800F40000009C000000840000005F000000EA
:103B68008B000000BD000000F900000028000000E4
:103B78003B0000001F000000F80000009700000054
:103B8800FF000000DE0000000500000098000000B3
:103B98000F000000EF0000002F00000011000000DF
:103BA8008B0000005A0000000A0000006D000000B1
:103BB8001F0000006D000000360000007E000000BD
:103BC800CF00000027000000CB0000000900000023
:103BD800B70000004F000000460000003F00000052
:103BE800660000009E0000005F000000EA00000080
:103BF8002D0000007500000027000000BA0000003A
:103C0800C7000000EB000000E5000000F100000024
:103C18007B0000003D0000000700000039000000A4
:103C2800F70000008A000000520000009200000027
:103C3800EA0000006B000000FB0000005F000000CD
:103C4800B10000001F0000008D0000005D000000B2
:103C580008000000560000000300000030000000CB
:103C680046000000FC0000007B0000006B00000024
:103C7800AB000000F0000000CF000000BC00000016
:103C8800200000009A000000F40000003600000048
:103C98001D000000A9000000E300000091000000E2
:103CA800610000005E000000E60000001B0000004C
:103CB8000800000065000000990000008500000071
:103CC8005F00000014000000A00000006800000071
:103CD800400000008D000000FF000000D800000038
:103CE800800000004D000000730000002700000065
:103CF800310000000600000006000000150000006A
:103D080056000000CA00000073000000A800000070
:103D1800C900000060000000E20000007B00000015
:103D2800C00000008C0000006B0000000000C93FCC
:103D38000000F0390000DA370000A2330000842EBA
:103D48000000502B0000C2270000D0220000C41F32
:103D58000000C61B00004417040000000700000014
:103D680009000000286E756C6C290000962500007B
:103D7800022600002A2700002A2700002A27000020
:103D8800BA230000BA230000BA230000BA230000B7
:103D9800BA230000BA230000BA230000CA26000094
:103DA80098260000BA230000BA230000E42500008A
:103DB800BA23000060260000BA230000BA230000DE
:103DC8004426000010EFFFFF6AEDFFFF94EDFFFFB0
:103DD8007EEEFFFF94EDFFFF9AEDFFFF94EDFFFFEE
:103DE8007EEEFFFF6AEDFFFF6AEDFFFF9AEDFFFF32
:103DF8007EEEFFFF6CEEFFFF6CEEFFFF6CEEFFFF49
:103E08009AEDFFFF2AEDFFFF2AEDFFFF54EDFFFFBC
:103E1800C8EFFFFF54EDFFFF5AEDFFFF54EDFFFF22
:103E2800C8EFFFFF2AEDFFFF2AEDFFFF5AEDFFFF66
:103E3800C8EFFFFF2CEEFFFF2CEEFFFFB2EFFFFFF6
:103E48001CEDFFFF96EFFFFF1CEDFFFFB2EFFFFF3A
:103E5800F2ECFFFFF2ECFFFF96EFFFFFB2EFFFFF80
:103E6800F0EDFFFFF0EDFFFFF0EDFFFF00010202B4
:103E780003030303040404040404040405050505FA
:103E880005050505050505050505050506060606D6
:103E980006060606060606060606060606060606BA
:103EA80006060606060606060606060607070707A6
:103EB800070707070707070707070707070707078A
:103EC800070707070707070707070707070707077A
:103ED800070707070707070707070707070707076A
:103EE8000707070707070707070707070808080856
:103EF800080808080808080808080808080808083A
:103F08000808080808080808080808080808080829
:103F18000808080808080808080808080808080819
:103F28000808080808080808080808080808080809
:103F380008080808080808080808080808080808F9
:103F480008080808080808080808080808080808E9
:103F580008080808080808080808080808080808D9
:0C3F6800080808080808080808080808ED
:103F740019FCFFFF00366E01800FC93F43443537FB
:103F84000044353708A3852E84F9223F0000003F02
:103F940000A3852E32318D24000080430000903E22
:103FA4000000803F4ED747ADF6740F317CF2933456
:103FB400010DD037610BB63AABAA2A3D0000803B15
:103FC4000000003E00000041D3C92E2F342FD73209
:103FD4001BEF3836010D50398988083CABAA2A3EBC
:103FE400CAF249710000004C6042A20DCAF249F1C4
:083FF4006042A28D00000033C1
:00000001FF
