:100000006F10201B00000000B40C0000B80C0000B2
:1000100000000000000000000000000000000000E0
:1000200000000000000000000000000000000000D0
:1000300078090000000000008211000000000000AC
:100040008411000086110000881100008A11000050
:100050001A0A00008E110000901100009211000099
:100060009411000096110000981100009A110000F0
:100070009C1100009E110000A0110000A2110000C0
:10008000A4110000A6110000A8110000AA11000090
:10009000AC110000AE110000B01100000000000023
:1000A000511126C022C206C4828282441244A24058
:1000B000310182802A86014593F6150091C232955E
:1000C00085810606F5F9828000000000634E050276
:1000D00063C305042E86AA857D5515C285466378BF
:1000E000B6006356C00006068606E36CB6FE014500
:1000F00063E4C500918D558D85820582F5FA828075
:100100008682C93F2E8582823305A04063D70500D1
:10011000B305B040C1B7B305B0408682653F330533
:10012000A0408282868263C70500634905005D376F
:100130002E858282B305B040E35B05FE3305A04007
:10014000513F3305B040828200001307803EAA87EA
:100150006374A7009307803EC207C183373701400D
:100160002320F7C48280EFF2BFF3EF00500E374434
:100170000008130504FCEF009013B707002083C5A7
:100180008709B707002083C79709920593F5F50FF4
:10019000BD8BDD8DE97793870750DD8DC205C18169
:1001A000130504FCEF003014EF00100CFDBDB74741
:1001B000000883D707FC1307500AC207C18393D6F0
:1001C0008740639BE60213D64740B70600203707F7
:1001D00000203D8A93868609BD8BA30CF70890A268
:1001E000A5451307970963F4C500154690A2A546D7
:1001F00063F4F60095471CA38280B7060140DC42F9
:1002000061777D17F98FDCC2B71702409843C1763A
:10021000FD16758F98C3984F856613865683518F48
:1002200098CFB717014003A60740B70500F1FD15A9
:100230006D8E23A0C74003A60740B70500087D7553
:100240004D8E23A0C74003A6C740C575FD15136694
:10025000060423A6C74090431305F50F9386068036
:100260006D8E90C39043A1654D8E90C3D0471366A9
:100270008600D0C703A607801376F6F023A0C780B8
:1002800003A60780698E23A0C78003A60780D18EAE
:1002900023A0D78083A6C780370600FF1306F60F7A
:1002A00093E6460023A6D78083A60740F18E23A0BD
:1002B000D74083A607403796880013060680D18E64
:1002C00023A0D74083A6C74093E6C60323A6D74002
:1002D0009843B7F6FF00BD06758F98C39843B716CD
:1002E000008893860688558F98C3D847B706F1FFD4
:1002F000FD161367670CD8C79843758F98C398434A
:10030000B7060B00558F98C38280B736014013079C
:10031000F0022394E6C21307703E2396E6C203D68A
:10032000C6C165777D17718F239EE6C003D7C6C10E
:100330001966518F239EE6C003D6C6C10567130711
:100340000780518F42074183239EE6C003D706C230
:100350000566518F2390E6C203D746C42166518FAC
:100360002392E6C483D706C093E717002390F6C014
:100370008280EFF2FFD237160140832786808326E2
:1003800086406111918B93F6060213B717008544DE
:1003900091CE83268640A18A91CA144693F606041C
:1003A00091C60446858093C414008588B716014021
:1003B00003A686400544418A11CE03A68640118AD1
:1003C00011CA90461376060811C680460980134468
:1003D0001400058803C6A1809386A180639007104E
:1003E0004DEE83A7C1811306A00FB307F5406379D3
:1003F000F60023AAA180238C018005462380C182B8
:1004000098A203C7918093879180638B04101DEF9E
:1004100083A601811306A00F13870181B306D5407F
:100420006376D60283C611826397060EB706002054
:10043000938686099022A14563E4C500050690A233
:100440000D462381C18223A2A18208C384A303C7CE
:10045000818093878180630F040C0DEF83A6C18098
:100460001306A00F1387C180B306D5406374D6026C
:1004700083C61182639B060AB7060020938686090D
:10048000902219C27D1690A20D462381C18223A21B
:10049000A18208C380A3210109B983C70182ADD31A
:1004A00093878181902329FE83A5418105661306E8
:1004B00076BBB305B540E375B6F42AC23AC06531E0
:1004C000054693878181124590A311462381C182FD
:1004D00023A2A18202479386A1801DB7E30206F200
:1004E00003C601821383018219CE03C6818101EE06
:1004F00083C511829387118281CD854590A3238185
:10050000B18223A2A1822300030023AEA180CDBD2E
:1005100005468945E5B7B70600209386960919BFB9
:10052000E30607F223A8A18015B7B706002093863B
:100530009609B9B725D323A6A180A9BFEFF25FB66C
:100540006D39E133AD3195B6EFF29FB55111EF0042
:10055000B07FAA84393D93862182982271C7138681
:10056000218283A741828545B387F4406310B70495
:100570001307F0186367F700B737014023A007C4DB
:1005800019A813077025636AF700B73701401307EE
:10059000803E23A0E7C4310109BE1307F04AE37D82
:1005A000F7FC2380060023A49182F5B789456315E3
:1005B000B7021307F018E371F7FC13077025E37611
:1005C000F7FC1307F031E379F7FA1307703EE37E87
:1005D000F7FA1307F063E1B78D456315B70013070A
:1005E000500975BF9146E318D7FA1307F018E37561
:1005F000F7F813077025E37AF7F81307F031E37D76
:10060000F7F61307703EE372F7F81307F04AE37545
:10061000F7F613077057E37AF7F61307F07CE37DDC
:10062000F7F42300060041B73717014083278740BE
:100630001384818293F7070491CB1C47A18B99C740
:10064000B737014023A007C404C0B1B73707002063
:10065000034787090C4013155700198D0A053A9571
:10066000B387B4400E05A5453EC2AD34B7060020A1
:1006700083C696091307451FA545139516003695A1
:100680000E05369506053AC0B134024792479306E7
:10069000A50063E4E70004C08147131517003A95ED
:1006A000131745003305A7409305400606053EC2D3
:1006B00036C40D34A246AA852AC03685E53A93058C
:1006C0004006093C02472A84814492476374E5004E
:1006D000B304A74063F58702BE853E85E13A9314D3
:1006E0005500898C8A04AA94A2852285E1328E0461
:1006F000AA852685C53242054181813C69BD0145F7
:10070000E3FBE7FEEDD8B305F440A6952E855D32F8
:1007100013145500098C0A042A94A6852685593A93
:100720000E04AA852285F9B70145828082807D5515
:100730008280EFF2FF961C417111CC81DC4393055E
:1007400031000546829711018DB2EFF27F9571114C
:10075000930531004105EF00D05A01E58881110170
:10076000A9B27D55EDBFEFF2BF932E85B285EF00A4
:1007700050496FF09F9313F7F50FC54763EDE700FE
:100780008567938707720A073E9793F705700C43B6
:10079000CD8F5CD5828093F6050C1306000CFD57B7
:1007A000E399C6FE9306700CE3E5E6FE93F7F503C6
:1007B0000567130707708A07BA979C4305671307F5
:1007C00007728A07BA9793F505709C43D1B713F760
:1007D000F50FC54763EDE7008567938707720A0742
:1007E0003E9793F705700C43CD8F1CD5828093F60E
:1007F000050C1306000CFD57E399C6FE9306700C1A
:10080000E3E5E6FE93F7F5030567130707708A072C
:10081000BA979C430567130707728A07BA9793F53F
:1008200005709C43D1B7EFF2BF879307803E1CC58C
:100830008567938707771CC10CC9232205009305A0
:10084000600C2A840D3F9305500C2285493758547B
:100850001C546314F700FD575CD4FD571CD85CD8BA
:100860006FF0BF84EFF2DF83B745014093850580C9
:10087000138501844D3F6FF05F83EFF27F822A84FE
:10088000EF00904C48C41C402285DC4B8297635A91
:100890000500EF00704B5C441D8D1C44E365F5FEC4
:1008A0007D556FF09F80EFF2AFFF6111AA84014484
:1008B0002EC232C0630DC4002685C13763490500CE
:1008C00092450246B387850088A30504D5B72285E3
:1008D00021016FF08FFDEFF2AFFC5111014495C67D
:1008E000B684AA8701443E8532C42EC23EC0713709
:1008F000634D05009245630AB500224682473307DF
:10090000860008A30504E39084FE228531016FF080
:10091000CFF9EFF2EFF8F1206FF02FF9EFF24FF887
:1009200085476301F50219C589476303F50201454F
:100930006FF0AFF71145854539293715014013058B
:100940000580FDB741458545392137150140CDB7B3
:1009500013050002854501213715014013050540A7
:10096000C1BF03A5018383A5418382808280EFF20A
:100970002FF3C53F6FF06FF39387018303A3070045
:1009800083A34700130713003335670098C3B306EA
:100990007500D4C3E13FB7F700E023A2070073005E
:1009A0002030EFF2EFEF37F400E0232204002320A1
:1009B000040023240400B707002003A5C7099305FA
:1009C000803EEFF02FF17D1508C8BD471CC07D5754
:1009D000B7E700E02386E740056723A0E7106FF044
:1009E000CFECEFF2EFEB753F6FF02FEC814705474F
:1009F0006307E5008507058193F7F70FD5BF370734
:100A000000208E0713070700BA97DC4391C7EFF267
:100A10002FE982976FF06FE98280611122C226C0B0
:100A20000544A14422853928131504014181FD1490
:100A3000753F0604E5F8124482442101730020301A
:100A400082808280B707014023AAA7408280B7072F
:100A5000674537270240938737125CC3B797EFCDBE
:100A60009387B79A5CC38280372702401C4B93E779
:100A700007081CCB8280372702405C470545858BE1
:100A800091E748474189133515000D058280EFF243
:100A90002FE12A84CD3785476318F50019E0154505
:100AA00029A0D13F7D14C5BF7DD86FF00FE0EFF2D4
:100AB0002FDFAA8437050B00D93F91476313F50256
:100AC000372402401C4837050B0093E727001CC859
:100AD00044C81C4893E707041CC8553F1C48F59BB5
:100AE0001CC86FF08FDCEFF2AFDB7111AA840965CF
:100AF0002EC0713F91478245631EF50037240240A6
:100B00001C48096593E717001CC88EA049371C488C
:100B1000F99B1CC811016FF04FD99C45611122C28D
:100B200026C013F7070113F3F70001C7D841336359
:100B3000E30092211377F60F29C7832305000147AD
:100B400013048002930480048546B395E600B376CF
:100B5000B6006392D50293122700BD46B3965600A5
:100B600093C6F6FFB3F37600B3125300B3E37200FB
:100B7000639787064CC90507A146E317D7FC2320D6
:100B800075001307F00F6378C70483234500A1465F
:100B900013048002930480040547B312D70033770F
:100BA00056006394E202139726000117BD45B395E2
:100BB000E50093C5F5FFB3F375003317E300B363A6
:100BC000770063928702232A550085064147E39503
:100BD000E6FC232275001244824421018280E39CBA
:100BE00097F80CC949BFE39297FE23285500F1BF3F
:100BF00037030140032743009317350063D00702F2
:100C0000B707C0FFF517F98F37070007D98FD9CD80
:100C1000370700F07D17798DC98F49A8635D0500FE
:100C2000B707E0FFED17F98F37070007D98FBDCD64
:100C300006050581D5B7B707300093160501337651
:100C4000F500C1826313F602370600F97D16B3770B
:100C5000C70003274300798E2322C300A1C9558111
:100C6000131745003395E60045BF9317B50063D4CD
:100C700007029357050113F6F7008D47B397C70096
:100C800093C7F7FFF98F37070007D98F85C113572F
:100C900055011207C1BF558112053395A600934730
:100CA000F5FFF98F37070007D98FBDF537070140EA
:100CB0005CC382807300203001A0EFF26FBE371753
:100CC00002405C4391462A84B18B6385D700A146DC
:100CD000638DD706B7376E01938707601CC0B716C0
:100CE0000240DC42918313F7F700B7070020938797
:100CF0004705BA978C23DC42184093F5F50F93F71C
:100D000007083355B70081E73A85EFF0AFBC48C01C
:100D100008C448C4B7170240DC43AD83FD8B13D72A
:100D200037008A07F18BD98F93F637010D4763732C
:100D3000D700D1173707002013070704BA978C2371
:100D4000EFF04FB908C86FF04FB65C43B777DC02DD
:100D5000938707C061B799C5371702401C4F5D8D57
:100D600008CF8280B7170240984F1345F5FF798D61
:100D700088CF8280EFF2CFB21629F577FD17F58F75
:100D8000F621DA252111D58F1EA95625FD779387E7
:100D9000379FF58FD6212A842EC0D58F9625D58FE3
:100DA000B625D58F5EA55E29C207C18393F7F7CF1D
:100DB0005D8F5AA948001137B747014093870780D4
:100DC00082456312F406C2475A24139517003E95D4
:100DD00042070E0541873E958C41635807048605FE
:100DE000EFF04FAF930540062AC0EFF0AFAE824759
:100DF00093144500930540063E85EFF06FB05E24E6
:100E0000C207C18763D507020E0593054006130587
:100E10002503EFF02FAC1D89C98CC204C18006A444
:100E200061016FF08FA8B24745B78A0555BF12051B
:100E30009305400613052503EFF0CFA93D89E9BFCF
:100E400091C55E250967D98F5EA582805A25F977FD
:100E5000FD17F98FD5BF93F5F51F4EA182804A216A
:100E60001375F51F82805E2989C593E787005EA907
:100E70008280C207C183DD9BC207C183CDBF0A2127
:100E80006D8D3335A0008280B71702409843B706B6
:100E9000FFFC61111367170098C3D8432166758F53
:100EA000D8C39843B706F7FEFD16758F98C39843CD
:100EB000B706FCFFFD16758F98C3D843C176FD16A3
:100EC000758FD8C337079F0098C702C002C2984FDA
:100ED000B70601401367170098CFD842518FD8C288
:100EE0009843C16637060200558F98C3B716024073
:100EF00009679C42F18F3EC2824785073EC09247F8
:100F000081E78247E397E7FEB71702409C431397B8
:100F1000E7006358070685473EC2124785476310BE
:100F2000F706B72702409843C176FD16719B98C318
:100F300098431367170098C3B7170240D843D8C324
:100F4000D843758FD8C3D843C166558FD8C398434B
:100F5000B7060001558F98C3984393166700E3DDE9
:100F600006FED843B7160240719BD8C3D843136717
:100F70002700D8C32147DC42B18BE39EE7FE210165
:100F8000828002C259BFEFF2AF91311102C402C692
:100F900002C8FD576313F50001A093D7854093F471
:100FA000F7079377F50013972700896793870780E2
:100FB000BA979C4311813D892E843EC0EFF01F9665
:100FC0002AC29DC08545054579339387F4FF69475B
:100FD000636CF70005678A0713074779BA979C4344
:100FE000828785450545293193572440137734007E
:100FF0008D8B7DC73AC609476380E70E0D47638F27
:10100000E70C05476388E70CC1473EC8EDA0814562
:10101000D1BF8545370500100905F1B7854537056E
:101020004010DDBF8145E5BF8545370500801105CE
:101030005DBF8545370520807DB785453705208014
:10104000FDB78145E5BF3705160085451305050445
:1010500059BF8545370516001305050869B785454D
:10106000370516001305050CBDBF8145D5BF3705F3
:101070001800854513050510BDB7370518008545CF
:10108000130505208DB78545370518001305053074
:1010900099BF8145D5BF85452165B1B78145EDBF74
:1010A0008545370520008DBF8145E5BF854537055E
:1010B0002000B5BF8145E5BF85453705200069BFE4
:1010C0008145E5BF8545370530001305054021BF43
:1010D0008145D5BFD14715BFE14705BFF14735B7BA
:1010E00005476383E70299C789466381D70293075F
:1010F000800221BF02C8824712452C007C84EFF099
:10110000DFA151016FE07FFA914701B711840D888B
:1011100093078004E31DE4FCCDBDFD577D57631CA0
:10112000F50082806398A700EFE29FF78C45A13D10
:101130006FE0BFF7B1059C41E396E7FE01A07D5744
:101140009C416394E700014582806394A700C841F5
:101150008280B105F5B7FD576307F500EFE25FF454
:10116000F93F6FE09FF4014582806305B50019C126
:1011700081E5AA852E8582808145EDBF01A001A071
:1011800001A001A001A001A001A001A001A001A057
:1011900001A001A001A001A001A001A001A001A047
:1011A00001A001A001A001A001A001A001A001A037
:1011B00001A097F1FF1F9381616E138181F61705DE
:1011C00000001305A56697F5FF1F9385A5E3138619
:1011D000818063FAC5008322050023A05500110514
:1011E0009105E3EAC5FE138581809385419163777C
:1011F000B500232005001105E36DB5FE930200083C
:10120000739002308D427390428097F2FFFF938279
:1012100062DF93E23200739052301705000013052D
:1012200045340D2E952EEFF03FC6970200009382B5
:10123000C2307390123473002030EFE27FE6130166
:10124000C1FDAA84084D32C605662EC49305866E7C
:101250003ACA36C809372AD0C84C85669385066DC8
:10126000DD3D2A84885085659385856BED352AC0E0
:10127000C85085659385056AF93D02570566856600
:101280002AC232CC36CE6303070ED04CFD5663041F
:10129000D600630D040C9050FD566305D6008247BE
:1012A0006386070CD050FD566305D6009247638FC6
:1012B000070A3A85A285553D824588C07D3592450D
:1012C00088C0653588C05DC1374701401307078076
:1012D000631BE50085451165EFF0FFA713070002CA
:1012E0002386040298D4E247884C9385876E35356F
:1012F00011C4F247C84C9385076D05358247814676
:1013000081CB885085659385856B013D93060010E0
:10131000924791CBC850856593E606209385056A70
:1013200036C0E53B8246A24703C7C40288409CC43E
:10133000B24713162700DEA4D24713878183329762
:10134000FEA4C2471386440010C33147C8C09EA8FC
:10135000BAA8D6A819E085453936C84093858400D7
:10136000EFF05FA1C8408545EFF09FAD130141024A
:101370006FE0BFD3EFE2DFD2856783A747710567D0
:10138000130707728A07BA97804385659385856E30
:101390002285D13319CD37050020F1659307450625
:1013A000014781460146938505201305450680CFF8
:1013B00069356FE09FCFEFE2BFCE8347C50293054B
:1013C00000021397270093878183BA979C43884331
:1013D000EFF0FFAA133515006FE03FCDEFE25FCCD1
:1013E0008347C502930500041397270093878183E1
:1013F000BA979C438843EFF09FA8133515006FE020
:10140000DFCAEFE2FFC9411137040020AA842EC2CF
:10141000EFF02FD59307440683C7C7022AC41304ED
:10142000440685E70347C402938781830A07BA9776
:101430009C43F1173EC0938781833EC68247C9EB28
:1014400002C2124541016FE05FC6856783A74771FD
:101450000567130707728A07BA979C4385669385C9
:10146000866E3E853EC0C539856679D9230604025D
:10147000138781831C4391EF8347C402850793F749
:10148000F70F2306F402FDD7F5358347C402D9DBF5
:1014900045BF02459385866E7D390346C402138796
:1014A000818393172600BA979C4385669C43E395F6
:1014B000A7FC2DDAD1BFEFF0CFCAA247B307F540A2
:1014C0003335F500E39EA5F61307703EE36AF7F6A1
:1014D000024529376DF19247A6973EC4A247E382A1
:1014E000F4F60245E53D75FD8347C40232478504A5
:1014F0008A07BA979C4383C5F4FF8843EFF0BF95F2
:10150000F1BF11E57D5582807D556FE01FBAEFE296
:101510003FB9AA842E84453565F983C7C402139761
:10152000270093878183BA979C438843EFF03F93CA
:1015300008A00145D9BFEFE2BFB6EFF08FBDEFE0E5
:10154000FFFFEFF06F80F5BFEFE29FB5EFF02FC226
:101550006FE0BFB5AA858146014601454DA85111EE
:10156000970700009387872C22C2170400001304FA
:10157000E42B1D8C26C006C40984BE8419E41244E1
:10158000A240824431016FF0AFCB7D149317240049
:10159000A6979C438297DDB7511122C2970700009E
:1015A00093874728170400001304C4271D8C26C006
:1015B00006C40984814463968402EFF08FC89707BC
:1015C00000009387272617040000130424261D8C8F
:1015D0000984814463928402A2401244824431010E
:1015E0008280139724003E9718438504029797073B
:1015F000000093872723C1B7139724003E97184311
:1016000085040297970700009387C721E1B7938766
:10161000C1839C43AA8399EF1387818823AEE1821B
:1016200017F5FFFF1305059EBA8709C51C4123A8BE
:10163000F190BA87D8437D437D556346E304638DBB
:10164000030203A3870863000304931227009A92FE
:1016500023A0C2000325031005463316E600518D72
:101660002320A31023A0D20889466397D3008326A2
:101670004310558E2322C310930617000A07D4C3C4
:10168000BA978CC70145828097F7FFFF93878797AA
:1016900091C7170500001305C5EC6DBD82800000E1
:1016A000230000000038014018000000FFFFFFFF8A
:1016B000000000000000000012000000003801409F
:1016C0000B000000FFFFFFFF000000000000000013
:1016D000260000000038014018000000FFFFFFFF57
:1016E000000000000000000025000000003801405C
:1016F0000B000000FFFFFFFF0000000000000000E3
:101700000100000000000000060000000C000000C6
:101710000D0000000F000000100000000E0000008F
:101720000100000002000000100000001100000095
:10173000120000001300000014000000150000005B
:10174000160000001700000020000000210000002B
:1017500022000000230000002400000025000000FB
:10176000260000002700000000000000000000002C
:101770003207000066070000280700002C07000061
:101780002E0700004A0700002E070000A6080000F0
:10179000D6080000E20F00000E100000121000003A
:1017A0001C1000002410000028100000321000005F
:1017B0003A100000421000004610000052100000D5
:1017C0005E1000006A1000006E1000007A10000029
:1017D0008610000092100000961000009C1000007F
:1017E000A0100000A8100000AC100000B410000011
:1017F000B8100000C0100000C4100000D01000009D
:1018000001000000020000000400000008000000C9
:1018100010000000200000004000000080000000D8
:081820008816000064080000B6
:101828001400000000000000140000000000000088
:101838001400000000000000140000000000000078
:101848001400000000000000140000000000000068
:101858001400000000000000140000000000000058
:101868000204060804080C10081018201020304044
:1018780020406080010203040506070801020304F2
:101888000506070800000000000000000000000036
:10189800000000000000000000000000FFFFFFFF44
:1018A800FFFFFFFFFFFFFFFFFFFFFFFF000000003C
:1018B800010000000000000005050000006CDC02CB
:00000001FF
