:020000040000FA
:1000000001288316013085000030860083128501A7
:100010008601BF01C001C101C201892005181D2848
:10002000CD2005181D28BF0A03303F020319BF0168
:1000300089206E20051C1A28CD203F08820722281F
:1000400026283F2889206E20C4200E280C308400EA
:10005000BC013C08BD000310BD0DBD0DBD0DBD0DA7
:1000600040083D079220840A840A840ABC0A0A30A8
:100070003C02031D29286E20C00ACD200E286020D6
:100080004108BC000C3084003C08BC073C078407D6
:1000900000308000840A96308000840A003080009E
:1000A0006E20421C54285A28C10A09304102031903
:1000B00042145E28C103410803194210CA200E28C9
:1000C0000C3084001E30BD000310800C0008053C7D
:1000D00003188001840ABD0B642808000C308400DA
:1000E0001E30BC000008C3000830C400C30D061455
:1000F000031C061000000610C40B7F2880287628F9
:10010000840ABC0B72283230BD000000BD0B85286C
:1001100008000C3084001E30BD008001840ABD0B35
:100120008D280800BE0055303E020318A2283E0864
:100130003E078000840A3E098000840A800184030F
:1001400084030800AA303E020318B5283E08BD000B
:100150005530BD023D098000840A8001840A3D08B3
:100160003D0780008403840308003E08BD00AA30D8
:10017000BD028001840A3D083D078000840A3D09D4
:1001800080008403840308000A30BE00CD20BE0B2B
:10019000C62808000530BE00C628C830BD00A530FE
:0C01A000BC00BC0BD128BD0BCF28080010
:02400E00F23F7F
:00000001FF
