:020000040000FA
:1000000025006700FE0C06006600D70C02006900A0
:10001000090274092A008A024306570A030CEA06F9
:10002000060C2C007F0C6A012A024306300A0102EA
:10003000800E2D00010CA6010A026C092B000000A5
:10004000EB021F0A01022E008D012F00EF071A0A92
:100050000E02800E2D00ED061A0AEC021A0A420A60
:100060000102800E2D00660001022E008D012F007E
:10007000EF07340A0E02800E2D00ED06340AEC0262
:10008000340A420A6600A902010C2C000102800E0B
:100090002D0001022E008D012F00EF07490A0E02EC
:1000A000800E2D00ED06490AEC02490A080A0F0CE1
:1000B0002C000102800E2D00660001022E008D0131
:1000C0002F00EF075D0A0E02800E2D00ED065D0A7F
:1000D000EC025D0A6900080AE2010008EB08D10899
:1000E000BA08AF089C088B082E000E02E2018108B6
:1000F00082088308840883088208810880088308AE
:100100008408850886088508840883088008810893
:10011000800881088008810880088108800801081B
:1001200001080208020803080308040804088308F9
:080130008208810880085508CF
:021FFE00EA0FE8
:00000001FF
