:100000006F30C007000000001A2B00001E2B0000FC
:1000100000000000000000000000000000000000E0
:1000200000000000000000000000000000000000D0
:1000300062280000000000004C30000000000000BA
:100040004E300000503000005230000054300000AC
:1000500004290000583000005A3000005C300000D5
:100060005E3000006030000062300000643000004C
:1000700066300000683000006A3000006C3000001C
:100080006E30000070300000723000008E240000DE
:10009000763000003C2500004C25000000000000E8
:1000A000511126C022C206C4828282441244A24058
:1000B000310182802A86014593F6150091C232955E
:1000C00085810606F5F9828000000000634E050276
:1000D00063C305042E86AA857D5515C285466378BF
:1000E000B6006356C00006068606E36CB6FE014500
:1000F00063E4C500918D558D85820582F5FA828075
:100100008682C93F2E8582823305A04063D70500D1
:10011000B305B040C1B7B305B0408682653F330533
:10012000A0408282868263C70500634905005D376F
:100130002E858282B305B040E35B05FE3305A04007
:10014000513F3305B0408282000071112AC08247BE
:100150001387F7FF3AC099C30100D5BF1101828010
:10016000EFF21FF437140140930700041CC8054543
:10017000E93F930700081CC80545C13FB707400089
:100180001CC80545D937B70780001CC80545753F11
:1001900029BFEFF2FFF037140140B70740001CC839
:1001A00005456537930700081CC80545793F930747
:1001B00000041CC8DDBDEFF2BFEE6111AA87214724
:1001C0003714014093968701E18663D506049306B0
:1001D000000414C805453EC23AC093040008B53770
:1001E000054504C89D3792470247B7068000860739
:1001F00014C87D1793F7F70F71F7930700041CC815
:100200000545A137054504C88937B706800014C8DD
:10021000210161BDB70640006DBFEFF27FE86111BB
:100220002AC013070004B717014098CB0545313F9A
:1002300021470144B71401403AC29306000894C80C
:1002400005452137944406041374F40F93F606040D
:10025000124799C2136414003AC2B706800094C8CA
:100260000545E53512477D1761FB8247370740009A
:1002700099E31307000498C80545C13DB714014030
:10028000930700089CC80545C935B70780009CC87E
:100290000545653D930700049CC82285210131B5C1
:1002A000EFF21FE03714014089471CC80545713D36
:1002B00091471CC80545513DB70702001CC80545BC
:1002C0006935B70704001CC805454135F9BBEFF295
:1002D0003FDD37140140B70702001CC80545B5359E
:1002E00091471CC80545953589471CC87DBBEFF271
:1002F0003FDB6111AA87214737140140939687019C
:10030000E18663D70604894614C805453EC23AC053
:100310009144253D054504C80D3D92470247B70667
:100320000400860714C87D1793F7F70F61FB894710
:100330001CC80545193D054504C8013D0844B706DC
:10034000040014C805811345150005892101B1BBBE
:10035000B706020055BFEFF2BFD461112AC00947AA
:10036000B717014098CB0545CD3321470144B71459
:1003700001403AC2914694C80545C13B94440604E5
:100380001374F40F898A124799C2136414003AC295
:10039000B706040094C805454D3B12477D1771FB15
:1003A00082473707020091E3094798C80545713B2A
:1003B000B714014091479CC80545413BB70704006D
:1003C0009CC80545593389479CC822852101F1B94C
:1003D000EFF21FCD71112A842EC00604D13513759A
:1003E000E40F313782452E8519375D3D13651400C2
:1003F0001375F50FED3D0145B93F2AC0C93D0245D2
:10040000110165B1EFF2DFC9511132C02EC22AC409
:10041000413D224506051375E50FD13D92452E85D8
:10042000F93502463285E1355D353101BDB9EFF26E
:100430003FC771112A842D331305000AAD3B1355B4
:100440008400953B1375F40FBD33193B1305100A57
:100450009D330145D9332AC02D3B02451101B1B16D
:10046000EFF21FC471112A842EC0DD391305000A72
:1004700099331355840081331375F40F2D3B824556
:100480002E85153B39331545EF302013110131B955
:10049000EFF21FC12A84E93113058007293B01458A
:1004A000193B2285093BF53109B1EFF27FBF1305F6
:1004B000E00AF93F13050002E13F0945D13F13056A
:1004C000D008F9375145E9371305F00AD137F1BEA5
:1004D000EFF21FBD938505FB2A8413F5F50F4D3F01
:1004E0001375F4007537135544004105553775BE33
:1004F00093178501E18763C707029307F00363E35E
:10050000B70203C7718493D73540639DE700938793
:1005100081BB3E9593F775008545B395F5001C2189
:10052000DD8D0CA1828083C271849397320093F792
:10053000F70F13877700634CB7063387B60063D88D
:10054000E7065111938781BB22C426C22A873EC089
:10055000B307A74093F7F70F63F7C7048247014338
:10056000B383E7009377F30F63FDD7029304F0079B
:1005700063C7E402B38465001304F003636194026B
:100580008D84639E5400AE9783C403009D8B054405
:10059000B317F40093C7F7FFE58F2380F30005033B
:1005A000D1B7050775B72244924431018280828019
:1005B00083C271849397320093F7F70F1387770004
:1005C000634AB7063387B60063D6E70651119387AF
:1005D00081BB22C426C22A873EC0B307A74093F737
:1005E000F70F63F5C70482470143B383E7009377AE
:1005F000F30F63FBD7029304F00763C5E402B384EF
:1006000065001304F003636F94008D84639C5400B1
:1006100083C40300AE979D8B0544B317F400A58FE8
:100620002380F3000503E1B7050745BF2244924448
:10063000310182808280EFF2BFA603C7718431113D
:1006400032C00E071377F70F130677006341B60821
:100650003386B600AE84635CC70682472A832A8449
:10066000B382A7009387F6FF93F2F20F3EC2631B9B
:1006700054021376F60F1304F3FF32C46389C404E3
:100680001A85A6851AC2AD358247A68533858700AF
:100690001375F50FB13D9387140093F4F70F1243D0
:1006A0002246E1BF2285A68532C81AC616C48935FE
:1006B00092472285B385F40093F5F50F153D130796
:1006C00014001374F70FA242324342464DB7510152
:1006D0006FF0BF9DEFF2DF9C930706FE93F7F70FD5
:1006E0001307C0034111AA84AE866372F702930711
:1006F000D0056304F608130726FA1377F70F93075C
:10070000000263EFE7069307F6FD93F7F70F03C7C1
:1007100071840E071377F70F13067700634FD60423
:1007200013867600634BE60413942700A297138781
:10073000018A3303F70015073304F700034603006B
:1007400081473357F640058B19CFB385F60093F5F3
:10075000F50F268532C61AC43EC236C0513B32461A
:1007600022439247824685071D47E39CE7FC8504A8
:10077000050393F4F40FE31383FC41016FF0FF9240
:100780001307F6051377F70F9305E003E3E7E5FE9C
:100790009307E6FB9DBFEFF2BF9071112A84AE87ED
:1007A000B2840386040009CEBE8522851376F60F37
:1007B0003EC01904053785041374F40F8247D5B77A
:1007C00011016FF09F8EEFF2BF8D03A78182938797
:1007D0008182DC236111935646403AC05C8213F754
:1007E000F60F25433D8A930777036344D3009307AD
:1007F00007035C812547930706036374C7009307CB
:1008000076030A86DC81413F21016FF01F8AEFF2F7
:100810003F8941118147635A06003306C040930760
:10082000D00242065C80418685473727E8031307DC
:1008300007713AC437070A00420613074706418288
:100840003AC634009303010101439300000383D2AD
:10085000060013070003636A560033065640050777
:100860004206620741826187FDB76314170063097E
:100870000300130301013E932308E3FE85070543AC
:100880008906E39676FC1808BA97130606032388B0
:10089000C7FE0A86A38807FEFD3D41016FF0FF8079
:1008A000EFF21F80AA84751585461D461375F50F56
:1008B0002E84FD399305D4FF26858D46054693F594
:1008C000F50FFD31930514008D46054693F5F50FA0
:1008D0002685F9396FF06FFDEFF28FFC1305F07F7D
:1008E000B936930760056300F50AB7440000014478
:1008F000938484A685673307940013850780229527
:100900000C2342054181A93E050441478567E31355
:10091000E4FE9305C00313850781B74400008936C0
:1009200001449384C4A7B3079400056522958C23E2
:100930004205418135360504C147E316F4FE0565DD
:10094000930500054105B7440000193E0144938416
:1009500004A98967330794001385078022950C2327
:1009600042054181F53C050441478967E313E4FEF4
:100970009305800613850781E5349305600513050B
:10098000F07FEFF0FFAD6FF04FF2EFF26FF1FD5738
:10099000370400202385F1802A86511181471304F2
:1009A0000400130500023D47B305F40088A1850744
:1009B000E39CE7FEA3070400814713871700931405
:1009C000B700C204C180138504014205418132C4CD
:1009D0003EC23AC0EFF0BFA5224602479247938637
:1009E000A1806318C5029CA281473385F4004205AB
:1009F00041813EC0EFF0BFA3131785016187824795
:100A00000DEFA297238007002307040031016FF048
:100A1000CFE9BA877D47E392E7FA3747000081477D
:100A2000130787A5B946B385E7008C213306F40088
:100A300085070CA2E399D7FEC1BF01151375F50F09
:100A40009306E00563F4A60013070002B306F40062
:100A500098A285073947E39AE7F87DB79377F50FB2
:100A6000138507FD1375F50F25476362A70212056D
:100A70001375F50F93F5F50F938705FD93F7F70FB2
:100A800025476369F7023E951375F50F828013873A
:100A9000F7FB1377F70F9546138597FCE3F9E6FC10
:100AA0001387F7F91377F70F0145E3E5E6FC1385A4
:100AB00097FA75BF9387F5FB93F7F70F15476366B2
:100AC000F700938595FC2E95C1B79387F5F993F7B9
:100AD000F70FE36DF7FA938595FAF5B7EFF24FDC70
:100AE000EF20F02C2A84B74701401387078083D773
:100AF000078093F7070291EBEF20702B018D93078E
:100B00002003E3F2A7FE014521A04A236205618587
:100B10006FF0AFD9B74701401387078083D70780AD
:100B200093F70702638D0744EFF28FD75E23130715
:100B300020051301C1FCE207E18793F7F7FD639CF1
:100B4000E710B74500009385C59E138581C3EF105C
:100B5000B0278144938714001397B7003EC49317BE
:100B60000701C18313850701420541813EC2EFF0B1
:100B70001F8C1307F5FF2AC01377F70F9306D00FCA
:100B800063EEE60AB74700009385C79F138581C3CC
:100B9000EF1070202547636A9700B74500009385E2
:100BA00045A0138581C3EF10101F2946A685138524
:100BB00081C3EF10D02EB7450000938585A0138523
:100BC00081C3EF10501D0247BD4763EAE700B745F8
:100BD0000000938545A0138581C3EF10D01B82458B
:100BE0004146138581C3EF10B02FB74500009385B0
:100BF00005A1138581C3EF10101A814492473385F4
:100C0000970042054181EFF09F82930705FE93F71D
:100C1000F70F1307E005930500026365F7009315CE
:100C20008501E185138581C3EF10B0178504C147A5
:100C3000E396F4FC138581C3EF10D017A2447D47DF
:100C4000E39AE4F0B7450000938585A1138581C33D
:100C5000EF109017E5A813077005639DE70EBD3DE3
:100C60009307C0026314F50E2AC08D3D2A84BD355A
:100C7000AA84AD350247AA87631AE50C130504FD63
:100C8000131425002A940604938404FD26947947BE
:100C9000636E870A3EC29935AA8489352AC03D3DD4
:100CA000924782456314F50A8147130600024147C3
:100CB0007408BE9690A28507E39CE7FE01473AC2FE
:100CC0002EC0293D9376F50FB5478245124763E95B
:100CD000D700896793871740B3D7D700858B91EBEF
:100CE000C147E30EF7FC5C18BA972384A7FE0507FB
:100CF000F9B793071400AE07C207C18326853EC02B
:100D0000B13B8247AA858144C107C207C1833E85A2
:100D1000EFF00FF502477C08A697330597008C2368
:100D200042054181EFF0CFF38504C147E394F4FE1F
:100D3000B7450000938545A2138581C3EF10B00528
:100D40002946A285138581C3EF1030161301410394
:100D50006FF0AFB513073005639CE71641331307F7
:100D6000C002E315E5FE2AC0953B2A84853BAA8490
:100D7000B53382472A87E31BF5FC130504FD93175F
:100D80002500AA978607938404FDA6973EC2924643
:100D9000F947E3EDD7FA3AC091332A848133AA8424
:100DA000353B0247E314E5FA130504FD131425004F
:100DB0002A940604938404FD2694BD47E3E887F84B
:100DC000B7272020938707023ECA3ECC01473AC08E
:100DD00031339376F50FB547AA84024763FFD704F2
:100DE0009307C0026313F506D5392AC4C5392AC052
:100DF000F5318245A247E31B95F43E858531931773
:100E000015003EC0FD172AC43EC681448247638751
:100E1000970459476384E404D1312AC8C131424759
:100E2000AA853A8525397C0833879700B24708A3FD
:100E300063D3F40065318504D1BF89679387174078
:100E4000B3D7D700858BE39307F0A147E301F7F809
:100E50005C18BA97238097FE050795BF9247814497
:100E60009A0793875704A2979607C207C1833EC289
:100E70005C083387970092470C233385970042051F
:100E80004181EFF0EFDD85042147E393E4FE9247D3
:100E9000A24581441385870042054181EFF04FDC74
:100EA000824763829702D947638FF40012477C0818
:100EB000A6971305970026958C2342054181EFF0F4
:100EC0002FDA8504F1BFB74500009385C5A2ADB503
:100ED00013076004E39CE7E611319307C002E317B0
:100EE000F5E6ED3E930710036307F500B7450000F4
:100EF000938545A3A1BBDD3693072003E318F5FED8
:100F0000F13E93073003E313F5FEC93E9307400318
:100F1000E31EF5FCB7450000938505A4138581C346
:100F2000EF10806A0567896713070780C1073AC019
:100F30003E859305F00F938407FF3EC2EFF04FD23A
:100F40009247C204C18001473385E40042059305FE
:100F5000F00F41813EC43AC2EFF08FD01247C14634
:100F6000A2470507E312D7FE8246B697C207C183A0
:100F7000E390E7FCB74500009385C5A4C1B9828022
:100F8000B727014023AAA74203A78740B70640001E
:100F9000558F23A4E740B726014003A70640938757
:100FA0000640098B7DDB03A7C64423AAA64203A7FC
:100FB0008640B7064000558F98C7372701408327E2
:100FC0000740898BEDDF0325C744420541818280BC
:100FD000EFF20F8DF16561110946938505201385A8
:100FE00081C3EF108016B74701401307101A2394EE
:100FF000E78009673107B74500002396E7809385AE
:1010000045BD138581C3EF10205CB7450000938573
:1010100085BE138581C3EF10205BB7450000938523
:10102000C5BF138581C3EF10205AB74500009385D3
:1010300085C0138581C3EF102059371702401C4F1C
:10104000B7F6F000BD0693E757231CCFB717014052
:101050009843758F98C39843B706085593860655ED
:10106000558F98C3414798CBB727014003A78740C6
:10107000B7061E008506558F23A4E740EFF0EFC2A8
:101080000545FD3D2392A1800145DD3D2393A180CF
:10109000EFF00F8D1305000AEFF0EF910145EFF02F
:1010A0008F910145EFF02F911305A00AEFF0AF905B
:1010B000EFF02F8E1545EF2040500145EFF02FB790
:1010C0009307A00A6318F5080547A384E184938475
:1010D000018A130750101304B7FF42044180A6860B
:1010E00022853AC236C0EFF08FB48246050412471B
:1010F000420488A2418085069387018AE312E4FEB8
:1011000015041317040141839306002E9504E3147C
:10111000D7FC938457001304B02D9387B4FF228724
:101120003A853EC23AC0EFF08FB0024792470507BA
:10113000A38DA71C420785074183E39397FE1504FF
:10114000420493845700418093076041E317F4FC05
:10115000EFF08FF885450945EF2040368945154564
:10116000EF20C03585451D45EF20403585451305E9
:10117000300CEF20A03421016FE03FF3EFE25FF28B
:10118000B71701409847B707002083C6B710218BD7
:101190001301C1FB3336E0009387B71099C2933631
:1011A000170090A303C76185938761853EC8938428
:1011B0002183631D070C638B060C9C2093C71700CB
:1011C0009CA0638D070CB7450000938585AC138503
:1011D00081C3EF10603FB727014003A78740154543
:1011E000799B23A4E740EF20403D938781BBA383F5
:1011F00001843EC01384718481471307000882462E
:10120000BE96238006008507E39BE7FE9306000455
:101210001306000881450145EFF0EFC13746000095
:101220001306C6ADE1451305B002EFF0CFD6374641
:101230000000130646AE9305800213055002EFF03E
:101240008FD50C200145EFF0AFA8EFE07FF113053B
:101250008007EFE05FF613050004EFE0DFF581475C
:1012600002473EC23E970823EFE0FFF49247130780
:1012700000088507E396E7FEEFE0BFF11C201D475D
:10128000850793F7F70F1CA0E378F7F69C209DCB1A
:10129000EFF05F88130141046FE03FE1B7270140A1
:1012A00003A7874015451367170023A4E740EF20E5
:1012B000C030B7450000938505AF138581C3EF109B
:1012C000A030E9B7EFF01F850545EFF07FCB2A840A
:1012D0000145EFF0FFCAB71701409447B707002058
:1012E00003C6A710C18A3337D00032C09387A71036
:1012F00001C693B6160036C098A303D741803307C2
:10130000E44003D4618042074187018D4205930781
:101310000005418563DCE71A935777408507C207CC
:10132000C187130700056350A71C135475400504BB
:101330004204418403C78180BA97138781803ACAE7
:10134000014763CA07001307F0076354F7009307C8
:10135000F00713F7F70FD24798A383C7918013873D
:1013600091803AC4A297014763CA07001307F003AC
:101370006354F7009307F00313F7F70FA24798A3FE
:1013800003C78185938781853EC215C3824785C384
:10139000A14763EEE7009307601AB3D7E70093C74E
:1013A000F7FF858B3EC081E7924723800700924775
:1013B00005479C23F51793F7F70F6367F70463510D
:1013C000041493878184982305071305400698A386
:1013D000EF20A01E82478DCB92470D479C23639C34
:1013E000E712938781848C23238EB18403C76184A1
:1013F000631F071003C5B185EFE09FFDA38AA18499
:101400009547124702C01CA3924798239947631639
:10141000F70263548012A24798239307100363FDD9
:10142000E726938701839823B14663E7E6260507FD
:101430001305001998A3EF20401892479823894775
:101440006318F71483C741849384418463558010E3
:101450002247142313079003637CD7001307F00E71
:101460006368F700C107130500199CA0EF20E01482
:10147000370400208347941098209386B185130485
:1014800094106305F70E0147902088223ACCB305EB
:10149000E60093F5F50F32C6EFE09FF362479387BE
:1014A0004188B385E70088A10507C1459386B185CA
:1014B0003246E31BB7FC9822B707002010A0238414
:1014C000E710EF20C00E23ACA182D9A0930600FB49
:1014D0008147E358D7E49357F74193F7F707BA9753
:1014E0009D87FD172DBD130700FB0144E354E5E480
:1014F0001354F5411374F4072A941D847D140DBD13
:10150000E30A04EC9387818498237D177DBD2380B3
:1015100007009147FDB5114702C0E397E7EE03C608
:101520008184A38AC18483C5C18503C5B185EFE0E9
:101530007FED124795471CA3C1BD630F0414A2475A
:101540009823E54763EAE7149387018398236305AB
:1015500007147D17F1BDE30D04F02247142359470A
:10156000E368D7F0E38607F0C117F5BDB7070020A1
:1015700003C787109C22E318F7F0EF20400383A7EE
:1015800081839386B1851D8D9307401FE3EDA7EE00
:1015900092479823A1476311F7101384A1801C2060
:1015A0009304F00F638A970EEF20600083A74183B6
:1015B000138741833ACE1D8D9307803E63FEA70CAF
:1015C000002005042E0442044180130584284205AE
:1015D0004181EFE0DFE593571540A382F184138743
:1015E0001183630A952063880720914663C5F6201E
:1015F00013049428420441808A078546A29714A3C5
:10160000C2071387C183C183938441893AC63ECC04
:101610002285EFE0DFE12AD2130514004205418163
:10162000EFE0FFE02AD01305240042054181EFE0FE
:101630001FE088A01305340042054181EFE03FDF41
:101640009256025688B01387B185238104008547DE
:10165000B6850823631CF618EFE09FD792561387D0
:10166000B1852AD008239385160093F5F50FEFE096
:101670003FD682573247A207C98F1EA3B247110433
:10168000420489073EC6E24741808D04E312F4F824
:10169000EF10F071F24788C3A383018493877184AC
:1016A0003ECE138781BB3AD281471307000892567A
:1016B000BE96238006008507E39BE7FE93060004A1
:1016C0001306000881450145EFE0FFF6014413755C
:1016D000F40FAD45EFE0DFE1050493070008E318E0
:1016E000F4FEC24785448023631C942637460000DD
:1016F000130646B08D453145EFF0EF8937460000BF
:10170000130686B08D4513057003EFF0CF8837467A
:1017100000001306C6B08D4513052006EFF0AF8715
:10172000A2479823A94763E1E702D2471307900233
:101730009C23636EF70CA546554689452D45EFE081
:101740003FE78247C5EF02C083C7918563850720C5
:1017500083C7418593844185639707183746000006
:10176000130606B19305300213055002EFF0AF8265
:1017700083C7B1859DCBC2479C2385CBB546130655
:10178000C007B5450945EFE01FEB9387B18590236E
:10179000C1451945EFF02F833706002013060600D8
:1017A000C14513054002EFE01FFF924785469C2389
:1017B0006391D746E14613060005D1456145EFE048
:1017C0009FD6E14613060005D1456145EFE0BFE62F
:1017D00083C771856389074237460000130686B7C1
:1017E000F14513058002EFE01FFB09A3EFE05FBEA8
:1017F000B2478AA361B52300070059BDC2472380C1
:101800000700924723800700A38C01842DBF130794
:101810004005636FF706A5465546894513056003E5
:10182000EFE01FD98247E38007F2238A0184938483
:101830004185EFE0FFA6131514001375E50FEFE0E7
:101840001FAB01CD98209D4763E9E7009307170080
:101850009CA09387C184BA9780A3EFE05FA705049B
:101860001374F40F93070008E315F4FC0547A38CE9
:10187000E1849820238D01849387B18519C703C51E
:10188000C18488A3EFF06F907DBD2380070065BD04
:10189000E207E187E3CA07EAA546554689451305ED
:1018A0001006EFE0FFD08247E38F07E883C79185FA
:1018B000E38B07E883C64185E38706E803C7A18574
:1018C0009387A18505071377F70F637BD70098A34C
:1018D00098239387C184BA978823A38DA1845DB789
:1018E00023800700F5B701449C20E353F4E8937785
:1018F0003400139547001D8D93572440939517008E
:10190000AE971386C18406058A0722969376F50F53
:1019100093F7F70F10229385C7011385560093F5AF
:10192000C50F1375F50F3ECC36C6EFE0DFE903C6F1
:10193000A185B246E247631E860013854600938563
:10194000B701A546694693F5F50F1375E50FEFE06E
:101950003FC6050451BF374600001306C6B119B58E
:101960006318041037460000130686B28D453145D2
:10197000EFE07FE237460000130686B08D45130581
:101980007003EFE05FE1374600001306C6B28D45F5
:1019900013052006EFE03FE0A2479823A94763E143
:1019A000E702D247130790029C23636DF706A54612
:1019B000554689452D45EFE0BFBF8247A9EF02C0DC
:1019C000A546554689452D45EFE09FBE37460000A8
:1019D000130606B3D94513052002EFE0DFDB3746D7
:1019E0000000130606BF9305000213058002EFE016
:1019F0009FDA374600001306C6B39305D00265454B
:101A0000EFE07FD9374600001306C6B49305700394
:101A100013058002A1BBC2472380070092472380A1
:101A2000070071BF130740056363F702A5465546DB
:101A3000894513056003EFE0BFB78247C9D3C247AA
:101A400084A3924723800700A38C01848DBFE20703
:101A5000E187E3C707F6A5465546894513051006F5
:101A6000EFE01FB58247A1DF424789471CA37DB73E
:101A70008947E31FF4CE37460000130646B08D4574
:101A80000545EFE05FD137460000130686B58D456A
:101A90005945EFE05FD0374600001306C6B58D45C7
:101AA0001305B002EFE03FCF37460000130606B63D
:101AB0008D4513050004EFE01FCE374600001306E6
:101AC00046B68D4513055005EFE0FFCC37460000C4
:101AD000130686B68D451305A006EFE0DFCBA247BF
:101AE0009823A94763E0E702D24751479C23636FDD
:101AF000F702A546514689450145EFE07FAB824795
:101B000099EF02C092479C23E39407C63746000032
:101B10001306C6B6930580021305200281B9C24799
:101B200023800700924723800700E1BF130790023C
:101B30001384B1856360F702A54651468945554532
:101B4000EFE01FA78247D5DF1C20C5DF994712476A
:101B50001CA345BF1307E0036363F702A546514684
:101B600089451305A002EFE0BFA48247D9DB1C2002
:101B7000C9DB1247A1471CA323AA018259B7130747
:101B800030056368F702A546514689451305F00301
:101B9000EFE01FA28247B5D71C20A5D7124789477F
:101BA0001CA3238201847D57B7070020A384E7107C
:101BB00089BF130780066363F702A546514689452E
:101BC00013054005EFE0DF9E824785DF1C2095DB93
:101BD00023830184238401848D4795BFE207E18735
:101BE000E3C207F2A5465546894513059006EFE086
:101BF0003F9C8247E38707F01C20E38407F00547FA
:101C00002383E184C1BF37460000130646B8F1457F
:101C1000D5AA0947639AE7129306C0021306C007C4
:101C2000C9450945EFE03F909306C0021306C0077F
:101C3000C9450945EFE03FA037460000130606B945
:101C4000D1451145EFE03FB503C44184D1451305AB
:101C500060042286EFE03FB713874188A286F147F0
:101C60003686BE8511453AD036CC3EC6EFE0BFB5CC
:101C70000257E246B2473A83930400020346030048
:101C8000BE8526853AD436D01ACC3EC6EFE0BFB327
:101C90006243D90493F4F40F130680070503B24797
:101CA00082562257E39CC4FCA507910693F7F70FD1
:101CB0001306000493F6F60F1107E393C7FA11E831
:101CC000374600001306C6B99305200313056007C5
:101CD00019BE37460000130606BAD1451305600742
:101CE000EFE07FAB9307F00EE3FC87FCA2470144D3
:101CF0008C23D2478823EFE0BFBAF24701458C23FB
:101D0000EFE00FFDEFE0CFC513058007EFE0AFCAAE
:101D100013050004EFE02FCA9257A2978823050409
:101D2000EFE06FC993070008E318F4FEEFE06FC619
:101D3000F24772479C23850793F7F70F1CA31D47B3
:101D4000E371F7966FF00FD51387D7FF1377F70F6F
:101D500063E1E606F94613060006D1454145EFE08A
:101D60008FFCF94613060006D1454145EFE0BF8CD4
:101D7000924798238D476309F70237460000130600
:101D8000C6AAE5455545EFE01FA103C68184E54598
:101D900013057004EFE03FA337460000130646BA70
:101DA000930560027D4581B437460000130646AABC
:101DB000C9BF15476390E706F94613060006D145EB
:101DC0004145EFE04FF6F94613060006D14541457F
:101DD000EFE07F8683C761848DCB37460000130612
:101DE000C6ABE5455545EFE01F9B03C65185E5456C
:101DF0001305C004EFE03F9D37460000130606BB05
:101E00009305600213052002F9BA37460000130655
:101E100046ABC1BF1947639BE720930680021306B8
:101E2000C006C9452945EFE00FF09306800213066E
:101E3000C006C9452945EFE01F8002C683C701835C
:101E40001886A5463ECCB384E70093F4F40FB3B7ED
:101E5000960093870703230AF102230B010293875D
:101E6000640263E496009387040393151700BA9500
:101E7000E2078A05998DE187A30AF10293F7F50F2E
:101E8000138477011374F40F5018A28539453ED09E
:101E9000EFE07F9037460000130686ABA2857145C0
:101EA000EFE07F8F83C7A1801387A1802300010407
:101EB0009306F00F3AD4638AD7089A07938757049A
:101EC000A6979607C207C18381463385D70042058E
:101ED000418136D83ED6EFE08FD5130705FE137744
:101EE000F70F1306E005B257C2566374E6001305F8
:101EF000D0023818369708A385062147E397E6FCF9
:101F00003018A28513054002EFE0FF88A247B246D1
:101F10009823B2478607B6978A07958F93866701FD
:101F2000635CD702B24785073EC632478D47E31749
:101F3000F7F0E247F1EF374600001306C6B9930504
:101F400000031305E0066FF01F8AB7372D2D938726
:101F5000D7D23EDC3EDE6DB7F907E3C5E7FCD247DA
:101F60001307C0059C23CD1793F7F70FE36CF7FA1F
:101F70008257AD461306E0059385570193F5F50F9B
:101F80003145EFE0EFE28247D1DFA2571307F00FB0
:101F90009C236397E70012479D4702C01CA359B7D3
:101FA00013946700130454042694160442044180D9
:101FB0001305840042054181EFE06FC79307F5FFE9
:101FC00093F7F70F1307D00FAA84E366F7FC2504F5
:101FD00042044180814722853ED0EFE04FC52AC0B0
:101FE0001305140042054181EFE06FC49387B1856A
:101FF0002A8682458823EFE0EFC082578507E3DC1D
:1020000097F8090442042D474180E396E7FC61B745
:1020100037460000130606BAD1451305E006EFE087
:102020008FF76247B147E3E3E7CC31B71D476395CC
:10203000E702E14613060005D1456145EFE0AFCE6A
:1020400013060005E146D1456145EFE0CFDE374696
:1020500000001306C6BB65BE2147E399E7C8930697
:10206000C0021306C007C9450945EFE0CFCB930670
:10207000C0021306C007C9450945EFE0CFDB03C71F
:10208000A1809307F00FE303F7C683C71183B1CF95
:10209000814403C75184E3DBE4C4139424002694F1
:1020A00006049396140059043386960013874189D9
:1020B0001374F40F3A96A285314536C6EFE0AFEDC2
:1020C00037460000130686ABA2857945EFE0AFECFA
:1020D000B2461387C183369703160700A2851305FE
:1020E000C002EFE0CFF285046DB73746000013065B
:1020F00086BC930540027DB10145828082807D557A
:102100008280EFD2FFF91C417111CC81DC43930531
:1021100031000546829711016FD03FF9EFD25FF889
:102120007111930531004105EF10A03409E5888154
:1021300011016FD09FF77D55E5BFEFD27FF62E8559
:10214000B285EF1060226FD05FF613773600938769
:102150008181BA9703C307006CC12300C5041377BC
:10216000060393070003930600606307F700937666
:102170000602B336D000AA0609860D8A7D16894765
:10218000014763E7C70006069387C1813E961A227E
:10219000A1476306F300A547630BF30001A00146C6
:1021A000EFD21FF04105EF1000126FD01FF005664F
:1021B000C5BF13F7F50FC54763EDE7009167938738
:1021C00007D20A073E9793F705700C43CD8F5CD575
:1021D000828093F6050C1306000CFD57E399C6FEAA
:1021E0009306700CE3E5E6FE93F7F503116713071A
:1021F00007D08A07BA979C431167130707D28A074B
:10220000BA9793F505709C43D1B713F7F50FC547FF
:1022100063EDE7009167938707D20A073E9793F72C
:1022200005700C43CD8F1CD5828093F6050C1306E8
:10223000000CFD57E399C6FE9306700CE3E5E6FE3D
:1022400093F7F5031167130707D08A07BA979C43E2
:102250001167130707D28A07BA9793F505709C4355
:10226000D1B7EFD2FFE39307803E1CC591679387F8
:1022700007D71CC10CC9232205009305600C2A84D2
:10228000EFF03FF39305500C2285EFF01FF8585400
:102290001C546314F700FD575CD4FD571CD85CD860
:1022A0006FD0BFE0EFD2DFDFB745014093850580F7
:1022B000138581C3EFF0FFFA6FD03FDFEFD25FDE0F
:1022C0001C452A8481CB0D46AA85829723240400CD
:1022D0002326040022856FD05FDD1C4581CBEFD221
:1022E0003FDCAA850D4682976FD03FDC8280B737EE
:1022F0000140938707C06308F500B70700406316E5
:10230000F500054582800145828041657D1582800A
:10231000EFD21FD92A84084DEFF07FFDAA84130560
:102320008401EF00D0618A04138501862695232A53
:102330000400930444082320050013044403638726
:102340008400C1142685EFF05FF9D5BF6FD0FFD5AB
:10235000EFD21FD571112A84C1642E852EC0FD14C1
:10236000EFF0FFF882456313950001A01C4C91C368
:1023700001A093172500138501863E95930744011C
:102380001CC1930700085CD4930700041CD80CCC34
:102390001305840140C8232E0400232004022312C5
:1023A0000402EF00705613054403EFF03FF11305EC
:1023B0004404EFF0BFF013054405EFF03FF01305C0
:1023C0004406EFF0BFEF13054407EFF03FEF084C72
:1023D00023200400232204002324040023260400D5
:1023E00023280400232E040004D08545EF00B00507
:1023F000084C9305C401EF00300011016FD0FFCAF3
:10240000EFD21FCA232E050223260504232E05041E
:1024100023260506232E0506232C0500EFF05FF387
:10242000B7E700E0214723A2E7101307000223A229
:10243000E7101307000423A2E7106FD01FC7EFD2E5
:102440003FC6184519E3EF10401C5C4582976FD0DA
:10245000DFC511E101A0EFD2BFC42A840841854540
:10246000EF0010001DC11C40DE27858B99CF22850F
:10247000EF00504908415C5D89C713054503EFF043
:102480001FFC08408545EF00207F6FD01FC203A5C9
:10249000018601C51105EFF0DFFB7300203011E16B
:1024A00001A01C41DA27098B11EBDA27118B19E700
:1024B000DA27218B01E7DA27418B41C3EFD25FBED8
:1024C0002A8489453E85EF00A0791C4005C58945D1
:1024D0003E85EF00607A85442285EF00B0420841D6
:1024E00092049384440326951C4599C3EFF03FF56D
:1024F0006FD0BFBB3E859145EF0080761C4019C56B
:1025000091453E85EF0040778944F9B73E85A14566
:10251000EF0000751C4019C5A1453E85EF00C07550
:102520008D445DBFC1453E85EF00807355D50840A1
:10253000C1459144EF00407445B7828003A50186F0
:1025400001C51105EFF0BFF573002030711122C0F5
:1025500013840186484001C91105EFF09FEF484000
:102560001105EFF0DFF3024411017300203095C133
:10257000EFD21FB371112A842E852EC0EF10C03AFE
:102580001C4082452A86DC432285829711016FD048
:10259000DFB101458280EFD2BFB0EFF05FFD6FD0B9
:1025A000DFB0EFD2FFAF1C4193F5F50F9C4382974C
:1025B0006FD0BFAFEFD2DFAEB7450000938545D9EE
:1025C000EFF0FFFA6FD07FAEEFD29FADAA84EFF0AD
:1025D0001FFA2A842685EFF0FFFD22956FD0FFAC0D
:1025E000EFD21FAC7971230601020547AA86AE8798
:1025F00029446373C700328464103E85A28536C4C3
:102600003EC2EFD03FADAA852AC02285EFD09FAA57
:102610009247254602473385A7401375F50F93155A
:102620008501E185A2466343B602130505036205F1
:102630006185FD1488A063F98700A6853685EFF0D3
:102640001FF345616FD07FA6BA8745BF1305750399
:10265000F9BFEFD2FFA47111AE8409EA1C4193F5D2
:10266000F50F9C43829711016FD03FA42AC0A94661
:102670006312D60263D205029305D002EFF07FF217
:1026800002472A842946B30590403A85EFF05FF56A
:102690002295D1BF1376F60FEFF09FF4E9B7EFD292
:1026A0003FA0EFF01FFB6FD05FA0EFD27F9FAA8407
:1026B000EFF03FFA2A842685EFF0DFEF22956FD006
:1026C000DF9EEFD2FF9D01EA1C4193F5F50F9C437D
:1026D00082976FD09F9D1376F60FEFF07FF0D5BFF6
:1026E000EFD21F9CEFF0FFFD6FD03F9CEFD25F9BBE
:1026F0002A84EF00D06B48C41C402285DC4B8297B3
:10270000635A0500EF00B06A5C441D8D1C44E3650C
:10271000F5FE7D556FD07F99EFD29F986111AA8405
:1027200001442EC232C0630EC4002685EFF01FFCA8
:102730006349050092450246B387850088A30504D6
:10274000CDB7228521016FD05F96EFD27F955111D1
:1027500001449DC6B684AA8701443E8532C42EC278
:102760003EC0EFF0BFF8634D05009245630AB50027
:10277000224682473307860008A30504E39F84FCB2
:10278000228531016FD07F92EFD29F913D2A6FD089
:10279000DF91EFD2FF9085476301F50219C58947A4
:1027A0006303F50201456FD05F90114585453921DE
:1027B0003715014013050580FDB741458545FD2EC0
:1027C00037150140CDB7130500028545C52E3715D5
:1027D000014013050540C1BFEFD29F8C9166511196
:1027E000938506C12AC0EF009003EFF05FB0131786
:1027F000250093840186BA948C4013840186024696
:102800008DE59166938506C132853AC4EF003001AB
:102810002AC213054008EF00705C92452AC0EFF011
:102820003FBE9C408246224794C3B307E4009C43CA
:10283000804309C82285EFF0BFAD9305400822858B
:10284000EF00105C31016FD05F8603A5818683A500
:10285000C18682808280EFD2BF84EFF01FFF6FD0ED
:10286000DF849387818603A3070083A347001307B0
:1028700013003335670098C3B3067500D4C3EFF077
:102880007FFDB7F700E023A2070073002030EFD2EE
:102890003F8137F400E02322040023200400232496
:1028A000040003A501819305803EEFD0BF827D1512
:1028B00008C8BD471CC07D57B7E700E02386E74046
:1028C000056723A0E7106FD04FFEEFD26FFDEFF04A
:1028D0001FFC6FD08FFD814705476307E500850723
:1028E000058193F7F70FD5BF370700208E07130731
:1028F0004701BA97DC4391C7EFD28FFA82976FD026
:10290000CFFA8280611122C226C00544A1442285EB
:10291000A12001C922858520131504014181EFF012
:102920009FFBFD140604E5F4124482442101730068
:1029300020301387C1801C439386C1D13E956369C3
:10294000D500938681D363E5A60008C33E858280C7
:10295000FD57EDBF82808280B70701401387074093
:1029600083A70740584B698F09C77D8D3335A00079
:10297000828001458280B707014023AAA740828058
:102980009C45611122C226C013F7070113F3F7001B
:1029900001C7D8413363E30092211377F60F29C7AB
:1029A00083230500014713048002930480048546B5
:1029B000B395E600B376B6006392D5029312270072
:1029C000BD46B396560093C6F6FFB3F37600B31236
:1029D0005300B3E37200639787064CC90507A1460D
:1029E000E317D7FC232075001307F00F6378C704A3
:1029F00083234500A1461304800293048004054705
:102A0000B312D700337756006394E202139726007F
:102A10000117BD45B395E50093C5F5FFB3F3750008
:102A20003317E300B363770063928702232A5500CC
:102A300085064147E395E6FC232275001244824453
:102A400021018280E39C97F80CC949BFE39297FE6D
:102A500023285500F1BF3703014003274300931794
:102A6000350063D00702B707C0FFF517F98F3707A6
:102A70000007D98FD9CD370700F07D17798DC98F21
:102A800049A8635D0500B707E0FFED17F98F370729
:102A90000007D98FBDCD06050581D5B7B707300032
:102AA000931605013376F500C1826313F6023706EB
:102AB00000F97D16B377C70003274300798E2322E0
:102AC000C300A1C95581131745003395E60045BFE2
:102AD0009317B50063D407029357050113F6F70067
:102AE0008D47B397C70093C7F7FFF98F37070007E4
:102AF000D98F85C1135755011207C1BF55811205E2
:102B00003395A6009347F5FFF98F37070007D98F54
:102B1000BDF5370701405CC382807300203001A0FF
:102B2000EFD20FD8371702405C4391462A84B18B0D
:102B30006385D700A146638DD706B7376E019387AB
:102B400007601CC0B7160240DC42918313F7F70000
:102B5000B707002093878706BA978C23DC4218407A
:102B600093F5F50F93F707083355B70081E73A85DA
:102B7000EFD04FD648C008C448C4B7170240DC4362
:102B8000AD83FD8B13D737008A07F18BD98F93F66E
:102B900037010D476373D700D1173707002013079C
:102BA0004705BA978C23EFD0EFD208C86FD0EFCF8C
:102BB0005C43B777DC02938707C061B799C53717C5
:102BC00002401C4F5D8D08CF8280B7170240984F9E
:102BD0001345F5FF798D88CF828099C5371702405C
:102BE0005C4F5D8D48CF8280B7170240D84F1345A8
:102BF000F5FF798DC8CF82801E213737014013073A
:102C000007C0C207C1836306E500370700406316AB
:102C1000E500BA2193F7F7F8D98FFA2193F7F7CFA8
:102C2000C207C183D98F1EA1DE215EB59E211EB5CC
:102C3000B7370140938707C06314F5009C251EB980
:102C400085475EA982801E2189C593E707081EA1DA
:102C50008280C207C18393F7F7F7C207C183C5BF5C
:102C60001E294A25ED8F4205418189C76D8D333577
:102C7000A00082800145828093C5F5FFC205C18115
:102C80000EA98280EFD2CFC11629F577FD17F58FF7
:102C9000F621DA252111D58F1EA95625FD779387B8
:102CA000379FF58FD6212A842EC0D58F9625D58FB4
:102CB000B625D58F5EA55E29C207C18393F7F7CFEE
:102CC0005D8F5AA94800EFF0BFE5B74701409387F1
:102CD000078082456312F406C2475A2413951700F1
:102CE0003E9542070E0541873E958C416358070487
:102CF0008605EFD02FBE930540062AC0EFD08FBDCA
:102D0000824793144500930540063E85EFD04FBFA0
:102D10005E24C207C18763D507020E0593054006EE
:102D200013052503EFD00FBB1D89C98CC204C180D8
:102D300006A461016FD06FB7B24745B78A0555BF8A
:102D400012059305400613052503EFD0AFB83D8962
:102D5000E9BF91C55E250967D98F5EA582805A2596
:102D6000F977FD17F98FD5BF93F5F51F4EA1828036
:102D70004A211375F51F82805E2989C593E7870074
:102D80005EA98280C207C183DD9BC207C183CDBF1C
:102D90000A216D8D3335A0008280B7170240984319
:102DA000B706FFFC1367170098C3D843758FD8C3C5
:102DB0009843B706F7FEFD16758F98C39843B7067C
:102DC000FCFFFD16758F98C3D44341777D17F98EAC
:102DD000D4C3B7069F0094C7B72602409042719AA9
:102DE00090C290421366160090C2D443D4C3D44319
:102DF000758FD8C3D843B7060001D8C39843558F01
:102E000098C3984393166700E3DD06FED843B716D0
:102E10000240719BD8C3D84313672700D8C321470A
:102E2000DC42B18BE39EE7FE8280FD577D5763173E
:102E3000F500014582806387A700B1059C41E39CB2
:102E4000E7FEC5BF05458280EFD28FA5311102C4D0
:102E500002C602C8FD576313F50001A093D7854051
:102E600093F4F7079377F5001397270091679387FB
:102E700047E0BA979C4311813D892E843EC0EFF014
:102E80005F912AC28DC485450545EFF03FD39387F6
:102E9000F4FF6947636DF70011678A07130787D945
:102EA000BA979C43828785450545EFF0DFBA935773
:102EB0002440137734008D8B7DC73AC60947638061
:102EC000E70E0D47638FE70C05476388E70CC147A2
:102ED0003EC8EDA08145C9BF8545370500100905ED
:102EE000E9B7854537054010DDBF8145E5BF85451C
:102EF00037050080110555BF85453705208075B71A
:102F0000854537052080FDB78145E5BF37051600AB
:102F100085451305050451BF854537051600130582
:102F2000050861B78545370516001305050CB5BFC3
:102F30008145D5BF37051800854513050510B5B780
:102F40003705180085451305052085B785453705E4
:102F500018001305053091BF8145D5BF8545216512
:102F6000A9B78145EDBF8545370520008DBF814557
:102F7000E5BF854537052000B5BF8145E5BF8545DF
:102F80003705200069BF8145E5BF8545370530001D
:102F90001305054019BF8145D5BFD14715BFE1478E
:102FA00005BFF14735B705476383E70299C78946EF
:102FB0006381D7029307800221BF02C8824712456E
:102FC0002C007C84EFF0DF9B51016FD00F8E914776
:102FD00001B711840D8893078004E31DE4FCCDBD87
:102FE000FD577D57631DF50082806399A700EFD2DE
:102FF0002F8B8C45EFF05FE56FD02F8BB1059C4197
:10300000E395E7FE01A07D579C416394E7000145ED
:1030100082806394A700C8418280B105F5B7FD574F
:103020006308F500EFD2CF87EFF0FFFD6FD0EF8799
:10303000014582806305B50019C181E5AA852E8509
:1030400082808145EDBF01A001A001A001A001A0E7
:1030500001A001A001A001A001A001A001A001A068
:1030600001A001A001A001A001A001A001A001A058
:1030700001A001A001A001A001A001A097E1FF1FF4
:103080009381C188138181EF171500001305C5E1F5
:1030900097D5FF1F938505F71386018363FAC50053
:1030A0008322050023A0550011059105E3EAC5FE22
:1030B000138501839385C1D16377B5002320050073
:1030C0001105E36DB5FE93020008739002308D4246
:1030D0007390428097D2FFFF9382C2F293E2320054
:1030E0007390523017050000130545540D2B952B96
:1030F000EFF0BFCA970200009382623B73901234D4
:103100007300203071158280EFC29FF91841B737E4
:103110000140938707C02A846318F7000565854539
:1031200013050580EFF09FA91840B707004063160C
:10313000F70085450545EFF05FAA6FC01FF7EFC2A6
:103140003FF61841B7370140938707C02A846318B8
:10315000F7000565814513050580EFF03FA618408F
:10316000B70700406316F70081450545EFF0FFA65D
:103170006FC0BFF3EFC2DFF21301C1FDAA84084D97
:1031800032C611662EC4930586CE3ACA36C8EFF011
:103190001FE92AD0C84C9166938506CDEFF03FE831
:1031A0002A8488509165938585CBEFF05FE72AC02C
:1031B000C8509165938505CAEFF07FE60257116606
:1031C00091662AC232CC36CE630B070ED04CFD5628
:1031D0006304D6006305040E9050FD566305D600C7
:1031E0008247638E070CD050FD566305D600924788
:1031F0006387070C3A85A285EFF0DFE3824588C03C
:10320000EFF05FE3924588C0EFF0DFE288C045C988
:103210003747014013070780631BE50085451165AB
:10322000EFF0DF99130700022386040298D4E247E7
:10323000884C938587CEEFF0BFDA19C4F247C84CAB
:10324000938507CDEFF0DFD98247814689CB88503F
:103250009165938585CBEFF0BFD893060010924718
:1032600099CBC850916593E60620938505CA36C070
:10327000EFF01FD78246A24703C7C40288409CC410
:10328000B24713162700DEA4D2471387018732976F
:10329000FEA4C2471386440010C33147C8C09EA88D
:1032A000BAA8D6A801E48545EFF01FADC8409385C4
:1032B0008400EFF03F9DC8408545EFF09FA91301C2
:1032C00041026FC09FDE19C5EFC29FDDEFF09FEA9C
:1032D0006FC0BFDD8280EFC2BFDC916783A747D19B
:1032E0001167130707D28A07BA97804391659385C0
:1032F00085CE2285EFF0BFD205C137050020F165EC
:1033000093078507014781460146938505201305EC
:10331000850780CFEFF01FE66FC03FD9EFC25FD8BF
:103320008347C502930500021397270093870187FF
:10333000BA979C438843EFF0BFA5133515006FC0C3
:10334000DFD6EFC2FFD58347C5029305000413976C
:10335000270093870187BA979C438843EFF05FA3C8
:10336000133515006FC07FD4EFC29FD341113704CE
:103370000020AA842EC2EFF04FCD9307840783C7A5
:10338000C7022AC41304840785E70347C40293874E
:1033900001870A07BA979C43F1173EC093870187BC
:1033A0003EC68247C1EF02C2124541016FC0FFCF46
:1033B000916783A747D11167130707D28A07BA9786
:1033C0009C439166938586CE3E853EC0EFF03FC517
:1033D000916671D923060402138701871C4399EF74
:1033E0008347C402850793F7F70F2306F402FDD73E
:1033F000EFF07FEE8347C402C9DB75B702459385C2
:1034000086CEEFF0DFC10346C4021387018793170E
:103410002600BA979C4391669C43E393A7FC35D65C
:10342000C1BFEFF08FC2A247B307F5403335F500B7
:10343000E39BA5F61307703EE367F7F60245EFF04E
:103440005FF065F19247A6973EC4A247E38EF4F47D
:103450000245EFF01FEF6DFD8347C402324785043C
:103460008A07BA979C4383C5F4FF8843EFF0DF8F48
:10347000E9BF11E57D5582807D556FC01FC3EFC246
:103480003FC2AA842E84EFF07FE97DF583C7C40292
:103490001397270093870187BA979C438843EFF0DF
:1034A0003F8D08A00145D1BF8280EFC27FBFEFF002
:1034B000AFADEFD0FFB1EFD07FCCF5BF9377F50F75
:1034C00045476366F70811678A07130707D23E97D7
:1034D000184393770570D98F7D576389E70CEFC246
:1034E0003FBC13D42700138701C81374C403229769
:1034F000184393F4F700511133579700938601C88E
:103500002EC0058B36C205CB91653E85938505C1DE
:103510003EC4EFF09F91A24709C53E85EFF0CFABC7
:10352000A24712473A940547B3149700184093C432
:10353000F4FFF98C04C0824615476368D70611670B
:10354000130747E293952600BA95984102871377AF
:10355000050C9306000C631BD7041307700C6367FC
:10356000F7049377F5031167130707D08A07BA9713
:103570009C431167130707D28A07BA979C431375B8
:103580000570C98F91BF91453E85EFF0FF8B3101EA
:103590006FC0BFB18D45CDBFE145FDB7930580023A
:1035A000E5B78145D5B79D45C5B701A08280EFC27B
:1035B0003FAFEFF04FAA6FC05FAF05C1EFC25FAE84
:1035C0002A84EFF04FA9AA84EFF01FEEEFF0AFA826
:1035D000058DE36B85FE6FC05FAD8280511122C205
:1035E00006C42A8411E105442285FD2011E5112835
:1035F00011E105200295CDBFA24012443101828025
:1036000001A89387418788438280511106C4112005
:10361000C9A85111194506C4E12C0545F126AA8512
:1036200081460146014511AE51119717000093875D
:10363000A78722C217140000130404871D8C26C01C
:1036400006C40984BE8419E41244A24082443101B4
:103650006FF04FB07D1493172400A6979C43829778
:10366000DDB7511122C297170000938767831714A3
:1036700000001304E4821D8C26C006C40984814422
:1036800063968402EFF02FAD971700009387478170
:1036900017140000130444811D8C09848144639233
:1036A0008402A24012448244310182801397240094
:1036B0003E97184385040297970700009387477E3B
:1036C000C1B7139724003E971843850402979707C4
:1036D00000009387E77CE1B793874181AA858843FF
:1036E00045A893874181AA85884309A0CDC183A7B6
:1036F000C5FF511122C206C426C01384C5FF63D37F
:1037000007003E94AA84D924938781879C4399EB30
:103710002322040023AC81861244A24026858244E1
:10372000310175A4637EF40014403307D40063961E
:10373000E7009843DC43369718C05CC0E1BFBA8706
:10374000D84319C3E37DE4FE94433386D700631F57
:1037500086001040B29694C33386D700E31EC7FAA2
:1037600010435843B29694C3D8C37DB76375C40061
:10377000B1479CC055B71040B306C4006316D700CC
:1037800014435843B29614C058C0C0C371B7828066
:10379000411126C293843500F19806C622C4A104C3
:1037A000B14763F5F404B14463E4B4042AC0392C8E
:1037B0001387818714438247368439E01387C18792
:1037C000184301EB3E8581453EC0692823AEA186A2
:1037D00082473E85A6853EC071207D57824763148F
:1037E000E506314798C33E85DD2229A0E3DE04FAD1
:1037F000B1471CC10145B24022449244410182803C
:103800001840058F634E07022D466376E60018C008
:103810003A9404C031A058406392860223ACE186FA
:103820003E8575221305B400130744006199B30760
:10383000E540F1D33E94098F18C075BFD8C2CDB70B
:10384000A28640409DBF130435007198E30385FCB8
:10385000B305A4403E853EC031207D578247E31A20
:10386000E5FA41B7511122C22A842E8523AC01D03A
:1038700006C4EFF00F8CFD576317F500938781D1D5
:103880009C4391C31CC0A240124431018280FD4779
:1038900063F6B700D9471CC17D5582807C41411138
:1038A00022C406C62E862A8491C713972500BA978C
:1038B000984319EB228532C0BD20AA852285224477
:1038C0000246B24041011DA8854601456308D70064
:1038D000FD566319D700D9471CC00545B2402244A4
:1038E000410182802E8523A0070002970145FDB784
:1038F00093874181AA8588436FF07FF9511122C2D5
:103900002A842E85B28523AC01D006C4C128FD5778
:103910006317F500938781D19C4391C31CC0A240DB
:103920001244310182806DA0AA87850703C7F7FF83
:103930006DFF3385A7407D158280938701889C4366
:10394000AA8399EF1387C1C823A0E18817C5FFFF99
:103950001305456BBA8709C51C4123AAF1D0BA8764
:10396000D8437D437D556346E304638D030203A37F
:10397000870863000304931227009A9223A0C200D1
:103980000325031005463316E600518D2320A310AE
:1039900023A0D20889466397D30083264310558E0F
:1039A0002322C310930617000A07D4C3BA978CC703
:1039B0000145828097C7FFFF9387C76499C71705A2
:1039C00000001305A5C66FF09FC5828082808280AB
:1039D0009307800523ACF1D07D5582809307800545
:1039E00023ACF1D07D55828001A000002D2D2D202B
:1039F00044494354202D2D2D00000000536C6F745A
:103A00002000000030000000205B30780000000043
:103A10005D203A20000000002D2D2D20454E442031
:103A20002D2D2D005361766520530000536176657E
:103A3000205100002D2D2D20455252202D2D2D00DE
:103A40002D2D2D20464D54202D2D2D002D2D2D209A
:103A50004F4B202D2D2D0000554E4B4E4F574E20D5
:103A600020202020202000005353443133303620C2
:103A7000202020202020202000000000454550521A
:103A80004F4D203234432020202020200000000011
:103A90004D50552D3630353020202020202020203C
:103AA000000000005245473A0000000056414C3AE1
:103AB00000000000524541443A000000575249546A
:103AC00045204F4B3A0000002D2D2D205043204C17
:103AD000494E4B204F4E202D2D2D00005043204CA1
:103AE000494E4B005043333A20455849540000009A
:103AF0002D2D2D205043204C494E4B204F46462023
:103B00002D2D2D004553430053434E0053454C008B
:103B10004E4F2044455649434500000050524553FE
:103B2000532053434E00000053595300434F4D0060
:103B3000554941502047656D4F530000493243209D
:103B4000434F4D4D414E4445520000005665722092
:103B5000302E343200000000534551004D4F4E00CE
:103B6000444D5000524544005752540053454C4573
:103B7000435420434D44000050494E47204F4B21B1
:103B80000000000050494E47204641494C210000AA
:103B900044554D5020504147453A00007600000002
:103BA0005E00000055502F444E2B434C49434B00C0
:103BB000434C49434B204241434B00005345512065
:103BC00053454E54210000004E4F204D4F4E205281
:103BD000554C45003D3D3D2047656D4F5320426F9C
:103BE0006F74203D3D3D000053797374656D3A203C
:103BF00056657220312E323500000000536572691F
:103C0000616C204F4B000000526561647921000017
:103C100024000000000000400B9100002300000081
:103C2000000000400B1101001000000000000040E7
:103C30000B91010027000000000000400B11020062
:103C400022000000002C01400B8D0000010000004C
:103C5000002C01400B0D010013000000002C01405E
:103C60000B8D010014000000002C01400B0D020020
:103C700020000000002C01400B8D0000020000001D
:103C8000002C01400B0D010021000000002C014020
:103C90000B8D0100FFFFFFFF00000000000000008F
:103CA000230000000038014018000000FFFFFFFF64
:103CB0000000000000000000120000000038014079
:103CC0000B000000FFFFFFFF0000000000000000ED
:103CD000260000000038014018000000FFFFFFFF31
:103CE0000000000000000000250000000038014036
:103CF0000B000000FFFFFFFF0000000000000000BD
:103D00000100000000000000060000000C000000A0
:103D10000D0000000F000000100000000E00000069
:103D2000010000000200000010000000110000006F
:103D30001200000013000000140000001500000035
:103D40001600000017000000200000002100000005
:103D500022000000230000002400000025000000D5
:103D60002600000027000000000000000000000006
:103D7000022100003A210000F8200000FC20000091
:103D8000FE2000001C210000FE200000182700007B
:103D90004A2700000D0A0000A62E0000D42E0000C5
:103DA000D82E0000E22E0000EA2E0000EE2E0000C9
:103DB000F82E0000002F0000082F00000C2F00003C
:103DC000182F0000242F0000302F0000342F000097
:103DD000402F00004C2F0000582F00005C2F0000E7
:103DE000622F0000662F00006E2F0000722F00006F
:103DF0007A2F00007E2F0000862F00008A2F0000FF
:103E0000962F0000010000000200000004000000E6
:103E1000080000001000000020000000400000002A
:103E200080000000863500009435000098350000C1
:103E30009C350000A2350000A635000000000000FF
:103E40000000000000000000000000000000000072
:103E50000000000000000000000000000000000062
:103E60000000000000000000000000000000000052
:103E70000000000000000000000000000000000042
:103E80000000000000000000000000000000000032
:0C3E900000000000000000000000000026
:083E9C00B4390000A42200006B
:103EA400554E4B4E4F574E000000000000000000DE
:103EB40000000000140000000000000014000000D6
:103EC40000000000140000000000000014000000C6
:103ED40000000000140000000000000014000000B6
:103EE40000000000140000000000000014000000A6
:103EF400000000000204060804080C100810182032
:103F040010203040204060800102030405060708A9
:103F14000102030405060708000000000000000079
:103F2400000000000000000000000000000000008D
:103F3400FFFFFFFFFFFFFFFFFFFFFFFFFFFFFFFF8D
:103F44000000000001000000000000005C3E0000D2
:103F54007C3E00003C3E0000000000000000000029
:103F6400000000000000000000000000000000004D
:103F7400000000000000000000000000000000003D
:103F8400000000000000000000000000000000002D
:103F9400000000000000000000000000000000001D
:103FA4000000000000000000FFFF01010002000209
:103FB4004020FF0024060020006CDC02A800002042
:103FC400060708090010002000300000000000006F
:083FD4003078303000000000DD
:00000001FF
