:100000006F20F07300000000DC290000E0290000F0
:1000100000000000000000000000000000000000E0
:1000200000000000000000000000000000000000D0
:1000300012270000000000000E2F0000000000004A
:10004000102F0000122F0000142F0000162F0000A8
:10005000B42700001A2F00001C2F00001E2F0000E4
:10006000202F0000222F0000242F0000262F000048
:10007000282F00002A2F00002C2F00002E2F000018
:10008000302F0000322F0000342F0000D824000051
:10009000382F0000722500008025000000000000BD
:1000A000511126C022C206C4828282441244A24058
:1000B00031018280634E050263C305042E86AA8542
:1000C0007D5515C285466378B6006356C0000606A6
:1000D0008606E36CB6FE014563E4C500918D558D3F
:1000E00085820582F5FA82808682C93F2E858282CA
:1000F0003305A04063D70500B305B040C1B7B305D1
:10010000B0408682653F3305A0408282868263C705
:100110000500634905005D372E858282B305B04036
:10012000E35B05FE3305A040513F3305B0408282BA
:10013000000071112AC082471387F7FF3AC099C3A4
:100140000100D5BF11018280EFF29FF53714014005
:10015000930700041CC80545E93F930700081CC825
:100160000545C13FB70740001CC80545D937B7074B
:1001700080001CC80545753F0DBFEFF27FF23714B4
:100180000140B70740001CC80545653793070008C4
:100190001CC80545793F930700041CC839B7EFF226
:1001A0003FF06111AA8721473714014093968701D8
:1001B000E18663D506049306000414C805453EC2D3
:1001C0003AC093040008B537054504C89D379247E7
:1001D0000247B7068000860714C87D1793F7F70F0C
:1001E00071F7930700041CC80545A137054504C8ED
:1001F0008937B706800014C8210145BDB706400005
:100200006DBFEFF2FFE961112AC013070004B717B1
:10021000014098CB0545313F21470144B7140140C7
:100220003AC29306000894C8054521379444060451
:100230001374F40F93F60604124799C21364140062
:100240003AC2B706800094C80545E53512477D17C8
:1002500061FB82473707400099E31307000498C801
:100260000545C13DB7140140930700089CC80545EA
:10027000C935B70780009CC80545653D9307000454
:100280009CC82285210115B5EFF29FE171112A84E6
:10029000653D1305000A213713558400093713758E
:1002A000F40FF53D55351305100AD53D0145913F35
:1002B0002AC0E13502451101CDBBEFF27FDE71119D
:1002C0002A842EC051351305000AD13D13558400F0
:1002D000F9351375F40FE13582452E85C935713D29
:1002E0001545EF30602B1101C9B3EFF27FDB2A8493
:1002F000A13D1305800765350145553522854535F6
:10030000AD3D65B3EFF2DFD91305E00AF93F130500
:100310000002E13F0945D13F1305D008F9375145A7
:10032000E9371305F00AD13749B3EFF27FD7938548
:1003300005FB2A8413F5F50F4D3F1375F40075374F
:1003400013554400410555378DB393178501E18757
:1003500063C707029307F00363E3B70203C7B182E1
:1003600093D73500631DF700938781B53E9593F7CA
:1003700075008545B395F5001C21DD8D0CA18280AB
:1003800083C2B1829397320093F7F70F13877700F8
:10039000634CB7063387B60063D8E70651119387DD
:1003A00081B522C426C22A873EC0B307A74093F76F
:1003B000F70F63F7C70482470143B383E7009377DE
:1003C000F30F63FDD7029304F00763C7E402B3841D
:1003D00065001304F003636194028D84639E5400EE
:1003E000AE9783C403009D8B0544B317F40093C7F5
:1003F000F7FFE58F2380F3000503D1B7050775B735
:100400002244924431018280828083C2B1829397D8
:10041000320093F7F70F13877700634AB7063387E5
:10042000B60063D6E7065111938781B522C426C270
:100430002A873EC0B307A74093F7F70F63F5C704B9
:1004400082470143B383E7009377F30F63FBD7023F
:100450009304F00763C5E402B38465001304F0035A
:10046000636F94008D84639C540083C40300AE9733
:100470009D8B0544B317F400A58F2380F30005037B
:10048000E1B7050745BF2244924431018280828052
:10049000EFF21FC103C7B182311132C00E071377CB
:1004A000F70F130677006341B6083386B600AE84B3
:1004B000635CC70682472A832A84B382A700938796
:1004C000F6FF93F2F20F3EC2631B54021376F60F4F
:1004D0001304F3FF32C46389C4041A85A6851AC2C3
:1004E000AD358247A685338587001375F50FB13D7D
:1004F0009387140093F4F70F12432246E1BF22853D
:10050000A68532C81AC616C4893592472285B38596
:10051000F40093F5F50F153D130714001374F70F4E
:10052000A242324342464DB7510141B6930706FEFF
:1005300093F7F70F1307E005636EF70603C7B18261
:10054000AE860E071377F70F9307770063C4B706DD
:100550009387750063C0E706EFF29FB4131426007B
:1005600032949387C1873387870095074111AA8406
:100570003E94034307F681473356F340058A19CE6C
:10058000B385F60093F5F50F26851AC63AC43EC228
:1005900036C0653B324322479247824685071D4657
:1005A000E39CC7FC8504050793F4F40FE31387FC71
:1005B0004101E5BC8280EFF2BFAE71112A84AE87A3
:1005C000B2840386040019CABE8522853EC0190480
:1005D000B13F85041374F40F8247E5B71101F1B4FC
:1005E000EFF21FAC2E973111AA872E841377F70FE5
:1005F0006302E4040343060081446388D402B355D4
:10060000934085898DC133859700A2851375F50FB9
:1006100036C83AC632C41AC23EC0053BC24632474B
:100620002246124382478504C9BF05040506137498
:10063000F40F7DBF510195BC9D4763EEC70603C70C
:10064000B182AE860E071377F70F9307770063C466
:10065000B7069387750063C0E706EFF27FA4916742
:10066000131446009387479F33878700C1074111C2
:10067000AA843E940343070081473356F340058A1A
:1006800019CEB385F60093F5F50F26851AC63AC440
:100690003EC236C05D3932432247924782468507C3
:1006A0002146E39CC7FC8504050793F4F40FE3138C
:1006B00087FC4101DDBA8280EFF29F9EAA84751506
:1006C00085461D461375F50F2E8481339305D4FF9F
:1006D00026858D46054693F5F50F053B93051400D9
:1006E0008D46054693F5F50F268505336FF0FF9B84
:1006F000B727014023AAA74203A78740B7064000B7
:10070000558F23A4E740B726014003A706409387EF
:100710000640098B7DDB03A7C64423AAA64203A794
:100720008640B7064000558F98C73727014083277A
:100730000740898BEDDF0325C74442054181828054
:10074000938781A5938607107D579AA3BAA3DAA34E
:10075000FAA39AA7BAA7DAA7FAA7C107E397D7FE21
:100760008280EFF2FF9313040502220442044180C9
:100770001303041042033111138681A5135303019F
:10078000A284328781471623268532C893D58600F6
:100790003EC61AC43AC236C00D36824613851400CE
:1007A000420593F5F60F4181093EB247124789048D
:1007B000C2048507A1460907C18022434246E3944B
:1007C000D7FC4104420441804106E31B83FA5101F6
:1007D0006FF0BF8DEFF2DF8C130405022204420498
:1007E000418093050410C2053111138681A5C18192
:1007F000B286A284014726852EC832C63AC436C2C4
:1008000061342AC01385140042054181B53C8247FA
:1008100092462247A207C98F89049EA2C2040507F7
:10082000A147C18089063246C245E316F7FC410460
:10083000420441804106E31DB4FA51016FF0FF8686
:10084000EFF21F86F53D37460000938481A593861D
:1008500081A50147138481A51306869B7975A1455F
:10086000B307C7009C230507890693F7F707C98FCD
:10087000239FF6FEE316B7FE91671CC8938707080F
:10088000370701841CD0B707028458CC01455CD4DB
:10089000232A0400232C040023220402232404021C
:1008A000C935793D37460000A68601471306469CA8
:1008B0007975A145B307C7009C230507890693F7FF
:1008C000F707C98F239FF6FEE316B7FE91671CC892
:1008D000B7070A8C5CCC9567938707C01CD0B70715
:1008E000008405455CD4232A0400232C0400232221
:1008F000040223240402B535A13537460000A6863C
:1009000001471306069D7975A145B307C7009C23CF
:100910000507890693F7F707C98F239FF6FEE316AD
:10092000B7FE9167370705901CC858CC9387070816
:10093000156718D01CD837070084B707009058D423
:1009400009455CDC232A0400232C04002322040232
:1009500023240402232A0402232C04021935CD3354
:1009600037460000A68601471306C69D7975A14546
:10097000B307C7009C230507890693F7F707C98FBC
:10098000239FF6FEE316B7FE9D67938707C81CC832
:10099000B707058C5CCC9567938707C03707858CB4
:1009A0001CD01CD8B707008458D45CDC0D45232A22
:1009B0000400232C04002322040223240402232AFB
:1009C0000402232C0402713BA53BB74600000147FB
:1009D0009386869EF9752146B307D7009C230507A9
:1009E000890493F7F707CD8F239FF4FEE316C7FE24
:1009F00091671CC8B70701885CCCB75780409387C4
:100A000007801CD0B7070084232A0400232C04008D
:100A100023220402232404025CD411459933154493
:100A200005331375F40F353B0504A947E31AF4FEAB
:100A3000013B6FF08FE7EFF2AFE6371702401C4F34
:100A4000B706F100FD1693E757231CCFB7170140F7
:100A500098436111758F98C39843B7060855558F11
:100A600098C3414798CBB727014003A78740B706F3
:100A70001E008506558F23A4E740EFF0BF8805458B
:100A80008539B70700202391A7100145953123929E
:100A9000A180EFF06FEB1305000AEFF04FF0014576
:100AA000EFF0EFEF0145EFF08FEF1305A00AEFF045
:100AB0000FEFEFF08FEC1545EF20102E0145EFF012
:100AC000AFFC9307A00A6314F50405472383E18470
:100AD0009387C187930450101384B4FF420441806C
:100AE0003E8722853EC23AC0EFF00FFA0247050466
:100AF000420408A3418005079247E31494FE95043D
:100B0000C204C1801307002E9507E397E4FC096433
:100B10001305F4FFEFF04FF793077007630FF50429
:100B20000533930570071305F4FFEFF00FF98945BE
:100B30001305500CEF20F00389451305600CEF20DE
:100B4000500389450D45EF20D00289451145EF201E
:100B5000500285450945EF20D00185451545EF2018
:100B6000500185451D45EF20D00085451305300C0B
:100B7000EF20300021016FF04FD3D9364DBFEFF297
:100B80002FD2130141F80545A5362A8401458D363B
:100B9000B717014037070020944703460710130793
:100BA0000710C18A32C0B337D00001C693B6160011
:100BB00036C01CA3B707002083D6271083D74180F7
:100BC000B306D440C206B307F54013950701C186AA
:100BD00093072003418563D1D71A13D776400507C1
:100BE000420741879307200363D5A71A935775409F
:100BF0008507C207C18783C661801386618032C2C0
:100C000036973ADA83C5718003C5F1849386718083
:100C10001387F18436C43AD83384F50031C183C6D2
:100C200001851147639EE60285CF138691821422C7
:100C3000138791821385160008A20946637FD600A8
:100C400063D607169387818094231306E0076364B5
:100C5000D600850694A32300070013940501418460
:100C60001305500CEF209009933415001305600C08
:100C7000EF20D008133515000605C98C0D45EF206F
:100C8000F007133515000A05C98C1145EF20100730
:100C9000133515000E05C98C23829184EF20100FA7
:100CA000938781849843938641843307E5401306F4
:100CB0003006B6C882C66375E60088C38547BEC6DF
:100CC00083C2E1849387E1843ED6938751843ECCEE
:100CD000638502168C2383C7A182C6443ECA83C79C
:100CE000918384203EC603C6818393878183BED4CB
:100CF000138381A593870183A6CABEC4930403010D
:100D000083C0C18226D01385A182930403119386E8
:100D1000C182138791839387C183A6CC02DE82C0F0
:100D200002DC02C802CEAACEB6D0BAD23ED48257D6
:100D30001687C1173ED2C167FD17BEC292579623D0
:100D40009647638EF64493D3D6009D476389F34458
:100D500093F3F30F9384E3FF13D5A64093D7764024
:100D600093F4F40F05431D899D8B636F93262DE546
:100D7000D646B3D7F640ADA09307E0FC0147E3D3D6
:100D8000F6E613D7F6411377F70736971D877D17D9
:100D900081BD9306E0FC8147E35FD5E49357F541BD
:100DA00093F7F707AA979D87FD17A1B5E38507EA93
:100DB00083C7818003C361851D4593868180333657
:100DC000F0006316A30013B6170213461600E304DF
:100DD00006E8FD179CA241B56316651EB3D7F54022
:100DE00093F617008D476394F30093C61600631AB9
:100DF000073A925789073ED292568257E390D7F42A
:100E0000C1073ED00257E647E393E7F2F24799C3A2
:100E1000E2478CA3C24799C3A65790A3E25781C764
:100E20009657324798A3864781C786572380170075
:100E3000F25781C7F647524798A3E24709458C23EA
:100E40008589EF202062E24715458C238989EF20B0
:100E50006061E2471D458C239189EF20A060E24745
:100E60001305300C8C23A189EF20C05F1307F0031A
:100E7000938781826350873498231304F003930689
:100E8000170094A3A94663FAE60283C6C184054607
:100E90001387E6FF1377F70F6367E630425718238F
:100EA00009EB13873185142331466364D600850628
:100EB00014A3238007001304F00352578147634DA6
:100EC0000700D2561307F007835741036354D70036
:100ED0009307F00793F7F70F12471CA3A24780A3CD
:100EE000A38501829387B1823EDE938781B5BEC020
:100EF0008147130700088646BE96238006008507B3
:100F0000E39BE7FE930600041306000881450145B4
:100F1000EFF00FD801441375F40FAD45EFF0EFC2B9
:100F2000050493070008E318F4FE1384C1841C2011
:100F30001387C1843AC6639B073037460000130607
:100F400006AA8D451545EFF00FE73746000013065A
:100F500046AA8D4513053002EFF0EFE53746000055
:100F6000130686AA8D4513051004EFF0CFE4A247BF
:100F70009823A94763E1E70292476D479C23636783
:100F8000F728A5465D4689451145EFF00FC8824711
:100F9000639B072602C0374600001306C6AAF94520
:100FA0005145EFF04FE1374600001306C6AB9305FD
:100FB000D0026545EFF02FE0A2478C2392478823AB
:100FC0006F00307989466315D500B357F64009BDE7
:100FD0008D466314D500B24669BB11438146E313C5
:100FE00065E0B3D7F040EDBB9144E39493E093F612
:100FF000F607631A6504639BA600E30C07DEB3974C
:10100000F600CD8F93F5F70F3ACEE5B30943639A17
:101010006600E30007DEB317F50093C7F7FFFD8D09
:10102000E5B73315F5006205E2056185E18509C77D
:10103000C98D93F5F50FC9BF1345F5FFE98D93F5FC
:10104000F50F16CE7DB38944631C9504639B66003F
:10105000E30107DAB397F600D18F13F6F70F3AC81A
:1010600049BB639AA600E30607D8B317F30093C7FA
:10107000F7FF7D8EEDB73313F3006203620613535F
:101080008341618611C7336666001376F60FC1BFD0
:101090001343F3FF337666001376F60F16C891BB41
:1010A0008D44631195061395170021C3B64499CC5E
:1010B000A2543383A400035303009644630D9300AA
:1010C000A2540503B383A40023906300A254269581
:1010D0000A21E360D5D28546B397F600B2463ADCE2
:1010E000D58F93F7F70F3EC629B3A256B317F30077
:1010F00093C7F7FF3695B2462310050016DCF58F2F
:101100003EC6C5B9E31775CE95E2E30407CE264582
:1011100093961700BAC0AA96239006008546B39707
:10112000F60093C7F7FFB3F01700E1B1139517006E
:1011300029CBD24433D3F440137313006313030455
:10114000A644B383A40003D3030096446318930218
:101150008546B396F600B3E6160093F0F60F96C0F8
:101160008546B397F600E207E1878306410105C390
:10117000DD8E93F7F60F3ECA3ADEA5B9050323903C
:101180006300A64426950A21E36CD5FCD1B793C72A
:10119000F7FFF58F93F7F70F3ECA16DE99B90147AF
:1011A00089B93687B9B11147E395E6D01387D18461
:1011B0001423F5B9635604049823014493061700D9
:1011C00094A3A946E3FBE6CE83C6C18405461387F4
:1011D000E6FF1377F70F636FE6004257182319E70E
:1011E00013873185142399C2FD1614A323800700A9
:1011F0000144E1B11147E39BE6FE1387D184DDB7DB
:10120000238007005DB985471CA069B313079003CD
:10121000636EF700A5465D46894513052002EFF091
:10122000CF9E8247E38807D68D47F9BF1307700525
:10123000E363F7D6A5465D46894513050004EFF044
:10124000CF9C8247E38807D489477DBF05476398D1
:10125000E70A37460000130686AC8D451545EFF0CA
:101260008FB5374600001306C6AC8D451305300216
:10127000EFF06FB437460000130606AD8D45130539
:101280001004EFF04FB3A2479823A94763E0E702A9
:1012900092476D479C236365F702A5465D468945E5
:1012A0001145EFF08F96824789EB02C03746000068
:1012B000130646ADF9457945F5B923000400F5B7A5
:1012C00013079003636EF700A5465D468945130535
:1012D0002002EFF08F938247E9DB95471CA0F1B71E
:1012E00013077005E364F7FCA5465D4689451305C1
:1012F0000004EFF08F918247CDDB9947C5B7938605
:10130000B7FF93F6F60F6361D71A3746000013064E
:1013100086AC8D451545EFF00FAAB2479823954747
:101320006308F716374600001306C6A78D45130558
:101330003002EFF04FA8A2479823A94763E3E702E2
:1013400092479823ED4763EEE700A5465D46894541
:101350001145EFF08F8B824789C73247854702C01E
:101360001CA3014493771400139547001D8D0A05B3
:101370009377F50F93551440138357003EC8939706
:101380003500BE9593F7F50F9386F7003ECA937428
:10139000F40F93076004BED693870403A306F106F7
:1013A0009307A0032307F106096793178400BA97F0
:1013B000C2071373F30F93F6F60F82D8231A0106B0
:1013C000C183EC103E8536DA1AD42ED23ECEEFE041
:1013D000BFEBF2472AD01385170042054181EFE0A9
:1013E000BFEA02579D42F2472207598D42054185C7
:1013F000131705014183358392552253D256F010BD
:10140000631D57081375F507A8B18907C20785053D
:1014100013072107C183E317B7FA1A85B6851ACED9
:10142000A30A010636D0EFF00F99924772439C232E
:1014300063EB6704130363036347F304A247825615
:101440009C2363E2D7049D0663CFF602D247A546EC
:10145000130680039385E700C24793F5F50F1385C4
:1014600047001375C50FEFE05FFA824789CFB24797
:101470002685982395476316F702EFF08FAE324723
:10148000854702C01CA30504A947E31DF4EC2DB653
:1014900037460000130646A751BD13070002B8B136
:1014A000ADB7EFF02FB3E1BF9386E7FF93F6F60FEA
:1014B000E364D72A37460000130686AC8D451545F0
:1014C000EFF06F8FB247982389476315F7263746A9
:1014D0000000130606AE8D4513053002EFF0AF8D08
:1014E00037460000130646AE8D4513051004EFF095
:1014F0008F8CA2479823A94763E4E702C2579C2335
:1015000085E392476D479C23636AF726A5465D46AF
:1015100089451145EFE07FEF82476395072202C0BE
:10152000B24798238947631BF702B257A5465D4629
:101530009C2389451305200299E313050004EFE07D
:10154000DFECB2579C23639A072C13860182214754
:10155000A146894513053007EFF08F8801441375C4
:10156000F40FBD45EFE07FDE050493070008E318A4
:10157000F4FE930600030546C1450145EFE0FFE890
:10158000930600030546C1451305F007EFE0FFE7AA
:10159000C1473ECE02D4225783C731858144BA97D2
:1015A00005071377F70F3AD4724793F7F70F9207AF
:1015B00021071377F70FBAC4724725071377F70F80
:1015C0003ADA724711071377F70FBAC2938681A5EB
:1015D000B6973EDC938781A53EC8C167FD17BEC69E
:1015E000E2579223B647630DF6029357D6003ED0DA
:1015F0008347010282561354A6403ECA9357764051
:101600009D8B3ED29D471D881377F607639AF6207F
:101610009645138554003A861375F50FEFE01FF1D8
:10162000E25789073EDC9387040193F4F70F930791
:101630000008E397F4FAF2472257C10793F7F70F30
:101640003ECE8D47E319F7F4C2571387F1849C23EC
:101650003ACAE38F0702F9461306C007D145094588
:10166000EFE01FD2F9461306C007D1450945EFE068
:101670003FE283C701851386618013870185854614
:1016800032C63ACE6395D736B7070304938707204F
:10169000BED6930770F02318F1068144FC183387F7
:1016A0009700034707FF9306F00F1394240063117C
:1016B000D72C338584000A05374600003AD01D0533
:1016C0001306C6AEF9451375F50FEFE0DFEEB2472E
:1016D0000257269494230A043AD01305440063CF9A
:1016E000A62C5D04634CD42C83C671807946B11658
:1016F00093F6F60F6364D62CE9465146D945137527
:10170000C50FEFE09FD08247638A072A02579306EE
:10171000F00F6318D72803C7218583C611850E07EC
:10172000C247369706073E97FD5616A3D247238039
:10173000070061A437460000130686AE8D451305E9
:10174000300275B3B25723800700E24723800700B9
:10175000238C0182A38C0182238601829387C1831B
:1017600023A0070023A207009387018323A007007B
:1017700023A20700B2472380070055B33247142342
:101780000947639BE606130790036360F702A546CB
:101790005D46894513052002EFE03FC78247E3809D
:1017A00007D8325785471CA39DBB13077005E36913
:1017B000F7D6A5465D46894513050004EFE0FFC452
:1017C0008247E38E07D4B25723800700E247238085
:1017D0000700238C0182A38C0182238601829387D8
:1017E000C18323A0070023A207009387018323A0BE
:1017F000070023A2070025B313079003E362F7D283
:10180000A5465D46894513052002EFE01FC08247CB
:10181000E38707D09147324779B71386818105BBAB
:101820005246A6452685BACAEFE01FE18257854693
:1018300056476395D704814772472685BECAB305CC
:10184000F70093F5F50FEFE05FB0D6472147850726
:1018500093F7F70FE392E7FEB24798238947E31126
:10186000F7DC4DE0C6479C2312578256B3D7E740BA
:101870000947858B639CE60CE5E35DB3D2470943DA
:10188000F91793F7F70FE369F3FCB7470000938765
:1018900047AFA2979C23F245138514002306F10657
:1018A0009257F0101375F50F93870703BACAA30672
:1018B000F10623070106EFE01FD052469147564735
:1018C00085460943E31AF6F89307F4FF93F7F70FF9
:1018D00063E5F602631CD700138554001306300538
:1018E000D2551375F50FEFE07FC4BDB7E31667F669
:1018F0001385540013062005E5B7D247E31EF4F420
:1019000021FFFDB785476314F400E247A9BF6315C3
:10191000E40083C7818389BF8D466315D40083C7E4
:10192000918399B79147631AF40083C7C182125615
:10193000B3D7C740858BE39E070602578947E3016B
:10194000F7CE52478D47E31DF7CC39A0D2460D475D
:10195000639BE600E39607CCF245C14641462685E7
:10196000EFE0BFAA75B9D2461147E39BE6CA29B793
:101970009D46631CD700338584000A05B7470000E5
:101980003AD01D05138607AF35BB338584000A05A1
:1019900021053A86F1451375C50F3AD0EFE0DFC94E
:1019A0003DB39D466312D702F247238BE184114772
:1019B00098A3930610042384D18002C0850419479C
:1019C000E39EE4CC6FF04FDF09EF03C7218583C6A8
:1019D00011850E07C247369706073E97231007006A
:1019E000B1B3F247238BE184094798A3F9B70947BC
:1019F0006398E708374400006D438144130444AF03
:101A000023160106338784001375F30F03070700BD
:101A10009302F5FE511593F2F20FF010F94513758C
:101A2000F50F1ACA16C82306E106EFE0DFB8B24781
:101A3000C24252439823636E5702634CE30203C7CA
:101A40007180F94631171377F70F63E4E602E94630
:101A50004946D94516851AC8EFE03F9B8247424365
:101A600089CB93F7F40F238AF184F2470D4702C024
:101A700098A3850415475103E394E4F86FF0CFD39E
:101A8000A2566396D71283C64185938741853ED27D
:101A900091473ED06364D700A1473ED0814413F400
:101AA000F40F13153400018D06051375F50F13039C
:101AB000A50039051373F30F2316010693060403DB
:101AC000F010FD451375E50F1AD42306D106EFE09B
:101AD0009FAEB24722539023636D66049396340001
:101AE000858E8606D50663C6C60483C67180794690
:101AF000B11693F6F60F636ED602E9463146D94524
:101B00001A85EFE09F9082478DC7A38A818403C620
:101B10006185925791469C236313D6068DC3724705
:101B2000A94610A309466363F60081462384D18049
:101B300002C082578504E3C4F4F66FF0EFC783C791
:101B400021854247E1751396470093967400CD8E28
:101B50003A9676A683C611858E074166B6978607A4
:101B6000BA9799457D1663E0D5048A236314C500AE
:101B700023900700850693F6F60F8907EDB783C615
:101B8000218583C511858E064247AE968965AA07D1
:101B9000938505C03606ED8FD18F860613967400A7
:101BA000BA96D18F9EA2D2472380070051B79146A3
:101BB0006394D7C003C661859D4613847180631208
:101BC000D60803868180F9457945EFE03F96374690
:101BD00000001306C6AFF94513056004EFE0BF9D92
:101BE000B2475D47938481809C239387E7FB93F7FB
:101BF000F70F6363F7BC1C207947B11793F7F70F12
:101C0000636CF7BAE9466146D94513052004EFE055
:101C1000CFFF824781E702C06FF00FBA83C72185EB
:101C200003C711858E07F976BA9742478607BA9798
:101C300098201377F707558F9AA3D2472380070080
:101C4000D9BF83C641851386418532CE6361D712E1
:101C500037460000130686A8F9452945EFE0BF95F1
:101C6000374600001306C6A9F94513052003EFE027
:101C70009F9437460000130686A9F9451305A00571
:101C8000EFE07F93B247DD469C23138787FF1377EE
:101C9000F70F63E6E6081820F94631171377F70FB8
:101CA00063E4E60A824799C723840180D24702C0D1
:101CB00023800700D2479C23639007B083C7218508
:101CC00042478966139647003A967247938606C044
:101CD0008E0718232A07758F83C651859E0693F6B3
:101CE0000638558F83C6818093F6F607558FE176C7
:101CF000558F7AA603C71185C2461946BA9786073B
:101D0000B697C166FD166369E6AA8E236394D50073
:101D10002390070005071377F70F8907EDB7938620
:101D200007FD93F6F60F5D461820636FD600930704
:101D3000C7FE93F7F70F7947E36EF7F68247BDDBEF
:101D400005472384E1809DB7938787FA93F7F70FC0
:101D5000DD461820E3E0F6F69307C7FE93F7F70F8A
:101D60007947E369F7F48247B1D70947D9BF93842C
:101D70008180639FF60A9C20C5EF3746000013065A
:101D800006B0F9452945EFE01F83374600001306EA
:101D9000C6AFF94513056004EFE0FF81B2475D4728
:101DA0009C239387E7FB93F7F70F6367F7A01C204B
:101DB0007947B11793F7F70F6360F7A0E9466146DB
:101DC000D94513052004EFE04FE48247E38507E49B
:101DD00083C7218542478966139647003A96724722
:101DE000938606C08E0718232A07758F83C65185F0
:101DF0009E0693F60638558F942093F6F607558F76
:101E0000E176558F7AA603C71185C2461946BA975F
:101E10008607B697C166FD16E361E6E28E236394FA
:101E2000D5002390070005071377F70F8907EDB753
:101E300037460000130686B0F9452945EFE0AFF7B5
:101E40009C2093054006231701063E853ED0EFE017
:101E5000EFA68257130505032306A106A9453E8573
:101E6000EFE0CFA5A9451375F50FEFE0EFA7825777
:101E700013050503A306A106A9453E85EFE0CFA6FD
:101E8000130505032307A106F010F9457945E5BDC3
:101E9000A24722578C2392478023B2479C23639901
:101EA000E70ABD4763F6B70A938705FFC19BC107E1
:101EB00093F7F70F1307000393F4F70F6374F7001A
:101EC00093040003C1464146A6851375040FEFE055
:101ED000CFD3824795C31180A388818493873185AE
:101EE0009C23C11452479184BE94238991848547D1
:101EF0001CA32388F18402C0F257014501448C23BE
:101F0000EFE0AFC2EFE04FA413058007EFE02FA989
:101F100013050004EFE0AFA88647A29788230504C5
:101F2000EFE0EFA793070008E318F4FEEFE0EFA45B
:101F3000F25772579C23850793F7F70F1CA31D4791
:101F40006364F7006FE0DFFA1301C1076FE0EF95FC
:101F50002285EFE06FF64DB71147E39FE7F837466C
:101F60000000130686AC8D451545EFE0CFE43746FB
:101F700000001306C6B08D4513053002EFE0AFE355
:101F8000A2479823A94763E1E70292476D479C2344
:101F9000636FF718A5465D4689451145EFE0EFC62A
:101FA00082476393071802C0938781A513870701AF
:101FB000938707113ECEBD473ECAC167FD173AC69B
:101FC00002C801443ED0B2478545938407FF83D2BF
:101FD00004008257638EF21213D6D2001307E6FF75
:101FE0001377F70F894763E5E71203C7D184636E60
:101FF000E410C2461547636AD71093D6A2409D8A63
:1020000013F7F2076317F61463930518B747000038
:10201000938707A9A9452285BAC236DC32DA3ED4B5
:1020200016D2EFE0AF89130505032306A106A945E3
:102030002285EFE06F8BA25789659385A50323174F
:10204000B106838527009E23E25692522318F1069B
:1020500093070002A309F106B7470000938747AF33
:10206000B6979C23525613050503230AF10693D70E
:1020700072409D8B93870703A30AF106A306A1066E
:102080002309B106914716476312F612894763FF89
:10209000D7106394C600630B07109567938707B248
:1020A000930540063A85231BF1063AD2EFE00F81F3
:1020B000125713050503230CA106A9453A85EFD055
:1020C000FFFFA9451375F50FEFE00F8212571305B7
:1020D0000503A30CA106A9453A85EFE0EF8013059F
:1020E0000503230DA106A30D0106D245F0101545E9
:1020F000EFE06FCCD2478145A10793F7F70F3ECAB7
:10210000C247850793F7F70F3EC805041374F40F11
:10211000B2478904E39DF4EA7247938704013EC6FF
:10212000E393E7EA6FE05FE923000400ADBD130726
:102130009003E36BF7E6A5465D468945130520024B
:10214000EFE0AFAC8247E38007E632478D471CA340
:1021500099BD0D456318A600A1E1B747000093871C
:1021600047A84DBD63ECD7008545630CB702630BF0
:10217000F700B7470000938787A869BD9147E39AA6
:10218000F6FE65FBB7470000938787A961B5B7479F
:102190000000938747A9BDBDB74700009387C7A834
:1021A00095BDB74700009387C7A9ADB5230B0106BE
:1021B0002DBF82576382E7FAD2476383D7C6D247DF
:1021C000639087C66FF04FF90145828082807D550C
:1021D0008280EFD2FFEC1C417111CC81DC4393056E
:1021E00031000546829711016FD03FECEFD25FEBD3
:1021F0007111930531004105EF10001309E5888145
:1022000011016FD09FEA7D55E5BFEFD27FE92E85A2
:10221000B285EF10C0006FD05FE913F7F50FC54727
:1022200063EDE7009167938707C20A073E9793F72C
:1022300005700C43CD8F5CD5828093F6050C130698
:10224000000CFD57E399C6FE9306700CE3E5E6FE2D
:1022500093F7F5031167130707C08A07BA979C43E2
:102260001167130707C28A07BA9793F505709C4355
:10227000D1B713F7F50FC54763EDE7009167938773
:1022800007C20A073E9793F705700C43CD8F1CD504
:10229000828093F6050C1306000CFD57E399C6FEE9
:1022A0009306700CE3E5E6FE93F7F5031167130759
:1022B00007C08A07BA979C431167130707C28A07AA
:1022C000BA9793F505709C43D1B7EFD27FDD9307A2
:1022D000803E1CC59167938707C71CC10CC9232288
:1022E00005009305600C2A840D3F9305500C228550
:1022F000493758541C546314F700FD575CD4FD57FC
:102300001CD85CD86FD07FDAEFD29FD9B745014097
:1023100093850580138581BD4D3F6FD01FD9EFD2C6
:102320003FD81C452A8481CB0D46AA858297232459
:1023300004002326040022856FD03FD71C4581CBA3
:10234000EFD21FD6AA850D4682976FD01FD6828006
:10235000B7370140938707C06308F500B70700400F
:102360006316F500054582800145828041657D1533
:102370008280EFD2FFD22A84084DD93FAA84130568
:102380008401EF0030488A04138581852695232A2D
:1023900004009304440823200500130444036386C7
:1023A0008400C1142685593FDDBF6FD01FD0EFD206
:1023B0003FCF71112A84C1642E852EC0FD14493F80
:1023C00082456313950001A01C4C91C301A0931793
:1023D0002500138581853E95930744011CC1930711
:1023E00000085CD4930700041CD80CCC13058401AE
:1023F00040C8232E04002320040223120402EF000D
:10240000103D13054403213F13054404093F130500
:1024100044053137130544061937130544070137BE
:10242000084C232004002322040023240400232634
:10243000040023280400232E040004D08545EF0067
:10244000A06C084C9305C401EF00206711016FD008
:10245000DFC5EFD2FFC4232E050223260504232E59
:10246000050423260506232E0506232C05008137A7
:10247000B7E700E0214723A2E7101307000223A2D9
:10248000E7101307000423A2E7106FD01FC2EFD29A
:102490003FC1184519E3EF1020155C4582976FD0B6
:1024A000DFC011E101A0EFD2BFBF2A8408418545FA
:1024B0008D2D0DC11C40DE27858B89CF2285EF0035
:1024C000D03008415C5D81C713054503C93708401A
:1024D0008545A5256FD07FBD03A5818519C111054F
:1024E000C9377300203011E101A01C41DA27098BA4
:1024F00011EBDA27118B19E7DA27218B01E7DA27AD
:10250000418B3DC7EFD2DFB92A8489453E85112D25
:102510001C4015C189453E850D2585442285EF0067
:10252000D02A084192049384440326951C4591C304
:10253000B93F6FD09FB73E859145E5231C4011C53B
:1025400091453E85DD2B8944D1BF3E85A145D12BE8
:102550001C4011C5A1453E85CD238D44C1B7C14561
:102560003E85C12345DD0840C1459144F9237DB72F
:10257000828003A5818519C11105B537730020300C
:10258000711122C013848185484001C91105EFF003
:102590005FF148401105EFF01FF50244110173008F
:1025A0002030EFD2FFAF2A84EF00507E48C41C4099
:1025B0002285DC4B8297635A0500EF00307D5C4436
:1025C0001D8D1C44E365F5FE7D556FD01FAEEFD227
:1025D0003FAD6111AA8401442EC232C0630DC40014
:1025E0002685C1376349050092450246B3878500B9
:1025F00088A30504D5B7228521016FD01FABEFD288
:102600003FAA5111014495C6B684AA8701443E856C
:1026100032C42EC23EC07137634D05009245630A35
:10262000B500224682473307860008A30504E390DD
:1026300084FE228531016FD05FA7EFD27FA6352AB5
:102640006FD0BFA6EFD2DFA585476301F50219C59C
:1026500089476303F50201456FD03FA511458545C4
:1026600039293715014013050580FDB741458545DA
:10267000392137150140CDB71305000285450121E9
:102680003715014013050540C1BFEFD27FA1916608
:102690005111938506B12AC0EF009004EFF05FCB93
:1026A0001317250093848185BA948C401384818507
:1026B00002468DE59166938506B132853AC4EF00F6
:1026C00030022AC213054008EF00306F92452AC03D
:1026D000EFF03FD89C408246224794C3B307E40002
:1026E0009C43804309C82285EFF0BFC8930540088A
:1026F0002285EF00D06E31016FD03F9B03A501868C
:1027000083A5418682808280EFD29F99C53F6FD09A
:10271000DF999387018603A3070083A3470013076C
:1027200013003335670098C3B3067500D4C3EFF0C8
:102730009FFDB7F700E023A2070073002030EFD21F
:102740003F9637F400E023220400232004002324D2
:10275000040003A501819305803EEFD03F967D15CF
:1027600008C8BD471CC07D57B7E700E02386E74097
:10277000056723A0E7106FD05F93EFD27F92EFF051
:102780001FFC6FD09F92814705476307E5008507CF
:10279000058193F7F70FD5BF370700208E07130782
:1027A000C700BA97DC4391C7EFD29F8F82976FD053
:1027B000DF8F8280611122C226C00544A144228598
:1027C000A12001C922858520131504014181EFF064
:1027D0009FFBFD140604E5F41244824421017300BA
:1027E00020301387C1801C439386C1CB3E9563691B
:1027F000D500938601D463E5A60008C33E85828098
:10280000FD57EDBF82808280B707014013870740E4
:1028100083A70740584B698F09C77D8D3335A000CA
:10282000828001458280B707014023AAA7408280A9
:102830009C45611122C226C013F7070113F3F7006C
:1028400001C7D8413363E30092211377F60F29C7FC
:102850008323050001471304800293048004854606
:10286000B395E600B376B6006392D50293122700C3
:10287000BD46B396560093C6F6FFB3F37600B31287
:102880005300B3E37200639787064CC90507A1465E
:10289000E317D7FC232075001307F00F6378C704F4
:1028A00083234500A1461304800293048004054756
:1028B000B312D700337756006394E20213972600D1
:1028C0000117BD45B395E50093C5F5FFB3F375005A
:1028D0003317E300B363770063928702232A55001E
:1028E00085064147E395E6FC2322750012448244A5
:1028F00021018280E39C97F80CC949BFE39297FEBF
:1029000023285500F1BF08456D8D3335A000828026
:102910000CC982804CC982803703014003274300E1
:102920009317350063D00702B707C0FFF517F98F7B
:1029300037070007D98FD9CD370700F07D17798D7C
:10294000C98F49A8635D0500B707E0FFED17F98F50
:1029500037070007D98FBDCD06050581D5B7B70765
:102960003000931605013376F500C1826313F60239
:10297000370600F97D16B377C70003274300798E29
:102980002322C300A1C95581131745003395E600E2
:1029900045BF9317B50063D407029357050113F69B
:1029A000F7008D47B397C70093C7F7FFF98F370735
:1029B0000007D98F85C1135755011207C1BF558133
:1029C00012053395A6009347F5FFF98F37070007E7
:1029D000D98FBDF5370701405CC38280730020307A
:1029E00001A0EFD2EFEB371702405C4391462A84F7
:1029F000B18B6385D700A146638DD706B7376E01CB
:102A0000938707601CC0B7160240DC42918313F71E
:102A1000F700B707002093870706BA978C23DC429C
:102A2000184093F5F50F93F707083355B70081E782
:102A30003A85EFD0AFE848C008C448C4B717024091
:102A4000DC43AD83FD8B13D737008A07F18BD98F19
:102A500093F637010D476373D700D117370700206E
:102A60001307C704BA978C23EFD04FE508C86FD07F
:102A7000CFE35C43B777DC02938707C061B799C5A2
:102A8000371702401C4F5D8D08CF8280B717024078
:102A9000984F1345F5FF798D88CF828099C53717F8
:102AA00002405C4F5D8D48CF8280B7170240D84FFF
:102AB0001345F5FF798DC8CF82801E21373701403D
:102AC000130707C0C207C1836306E500370700404C
:102AD0006316E500BA2193F7F7F8D98FFA2193F737
:102AE000F7CFC207C183D98F1EA1DE215EB59E211B
:102AF0001EB5B7370140938707C06314F5009C25C6
:102B00001EB985475EA982801E2189C593E7070803
:102B10001EA18280C207C18393F7F7F7C207C18362
:102B2000C5BF1E294A25ED8F4205418189C76D8D9C
:102B30003335A00082800145828093C5F5FFC20530
:102B4000C1810EA98280EFD2AFD51629F577FD1786
:102B5000F58FF621DA252111D58F1EA95625FD778F
:102B60009387379FF58FD6212A842EC0D58F96253F
:102B7000D58FB625D58F5EA55E29C207C18393F791
:102B8000F7CF5D8F5AA94800EFF0BFE5B747014086
:102B90009387078082456312F406C2475A2413952F
:102BA00017003E9542070E0541873E958C416358BC
:102BB00007048605EFD08FD0930540062AC0EFD0DA
:102BC000EFCF824793144500930540063E85EFD032
:102BD000AFD15E24C207C18763D507020E059305F6
:102BE000400613052503EFD06FCD1D89C98CC204A3
:102BF000C18006A461016FD04FCBB24745B78A05AB
:102C000055BF12059305400613052503EFD00FCBE2
:102C10003D89E9BF91C55E250967D98F5EA5828090
:102C20005A25F977FD17F98FD5BF93F5F51F4EA1FA
:102C300082804A211375F51F82805E2989C593E73A
:102C400087005EA98280C207C183DD9BC207C18362
:102C5000CDBF0A216D8D3335A0008280B7170240A9
:102C60009843B706FFFC1367170098C3D843758FC6
:102C7000D8C39843B706F7FEFD16758F98C39843DF
:102C8000B706FCFFFD16758F98C3D44341777D17B7
:102C9000F98ED4C3B7069F0094C7B726024090426E
:102CA000719A90C290421366160090C2D443D4C366
:102CB000D443758FD8C3D843B7060001D8C398430F
:102CC000558F98C3984393166700E3DD06FED843FB
:102CD000B7160240719BD8C3D84313672700D8C3E7
:102CE0002147DC42B18BE39EE7FE8280FD577D5792
:102CF0006317F500014582806387A700B1059C41F9
:102D0000E39CE7FEC5BF05458280EFD26FB9311164
:102D100002C402C602C8FD576313F50001A093D791
:102D2000854093F4F7079377F50013972700916791
:102D3000938707D0BA979C4311813D892E843EC06A
:102D4000EFF05F902AC28DC485450545EFF03FD373
:102D50009387F4FF6947636DF70011678A071307CC
:102D600047C9BA979C43828785450545EFF0DFBA8E
:102D700093572440137734008D8B7DC73AC609479B
:102D80006380E70E0D47638FE70C05476388E70C08
:102D9000C1473EC8EDA08145C9BF85453705001034
:102DA0000905E9B7854537054010DDBF8145E5BF19
:102DB000854537050080110555BF854537052080BD
:102DC00075B7854537052080FDB78145E5BF3705D7
:102DD000160085451305050451BF854537051600C6
:102DE0001305050861B78545370516001305050C61
:102DF000B5BF8145D5BF37051800854513050510BA
:102E0000B5B73705180085451305052085B78545F5
:102E1000370518001305053091BF8145D5BF85459D
:102E20002165A9B78145EDBF8545370520008DBFD8
:102E30008145E5BF854537052000B5BF8145E5BF24
:102E400085453705200069BF8145E5BF85453705C4
:102E500030001305054019BF8145D5BFD14715BFC7
:102E6000E14705BFF14735B705476383E70299C7D7
:102E700089466381D7029307800221BF02C8824737
:102E800012452C007C84EFF0BF9A51016FD0EFA166
:102E9000914701B711840D8893078004E31DE4FC7A
:102EA000CDBDFD577D57631DF50082806399A70056
:102EB000EFD20F9F8C45EFF05FE56FD00F9FB1050C
:102EC0009C41E395E7FE01A07D579C416394E70098
:102ED000014582806394A700C8418280B105F5B79F
:102EE000FD576308F500EFD2AF9BEFF0FFFD6FD009
:102EF000CF9B014582806305B50019C181E5AA8594
:102F00002E8582808145EDBF01A001A001A001A016
:102F100001A001A001A001A001A001A001A001A0A9
:102F200001A001A001A001A001A001A001A001A099
:102F300001A001A001A001A001A001A001A097E1B2
:102F4000FF1F9381219C138101F0171500001305C9
:102F500065E597D5FF1F9385E50A1386818263FA9D
:102F6000C5008322050023A0550011059105E3EA61
:102F7000C5FE138581829385C1CB6377B50023207D
:102F800005001105E36DB5FE930200087390023051
:102F90008D427390428097D2FFFF9382A20693E204
:102FA0003200739052301705000013050566EF00DC
:102FB000E064EF00E068EFF07FCA970200009382C0
:102FC000623A739012347300203071158280EFD210
:102FD0002F8D1841B7370140938707C02A846318A3
:102FE000F7000565854513050580EFF05FA91840DA
:102FF000B70700406316F70085450545EFF01FAAA7
:103000006FD0AF8AEFD2CF891841B737014093878D
:1030100007C02A846318F7000565814513050580FC
:10302000EFF0FFA51840B70700406316F700814591
:103030000545EFF0BFA66FD04F87EFD26F86130123
:10304000C1FDAA84084D32C611662EC4930586BE02
:103050003ACA36C8EFF0DFE82AD0C84C91669385AB
:1030600006BDEFF0FFE72A8488509165938585BB04
:10307000EFF01FE72AC0C8509165938505BAEFF0BD
:103080003FE60257116691662AC232CC36CE630BF8
:10309000070ED04CFD566304D6006305040E905015
:1030A000FD566305D6008247638E070CD050FD564F
:1030B0006305D60092476387070C3A85A285EFF037
:1030C0009FE3824588C0EFF01FE3924588C0EFF090
:1030D0009FE288C045C93747014013070780631B3B
:1030E000E50085451165EFF09F99130700022386DF
:1030F000040298D4E247884C938587BEEFF07FDACC
:1031000019C4F247C84C938507BDEFF09FD9824799
:10311000814689CB88509165938585BBEFF07FD838
:1031200093060010924799CBC850916593E606200C
:10313000938505BA36C0EFF0DFD68246A24703C7B3
:10314000C40288409CC4B24713162700DEA4D247AD
:10315000138781863297FEA4C2471386440010C3AA
:103160003147C8C09EA8BAA8D6A801E48545EFF0AB
:10317000DFACC84093858400EFF0FF9CC8408545D4
:10318000EFF05FA9130141026FC03FF2EFC25FF1A0
:10319000916783A747C11167130707C28A07BA97C8
:1031A00080439165938585BE2285EFF07FD305C16D
:1031B00037050020F1659307050701478146014661
:1031C000938505201305050780CFEFF01FE76FC03B
:1031D000DFEDEFC2FFEC8347C502930500021397B2
:1031E000270093878186BA979C438843EFF07FA698
:1031F000133515006FC07FEBEFC29FEA8347C5020E
:10320000930500041397270093878186BA979C4300
:103210008843EFF01FA4133515006FC01FE9EFC2FC
:103220003FE8411137040020AA842EC2EFF00FCDF1
:103230009307040783C7C7022AC41304040785E75A
:103240000347C402938781860A07BA979C43F11704
:103250003EC0938781863EC68247C1EF02C21245B7
:1032600041016FC09FE4916783A747C111671307AE
:1032700007C28A07BA979C439166938586BE3E85AE
:103280003EC0EFF0FFC5916671D923060402138793
:1032900081861C4399EF8347C402850793F7F70F94
:1032A0002306F402FDD7EFF07FEE8347C402C9DBAB
:1032B00075B70245938586BEEFF09FC20346C402F0
:1032C0001387818693172600BA979C4391669C4387
:1032D000E393A7FC35D6C1BFEFF04FC2A247B307B7
:1032E000F5403335F500E39BA5F61307703EE36721
:1032F000F7F60245EFF05FF065F19247A6973EC4FE
:10330000A247E38EF4F40245EFF01FEF6DFD834713
:10331000C402324785048A07BA979C4383C5F4FFE9
:103320008843EFF09F90E9BF11E57D5582807D5580
:103330006FC0BFD7EFC2DFD6AA842E84EFF07FE93B
:103340007DF583C7C4021397270093878186BA97B8
:103350009C438843EFF0FF8D08A00145D1BF8280D8
:10336000EFC21FD4EFF06FADEFD0EFECEFD03F81A5
:10337000F5BF9377F50F45476366F70811678A072E
:10338000130707C23E97184393770570D98F7D576F
:103390006389E70CEFC2DFD013D42700138701C283
:1033A0001374C4032297184393F4F7005111335751
:1033B0009700938601C22EC0058B36C205CB91655E
:1033C0003E85938505B13EC4EFF05F92A24709C5E3
:1033D0003E85EFF08FABA24712473A940547B314EE
:1033E0009700184093C4F4FFF98C04C08246154737
:1033F0006368D7061167130707D293952600BA951D
:10340000984102871377050C9306000C631BD704C1
:103410001307700C6367F7049377F50311671307BD
:1034200007C08A07BA979C431167130707C28A0728
:10343000BA979C4313750570C98F91BF91453E851E
:10344000EFF0BF8C31016FC05FC68D45CDBFE14548
:10345000FDB793058002E5B78145D5B79D45C5B752
:1034600001A08280EFC2DFC31377F50FC547AE8698
:1034700063E6E7049167938707C20A073E971843FC
:1034800013750570B367E50013D747003D8B0946F8
:1034900001456369E600370600200A0713060600A7
:1034A000329708438545BD8BB397F5009395070187
:1034B000C181B1C2EFF0CFC56FC03FBF1376050C1D
:1034C0009305000CFD57E311B6FC1306700CE36D79
:1034D000E6FA9377F5031167130707C08A07BA97CF
:1034E0009C431167130707C28A07BA979C43137559
:1034F0000570C98F51BFEFF0EFC17DBFEFC25FBA5A
:103500009377F50F45476366F70411678A0713073A
:1035100007C2BA979C4313750570B365F50093D73E
:103520004500BD8B094701456369F7003707002057
:103530008A0713070700BA9788438547BD89B39563
:10354000B700C205C181EFF00FBC3335A0006FC0DA
:10355000DFB51377050C9306000CFD55E311D7FC7E
:103560001307700CE36DF7FA9377F50311671307F0
:1035700007C08A07BA979C431167130707C28A07D7
:10358000BA978C4313750570C98D51BFEFC25FB1F7
:10359000EFF08F976FC07FB105C1EFC27FB02A8473
:1035A000EFF08F96AA84EFF09FDBEFF0EF95058D9B
:1035B000E36B85FE6FC07FAF8280511122C206C4CB
:1035C0002A8411E105442285FD2011E5112811E12D
:1035D00005200295CDBFA24012443101828001A88E
:1035E0009387C18688438280511106C41120C9A8DF
:1035F0005111194506C4E12C05456D2EAA85814659
:103600000146014509A65111970700009387877964
:1036100022C2170400001304E4781D8C26C006C4DF
:103620000984BE8419E41244A240824431016FF03F
:103630006F9D7D1493172400A6979C438297DDB756
:10364000511122C2970700009387477517040000A5
:103650001304C4741D8C26C006C409848144639677
:103660008402EFF04F9A970700009387277317049F
:103670000000130424731D8C098481446392840226
:10368000A2401244824431018280139724003E9765
:103690001843850402979707000093872770C1B7E6
:1036A000139724003E97184385040297970700005C
:1036B0009387C76EE1B793874181AA85884345A860
:1036C00093874181AA85884309A0CDC183A7C5FFFF
:1036D000511122C206C426C01384C5FF63D307005C
:1036E0003E94AA84552C938701879C4399EB23220F
:1036F000040023A881861244A24026858244310119
:1037000069AC637EF40014403307D4006396E7008D
:103710009843DC43369718C05CC0E1BFBA87D843F2
:1037200019C3E37DE4FE94433386D700631F86000C
:103730001040B29694C33386D700E31EC7FA1043F5
:103740005843B29694C3D8C37DB76375C400B147DC
:103750009CC055B71040B306C4006316D70014438D
:103760005843B29614C058C0C0C371B7828041118B
:1037700026C293843500F19806C622C4A104B1473D
:1037800063F5F404B14463E4B4042AC0312413871C
:10379000018714438247368439E0138741871843F1
:1037A00001EB3E8581453EC0692823AAA186824758
:1037B0003E85A6853EC071207D5782476314E5068D
:1037C000314798C33E85D12A29A0E3DE04FAB147E8
:1037D0001CC10145B24022449244410182801840FC
:1037E000058F634E07022D466376E60018C03A94B3
:1037F00004C031A058406392860223A8E1863E852A
:10380000692A1305B400130744006199B307E54022
:10381000F1D33E94098F18C075BFD8C2CDB7A28628
:1038200040409DBF130435007198E30385FCB30548
:10383000A4403E853EC031207D578247E31AE5FA19
:1038400041B7511122C22A842E8523AC01CA06C475
:10385000EFE03FF9FD576317F500938781CB9C4359
:1038600091C31CC0A240124431018280FD4763F61F
:10387000B700D9471CC17D5582807C41411122C4CB
:1038800006C62E862A8491C713972500BA979843B7
:1038900019EB228532C0BD20AA852285224402462A
:1038A000B24041011DA8854601456308D700FD5679
:1038B0006319D700D9471CC00545B24022444101D5
:1038C00082802E8523A0070002970145FDB79387CC
:1038D0004181AA8588436FF07FF9511122C22A8461
:1038E0002E85B28523AC01CA06C47D28FD57631717
:1038F000F500938781CB9C4391C31CC0A240124426
:103900003101828061A8938781879C43AA8399EFC4
:103910001387C1C223ACE18617C5FFFF1305856E6F
:10392000BA8709C51C4123AAF1CABA87D8437D4387
:103930007D556346E304638D030203A38708630098
:103940000304931227009A9223A0C20003250310B8
:1039500005463316E600518D2320A31023A0D2087C
:1039600089466397D30083264310558E2322C310C4
:10397000930617000A07D4C3BA978CC70145828003
:1039800097C7FFFF9387076899C7170500001305BE
:10399000C5C76FF0BFC68280828082809307800592
:1039A00023ACF1CA7D5582809307800523ACF1CA10
:1039B0007D55828001A000004C41544348202020C6
:1039C0000000000054494D45522020200000000016
:1039D000434F554E5420202000000000424C494ED9
:1039E0004B20202000000000535445502020202070
:1039F0000000000010101010101010101010101007
:103A000010101010FF1010101010101010101010C7
:103A10001010101010101010107C000000007C100E
:103A20001010101010101010107C201008047C10C2
:103A30001010101010101038440000000000004456
:103A4000381010101010101010101010101010104E
:103A5000181C1E10107838181010101010101010AC
:103A600010101010003E0808083E00000000000082
:103A70000000000053415645000000004C4F4144F7
:103A800000000000414E49004F5554004C4449008D
:103A9000414E44004C4420005253540053455400BE
:103AA00053595300505247004D4F4E0048414E4429
:103AB0005920504C4320434F524500005245414449
:103AC000592E2E2E0000000045534300534156004E
:103AD0004C4F4400504C432056302E3236000000EC
:103AE00052554E00535450004D4E4D0044454C002D
:103AF0005458540058594D54430000004F4B000097
:103B000052535420430000004B3A00004C41440003
:103B100024000000000000400B9100002300000082
:103B2000000000400B1101001000000000000040E8
:103B30000B91010027000000000000400B11020063
:103B400022000000002C01400B8D0000010000004D
:103B5000002C01400B0D010013000000002C01405F
:103B60000B8D010014000000002C01400B0D020021
:103B700020000000002C01400B8D0000020000001E
:103B8000002C01400B0D010021000000002C014021
:103B90000B8D0100FFFFFFFF000000000000000090
:103BA000230000000038014018000000FFFFFFFF65
:103BB000000000000000000012000000003801407A
:103BC0000B000000FFFFFFFF0000000000000000EE
:103BD000260000000038014018000000FFFFFFFF32
:103BE0000000000000000000250000000038014037
:103BF0000B000000FFFFFFFF0000000000000000BE
:103C00000100000000000000060000000C000000A1
:103C10000D0000000F000000100000000E0000006A
:103C20000100000002000000100000001100000070
:103C30001200000013000000140000001500000036
:103C40001600000017000000200000002100000006
:103C500022000000230000002400000025000000D6
:103C60002600000027000000000000000000000007
:103C7000D22100000A220000C8210000CC2100004F
:103C8000CE210000EC210000CE210000CE25000056
:103C9000FE250000682D0000962D00009A2D0000E2
:103CA000A42D0000AC2D0000B02D0000BA2D0000A6
:103CB000C22D0000CA2D0000CE2D0000DA2D00001C
:103CC000E62D0000F22D0000F62D0000022E00006F
:103CD0000E2E00001A2E00001E2E0000242E0000C2
:103CE000282E0000302E0000342E00003C2E000054
:103CF000402E0000482E00004C2E0000582E0000E0
:103D000001000000020000000400000008000000A4
:103D100010000000200000004000000080000000B3
:103D20003C3400004A3400004E340000523400009D
:103D3000583400005C340000000000000000000067
:103D40000000000000000000000000000000000073
:103D50000000000000000000000000000000000063
:103D60000000000000000000000000000000000053
:103D70000000000000000000000000000000000043
:103D80000000000000000000000000000000000033
:083D900000000000000000002B
:083D980080390000082300003F
:103DA0000008014000100140001401401400000010
:103DB00000000000140000000000000014000000DB
:103DC00000000000140000000000000014000000CB
:103DD00000000000140000000000000014000000BB
:103DE00000000000140000000000000002040608AB
:103DF00004080C100810182010203040204060806B
:103E0000010203040506070801020304050607086A
:103E100000000000000000000000000000000000A2
:103E20000000000000000000FFFFFFFFFFFFFFFF9A
:103E3000FFFFFFFFFFFFFFFF000000000100000089
:103E400000000000583D0000783D0000383D0000B3
:103E50000000000000000000000000000000000062
:103E60000000000000000000000000000000000052
:103E70000000000000000000000000000000000042
:103E80000000000000000000000000000000000032
:103E90000000000000000000000000000000000022
:103EA00001000002000240200A000000BC050020C2
:103EB000006CDC02A000002081423C3C3C3C428182
:083EC00000003C42423C0000FE
:00000001FF
