:100000006F005025000000004A0100004C01000074
:1000100000000000000000000000000000000000E0
:1000200000000000000000000000000000000000D0
:10003000520A000000000000520A00000000000008
:10004000520A0000520A0000520A0000520A000040
:10005000520A0000520A0000520A0000520A000030
:10006000520A0000520A0000520A0000520A000020
:10007000520A0000520A0000520A0000520A000010
:10008000520A0000520A0000520A0000520A000000
:10009000520A0000520A0000520A0000000000004C
:1000A000511126C022C206C4828282441244A24058
:1000B000310182802A86014593F6150091C232955E
:1000C00085810606F5F9828000000000634E050276
:1000D00063C305042E86AA857D5515C285466378BF
:1000E000B6006356C00006068606E36CB6FE014500
:1000F00063E4C500918D558D85820582F5FA828075
:100100008682C93F2E8582823305A04063D70500D1
:10011000B305B040C1B7B305B0408682653F330533
:10012000A0408282868263C70500634905005D376F
:100130002E858282B305B040E35B05FE3305A04007
:10014000513F3305B0408282000001A0B707EFBEE7
:1001500037E700E0938707083CC701A0EFF25FF4A0
:10016000131425002A947111AE870604814463C4D8
:10017000F40011011DBF3715014013F61400894525
:10018000130505803EC0EF0070342285EF00905CBF
:1001900085048247E9BFEFF2BFF02A84AE84375767
:1001A0000040130507401E2D898BE5FF8545EF00B4
:1001B0003042B7070300850737570040BE85130557
:1001C0000740EF009045B707030037570040850709
:1001D00065D501469305800713050740EF00D0421F
:1001E000B70707009387270837570040BE851305D8
:1001F0000740EF009042B70707003757004093874A
:1002000027087DD1A2851305074037040700EF00BA
:10021000703F13044408B757004013850740A28578
:10022000EF00B03FB75700407DD5A6851385074046
:1002300037040700EF00103D13044408B754004092
:10024000A28513850440EF00503D6DD98545138587
:100250000440EF00903991BDEFF29FE41301C1FC1F
:100260001305007DEF00B052854513055023EF00C4
:100270007047854537052000EF00B048B7060140BC
:10028000DC4261777D17F98FDCC299477C800D4491
:10029000F1478A85371501403EC422C2231101006F
:1002A000EF00701AC1478A85371501407C8002C46F
:1002B000EF00701922C2371401408944C1478A8572
:1002C0001305048064803EC4EF00F0179307800498
:1002D0008A851305044064803EC4EF00D016B7271A
:1002E0000600938707A83EC6F17702C8375400403E
:1002F000FD1702CAFC816C009307004013050440FF
:10030000FC8302CCEF00301D130504408545EF004F
:10031000B02A856561469385450F6808EF00505007
:10032000372401406C0813050440EF00A07D13053D
:1003300004408545EF00F0019D46054689451305BB
:100340000440EF0090031301410385B3EFF25FD542
:10035000111113054006EF009043856565469385AE
:10036000C5100A85EF00D04B0144B30781008C23F0
:10037000014505040D35E547E319F4FE1304000BB0
:10038000A2850145093D814501453135C1450145FC
:10039000193593044008814513050004FD14E53B1D
:1003A000FDF805041374F40F9307800BE31AF4FCB3
:1003B0007101E5B9EFF2DFCE21113754004002C0E0
:1003C000130404401C800145938507FB93F5F50F4A
:1003D0003EC2D133854501457D3BC1450145653B65
:1003E00085452285EF00D01EB707030093841700D0
:1003F000A6852285EF00702265DD01469305800702
:100400002285EF007020B707070093842708A68590
:100410002285EF00902065DD930500042285EF0022
:10042000701E824781449207C1173EC882478E07DB
:10043000C207C1833EC6824713F6F40F639E0710BE
:100440009306E6FF93F6F60FAD4563EBD502938670
:10045000E4FF93F536000D456384A502898689473C
:100460006383F600014593171500B386A7008567DF
:1004700093870713B697AE979C23860793F7F70FDA
:100480009306E6FE93F6F60FFD4563E1D506138667
:10049000E4FE937536008D466380D5020986931677
:1004A00016003696856693868618B296AE96942286
:1004B0008606D58F93F7F70F562893F60608EDDEDC
:1004C000BE852285EF001014850493070008E3948D
:1004D000F4F685452285EF005011824785073EC01E
:1004E0000247A147E310F7EE6101C1B69306D006BB
:1004F000E3F4C6FC930626F993F6F60FAD45E3ED5B
:10050000D5FA13F736003AC48D45E307B7FA03D599
:10051000418163E8D5023ECA93054006653E420527
:10052000A9454181F13E4205418193161500AA96E5
:10053000224705651305051336953A95D2471421D0
:1005400085BF1306E6F81376F60F3ECA63E4C500CE
:10055000A945E9B7A945F9B703A30181854763E038
:1005600067101247914763ECE70E9306F007814747
:100570006388D402937676009D456383B6023ECAB3
:10058000C24703A5818083A5C1800D823E961AC40F
:10059000EF00902305892243D24719C19307F00742
:1005A0003706002003162603B7060020839646036D
:1005B00063C8C40209066345960232477956998E8C
:1005C000C206C18663CEC6001D46634BD600634893
:1005D000D00AB306D040B356D640DD8E93F7F60F5F
:1005E00012479546E31AD7EC6300030A8946630273
:1005F000D30A8D46E312D3EC856595469385851223
:1006000013060002158E0606E3C8C4EA8A06B296EF
:10061000E3D4D4EAB70600803386C4408D06F18E59
:1006200063D60600FD1693E6C6FF850613F5F60FA2
:100630000943E363A3E89357F6418D8B3E96098601
:100640001376F60F2E961022931716003E968567A6
:1006500093870715B297BE969C228A07A1BD1247C1
:100660009D468147E31ED7F2B706002083962600F9
:10067000E3C8D4F2BD06E3C596F28D4715B7B316AD
:10068000D600E206E18691BF8565954693850518FB
:1006900085BF8565A546938545179DB77D56FD5653
:1006A00023A4C18023A6D180239A0180B70700200C
:1006B00023880702B7070020A38807021307500307
:1006C000B7070020239AE7028280EFF27F9D211175
:1006D0004524EF00F00449369539C93793052003C6
:1006E00013054006A53CB7270140938707403EC449
:1006F00022458545BD212245894589236DDD224559
:10070000152B37070020130707001623AA84939799
:100710001600B697AA978987C207C1831EA393873D
:1007200017EE3E85C207C1871307201C6354F700EC
:100730001305201C9317050163D3070001454205EB
:100740004185931735003385A7409305201C12057A
:10075000B53A938601819C423704002013860181BB
:100760002311A400054732C2130424006396E7183E
:10077000B7050020B70600201387250393860603DC
:100780001E23038606003705002013034503B29796
:10079000C207C183B70400201EA38352030003874E
:1007A000140393852503FD171697C2072EC69305DC
:1007B00045032310E300C1831307B0072EC09384C1
:1007C00014036379F700B307C0409305C0033D45A8
:1007D0009CA26932824703970700A14763CAE700DA
:1007E0009C209305C0033D45B307F0409CA0BD325B
:1007F000824711479E239387B7FCC207C183636971
:10080000F702B247039707008317040093063700E7
:1008100063C0F602BD0763CDE7000247FD579CA009
:100820009305600993075003130530021EA33D3260
:100830008247FD468397070013848180138787FFD3
:100840004207418363E8E60632478D87FD1783162A
:100850000700920713D7F6411D8B36970D87BA977D
:1008600018403E863ECA3AC658403245BA853AC814
:10087000EF0080750589D24725C13E860545814533
:10088000EF004077B2471345F5FF93C5F5FF7D8D27
:10089000C24708C02945FD8D9C204CC0930580258A
:1008A000B307F0409CA0938741819A2329079AA31C
:1008B000EFF0DF8A8247039707009307000463DDA8
:1008C000E70012478947930540061CC31305400BF8
:1008D00023AC0180EFF09F881C405840D98F8DEBEE
:1008E00012478D47930540061CC323AC01801305B6
:1008F0008002EFF0BF8629A8F9176363F702938798
:10090000818198431306700C6366E600050798C35F
:100910005534F9BB23A0060023A007004133CDBF07
:10092000B70700201D052399A70213075003B70737
:100930000020239AE7029307603B63F39702124774
:100940008547930520031CC3370700202308F702BF
:10095000B70700207D57A388E7021305400651BF63
:1009600037150140894513050540A12E69D94DB7BA
:10097000EFF20FF3371402401C403707FFF84145F0
:1009800093E717001CC05C40F98F5CC01C40370720
:10099000F7FE7D17F98F1CC01C403707FCFF7D1741
:1009A000F98F1CC05C4041777D17F98F5CC0B70799
:1009B0009F001CC4B5291C4C93E707021CCCB71739
:1009C000014003A70740938607401377F7F023A061
:1009D000E74003A707401367070823A0E7408947BC
:1009E0009CCAB7F7FF1F03C5477D9307F00F630449
:1009F000F5007D893529B72702409843C176FD1659
:100A0000719B98C398431367170098C3B7170240A8
:100A1000D843D8C3D843758FD8C3D843B70600018D
:100A2000D8C39843558F98C3984393166700E3DD66
:100A300006FED843B7160240719BD8C3D84313674C
:100A40002700D8C32147DC42B18BE39EE7FE6FF05D
:100A5000CFE501A0970100209381C1DD138101FD45
:100A60001305000A97F5FF1F9385C55917F6FF1F59
:100A70001306465963FAC5008322050023A05500DA
:100A800011059105E3EAC5FE170500001305857100
:100A900097F5FF1F9385055717F6FF1F1306865915
:100AA00063FAC5008322050023A0550011059105B6
:100AB000E3EAC5FE17F5FF1F1305C55793850182AD
:100AC0006377B500232005001105E36DB5FEB7225D
:100AD000000093820288739002308D4273904280AE
:100AE00097F2FFFF9382025293E2320073905230EA
:100AF000EFF01FE897020000938262BD73901234FA
:100B0000730020305C413707F1FF1307F7EF7D8F4B
:100B1000DC419441A207D58FD98F5CC11C4537F7C2
:100B2000F1FF1307D77FD4457D8F9C49D58F94451E
:100B30008606D58FD98F1CC55C55370710FF7D17EA
:100B40007D8FDC29FD1793F7F70FD207D98F5CD57E
:100B500082801C4589C593E717001CC58280F99BDC
:100B6000EDBF1C4591C537075000D98F1CC5828049
:100B70003707B0FF7D17F98FD5BFA54763F8B704D6
:100B8000138765FF931717008322C500BA971D438B
:100B90003313F3001343F3FF33735300B397F6009B
:100BA000B3E767005CC5994763E3C7047D169317F5
:100BB00026003E965859FD47B397C70093C7F7FFE5
:100BC000F98FB395C500DD8D4CD9828093971500C0
:100BD00003230501AE971D473317F7001347F7FFAF
:100BE00033776700B397F6005D8F18C96DBFB147C3
:100BF00063E2C7026516931726003E961859FD4713
:100C0000B397C70093C7F7FFF98FB395C500DD8D84
:100C10000CD982804D161317260054553A96FD477D
:100C2000B397C70093C7F7FFF58FB395C500DD8D68
:100C30004CD58280684542054181828008416D8D96
:100C40003335A0008280944593F7060193F2F600B5
:100C500081C7DC41B3E2F20083D3050093F7F30FC1
:100C6000A5C303230500611122C226C081471304D6
:100C700080029304800405473316F70033F7C3005E
:100C80006312E602939527003D473317B7001347D9
:100C9000F7FF33736700B395B20033E36500639DDC
:100CA000860050C985072147E397E7FC12442320BB
:100CB0006500824421018280E39696FE10C9DDB76B
:100CC000828008456D8D3335A000828019C20CC921
:100CD00082804CC98280EFF2AFBC111146212A8478
:100CE00028002EC0B92AC246C204C18093F404FC75
:100CF000B7450F00938505243685C20436C2C180EE
:100D0000EFF04FBD458D420541814AA01E2092461D
:100D1000C207C183F99BC207C1831EA082479043CB
:100D2000E1679387076A9315160063E6C704368563
:100D3000EFF04FBAAA874205418191466373D5000F
:100D400091471395070141814AAC1E20024793E762
:100D500017001EA01E2056233227C207C183D18E42
:100D600093F757BFD58F1EA016275E27D58F1EA4D9
:100D700071016FF08FB38247EA23B167FD176310EB
:100D8000F502B2953685EFF0EFB442054181931735
:100D9000450199E313651500A1675D8D75B7B387AC
:100DA000C5008E07B385C7003685EFF0AFB24205A8
:100DB000418191675D8DE1BF1E2189C593E71700D1
:100DC0001EA18280C207C183F99BC207C183CDBF28
:100DD0001E2189C593E707101EA18280C207C18327
:100DE00093F7F7EFC207C183C5BF1E2189C593E7FB
:100DF00007201EA18280C207C18393F7F7DFC207D5
:100E0000C183C5BF0EA9828093F7E50F19C293E78E
:100E10001500C207C1831EA982805E290A2D4205E2
:100E20005D8D6D8D220521810D8D1335150082801C
:100E3000371702401C430E0593F777F05D8D08C30A
:100E40008280EFF2EFA5371702405C4391462A8477
:100E5000B18B6385D700A1466380D708B7376E0191
:100E6000938707601CC0B7160240DC42918313F7DA
:100E7000F700B70700209387C701BA978C23DC429D
:100E8000184093F5F50F93F707083355B70081E73E
:100E90003A85EFF02FA448C008C448C4B7170240F1
:100EA000DC438D46AD83FD8B13D737008A07F18B6A
:100EB000D98F13F6370113F7370063F4C600138791
:100EC00047FFB707002093878700BA978C23EFF07E
:100ED0006FA008C86FF06F9D5C43B777DC02938703
:100EE00007C049B799C5371702401C4F5D8D08CF21
:100EF0008280B7170240984F1345F5FF798D88CF50
:100F0000828099C5371702405C4F5D8D48CF828043
:100F1000B7170240D84F1345F5FF798DC8CF8280AF
:100F2000EFF20F98B707002003A54700B7157A0026
:100F300093850520EFF00F9A1375F50F238FA1808D
:100F400093175500898F8A073E950E05239EA18031
:100F50006FF0AF95EFF2CF9437F400E05C40AA85D4
:100F6000F99B5CC003C5E181EFF0CF9408C823244E
:100F700004001C4093E717001CC0B7F700E0D843FB
:100F8000058B75DF9843799B98C36FF00F92EFF252
:100F90002F9137F400E05C40AA85F99B5CC003D533
:100FA000C181EFF02F9108C8232404001C4093E76F
:100FB00017001CC0B7F700E0D843058B75DF9843D6
:100FC000799B98C36FF06F8E11CE93070002918FBB
:100FD000635BF0003355C500B397F50033D6C50009
:100FE0005D8DB2858280130506FE014633D5A500CE
:100FF000B285CDBF11CE93070002918F635BF000E5
:10100000B395C500B357F5003316C500DD8D3285A5
:101010008280930506FE0146B315B5003285CDBF2B
:10102000B3C7A5008D8B3307C50081E78D4763E704
:10103000C702AA87637EE50A942185078505A38FE9
:10104000D7FEE3EBE7FE8280942185078505A38F19
:10105000D7FEE3EBE7FE0244110182809376350070
:10106000AA8789CA942185078505A38FD7FE93F6A1
:101070003700C5BF9376C7FF138606FE63F5C70624
:10108000711122C0C04903A3050083A38500C0CB12
:10109000804D23A0670003A3450080CFC04D23A24D
:1010A000670083A2C50003A3050193854502C0CF55
:1010B00003A4C5FF23A4770023A6570023A8670035
:1010C0009387470223AE87FEE3EEC7FAE3F3D7F830
:1010D00090419107910523AEC7FECDBF9041910786
:1010E000910523AEC7FEE3EBD7FEE3E7E7F482808A
:1010F00082800000000000000000000000000000EE
:1011000000000E000000000001000000AED580A825
:101110003FD300408D142002A1C8DA1281CFD9F14B
:10112000DB40A4A6AF000000070803010600000092
:101130001F111F001F001D151715151F07041F176E
:10114000151D1F151D01011F1F151F17151F00005D
:101150001F111D1F051F1F021F1F15151F111F1F08
:10116000101F1F051A1F11111F101017151D011F29
:1011700001000000000102030B040503060000004B
:10118000090A01060A0000001F150A1F051A1F158B
:10119000151F051F1F041B1F111F1F101F011F01FB
:1011A00000023400006CDC020204060804080C1083
:1011B00008101820102030402040608001020304F5
:1011C00005060708010203040506070800000000E1
:00000001FF
