:020000040000FA
:10000000012883161C308500063086008312850186
:10001000860117228B210C288601D621F121861812
:100020000F2811228C018D019401A5018615182835
:10003000061D242826203C20A50803197320A508A6
:10004000031DA5039220182811220C2806128612DF
:1000500006130D080C040319362810300D0203187E
:100060003A2808300D0203183828362806160800EA
:1000700086160800061708008D08031D43288C0803
:10008000031D4328080010300D0203184C280830C7
:100090000D0203184F28522801308E0054280230D8
:1000A0008E00542803308E0068208E0B59285B2068
:1000B00008000B2254280D08243C031C0800910062
:1000C0009108031908000B220B22910B63280800EA
:1000D000061414308F00A5309000900B6D288F0B04
:1000E0006B2806100800051D7828851D812808004A
:1000F0001F300D020318912864308C0703188D0AF5
:100100008F288D08031D882864300C02031C8D285D
:1001100064308C02031C8D038F288C018D01043008
:10012000A50008008A0114088207A428AE28B42874
:10013000BA28C028C628CE28D428DA28E028E628FD
:10014000F028F328F628F92828210221B030CC2104
:100150000030CC211030CC21940A0800FC201B0870
:100160005521A821940A0800FC201C085521A8212B
:10017000940A0800FC201D085521A821940A0800B3
:10018000FC201E085521A821940A0800B130CC217A
:100190000030CC211030CC21940A0800FC201B0830
:1001A0006F21A821940A0800FC201C086F21A821B7
:1001B000940A0800FC201D086F21A821940A080059
:1001C000FC201E086F21A821940A0800B330CC211E
:1001D0000030CC211030CC2119089A00940A080074
:1001E0001821940A08001821940A08001821940A7A
:1001F00008001821940108009D217830B221403078
:10020000B22108000C08A0000D089F000630A100D4
:1002100003109F0CA00CA10B0829200899001F08AF
:10022000031D1529A01B152908008030990008001E
:10023000FC20203096009A08031922297E30B22132
:100240009A0324290030B221960B1B29A82108000B
:100250000C08A0000D089F009B019C019D01E83047
:1002600020029E000330031C013E1F02031C3D2997
:100270009F001E08A0009B0A2F29643020029E00C8
:100280000030031C013E1F02031C4B299F001E0867
:10029000A0009C0A3D290A302002031C5229A0001C
:1002A0009D0A4B2920089E0008009F000530A100F0
:1002B0001F0898000310980D980D1F08980718083C
:1002C00015230F3900239700B2211708B221980A8D
:1002D000A10B5F290030B2210030B22108009F003D
:1002E0000530A1001F0898000310980D980D1F08F5
:1002F000980718081523A000200E0F390023970037
:10030000B2211708B221980AA10B79290030B22135
:100310000030B22108000930A10083168514831231
:100320000B228316851083120B22A10B8D29080046
:100330000A30A200A20B9A2908008316051485141E
:1003400083129821831605109821851083120800C6
:10035000831605109821851498218316051483129D
:10036000982108009200083093000310920D831624
:1003700003180514031C0510982185149821851075
:100380008312930BB52983160514851483129821C3
:100390008316851083120800A0009D217830B221B9
:1003A0000030B2212008B221A8210800AE30CC21B3
:1003B000A830CC211F30CC21D330CC210030CC212F
:1003C0004030CC218D30CC211430CC21DA30CC21FE
:1003D0000230CC21A130CC21C830CC21AF30CC218F
:1003E0000800B03095001508CC210030CC21103029
:1003F000CC219D217830B2214030B221803096004E
:100400000030B221960B002AA821950AB4301502BB
:10041000031DF3290800FA30A4000000A40B0D2AE4
:1004200008003230A3000B22A30B132A08000A3065
:0A043000A1001122A10B192A0800F7
:10060000A00003308A0020088207003403340C3431
:100610000F34303433343C343F34C034C334CC34FE
:10062000CF34F034F334FC34FF34A00003308A00BC
:10063000200882073E345134493445343E34003476
:1006400042347F34403400344234613451344934CC
:1006500046342134413445344B3431341834143465
:1006600012347F341034273445344534453439341A
:100670003C344A3449344934303401347134093417
:100680000534033436344934493449343634063475
:080690004934493429341E34B9
:02400E00F23F7F
:00000001FF
