:100000006F20603E00000000661E00006A1E0000B7
:1000100000000000000000000000000000000000E0
:1000200000000000000000000000000000000000D0
:10003000DA19000000000000B623000000000000F4
:10004000B8230000BA230000BC230000BE23000038
:10005000781A0000C2230000C4230000C623000059
:10006000C8230000CA230000CC230000CE230000D8
:10007000D0230000D2230000721400008814000076
:10008000D8230000DA230000DC23000094170000CE
:10009000E02300003E1800004C18000000000000A3
:1000A0003D432A876373C3029377F700BDEFADE545
:1000B000937606FF3D8ABA960CC34CC30CC74CC757
:1000C0004107E36BD7FE11E28280B306C3408A0684
:1000D0009702000096966780A6002307B700A30644
:1000E000B7002306B700A305B7002305B700A30494
:1000F000B7002304B700A303B7002303B700A3028C
:10010000B7002302B700A301B7002301B700A30083
:10011000B7002300B700828093F5F50F9396850012
:10012000D58D93960501D58D61B7939627009702DB
:10013000000096968682E78086FA9680C1171D8F0A
:100140003E96E374C3F8A5B7511126C022C206C477
:10015000828282441244A240310182802A86014573
:1001600093F6150091C2329585810606F5F98280D5
:1001700000000000634E050263C305042E86AA85B5
:100180007D5515C285466378B6006356C0000606E5
:100190008606E36CB6FE014563E4C500918D558D7E
:1001A00085820582F5FA82808682C93F2E85828209
:1001B0003305A04063D70500B305B040C1B7B30510
:1001C000B0408682653F3305A0408282868263C745
:1001D0000500634905005D372E858282B305B04076
:1001E000E35B05FE3305A040513F3305B0408282FA
:1001F00000001317050141839307F00763E5E70249
:1002000083C721828E0763C0F502A10763DDF50075
:100210009387C18D3E9593F775008545B395F5009D
:100220001C21DD8D0CA18280130706FD1377F70FCB
:10023000A54763FCE7029307D0026307F602930722
:10024000D0066309F60E9307F0066307F60E9307D0
:10025000B0066305F60E9307C0046303F60E93071A
:1002600020056301F60E82802947EFF2FFED931718
:1002700027003E978D67938747623E979317050146
:10028000130181FDC18336C69386A700C206C182D1
:100290001394050136C43E86418093960701C186BA
:1002A0009384170036C08342070093960401C186E9
:1002B00036C2814493F61200B9CAB246D1C69396AB
:1002C0001400C206C182B38386000245C20393D3E1
:1002D00003419E8516D23AD03ECE32CC36CA1EC8D5
:1002E000093FC24312459E852937D2469305140023
:1002F0000245AE96C206C186B68536C8DD3DC24609
:100300001245B685FD356246F24702579252850482
:100310009D4693D21200E39FD4F88907A246C207F4
:1003200005064206C18305074182E398D7F613010B
:10033000810205B52D4715BF3D4705BF414735B77C
:10034000454725B7494715B7B3059400131506016E
:10035000C205C185418516CE3ACC3ECA32C8513D50
:10036000F2426247D24742465DB7EFF2FFDD83C7F4
:1003700041801307300651110D446366F700254490
:100380003334F4000504131524003305A4400A0592
:10039000130505070585931405011307F00FC180A8
:1003A0006388E70213874182A687030607000507D3
:1003B0003AC26302061613950701854681454185B9
:1003C0003EC09D3582471247B107C207C183F1BFC6
:1003D00085461306D0028145813D1385C4008546BC
:1003E0001306D0028145420541853D3D81461306F5
:1003F0005003814501450D3D8146130600038145AB
:1004000019451D3583C7018289CF81461306F00641
:1004100081453945113D81461306B0068145514558
:100420002135814613061003814513052006ED3B57
:10043000814613065003814513058006F533814636
:100440001306000381451305E006F93B83C71182BB
:1004500099CF81461306F006814513056007E933FD
:1004600081461306B00681451305C007753B83C757
:10047000C18205476399E70C85461306C004AD4564
:1004800009455D3385461306D002AD453145693BCC
:1004900001442285ED45B13B050493170401C18356
:1004A00013940701130700084184E394E7FE938740
:1004B000C18501443EC29247930560F0A2979C23F8
:1004C000139547003E95060575319305F50393177F
:1004D0000401C187C205AA84C1853E853EC0113B87
:1004E00093070408938404043EC413070004638D37
:1004F000E406954533858400D13919C5A247954551
:1005000033859740E13111E5024593950401C1859A
:10051000CD318504D9BF931714003E940A04A294E8
:10052000C204C18013852400420581461306D0060B
:1005300099454185D539A10481461306D0069945D0
:100540001395040155B50947E394E7F4854613066E
:10055000D002AD451305C006C139854613062005F6
:10056000AD451305600725B7050493070008E3149C
:10057000F4F43101F9BEEFF23FBD7111AA842EC02F
:100580001385C19593059002752993D58400138531
:10059000C1959D2E93F5F40F1385C195B52682471D
:1005A0001385C195BE858D261385C195EF00206406
:1005B000110145B6EFF25FB9AA849305C003138514
:1005C000C195492181451385C1953D2EA685138589
:1005D000C1951D2E1385C195EF0060619DBEEFF2A0
:1005E000BFB611118D656546938545560A85EF2086
:1005F000405E0144B307810088230504653FE54759
:10060000E31AF4FE7101B1B6EFF21FB4AA849305A8
:1006100090021385C1953D2193D584001385C19522
:10062000E52493F5F40F1385C195F92C1385C19535
:100630007D2B0546930590021385C1955D23138597
:10064000C195A52C1375F50F29B6EFF2FFAF8545BF
:10065000614515371305F004453F118965DD130524
:1006600020065D372A849D45554531372285D5B40E
:10067000EFF29FADD93F9307F00F6300F504B70782
:10068000002003970710198D93171500AA978E075E
:100690003E95B7070020839527100A05998DD93C10
:1006A00093072503014563CA07001307A00F13052D
:1006B000A00F6344F70013F5F70F61BCEFF2DFA85A
:1006C00051111305500CEF20C03309EDBD3FB707A2
:1006D00000202390A71005471305401F2380E182C7
:1006E000EF20E03B1305600CEF20A03109EDB13F96
:1006F000B70700202391A71005471305401FA380CB
:10070000E182EF20C039138741801C23A382F1804E
:1007100085371387418008A31307F00F9386518014
:10072000138441806309E500294693854182EF20C7
:10073000C0189386518018209307B0089384C18213
:1007400063EDE7009C229386E7FF635FD70C854744
:100750009CA0EF20003423A4A1829C2081CFEF2015
:10076000403383A781821D8D9307003263F4A70075
:10077000238004009387C1859386F7071387C1857B
:1007800090338507A38FC7FEE39CD7FE1C20A30FE1
:10079000F70623810182938721823EC09387C18D12
:1007A0003EC28147130700089246BE96238006008A
:1007B0008507E39BE7FE553E82478823130505FB2B
:1007C0001375F50FC53B0145F5334145E53312443B
:1007D0009305C0031385C195B524930500041385C3
:1007E000C1951D2281473307F4000C231385C19561
:1007F0003EC4192AA24741478507E396E7FE1385C1
:10080000C195F52641049387C195E313F4FC824713
:1008100002479C23850793F7F70F1CA31D47E3723C
:10082000F7F831016FF0FF9293862700E3D7E6F2E5
:100830001307F00FE383E7F2894719BFEFF2DF9068
:1008400089451305500CEF20A00C89451305600C59
:10085000EF20000C81451385C195EF00C06BB725D3
:100860000600938505A81385C195F1228D3B594556
:10087000613B85476300F50281471387C185FD55BC
:10088000930600083306F7000CA28507E39CD7FE09
:100890006FF03F8C0D64130404589304440A2C2019
:1008A0000A201104C939E31C94FEF9B7014582807E
:1008B0001A2D6A293305A74082807E29162D2A87A2
:1008C00063F8D7001449BE96850788227EAB8280E4
:1008D0007D5582807A291E2D6376F7001C49BA97D0
:1008E000882382807D558280084D8327050A81CF29
:1008F000EFF29F858327450A231105021305850919
:1009000082976FF01F858280EFF21F848347450234
:100910007111CC812A84B1C326319307004085042C
:1009200063C997041E3163FF97009307000263F4C5
:10093000F40093040002484CA685EF20204E09CD18
:1009400048CC06B036305C4C98810545B69798A3E4
:100950003E3085073EB019A801A005469305310039
:1009600013058502EF00301C1335150011016FF0DF
:100970004FFE0145E5BFEFF22FFD03474502611130
:100980002A84B28725C3263113070040B2946369D5
:1009900097041A31AE86637497041307000263F458
:1009A000E40093040002484CA6853EC236C0EF2006
:1009B000E046824692471DC148CC06B03A30484CCA
:1009C0003E86B6853A953EC0EF20A0203A30824759
:1009D0003E973AB03E8521016FF0AFF701A0F9FCD8
:1009E0008147CDBF42064182130585023EC0EF001C
:1009F0009013824765D1EDB71C4581CBEFF2CFF460
:100A0000AA850D4682976FF0CFF482809307803ECF
:100A10001CC58D679387C7681CC18D67232805088F
:100A20002320050A9387077FD8472322050078C132
:100A30009C4B3CC58280EFF22FF113058502852582
:100A40006FF02FF1854786052302F5022CAD2311A7
:100A5000050282805E2963F6B702EFF2EFEE93079C
:100A600000022E8463F4F50013040002AA840849EE
:100A7000A285EF20A03A09C588C8C2A86FF06FED23
:100A800001A08280EFF24FEC004D44556111032725
:100A900004091DCF76281A2C63ECE6022AC0A6852D
:100AA00022854D3F82470848268693858703EF209D
:100AB000401283270409231B040006AC26C299E3D5
:100AC000EF20E002832744094C0013058408829735
:100AD00021016FF00FE8584D11CBEFF2EFE6123124
:100AE00081453A85EFF0CFDB6FF0AFE68280EFF221
:100AF000AFE503472508854791446319F7022E8720
:100B00003631504D2C2D2A841305850231258D4711
:100B1000914463E7A7009387C181AA978384070064
:100B20002285553F231104022302040213F5F40F1A
:100B30006FF02FE2EFF24FE1411132C0034625087A
:100B4000AE8485456315B60882453AC42A8432C608
:100B500036C209372247860493F4F40F21CB32467C
:100B600024AC231104022302C4028D453A86924626
:100B700063F3E5000D461377F60F7D171377F70F34
:100B80001306F00F6301C702104093153700B3D569
:100B9000B60010423AC436C293F5F50F228502968C
:100BA00092462247D9BF8145228591378246104817
:100BB000A68513058402EF00007E11C102C08247A2
:100BC000231B04001EAC024541016FF08FD802C008
:100BD000DDBFEFF26FD7B68701478146A13F6FF0C7
:100BE0004FD7EFF26FD68546ED376FF08FD6EFF225
:100BF000AFD58545ED3D6FF0CFD5EFF2EFD42A8428
:100C0000231B0500231C0500084909C552288145FE
:100C1000EFF00FC9231104022285753D6FF06FD3E9
:100C2000EFF28FD2AA8468411301C1FA1304710351
:100C3000EF10904A8145EF10B04DEC4009476198A4
:100C400093D74500BD8B01456369F7003707002046
:100C50008A0713070700BA978843BD898547B3956C
:100C6000B700C205C181EF003076631B051CA844A4
:100C7000EF1090468545EF10B049D1473EC4AC44D3
:100C80000947014593D74500BD8B6369F7003707D6
:100C900000208A0713070700BA9788438547BD8954
:100CA000B395B700C205C181EF00F072B7F700E05D
:100CB000984702C825463AC6B2464247814514CCF9
:100CC00058CC83A207018146938712003E853ED609
:100CD000EF2010011306803E8146EF204031184C72
:100CE0005C4CAA8218C85CC82E8381470147B7F6BE
:100CF00000E0944602CC36CA5246E24610CC54CCB0
:100D000010485448084C4C4C63E0D5146394B6002A
:100D1000636CC512104C544C084832C036C282462F
:100D20004C48B383A64033B6760092463385B6402E
:100D3000118DBE93B3B6F300104C3A953387A600DD
:100D4000544C10C89E8754C8E36367FA6314E300E9
:100D5000E3EF53F8AC440947014593D74500BD8BF9
:100D60006369F700370700208A0713070700BA975F
:100D700088438547BD89B395B700C205C181EF009F
:100D80005065B7F700E0984702D025463ACEF246C4
:100D90000257814514C458C483A207018146938732
:100DA00012003E853ED6EF20A0731306803E81469A
:100DB000EF20E02318445C44AA8218C05CC02E8354
:100DC00081470147B7F600E0944602D436D2125666
:100DD000A25610C454C41040544008444C4463EB21
:100DE000D5086394B6006367C508104454440840AE
:100DF00032C036C282464C40B383A64033B676003A
:100E000092463385B640118DBE93B3B6F3001044BD
:100E10003A953387A600544410C09E8754C0E363BC
:100E200067FA6314E300E3EF53F8A247FD173EC4EB
:100E3000E39707E4A844EF10302A8145EF10502DC6
:100E4000130141056FF0EFB008484C48104C544C6A
:100E500032C036C28246B380A64033B616009246F0
:100E60008D8E3386C640B256B383D00033B513009F
:100E70003295C1B508404C401044544432C036C28B
:100E80008246B380A64033B6160092468D8E3386D6
:100E9000C640B256B383D00033B513003295ADB718
:100EA000EFF28FAA93971500FD1593B51500A302D5
:100EB000F5022301B508A301C5082302D50823289C
:100EC0000500232A0500231C0500230D050028C169
:100ED000232E050023200502230205022A848933DC
:100EE0008346540293048402E16511669385056A82
:100EF0002685A5208347240889EFB7150000938530
:100F0000858E2685AD23B7150000938545A82685D7
:100F1000A92B6FF00FA4EFF22FA32E8681468545F3
:100F200041376FF00FA3EFF22FA21385C195EFF0B9
:100F3000FFAD6FF00FA2EFF22FA11384C1958D6763
:100F40009387C768130584091CC0EFF0FFAA130537
:100F50008408EFF07FAA6FF0CF9F63010514EFF2D2
:100F6000AF9E31112A84484D36C68D662EC09385BA
:100F7000866C32C4EF1040412AC808508D649385B6
:100F8000046BEF10604042478D6636C2AA85630449
:100F90000710630205103A85EF10604008C0630C2B
:100FA000050E37570040130707406319E5028545D2
:100FB00037052000EF001079814537052000EF004C
:100FC0007078854537052000EF00F075794758D0D7
:100FD0007D4718D41307440023A8E1820850938565
:100FE000046BEF1080369247484C9385876CEF1066
:100FF000C03508408247E1669386066A48C0368756
:1010000063F1F602B7260600938606A8368763FAD0
:10101000F600B7460F0093860624014763E3F60007
:1010200036878247E16618C4231604009386066A51
:10103000116763E4F60031677D17B2477AA413079E
:1010400000401EA8A2473AA80347A4055EA805EFE2
:101050005A2154500546136707705AA113D75600FA
:1010600013070704B315D6000A07B7E600E0369762
:101070000CC30C5413D75500130707040A07331683
:10108000B600369710C393058400EF005041084026
:101090008545EF00F04E51016FF0AF8B8280EFF28B
:1010A000AF8A61671307076A71112A84AE84BA8711
:1010B0006371B70237270600130707A8BA87637A58
:1010C000B70037470F001307072481476363B70052
:1010D000BA87084081453EC0EF00904A8247616769
:1010E0001307076A1CC4916763649700B167FD1713
:1010F00008407EA493058400EF00703A08408545BF
:10110000EF0010488347A40589C708408545EF00D4
:10111000F04B11016FF0EF83EFF20F8331112A844E
:101120002EC832C436C03AC2EF00D009AA84484063
:101130008545EF00B0494840B7050200EF00D04EAA
:1011400039E5EF0030082AC648408545B70403005A
:10115000EF00904485044840A685EF00B04A21C9BD
:10116000EF0050062AC6C24548400146B7040700B2
:10117000EF003048938424084840A685EF0090484B
:101180001DCD8247B5EB9247D1EF014531A8EF0065
:101190007003058D8D47E3F0A7FA924789C7484051
:1011A0008545EF001041154551016FE09FFAEF00B2
:1011B0007001B2471D8D8D47E3FFA7F8F9BFEF001F
:1011C0007000B2471D8D8D47E3F8A7FAF9B7484084
:1011D000B705001093850508EF00104511CDA24713
:1011E0004840850783C5F7FF3EC4EF00D03F8247E4
:1011F000FD17C207C1833EC08247F1FBEF00807C30
:10120000B70407002AC0938444084840A685EF002D
:10121000703F35F9EF00007B82471D8D8D47E3F667
:10122000A7FE51B748408545EF00B038B9BFEFE29F
:10123000BFF12A840841B704001093850440EF00F1
:10124000B03E11C5084093850440EF0010410840AE
:10125000B704001093850410EF00103D11C508403D
:1012600093850410EF00703F6FE0BFEEEFE2DFED1B
:101270002A840841B7050010C105EF00F03A09C5FE
:1012800008408545EF00D02F6FE0BFECEFE2DFEBC9
:101290002A840841B704001093850404EF00D03875
:1012A00001C9938404040840A685EF00F03715E5D2
:1012B0000840C145EF00103531E50840B705001082
:1012C00093850508EF00503609C55C5899C32285FF
:1012D00082972285A93F6FE0DFE70840EF00F030FA
:1012E000834784057D47E360F7FC83478405A29725
:1012F000238CA70283478405850793F7F70F230CF8
:10130000F40455B78347840593F7F70F5CD4230C97
:1013100004045C546356F0001C5899C322858297DC
:101320002285A93759BFEFE23FE23111AA842EC4CA
:1013300032C6EF0020692AC202C00144B247636688
:10134000F400024551016FE0DFE0A247C840A297D8
:101350008C2305041374F40FEF00F028B707060080
:10136000938747083EC8C245C840EF00B02979F5C9
:10137000EF00406592471D8D894763EBA7008840C9
:10138000EF00B02945DD26855D352685C535E1BFF1
:1013900095473EC065B7EFE23FDB41112A842EC678
:1013A00032C436C0EF0000622AC248408545B70407
:1013B0000300EF00701E85044840A685EF009024CE
:1013C00015C9B24548400546B7040300EF00702236
:1013D00089044840A685EF00F0221DC54840854598
:1013E000EF00D01E824748409DE78545EF00701C06
:1013F000014501A8C12B92471D8D8D47E3FEA7FA39
:10140000154541016FE0FFD4752B92471D8D8D4727
:10141000E3F1A7FCF5B7024785476315F70081455F
:10142000EF00D01AB7040010938404044840A68546
:10143000EF00901F05C1A247484085073EC4EF005A
:10144000D01AA247A38FA7FE8247FD17C207C18308
:101450003EC049BF852B92471D8D8D47E3F8A7FC01
:1014600048408545EF00F01461BF0CD982804CD90B
:10147000828003A501839387C18098437115050776
:1014800098C32935730020309387818098430507DE
:1014900098C37300203082807D558280EFE2DFCADE
:1014A0001C417111CC81DC439305310005468297C4
:1014B00011016FE01FCAEFE23FC9711193053100BE
:1014C0004105EF10E03009E5888111016FE07FC828
:1014D0007D55E5BFEFE25FC72E85B285EF10A01EF8
:1014E0006FE03FC713F7F50FC54763EDE7008D6762
:1014F0009387077F0A073E9793F705700C43CD8FBC
:101500005CD5828093F6050C1306000CFD57E39919
:10151000C6FE9306700CE3E5E6FE93F7F5030D6750
:101520001307077D8A07BA979C430D671307077F48
:101530008A07BA9793F505709C43D1B713F7F50F57
:10154000C54763EDE7008D679387077F0A073E97DE
:1015500093F705700C43CD8F1CD5828093F6050C54
:101560001306000CFD57E399C6FE9306700CE3E5E5
:10157000E6FE93F7F5030D671307077D8A07BA9711
:101580009C430D671307077F8A07BA9793F5057089
:101590009C43D1B7EFE25FBB9307803E1CC59167C8
:1015A000938707841CC10CC9232205009305600C96
:1015B0002A840D3F9305500C2285493758541C54FA
:1015C0006314F700FD575CD4FD571CD85CD86FE05E
:1015D0005FB8EFE27FB7B74501409385058013857B
:1015E00041A04D3F6FE0FFB6EFE21FB61C452A84D5
:1015F00081CB0D46AA85829723240400232604006C
:1016000022856FE01FB5B7370140938707C0630895
:10161000F500B70700406316F500054582800145D7
:10162000828041657D158280EFE21FB22A84084DD9
:10163000D93FAA8413058401EF0050678A041385FB
:1016400041832695232A040093044408232005009F
:101650001304440363878400C1142685EFF0CFB9D7
:10166000D5BF6FE01FAFEFE23FAE71112A84C164B6
:101670002E852EC0FD14413F82456313950001A0C5
:101680001C4C91C301A093172500138541833E95FF
:10169000930744011CC1930700085CD4930700041E
:1016A0001CD80CCC1305840140C8232E0400232031
:1016B000040223120402EF00105C130544032D37CB
:1016C00013054404153713054405393F1305440633
:1016D000213F13054407093F084C2320040023221F
:1016E0000400232404002326040023280400232EBE
:1016F000040004D08545EF00B00B084C9305C401ED
:10170000EF00300611016FE0DFA4EFE2FFA3232E0C
:10171000050223260504232E050423260506232E71
:101720000506232C05008137B7E700E0214723A2F7
:10173000E7101307000223A2E7101307000423A2F7
:10174000E7106FE01FA1EFE23FA0184519E3EF108B
:10175000003A5C4582976FE0DF9F11E101A0EFE264
:10176000BF9E2A8408418545EF00300615C11C4004
:10177000DE27858B91CF2285EF00B04F08415C5D5D
:1017800081C713054503C13708408545EF00700543
:101790006FE03F9C03A5418319C111057D3F730094
:1017A000203011E101A01C41DA27098B11EBDA2767
:1017B000118B19E7DA27218B01E7DA27418B3DCF1F
:1017C000EFE29F982A8489453E85EF0010001C4077
:1017D0001DC189453E85EF00D00085442285EF007C
:1017E0005049084192049384440326951C4591C3B3
:1017F000993F6FE01F963E859145EF00007D1C40AC
:1018000019C591453E85EF00C07D8944C1BF3E8525
:10181000A145EF00807B1C4019C5A1453E85EF0026
:10182000407C8D4465BFC1453E85EF00007A5DD5A3
:101830000840C1459144EF00C07A4DB7828003A5AE
:10184000418319C11105B13F73002030711122C0CD
:1018500013844183484011C51105013748401105E3
:1018600089370244110173002030EFE2FF8D2A8492
:10187000EF10202248C41C402285DC4B8297635A1B
:101880000500EF1000215C441D8D1C44E365F5FE4E
:101890007D556FE01F8CEFE23F8B6111AA840144FC
:1018A0002EC232C0630DC4002685C13763490500CE
:1018B00092450246B387850088A30504D5B72285E3
:1018C00021016FE01F89EFE23F885111014495C665
:1018D000B684AA8701443E8532C42EC23EC0713709
:1018E000634D05009245630AB500224682473307DF
:1018F000860008A30504E39084FE228531016FE091
:101900005F85EFE27F842D2A6FE0BF84EFE2DF8303
:1019100085476301F50219C589476303F50201454F
:101920006FE03F8311458545C523371501401305F9
:101930000580FDB741458545C12B37150140CDB721
:10194000130500028545C9233715014013050540DD
:10195000C1BFEFE26FFF8D6651119385066E2AC0FD
:10196000EF009022EFF03FCA1317250093844183C4
:10197000BA948C401384418302468DE58D6693852D
:10198000066E32853AC4EF0030202AC213054008A3
:10199000EF10001392452AC0EFF03FD79C408246DB
:1019A000224794C3B307E4009C43804309C82285BF
:1019B000EFF09FC7930540082285EF10A012310178
:1019C0006FE02FF903A5018483A541848280828082
:1019D000EFE28FF7C53F6FE0CFF79387018403A352
:1019E000070083A34700130713003335670098C32C
:1019F000B3067500D4C3E13FB7F700E023A20700A8
:101A000073002030EFE24FF437F400E023220400AB
:101A1000232004002324040003A541819305803E74
:101A2000EFE0CFF57D1508C8BD471CC07D57B7E76F
:101A300000E02386E740056723A0E7106FE06FF121
:101A4000EFE28FF0C1376FE0CFF0814705476307C2
:101A5000E5008507058193F7F70FD5BF370700200D
:101A60008E071307C700BA97DC4391C7EFE2CFEDAB
:101A700082976FE00FEE8280611122C226C005447A
:101A8000A1442285992019C52285B928131504017E
:101A90004181653FFD140604EDF4124482442101A6
:101AA00073002030138701811C43938681AE3E95DD
:101AB0006369D500938601D463E5A60008C33E851B
:101AC0008280FD57EDBF82808280B7070140138777
:101AD000074083A70740584B698F09C77D8D333571
:101AE000A000828001458280B707014023AAA74059
:101AF00082809C45611122C226C013F7070113F3AF
:101B0000F70001C7D8413363E30092211377F60F42
:101B100029C783230500014713048002930480042E
:101B20008546B395E600B376B6006392D50293126C
:101B30002700BD46B396560093C6F6FFB3F3760072
:101B4000B3125300B3E37200639787064CC90507CD
:101B5000A146E317D7FC232075001307F00F637825
:101B6000C70483234500A146130480029304800424
:101B70000547B312D700337756006394E2021397F8
:101B800026000117BD45B395E50093C5F5FFB3F3F6
:101B900075003317E300B363770063928702232A4B
:101BA000550085064147E395E6FC23227500124463
:101BB000824421018280E39C97F80CC949BFE392DB
:101BC00097FE23285500F1BF08456D8D3335A000E1
:101BD00082800CC982804CC9828037030140032770
:101BE00043009317350063D00702B707C0FFF5170E
:101BF000F98F37070007D98FD9CD370700F07D1748
:101C0000798DC98F49A8635D0500B707E0FFED171F
:101C1000F98F37070007D98FBDCD06050581D5B7E8
:101C2000B7073000931605013376F500C1826313C0
:101C3000F602370600F97D16B377C7000327430085
:101C4000798E2322C300A1C955811317450033950E
:101C5000E60045BF9317B50063D40702935705010B
:101C600013F6F7008D47B397C70093C7F7FFF98FB7
:101C700037070007D98F85C1135755011207C1BF18
:101C8000558112053395A6009347F5FFF98F370765
:101C90000007D98FBDF5370701405CC38280EFE2B2
:101CA000AFCA111146212A8428002EC0C122C24683
:101CB000C204C18093F404FCB7450F00938505244A
:101CC0003685C20436C2C180EFE04FCB458D420558
:101CD00041814AA01E209246C207C183F99BC207D8
:101CE000C1831EA082479043E1679387076A9315DB
:101CF000160063E6C7043685EFE04FC8AA874205A1
:101D0000418191466373D500914713950701418145
:101D10004AAC1E20024793E717001EA01E20562340
:101D20003227C207C183D18E93F757BFD58F1EA02C
:101D300016275E27D58F1EA471016FE08FC18247E1
:101D4000EA23B167FD176310F502B2953685EFE01F
:101D5000EFC2420541819317450199E313651500D0
:101D6000A1675D8D75B7B387C5008E07B385C700C2
:101D70003685EFE0AFC04205418191675D8DE1BFDF
:101D80001E2189C593E717001EA18280C207C18367
:101D9000F99BC207C183CDBF1E2189C593E70710F8
:101DA0001EA18280C207C18393F7F7EFC207C183E8
:101DB000C5BF1E2189C593E707201EA18280C207E7
:101DC000C18393F7F7DFC207C183C5BF1E2189C551
:101DD00093E707401EA18280C207C18393F7F7BF34
:101DE000C207C183C5BF0EA982800A291375F50FEA
:101DF000828093F7E50F19C293E71500C207C183EC
:101E00001EA982805E290A2D42055D8D6D8D2205F9
:101E100021810D8D1335150082805E290A2D420522
:101E20005D8D220521818280611102C002C293D79B
:101E3000C5012AC23EC08247A205A18199CB924723
:101E4000D1073EC29247884321016D8D3335A000F2
:101E500082809247C181E107EDB793C5F5FFC205C6
:101E6000C1814EA982807300203001A0EFE2CFAD86
:101E7000371702405C4391462A84B18B6385D700B3
:101E8000A146638DD706B7376E01938707601CC0E4
:101E9000B7160240DC42918313F7F700B707002022
:101EA00093870706BA978C23DC42184093F5F50F09
:101EB00093F707083355B70081E73A85EFE00FAC99
:101EC00048C008C448C4B7170240DC43AD83FD8B4B
:101ED00013D737008A07F18BD98F93F637010D4757
:101EE0006373D700D117370700201307C704BA97C9
:101EF0008C23EFE0AFA808C86FE0AFA55C43B777CD
:101F0000DC02938707C061B799C5371702401C4FA1
:101F10005D8D08CF8280B7170240984F1345F5FFBB
:101F2000798D88CF828099C5371702405C4F5D8DCF
:101F300048CF8280B7170240D84F1345F5FF798DFF
:101F4000C8CF828099C5371702401C4B5D8D08CBE6
:101F50008280B7170240984B1345F5FF798D88CBE7
:101F600082801E2137370140130707C0C207C18393
:101F70006306E500370700406316E500BA2193F7D2
:101F8000F7F8D98FFA2193F7F7CFC207C183D98F1A
:101F90001EA1DE215EB59E211EB5B7370140938795
:101FA00007C06314F5009C251EB985475EA9828091
:101FB0001E2189C593E707081EA18280C207C1833D
:101FC00093F7F7F7C207C183C5BF1E294A25ED8FD6
:101FD0004205418189C76D8D3335A000828001455E
:101FE000828093C5F5FFC205C1810EA98280EFE210
:101FF000AF951629F577FD17F58FF621DA25211112
:10200000D58F1EA95625FD779387379FF58FD6214B
:102010002A842EC0D58F9625D58FB625D58F5EA55F
:102020005E29C207C18393F7F7CF5D8F5AA9480095
:10203000EFF0DFE3B74701409387078082456312E3
:10204000F406C2475A24139517003E9542070E0521
:1020500041873E958C41635807048605EFE00F9257
:10206000930540062AC0EFE06F9182479314450024
:10207000930540063E85EFE02F935E24C207C1879B
:1020800063D507020E059305400613052503EFE00F
:10209000EF8E1D89C98CC204C18006A461016FE066
:1020A0004F8BB24745B78A0555BF120593054006C9
:1020B00013052503EFE08F8C3D89E9BF91C55E25AF
:1020C0000967D98F5EA582805A25F977FD17F98FA8
:1020D000D5BF93F5F51F4EA182804A211375F51FD8
:1020E00082805E2989C593E787005EA98280C20746
:1020F000C183DD9BC207C183CDBF0A216D8D3335FE
:10210000A0008280B71702409843B706FFFC136710
:10211000170098C3D843758FD8C39843B706F7FE06
:10212000FD16758F98C39843B706FCFFFD16758F93
:1021300098C3D44341777D17F98ED4C3B7069F0067
:1021400094C7B72602409042719A90C2904213669B
:10215000160090C2D443D4C3D443758FD8C3D84398
:10216000B7060001D8C39843558F98C39843931678
:102170006700E3DD06FED843B7160240719BD8C363
:10218000D84313672700D8C32147DC42B18BE39EB5
:10219000E7FE8280FD577D576317F5000145828079
:1021A0006387A700B1059C41E39CE7FEC5BF0545D9
:1021B0008280EFD27FF9311102C402C602C8FD57F6
:1021C0006313F50001A093D7854093F4F707937745
:1021D000F5001397270091679387078DBA979C4363
:1021E00011813D892E843EC0EFF04FF22AC28DC48A
:1021F00085450545EFF05FD19387F4FF6947636D2F
:10220000F70011678A0713074786BA979C438287AE
:1022100085450545EFF07F9C9357244013773400A4
:102220008D8B7DC73AC609476380E70E0D47638FE4
:10223000E70C05476388E70CC1473EC8EDA0814520
:10224000C9BF8545370500100905E9B7854537053C
:102250004010DDBF8145E5BF85453705008011058C
:1022600055BF85453705208075B7854537052080E2
:10227000FDB78145E5BF3705160085451305050403
:1022800051BF8545370516001305050861B785451B
:10229000370516001305050CB5BF8145D5BF3705B9
:1022A0001800854513050510B5B737051800854595
:1022B0001305052085B7854537051800130505303A
:1022C00091BF8145D5BF85452165A9B78145EDBF42
:1022D0008545370520008DBF8145E5BF854537051C
:1022E0002000B5BF8145E5BF85453705200069BFA2
:1022F0008145E5BF8545370530001305054019BF09
:102300008145D5BFD14715BFE14705BFF14735B777
:1023100005476383E70299C789466381D70293071C
:10232000800221BF02C8824712452C007C84EFF056
:102330004FFC51016FD0FFE1914701B711840D8827
:1023400093078004E31DE4FCCDBDFD577D57631D5D
:10235000F50082806399A700EFD21FDF8C45EFF074
:102360005FE56FD01FDFB1059C41E395E7FE01A05B
:102370007D579C416394E700014582806394A700E8
:10238000C8418280B105F5B7FD576308F500EFD26B
:10239000BFDBEFF0FFFD6FD0DFDB0145828063051F
:1023A000B50019C181E5AA852E8582808145EDBFE2
:1023B00001A001A001A001A001A001A001A001A015
:1023C00001A001A001A001A001A001A001A001A005
:1023D00001A001A001A001A001A001A001A001A0F5
:1023E00001A001A001A097E1FF1F9381A1511381DA
:1023F00001F0171500001305656897E5FF1F938529
:1024000065C01386018263FAC5008322050023A0FC
:10241000550011059105E3EAC5FE138501829385F8
:1024200081AE6377B500232005001105E36DB5FE8D
:1024300093020008739002308D427390428097E2BD
:10244000FFFF938222BC93E2320073905230170553
:1024500000001305056CEF00E06AEF00E06EEFF09E
:102460007FCA970200009382424673901234730031
:10247000203071158280EFD23FCD1841B73701402F
:10248000938707C02A846318F700056585451305FF
:102490000580EFF07FA71840B70700406316F700EC
:1024A00085450545EFF03FA86FD0BFCAEFD2DFC921
:1024B0001841B7370140938707C02A846318F70093
:1024C0000565814513050580EFF01FA41840B70787
:1024D00000406316F70081450545EFF0DFA46FD09B
:1024E0005FC7EFD27FC61301C1FDAA84084D32C673
:1024F0000D662EC49305867B3ACA36C8EFF0DFE836
:102500002AD0C84C8D669385067AEFF0FFE72A84BF
:1025100088508D6593858578EFF01FE72AC0C850F5
:102520008D6593850577EFF03FE602570D668D6662
:102530002AC232CC36CE630B070ED04CFD56630454
:10254000D6006305040E9050FD566305D600824701
:10255000638E070CD050FD566305D6009247638703
:10256000070C3A85A285EFF09FE3824588C0EFF023
:102570001FE3924588C0EFF09FE288C045C9374706
:10258000014013070780631BE50085451165EFF0E7
:10259000BF97130700022386040298D4E247884CB1
:1025A0009385877BEFF07FDA19C4F247C84C938597
:1025B000077AEFF09FD98247814689CB88508D6595
:1025C00093858578EFF07FD893060010924799CBDA
:1025D000C8508D6593E606209385057736C0EFF0E9
:1025E000DFD68246A24703C7C40288409CC4B247D4
:1025F00013162700DEA4D247138781843297FEA4E6
:10260000C2471386440010C33147C8C09EA8BAA869
:10261000D6A801E48545EFF0DFACC840938584007F
:10262000EFF0FF9CC8408545EFF05FA91301410220
:102630006FD03FB2EFD25FB18D6783A7477E0D6742
:102640001307077F8A07BA9780438D659385857B3B
:102650002285EFF07FD305C137050020F165930790
:1026600005070147814601469385052013050507A7
:1026700080CFEFF01FE76FD0DFADEFD2FFAC834725
:10268000C502930500021397270093878184BA97A8
:102690009C438843EFF07FA6133515006FD07FABC6
:1026A000EFD29FAA8347C502930500041397270022
:1026B00093878184BA979C438843EFF01FA4133516
:1026C00015006FD01FA9EFD23FA841113704002099
:1026D000AA842EC2EFF00FAF9307040783C7C70287
:1026E0002AC41304040785E70347C402938781843F
:1026F0000A07BA979C43F1173EC0938781843EC670
:102700008247C1EF02C2124541016FD09FA48D677D
:1027100083A7477E0D671307077F8A07BA979C43F5
:102720008D669385867B3E853EC0EFF0FFC58D6646
:1027300071D923060402138781841C4399EF8347D0
:10274000C402850793F7F70F2306F402FDD7EFF0D5
:102750007FEE8347C402C9DB75B702459385867B4C
:10276000EFF09FC20346C4021387818493172600AB
:10277000BA979C438D669C43E393A7FC35D6C1BFB3
:10278000EFF04FA4A247B307F5403335F500E39BC4
:10279000A5F61307703EE367F7F60245EFF05FF02A
:1027A00065F19247A6973EC4A247E38EF4F4024532
:1027B000EFF01FEF6DFD8347C402324785048A079F
:1027C000BA979C4383C5F4FF8843EFF09F90E9BF1D
:1027D00011E57D5582807D556FD0BF97EFD2DF9692
:1027E000AA842E84EFF07FE97DF583C7C402139796
:1027F000270093878184BA979C438843EFF0FF8D2D
:1028000008A00145D1BF82802E87D5C59307E6FF7A
:102810009306200263E0F60AEFD21F93A947130143
:10282000C1FC631CF604635A0504B304A0400543CD
:102830000008A28699E06318D404B28526853AC6BA
:102840001AC432C0EFD05F9602462AC22685B285EE
:10285000EFD0DF929243A542AA8493F7F30F0504C9
:10286000024622433247140863EC72009387070341
:10287000E207E187A30FF4FE75BFAA8401434DBFB1
:1028800093877705F5B7BA87630703001306D0026D
:102890009307170010A363F886007D1410208507A6
:1028A000A38FC7FECDBF238007003A8513014103E4
:1028B0006FD03F8A01473A858280EFD2FF88EFF0E0
:1028C000BFF46FD01F89EFD23F88EFF08F83EFD036
:1028D000FFF6EFD0BFDEF5BF93574500BD8B09472C
:1028E0006366F7020D671307077F81471376F50FBD
:1028F000C9460C436397C50013750570C98F3E85A3
:10290000828085071107E396D7FED5BFC947C5BFAB
:102910009377F50F45476366F7080D678A07130736
:10292000077F3E97184393770570D98F7D5763894A
:10293000E70CEFD27F8113D427001387C1A413744F
:10294000C4032297184393F4F700511133579700AB
:102950009386C1A42EC0058B36C205CB8D653E85FE
:102960009385056E3EC4EFF0FF82A24709C53E8500
:10297000EFE03FFEA24712473A940547B314970091
:10298000184093C4F4FFF98C04C08246154763686D
:10299000D70611671307078F93952600BA959841BC
:1029A00002871377050C9306000C631BD7041307EB
:1029B000700C6367F7049377F5030D671307077DC2
:1029C0008A07BA979C430D671307077F8A07BA9750
:1029D0009C4313750570C98F91BF91453E85EFF0FB
:1029E0004FFD31016FD0EFF68D45CDBFE145FDB70D
:1029F00093058002E5B78145D5B79D45C5B701A0D0
:102A00008280EFD26FF49377F50F45476366F70442
:102A10000D678A071307077FBA979C4313750570E4
:102A2000B365F50093D74500BD8B09470145636940
:102A3000F700370700208A0713070700BA97884373
:102A40008547BD89B395B700C205C181EFF0CF9727
:102A50003335A0006FD0EFEF1377050C9306000C11
:102A6000FD55E311D7FC1307700CE36DF7FA93776C
:102A7000F5030D671307077D8A07BA979C430D6717
:102A80001307077F8A07BA978C4313750570C98DA2
:102A900051BFEFD26FEBEFE0BFF36FD08FEB05C10B
:102AA000EFD28FEA2A84EFE0BFF2AA84EFF0BFD51D
:102AB000EFE01FF2058DE36B85FE6FD08FE982801A
:102AC000511122C206C42A8411E105442285C52879
:102AD00011E5112811E105200295CDBFA240124455
:102AE0003101828001A89387C1848843828051117B
:102AF00006C41120D1A85111194506C4652E0545FB
:102B0000EF003026AA85814601460145C5A6511130
:102B100097170000938747F622C21714000013048A
:102B2000E4F51D8C26C006C40984BE8419E4124451
:102B3000A240824431016FE01FF97D1493172400F5
:102B4000A6979C438297DDB7511122C297170000C8
:102B50009387C7F117140000130444F11D8C26C09D
:102B600006C40984814463968402EFE0FFF5971759
:102B700000009387A7EF171400001304E4EF1D8CE7
:102B80000984814463928402A24012448244310148
:102B90008280139724003E97184385040297971765
:102BA00000009387A7ECC1B7139724003E97184302
:102BB0008504029797170000938747EBE1B7938747
:102BC0008181AA85884349A293878181AA85884308
:102BD000D1A8B3C7A5008D8B3307C50081E78D470A
:102BE00063E7C702AA87637EE50A94218507850506
:102BF000A38FD7FEE3EBE7FE82809421850785054E
:102C0000A38FD7FEE3EBE7FE0244110182809376A7
:102C10003500AA8789CA942185078505A38FD7FE29
:102C200093F63700C5BF9376C7FF138606FE63F59C
:102C3000C706711122C0C04903A3050083A3850004
:102C4000C0CB804D23A0670003A3450080CFC04DBB
:102C500023A2670083A2C50003A305019385450253
:102C6000C0CF03A4C5FF23A4770023A6570023A841
:102C700067009387470223AE87FEE3EEC7FAE3F3CC
:102C8000D7F890419107910523AEC7FECDBF904183
:102C90009107910523AEC7FEE3EBD7FEE3E7E7F428
:102CA00082808280CDC183A7C5FF511122C206C494
:102CB00026C01384C5FF63D307003E94AA84C124B1
:102CC000938701859C4399EB2322040023A88184E8
:102CD0001244A2402685824431015DA4637EF40043
:102CE00014403307D4006396E7009843DC433697DB
:102CF00018C05CC0E1BFBA87D84319C3E37DE4FEC6
:102D000094433386D700631F86001040B29694C365
:102D10003386D700E31EC7FA10435843B29694C3D4
:102D2000D8C37DB76375C400B1479CC055B7104088
:102D3000B306C4006316D70014435843B29614C0B8
:102D400058C0C0C371B78280411126C29384350038
:102D5000F19806C622C4A104B14763F5F404B14456
:102D600063E4B4042AC0212C1387018514438247ED
:102D7000368439E013874185184301EB3E85814550
:102D80003EC05D2023AAA18482473E85A6853EC021
:102D900061287D5782476314E506314798C33E8515
:102DA000C52229A0E3DE04FAB1471CC10145B240A7
:102DB00022449244410182801840058F634E0702ED
:102DC0002D466376E60018C03A9404C031A05840FE
:102DD0006392860223A8E1843E855D221305B40038
:102DE000130744006199B307E540F1D33E94098F7E
:102DF00018C075BFD8C2CDB7A28640409DBF13048E
:102E000035007198E30385FCB305A4403E853EC0C0
:102E100021287D578247E31AE5FA41B793878181DC
:102E20002E86AA858843B1AA511122C22A842E85F2
:102E300023A201AE06C4EFE0FFC6FD576317F500FD
:102E4000938741AE9C4391C31CC0A2401244310100
:102E50008280FD4763F6B700D9471CC17D5582804B
:102E60007C41411122C406C62E862A8491C713973D
:102E70002500BA97984319EB228532C0BD20AA8558
:102E8000228522440246B24041011DA885460145E3
:102E90006308D700FD566319D700D9471CC0054504
:102EA000B2402244410182802E8523A00700029770
:102EB0000145FDB793878181AA8588436FF07FF92B
:102EC000511122C22A842E85B28523A201AE06C4E6
:102ED0005925FD576317F500938741AE9C4391C375
:102EE0001CC0A24012443101828085A59387818550
:102EF0009C43AA8399EF138781A523ACE18417D55E
:102F0000FFFF13052510BA8709C51C4123A0F1AEA8
:102F1000BA87D8437D437D556346E304638D03023E
:102F200003A3870863000304931227009A9223A047
:102F3000C2000325031005463316E600518D2320F9
:102F4000A31023A0D20889466397D3008326431099
:102F5000558E2322C310930617000A07D4C3BA97CD
:102F60008CC70145828097D7FFFF9387A70999C730
:102F7000170500001305E5B96FF0DFB88280828085
:102F8000828081E5B2856FF03FDC311106C822C630
:102F900026C411EAEFF01FD18147C2403244A24457
:102FA0003E85510182802E8432C0AA843D20024693
:102FB000A287E374C5FEB285268532C2EFF0DFD862
:102FC000AA8761DD1246A2852AC0EFF09FC0A285C4
:102FD0002685EFF03FCD8247C9B783A7C5FF13858C
:102FE000C7FF63D50700AA959C413E9582801301D7
:102FF00041FD06D422D226D02A87AE8763910620CF
:10300000B68432832A8463FEC50EC166AE826363D2
:10301000D626B70600016367D64893558601E1447A
:103020009716000093868694AE969422B6949306E3
:103030000002858E99CAB397D700B3549700331313
:10304000D600B3E2F4003314D70093540301A685ED
:1030500016851AC216C0EFD02F95124382422AC697
:1030600093170301C183A68516851AC43EC0EFD00D
:10307000EF90AA852AC20245EFD04F8E3247935770
:10308000040192464207D98F224363FAA7009A9718
:103090001387F6FF63E4670063ECA742BA86898F63
:1030A000A6853E8536C61AC83EC4EFD0EF8FA2472C
:1030B000A6852AC23E85EFD06F8CAA85AA840245D8
:1030C00042044180EFD08F899242B246C20233E47B
:1030D0008200637CA40042439387F4FF1A946365E3
:1030E0006400F9146363A400BE849397060133E57A
:1030F00097008146B685A250125482541301C10232
:10310000828011EA2EC22AC081450545EFD00F8783
:10311000924702472A83C1666365D314B70600014C
:103120006366D33813568301E144971600009386F3
:10313000E683B29683C2060013060002A692330607
:10314000564063120614131703014183B387674087
:10315000935403013AC08546A6853E8536C81AC6F3
:103160003EC2EFD06F8492472AC4A6853E85EFD039
:10317000EF8082452AC2EFC07FFE224793570401A9
:1031800032434207D98FC24663FBA70012469A9783
:103190001307F6FF63E4670063EFA7323AC2898F33
:1031A000A6853E8536C81ACA3EC6EFC0FFFFB247A5
:1031B000A6852AC43E85EFC07FFC8245AA844204CE
:1031C000EFC0DFF9A2424180C246C20233E482006E
:1031D000637CA40052439387F4FF1A9463656400F0
:1031E000F9146363A400BE849247C20733E59700D5
:1031F000B685A250125482541301C102828063E149
:10320000D504C16563E7B604B705000163E8B628D5
:1032100093D58601614317050000130525752E958A
:103220000C219A95130300023303B340631D03106E
:1032300063E2F628B337C70013C51700814619A00B
:1032400081460145B685A250125482541301C10231
:1032500082809305F00F63F2D52693D58600214333
:103260005DBF9306F00F1A86E3F166EC13568300F8
:10327000A14465BD9306F00FB285E3F3C6DA93551A
:103280008600A14471BB3313C300B3D657009354D7
:103290000301B397C700B35257003314C700131785
:1032A0000301B3E7F2004183A68536853EC21AC802
:1032B0003AC036C4EFC05FEFA2462AC6A68536855F
:1032C000EFC0DFEBAA852AC40245EFC03FE93246D2
:1032D0009247A2464206C183D18F424363FBA700B7
:1032E0009A971387F6FF63E3671E63F1A71EF9162B
:1032F0009A973387A740A6853A8536CA1AC83AC432
:10330000EFC09FEA22472AC6A6853A85EFC01FE78D
:10331000AA852AC40245EFC07FE4B2473082224723
:10332000C207D18F4243D24663FBA7009A97130688
:10333000F7FF63E9671863F7A71879179A97C2062A
:10334000898FD98E11BD3355B600B3966600C98EEC
:10335000B353B7003ACC3317660013D40601B3D485
:10336000B7003AC4B397670013970601B3E7F300B9
:103370004183A28526853EC01ACA36C83AC2EFC02C
:10338000BFE22AC6A2852685EFC05FDFAA85AA8490
:103390001245EFC0BFDCB2438247C246C20313D618
:1033A000070133E6C30052436247637BA6003696AB
:1033B0009385F4FF636AD6106378A610F9143696E5
:1033C000098EA28532853ACC1ACA36CE32C8EFC0F1
:1033D000BFDD4246A2852AC63285EFC03FDAAA8504
:1033E0002A841245EFC09FD7B24230805243C202B6
:1033F00033E6C2006247637CA600F2469305F4FF01
:103400003696636FD60A637DA60A79143696C1662E
:103410009382F6FFA24693970401C18F33F45700BD
:10342000098EB3F2560032C293D3070193D406013A
:1034300022859685EFC09FD22AC0A6852285EFC03F
:10344000FFD12A8496851E85EFC05FD1AA82A6850A
:103450001E85EFC0BFD082461694C1823694637435
:103460005400C1663695935604013695924663E33F
:10347000A6026385A6003E858146E9B34166824582
:103480007D16B376C400C2066D8E33176700B29600
:10349000E373D7FE1385F7FF81466DB393D506011D
:1034A000414395BB93550601C1449DBE135603018C
:1034B000C144A5B98146054571B3B6850143A1BB99
:1034C0002E84B1B73287A5BDAE84DDBDBA8615B5F1
:1034D000F9169A97E9B61307E6FF3AC29A97C1B16F
:1034E00021112AC236C006CAAA8622C826C6328739
:1034F00032C4814701450143338666009373170048
:103500003304F50093D2F6010583B33466008607D1
:10351000638503003385840032838606B3E7570052
:1035200061FFAA8789C52245EFC05FC3AA970247FA
:1035300011C71245BA85EFC07FC2AA97D240424454
:10354000B2441A85BE85610182809307800523A25B
:10355000F1AE7D5582809307800523A2F1AE7D55A3
:10356000828001A0AED580A83FD300408D142000FA
:10357000A1C8DA1281CFD9F1DB40A4A6AF000000C8
:103580000702010008020100960000009700FD00FC
:10359000E3000000E4000400E5000200E600010092
:1035A000E7000300F5000200D9000500DB00CE00B3
:1035B000DC000300DD00F8009F000000A3003C00D9
:1035C000B7000000BB003C00B2000900CA000900BF
:1035D00098010100B0011700AD010000FF000500D7
:1035E0000001050099010500A6011B00AC013E0089
:1035F000A7011F0030000000110010000A01300078
:103600003F0046003100FF00400063002E00010033
:103610001B0009003E0031001400240016000000C9
:103620001C003F003E5149453E00427F4000426140
:103630005149462141454B311814127F1027454509
:1036400045393C4A49493001710905033649494920
:1036500036064949291E08080808087C0418047819
:103660000041221408081422410000002400003800
:10367000444444387F08142241081C3E08080808C6
:103680003E1C0800000000000000000008090000C7
:1036900076090000AC080000FA0B0000B00800003A
:1036A000BA080000D408000096180000C6180000F0
:1036B00012000000005400400F000000FFFFFFFF59
:1036C0000000000000000000110000000054004055
:1036D0000F000000FFFFFFFF0000000000000000DF
:1036E00024000000000000400B91000023000000B7
:1036F000000000400B11010010000000000000401D
:103700000B91010027000000000000400B11020097
:1037100022000000002C01400B8D00000100000081
:10372000002C01400B0D010013000000002C014093
:103730000B8D010014000000002C01400B0D020055
:1037400020000000002C01400B8D00000200000052
:10375000002C01400B0D010021000000002C014055
:103760000B8D0100FFFFFFFF0000000000000000C4
:10377000230000000038014018000000FFFFFFFF99
:1037800000000000000000001200000000380140AE
:103790000B000000FFFFFFFF000000000000000022
:1037A000260000000038014018000000FFFFFFFF66
:1037B000000000000000000025000000003801406B
:1037C0000B000000FFFFFFFF0000000000000000F2
:1037D0000100000000000000060000000C000000D6
:1037E0000D0000000F000000100000000E0000009F
:1037F00001000000020000001000000011000000A5
:10380000120000001300000014000000150000006A
:10381000160000001700000020000000210000003A
:10382000220000002300000024000000250000000A
:10383000260000002700000000000000000000003B
:103840009C140000D4140000AC0800009614000082
:1038500098140000B6140000981400009618000098
:10386000C6180000102200003E2200004222000084
:103870004C22000054220000582200006222000066
:103880006A220000722200007622000082220000DC
:103890008E2200009A2200009E220000AA22000030
:1038A000B6220000C2220000C6220000CC22000086
:1038B000D0220000D8220000DC220000E422000018
:1038C000E8220000F0220000F422000000230000A3
:1038D00001000000020000000400000008000000D9
:1038E00010000000200000004000000080000000E8
:1038F000DA290000E8290000EC290000F029000086
:10390000F6290000FA290000000000000000000075
:1039100000000000000000000000000000000000A7
:103920000000000000000000000000000000000097
:103930000000000000000000000000000000000087
:103940000000000000000000000000000000000077
:103950000000000000000000000000000000000067
:103960000000000000000000000102020303030346
:1039700004040404040404040505050505050505FF
:1039800005050505050505050606060606060606DF
:1039900006060606060606060606060606060606C7
:1039A00006060606060606060707070707070707AF
:1039B0000707070707070707070707070707070797
:1039C0000707070707070707070707070707070787
:1039D0000707070707070707070707070707070777
:1039E000070707070707070708080808080808085F
:1039F0000808080808080808080808080808080847
:103A00000808080808080808080808080808080836
:103A10000808080808080808080808080808080826
:103A20000808080808080808080808080808080816
:103A30000808080808080808080808080808080806
:103A400008080808080808080808080808080808F6
:103A500008080808080808080808080808080808E6
:083A600008080808080808081E
:0C3A6800662F0000260F0000D2150000A1
:043A7400360F000009
:103A7800000801400010014000140140140000003B
:103A88000000000014000000000000001400000006
:103A980000000000140000000000000014000000F6
:103AA80000000000140000000000000014000000E6
:103AB80000000000140000000000000002040608D6
:103AC80004080C1008101820102030402040608096
:103AD8000102030405060708010203040506070896
:103AE80000000000000000000000000000000000CE
:103AF8000000000000000000FFFFFFFFFFFFFFFFC6
:103B0800FFFFFFFFFFFFFFFF0000000001000000B4
:103B1800000000002839000048390000083900007A
:103B2800000000000000000000000000000000008D
:103B3800000000000000000000000000000000007D
:103B4800000000000000000000000000000000006D
:103B5800000000000000000000000000000000005D
:103B6800000000000000000000000000000000004D
:103B780032009600FFFF0000010000000100000075
:103B8800E8030020006CDC02A00000200001020312
:00000001FF
