:100000006F20C00600000000B21B0000B61B0000FD
:1000100000000000000000000000000000000000E0
:1000200000000000000000000000000000000000D0
:1000300000190000000000003C200000000000004B
:100040003E2000004020000042200000442000002C
:100050009E190000482000004A2000004C200000AB
:100060004E200000502000005220000054200000CC
:1000700056200000582000005A2000005C2000009C
:100080005E2000006020000062200000B615000025
:10009000662000005E1600006C16000000000000E4
:1000A0003367B500FD530D8B79E7B7877F7F938763
:1000B000F7F710419441B372F6003363F600BE9235
:1000C000B3E262006395720C6318D6065041D441C6
:1000D000B372F6003363F600BE92B3E26200639639
:1000E000720A631BD60410459445B372F60033635D
:1000F000F600BE92B3E26200639F7208631ED602EE
:100100005045D445B372F6003363F600BE92B3E2B5
:100110006200639872086311D60210499449B37261
:10012000F6003363F600BE92B3E262006391720898
:100130005105D105E30FD6F6131706019397060173
:10014000631CF7001357060193D706013305F740E8
:100150009375F50F91E982804183C1833305F740A0
:100160009375F50F91E182801377F70F93F7F70FEF
:100170003305F7408280102194210505850563131E
:10018000D60075FA3305D640828011059105E31437
:10019000D6FE014582802105A105E31ED6FC01455E
:1001A00082803105B105E318D6FC01458280410506
:1001B000C105E312D6FC01458280511126C022C23E
:1001C00006C4828282441244A2403101828000002F
:1001D0002A86014593F6150091C23295858106065F
:1001E000F5F9828000000000634E050263C3050438
:1001F0002E86AA857D5515C285466378B60063565E
:10020000C00006068606E36CB6FE014563E4C50041
:10021000918D558D85820582F5FA82808682C93F4F
:100220002E8582823305A04063D70500B305B04018
:10023000C1B7B305B0408682653F3305A0408282D6
:10024000868263C70500634905005D372E8582827B
:10025000B305B040E35B05FE3305A040513F3305D5
:10026000B04082820000B7170240984FB70610FFD7
:10027000FD161367070198CFD84F13671700D8CF23
:10028000B71701409843419B98C398431367B70041
:1002900098C39843758F98C39843B7068000558FCD
:1002A00098C3D84713670702D8C7B707004013079A
:1002B000F0029AB7130700089AA3DA2F4207418386
:1002C0001377F7F842074183DAAFDA2F136707068F
:1002D000DAAF9A33136707109AB39A23136717009C
:1002E0009AA38280B71602409C4E1167130717022B
:1002F000D98F9CCEB717014003A70740B70610F06F
:10030000FD16758F23A0E74003A70740B706B00886
:1003100013860740558F23A0E74083A7C7403707C0
:10032000014093E707045CC65C43ED9B5CC3B747A1
:10033000014083D6C78079777D17758F2396E78034
:100340001307101A2394E780096731072396E78083
:100350008280B74701409386078083D70780C20712
:10036000C18313F7E70011CBDE2271110147C207E9
:10037000C1833EC03A851101828093F7070201478D
:1003800081C7DE2205471CA13A8582800DC1EFF2AC
:10039000DFE2AA8537450F0013050524B135420574
:1003A000B70700404181CAB72392070221BD82806E
:1003B00011E5B707004023AE07028280EFF2FFDFAE
:1003C00037040040AA854A342135930540060D358F
:1003D00048DCCDBBEFF27FDEAA840A211301C1FA0B
:1003E00005E1AA20B707004023AE0702EF208005F1
:1003F000B70700207D5723A0E72613014105D9B395
:100400002EC06937B7070040DA379305400613045A
:10041000710413154700198DE13BB7070040C8DF91
:100420006545EF202002DC206198824699E393071E
:100430000003D8303AC419E30D473AC42392F1823D
:1004400023A40182922093878182138741823ED820
:10045000BD473AC23ECC6304D60095473ECCAA20A5
:10046000E54702C063FEA700930775FE139557008A
:100470001D8D0A053E95930540060E05953B2AC045
:1004800002459305803EAD332ADA02459305803E4E
:100490007133B337A000B307F5403EDC9307400645
:1004A0003EC6B747014083D7078093F70702B1F7ED
:1004B00092478A23F53D924762479E236358F7008F
:1004C00079476375F70C1247FD171EA38247DDC7F6
:1004D0005255EF103077B7F700E0984702D06256D8
:1004E0003ACEF2460257814514C458C49C4B81460B
:1004F00085073E853ED6EF20D0281306803E8146F4
:10050000EF20005918445C442ADE18C05CC02E83DA
:1005100081470147B7F600E0944602D436D212561E
:10052000A25610C454C41040544008444C4463E9DB
:10053000D5066394B6006365C5061044544408406C
:1005400032C836CAC2464C40B382A64033B65600C3
:10055000D2463385B640118DBE92B3B6F200104438
:100560003A953387A600544410C0968754C0E3637D
:1005700067FA6315E300F256E3EED2F8B247FD17CF
:100580003EC685F39A20B7070020B5B53EC8C257CE
:10059000A2458843050588C351310DF9C24725B7E7
:1005A00008404C401044544432C836CAC246B38353
:1005B000A64033B67600D2468D8E3386C640B256FC
:1005C000B382D30033B57200329579B7B7170140C3
:1005D0009843B706F00F9386F60F758F98C398432C
:1005E000B736034093860630558F98C3D8476D9B26
:1005F000D8C7D8475D9BD8C78280130141FB9307BA
:100600007102A2C4A6C2AA82E19B1386F5FF371726
:100610000140B7F600E0FD55630EB60CB3D5C240FD
:100620008589C5CD4C4793E505014CC74C4793E5FB
:1006300085004CC78C4602CA2EC84245D24588C7A1
:10064000CCC78C4A8847CC4788C3CCC38C4602CEE3
:100650002ECC6245F24588C7CCC78843CC4303A360
:10066000870083A3C70063EDB306639475006369D5
:10067000A3068847CC478843CC438847CC4788C3E8
:10068000CCC34C47DD994CC78C4602C22EC00245F4
:10069000924588CFCCCF8C4A884FCC4F88CBCCCBDF
:1006A0008C4602C62EC42245B24588CFCCCF884B9B
:1006B000CC4B03A3870183A3C70163E8B302639410
:1006C00075006364A302884FCC4F884BCC4B884F96
:1006D000CC4F7D1688CBCCCB3DBF4C47BD99B1B735
:1006E0008843CC438847CC4749BF884BCC4B884F85
:1006F000CC4FF1BF264496441301C1048280EFF22F
:10070000DFAB371701405C471301C1FBAA8493E7B5
:1007100047005CC78D451945CD35A1452685F13D7E
:10072000130471026198C145014537170140B7F7BD
:1007300000E0544793E6860054C7944702C236C08F
:100740000246924610CC54CC944B104C544C10C8DA
:1007500054C8944702C636C42246B24610CC54CC84
:1007600010485448032384018323C40163EAD30857
:10077000639476006366C308104C544C1048544888
:10078000104C544C060510C854C814479D82858AE5
:10079000558D544742054181DD9A54C7944702CA9A
:1007A00036C84246D24610C454C4944B10445444F4
:1007B00010C054C0944702CE36CC6246F24610C4F4
:1007C00054C410405440032384008323C400B684DF
:1007D00063EDD302639476006369C302104454440A
:1007E0001040544010445444FD1510C054C0B1F1A1
:1007F000371701405C47ED9B5CC713014104D9B238
:1008000010485448104C544CA5BF1040544010445C
:100810005444C9BFEFF27F9AB7140140D8447971AC
:100820002AC8136747002ECAD8C48D451145F13335
:10083000A1451305000CD133D844B7F600E01304EA
:1008400031026D9BD8C490466198814710C45CC446
:100850009C4A1306803E8146938417002685814575
:10086000EF20002318445C442ACC18C05CC02E83BF
:1008700081470147B7F000E083A6800002C636C476
:100880002246B24610C454C41040544008444C445C
:1008900063EBD5086394B6006367C50810445444FD
:1008A000084032C036C282464C40B382A64033B6BE
:1008B000560092463385B640118DBE92B3B6F20013
:1008C00010443A953387A600544410C0968754C00C
:1008D000E36467FA6315E300E246E3EFD2F8371406
:1008E00001405C448D45154593E747005CC43133B6
:1008F0004245A14519335245C14501335C443D454C
:10090000ED9B5CC4EF1010345C448D45114593E7BA
:1009100047005CC4DD31A1450145C5315C44ED9B18
:100920005CC4456145B008404C401044544432C05A
:1009300036C28246B383A64033B676009246B3826F
:10094000930033B572008D8E3386C6403295B5B7AD
:10095000EFF2BF8603C741835111938741833EC2A3
:10096000138481851DC7EF10302D92479C23138778
:10097000F7FF93171700BA9703A701838507860728
:10098000198D4167130787DEA2976373A7003A8525
:100990008AA3B7350000138501A993858507EF0069
:1009A000305495659385A55A0145AD359247054567
:1009B00089448C23853502C03EC4924702479C235C
:1009C0006357F7040E202685B1352E2013851400B9
:1009D0001375F50F81354E20138524001375F50F1F
:1009E000153D02459545EFF0BF8511E9B737000089
:1009F00093854709A247138501A9EF00904B8247D1
:100A00008D04190485073EC093F4F40F7DB7A24707
:100A1000B735000093858509138501A9EF00504C77
:100A200031016FF02FFAEFF24FF9B73500009385DF
:100A3000C520138501A9EF00B04AB73500009385A2
:100A40004523138501A9EF00D04683C7F182DDEB72
:100A5000B735000093854520138501A9EF00504864
:100A6000B73500009385C523138501A9EF005047D2
:100A7000B73500009385C525138501A9EF005046C1
:100A8000B735000093854528138501A9EF0050452F
:100A9000B73500009385C52A138501A9EF0050449E
:100AA000B73500009385052D138501A9EF0050434C
:100AB000B73500009385052F138501A9EF0050423B
:100AC000B735000093854531138501A9EF005041EA
:100AD000B735000093858533138501A9EF00504099
:100AE000B73500009385C535138501A9EF00503F48
:100AF000B735000093850538138501A9EF00703BD9
:100B00006FF04FECB73500009385C51FB1B7EFF21A
:100B1000CFEAEFF04FF55D3CF1650946938505207E
:100B2000138501A9EF00900DEFF0CFFB1305803E78
:100B3000EF105011CD3D6FF0EFE8EFF20FE81377B3
:100B4000F5FD930620054111631BD7021384E18252
:100B50001C2085E385471CA0238A0182EF10D00D5D
:100B6000B735000023A8A1829385050A138501A942
:100B70007DAAF93B2300040041016FF0AFE4930626
:100B800010056306D7006D47AA876319E502138431
:100B9000E1821C2081C76D3B23000400B7070040A1
:100BA000B735000023AE07029385050B138501A915
:100BB000A3860182EF00D032BD357DBF13079005BB
:100BC0006303E5226343A71A130780046300E52249
:100BD0006342A71613074004630DE520634DA70089
:100BE00013070002630AE520930610049304604192
:100BF000638FD70051B7930660049304505763087E
:100C0000D5009304006263C4A6009304D04D3EC295
:100C1000EF10900283C6E1829387E1823EC0138386
:100C200001839247A5CA83C5418393063005938209
:100C3000418363E1B6069383818585C59386F5FF7D
:100C400013961600369683260300050641640606B1
:100C5000B306D540130484DE1E966373D400A286C7
:100C600016A293961500AE96139616001E9606A22F
:100C70001386160006061E9689061304401F02A25C
:100C8000139616008D668D061E9616A29386150085
:100C90002380D2002320A3001384F1826387041AE7
:100CA0009306803E7485FD559306003328007486B4
:100CB0003EC26484EFF00FF2B706004023AE060296
:100CC0001420E39B06EAB73500009385850C138555
:100CD00001A9EF00101E9247138501A9BE85EF0000
:100CE000F01DB73500009385050D138501A9EF00B0
:100CF000501C2946A685138501A9EF00102B8247B9
:100D00009C2389CBB73500009385C50D138501A9B8
:100D1000EF00301A83C541832946138501A9EF00EE
:100D2000702CB73500009385450E138501A9EF009F
:100D3000501899B5130730056302E50C634CA70002
:100D40001307A004630FE50A05679306B004930434
:100D5000D78279BD130750056308E50A6349E50AA0
:100D6000930670059304504561B51307A00663030D
:100D7000E50A634CA702130750066300E50A634BBC
:100D8000A70013071006630DE508930640069304B9
:100D90003029B9BD130770066307E5086348E50805
:100DA0009306800693040037A1B51307400763023A
:100DB000E508634BA7001307B006630FE50693062B
:100DC00030079304B0242DB5130770076309E506B7
:100DD000130790076308E50613075007E31EE5D8DD
:100DE0009304403A2DB59304D06715B59304006E73
:100DF00039BD9304705221BD814411BD93047049E3
:100E000039B59304807B21B59304907409B593049C
:100E1000805CF5BB9304C03DDDBB9304E026C5BBFD
:100E20009304B020EDB393040031D5B39304A02B09
:100E3000F9BB9304402EE1BB93046041C9BB93040A
:100E4000A022F1B39304F033D9B3B707004023AE27
:100E500007021C20E39207D2B73500009385850E68
:100E600031B3EFF28FB5B735000093858500138558
:100E700001A9EF0010048144C165FD1513F5F40FBD
:100E8000EFF05F9913F7F40109EBB7370000938592
:100E90004709138501A9EF00D0018504130700104D
:100EA000E39CE4FCB73500009385C501138501A9D7
:100EB000EF0010036FF00FB1EFF22FB021110145D9
:100EC000EFF0FF8395679387A75A630DF500B73559
:100ED000000093854502138501A9EF0070006101B0
:100EE0006FF04FAE0545EFF09F8103C7F182938706
:100EF000F1822AC23EC61DE7B7350000938505037F
:100F0000138501A9EF00E07A92452946138501A9CE
:100F1000EF00B009B73500009385C503138501A91B
:100F2000EF00007C894402C03C80124763F2E71264
:100F30002685EFF0CFFC2AC4E880138514001375D2
:100F4000F50F13842400EFF08FFB1374F40FE88186
:100F50002285EFF0CFFA2185230AA1002285EFF048
:100F60000FFAB247A30AA1009C23DDEFB7370000B8
:100F700093858704138501A9EF00A0738245294654
:100F8000138501A9EF007002B735000093850505B0
:100F9000138501A9EF00E0712946A685138501A9F3
:100FA000EF005004B73500009385450F138501A964
:100FB000EF002070A2452946138501A9EF00E07ECD
:100FC000B735000093858505138501A9EF00606E94
:100FD000AC812946138501A9EF00207DB7350000BB
:100FE00093854506138501A9EF00A06C8345410157
:100FF0002946138501A9EF00E07EB73500009385EF
:10100000C506138501A9EF00C06A83455101294631
:10101000138501A9EF00007DB73500009385C53722
:10102000138501A9EF00C06B82478D04FD5585072C
:101030003EC0024792476357F70013F5F40FEFF0F5
:101040000FECAA850808EFF0EFB893F4F40FE9BDB0
:10105000B707004023AE070259B5EFF20F9693870A
:10106000C18298234111AA8431CBB7350000938502
:10107000850FEFF0EF8201E99387C182238007009B
:10108000EFF07F9AF1A0373400009305C40F268556
:10109000EF10806C55CD938721828623138714002F
:1010A0009AA3EF10003E93150501C18113F5F40FCB
:1010B000EFF04FF69305C40F0145D9BF03050500B6
:1010C000EF10900F620561859307B0046316F50277
:1010D000B7350000054793850510138501A9A38640
:1010E000E182EF00E05FB7350000938505131385BB
:1010F00001A9EF00E05EA9A8930720056312F50A95
:10110000930500022685EF10806231C50505EF10BA
:101110004037B73500009374F50F93854516138556
:1011200001A9412B2946A685138501A9EF00806BF3
:10113000B735000093850517138501A99D2B2685DA
:10114000EFF0EFDBAA852946138501A9EF00806641
:1011500041016FF02F87B735000093854517138540
:1011600001A9BD2B814413F5F40FEFF04FD9AA85E7
:101170002946138501A9EF004063B7370000938526
:10118000470F138501A93523850413F7F40001E700
:10119000138501A92D2B13070010E396E4FC4DBF26
:1011A000930770056316F50A268593050002EF1074
:1011B00000581384C1823DC99307150093050002AE
:1011C0003E853EC2EF10A0562AC02DC192473E85F3
:1011D000EF10202B02471374F50F13051700EF10C3
:1011E000402A931505012AC0C1812285EFF08FE2C4
:1011F000B73500009385C518138501A95D2982477D
:101200002946138501A993950701C181EF00E05993
:10121000B735000093858519138501A959292946F9
:10122000A285138501A9EF00805C1DB78547B735FE
:1012300000001CA09385051A138501A92391018242
:101240004521B73500009385451C138501A955B587
:10125000930700056314F5008531DDBD9307400554
:10126000631EF5042685EF10004E8947E3FAA7E0D8
:1012700013852400EF10E0201374F50F2285EFF0A2
:101280000FC86884130514001375F50F0904EFF0F7
:101290000FC71374F40F68852285EFF04FC62185C0
:1012A00048862285EFF0AFC5C886FD552800EFF0CF
:1012B0006F92B707004023AE070259BD9307D004D1
:1012C0006319F5009387F18298231347170098A3B9
:1012D00045BB93073004E315F5DA613695BDEFE2BF
:1012E000DFED711113053100EFF0AF8619C983C727
:1012F000D182830531009384D18299C72E85EFF086
:10130000DF8311016FE01FEC138501A9452E988141
:10131000A287B546138401826305D700A946631EE0
:10132000D702102079DE138701A53297138501A912
:1013300023000700692E138501A5053303C7C18269
:10134000230004005DFF98204DFFB7350000938512
:101350004507138501A9B12E6DB714209307E0034B
:10136000E3E1D7FA938716001CA0938701A5B697EF
:1013700098A341BFEFE27FE49D37371401401C443E
:1013800093F707028DE313052003EF10A00B1C4415
:1013900093F7070289EBEFF03FB2371701401C4784
:1013A00093F70702EDDF6FE0FFE101458280828065
:1013B0007D558280EFE27FE01C417111CC81DC43DE
:1013C000930531000546829711016FE0BFDFEFE220
:1013D000DFDE7111930531004105EF10400109E591
:1013E000888111016FE01FDE7D55E5BFEFE2FFDC74
:1013F0002E85B285EF00106F6FE0DFDC13773600CB
:1014000093870181BA9703C307006CC12300C50409
:101410001377060393070003930600606307F70042
:1014200093760602B336D000AA0609860D8A7D1689
:101430008947014763E7C7000606938741813E96C7
:101440001A22A1476306F300A547630BF30001A02E
:101450000146EFE29FD64105EF00B05E6FE09FD6F8
:101460000566C5BF13F7F50FC54763EDE7008D6748
:10147000938747400A073E9793F705700C43CD8F3B
:101480005CD5828093F6050C1306000CFD57E3999A
:10149000C6FE9306700CE3E5E6FE93F7F5030D67D1
:1014A0001307473E8A07BA979C430D6713074740C7
:1014B0008A07BA9793F505709C43D1B713F7F50FD8
:1014C000C54763EDE7008D67938747400A073E975E
:1014D00093F705700C43CD8F1CD5828093F6050CD5
:1014E0001306000CFD57E399C6FE9306700CE3E566
:1014F000E6FE93F7F5030D671307473E8A07BA9791
:101500009C430D67130747408A07BA9793F5057008
:101510009C43D1B7EFE27FCA9307803E1CC58D671D
:10152000938747451CC10CC9232205009305600C15
:101530002A840D3F9305500C2285493758541C547A
:101540006314F700FD575CD4FD571CD85CD86FE0DE
:101550007FC7EFE29FC6B74501409385058013859D
:1015600001A94D3F6FE01FC6EFE23FC5184519E3E3
:10157000EF00506F5C4582976FE0DFC411E101A07E
:10158000EFE2BFC32A8408418545EF00806E15C194
:101590001C40DE27858B91CF2285EF00B0350841B6
:1015A0005C5D81C713054503C13708408545EF00E1
:1015B000C06D6FE03FC103A5818319C111057D3F57
:1015C0007300203011E101A01C41DA27098B11EBD7
:1015D000DA27118B19E7DA27218B01E7DA27418B0C
:1015E00035CFEFE29FBD2A8489453E85EF006068D4
:1015F0001C401DC189453E85EF0020698544228538
:10160000EF00502F084192049384440326951C4513
:1016100091C3993F6FE01FBB3E859145EF00606528
:101620001C4019C591453E85EF0020668944C1BF25
:101630003E85A145EF00E0631C4019C5A1453E85EC
:10164000EF00A0648D4465BFC1453E851D2545D989
:101650000840C1459144EF00406355B7828003A51F
:10166000818319C11105B93F73002030711122C067
:1016700013848183484011C511050937484011057D
:101680009137024411017300203095C1EFE2FFB29F
:1016900071112A842E852EC0EF10E00A1C4082456D
:1016A0002A86DC432285829711016FE0BFB1014594
:1016B0008280EFE29FB0D13F6FE0DFB0EFE2FFAF9B
:1016C0001C4193F5F50F9C4382976FE0BFAFEFE2AB
:1016D000DFAEB735000093858547453F6FE09FAE8D
:1016E000EFE2BFADAA8455372A842685CD372295EF
:1016F0006FE05FADEFE27FAC797123060102054731
:10170000AA86AE8729446373C700328464103E857D
:10171000A28536C43EC2EFE0BFADAA852AC02285AD
:10172000EFE01FAB9247254602473385A74013756C
:10173000F50F93158501E185A2466342B6021305B4
:10174000050362056185FD1488A063F88700A685FE
:101750003685253F45616FE0FFA6BA874DBF13056B
:101760007503C5B7EFE27FA57111AE8409EA1C418C
:1017700093F5F50F9C43829711016FE0BFA42AC037
:10178000A9466310D60263D005029305D0023D3707
:1017900002472A842946B30590403A85A13F229505
:1017A000E1BF1376F60FB937C1BFEFE21FA15D3F6E
:1017B0006FE05FA1EFE27FA0AA846D372A842685BF
:1017C000393722956FE01FA0EFE23F9F01EA1C41ED
:1017D00093F5F50F9C4382976FE0DF9E1376F60F2B
:1017E000113FDDBFEFE27F9DC5376FE0BF9DEFE2A8
:1017F000DF9CAA84D13F2A842685D13D22956FE0C3
:101800007F9CEFE29F9B2A84EF00104348C41C405A
:101810002285DC4B8297635A0500EF00F0415C445F
:101820001D8D1C44E365F5FE7D556FE0BF99EFE229
:10183000DF986111AA8401442EC232C0630DC40036
:101840002685C1376349050092450246B387850066
:1018500088A30504D5B7228521016FE0BF96EFE28A
:10186000DF955111014495C6B684AA8701443E858F
:1018700032C42EC23EC07137634D05009245630AE3
:10188000B500224682473307860008A30504E3908B
:1018900084FE228531016FE0FF92EFE21F92E1208A
:1018A0006FE05F92EFE27F9185476301F50219C512
:1018B00089476303F50201456FE0DF9011458545D7
:1018C000512E3715014013050580FDB7414585456B
:1018D000512637150140CDB71305000285459D2ED1
:1018E0003715014013050540C1BF03A5018483A539
:1018F000418482808280EFE25F8CC53F6FE09F8CE5
:101900009387018403A3070083A3470013071300F1
:101910003335670098C3B3067500D4C3E13FB7F70A
:1019200000E023A2070073002030EFE21F8937F4A4
:1019300000E023220400232004002324040003A544
:1019400081809305803EEFE0BF8A7D1508C8BD47C2
:101950001CC07D57B7E700E02386E740056723A05A
:10196000E7106FE03F86EFE25F85C1376FE09F854C
:10197000814705476307E5008507058193F7F70F62
:10198000D5BF370700208E0713070700BA97DC433F
:1019900091C7EFE29F8282976FE0DF8282806111C0
:1019A00022C226C00544A1442285992019C522855A
:1019B000B928131504014181653FFD140604EDF4B7
:1019C00012448244210173002030138741801C435C
:1019D000938681B63E956369D500938601BE63E523
:1019E000A60008C33E858280FD57EDBF82808280BD
:1019F000B70701401387074083A70740584B698FFB
:101A000009C77D8D3335A000828001458280B707EC
:101A1000014023AAA74082809C45611122C226C0B2
:101A200013F7070113F3F70001C7D8413363E3004D
:101A300092211377F60F29C783230500014713046A
:101A40008002930480048546B395E600B376B60021
:101A50006392D50293122700BD46B396560093C6F3
:101A6000F6FFB3F37600B3125300B3E3720063974B
:101A700087064CC90507A146E317D7FC232075004C
:101A80001307F00F6378C70483234500A1461304AE
:101A90008002930480040547B312D70033775600C1
:101AA0006394E202139726000117BD45B395E50044
:101AB00093C5F5FFB3F375003317E300B363770005
:101AC00063928702232A550085064147E395E6FC89
:101AD000232275001244824421018280E39C97F8FE
:101AE0000CC949BFE39297FE23285500F1BF370385
:101AF0000140032743009317350063D00702B7075F
:101B0000C0FFF517F98F37070007D98FD9CD3707F1
:101B100000F07D17798DC98F49A8635D0500B7076F
:101B2000E0FFED17F98F37070007D98FBDCD060508
:101B30000581D5B7B7073000931605013376F50058
:101B4000C1826313F602370600F97D16B377C7002A
:101B500003274300798E2322C300A1C9558113179F
:101B600045003395E60045BF9317B50063D40702DF
:101B70009357050113F6F7008D47B397C70093C736
:101B8000F7FFF98F37070007D98F85C11357550124
:101B90001207C1BF558112053395A6009347F5FF83
:101BA000F98F37070007D98FBDF5370701405CC3B0
:101BB00082807300203001A0EFE22FE0371702404F
:101BC0005C4391462A84B18B6385D700A146638D1F
:101BD000D706B7376E01938707601CC0B71602405F
:101BE000DC42918313F7F700B7070020938747057E
:101BF000BA978C23DC42184093F5F50F93F707084A
:101C00003355B70081E73A85EFE08FDE48C008C45E
:101C100048C4B7170240DC43AD83FD8B13D73700B0
:101C20008A07F18BD98F93F637010D476373D7007D
:101C3000D1173707002013070704BA978C23EFE06A
:101C40002FDB08C86FE00FD85C43B777DC029387BF
:101C500007C061B799C5371702401C4F5D8D08CF8B
:101C60008280B7170240984F1345F5FF798D88CFD2
:101C700082801E294A25ED8F4205418189C76D8DDD
:101C80003335A00082800145828093C5F5FFC205EF
:101C9000C1810EA98280EFE24FD21629F577FD1798
:101CA000F58FF621DA252111D58F1EA95625FD774E
:101CB0009387379FF58FD6212A842EC0D58F9625FE
:101CC000D58FB625D58F5EA55E29C207C18393F750
:101CD000F7CF5D8F5AA94800C535B74701409387B4
:101CE000078082456312F406C2475A2413951700F1
:101CF0003E9542070E0541873E958C416358070487
:101D00008605EFE0EFCE930540062AC0EFE04FCE08
:101D1000824793144500930540063E85EFE00FD0BF
:101D20005E24C207C18763D507020E0593054006EE
:101D300013052503EFE0CFCB1D89C98CC204C180F8
:101D400006A461016FE00FC8B24745B78A0555BFC9
:101D500012059305400613052503EFE06FC93D8981
:101D6000E9BF91C55E250967D98F5EA582805A2596
:101D7000F977FD17F98FD5BF93F5F51F4EA1828036
:101D80004A211375F51F82805E2989C593E7870074
:101D90005EA98280C207C183DD9BC207C183CDBF1C
:101DA0000A216D8D3335A0008280B7170240984319
:101DB000B706FFFC1367170098C3D843758FD8C3C5
:101DC0009843B706F7FEFD16758F98C39843B7067C
:101DD000FCFFFD16758F98C3D44341777D17F98EAC
:101DE000D4C3B7069F0094C7B72602409042719AA9
:101DF00090C290421366160090C2D443D4C3D44319
:101E0000758FD8C3D843B7060001D8C39843558F00
:101E100098C3984393166700E3DD06FED843B716D0
:101E20000240719BD8C3D84313672700D8C321470A
:101E3000DC42B18BE39EE7FE8280EFE20FB8311106
:101E400002C402C602C8FD576313F50001A093D770
:101E5000854093F4F7079377F500139727008D6774
:101E60009387874EBA979C4311813D892E843EC04B
:101E7000EFF05FA32AC28DC485450545EFF09FDDD5
:101E80009387F4FF6947636DF7000D678A071307AF
:101E9000C747BA979C43828785450545EFF03FC504
:101EA00093572440137734008D8B7DC73AC609477A
:101EB0006380E70E0D47638FE70C05476388E70CE7
:101EC000C1473EC8EDA08145C9BF85453705001013
:101ED0000905E9B7854537054010DDBF8145E5BFF8
:101EE000854537050080110555BF8545370520809C
:101EF00075B7854537052080FDB78145E5BF3705B6
:101F0000160085451305050451BF854537051600A4
:101F10001305050861B78545370516001305050C3F
:101F2000B5BF8145D5BF3705180085451305051098
:101F3000B5B73705180085451305052085B78545D4
:101F4000370518001305053091BF8145D5BF85457C
:101F50002165A9B78145EDBF8545370520008DBFB7
:101F60008145E5BF854537052000B5BF8145E5BF03
:101F700085453705200069BF8145E5BF85453705A3
:101F800030001305054019BF8145D5BFD14715BFA6
:101F9000E14705BFF14735B705476383E70299C7B6
:101FA00089466381D7029307800221BF02C8824716
:101FB00012452C007C84EFF03FA651016FE08FA00A
:101FC000914701B711840D8893078004E31DE4FC59
:101FD000CDBDFD577D57631DF50082806399A70035
:101FE000EFE2AF9D8C45EFF05FE56FE0AF9DB1058F
:101FF0009C41E395E7FE01A07D579C416394E70077
:10200000014582806394A700C8418280B105F5B77D
:10201000FD576307F500EFE24F9AF93F6FE08F9AA3
:10202000014582806305B50019C181E5AA852E8529
:1020300082808145EDBF01A001A001A001A001A007
:1020400001A001A001A001A001A001A001A001A088
:1020500001A001A001A001A001A001A001A001A078
:1020600001A001A001A001A001A001A097F1FF1F04
:102070009381419F138101DA1715000013058570C4
:1020800097E5FF1F938505F81386018263FAC50063
:102090008322050023A0550011059105E3EAC5FE42
:1020A00013850182938581B66377B50023200500EF
:1020B0001105E36DB5FE93020008739002308D4266
:1020C0007390428097E2FFFF9382C2F393E2320063
:1020D00073905230170500001305453B712ED5262D
:1020E000EFF0BFCC97020000938222347390123439
:1020F0007300203071158280EFE22F8C1301C1FD37
:10210000AA84084D32C60D662EC49305C63C3ACA51
:1021100036C8FD3D2AD0C84C8D669385463BCD3DE3
:102120002A8488508D659385C539DD352AC0C8500D
:102130008D6593854538E93D02570D668D662AC247
:1021400032CC36CE630B070ED04CFD566304D6005E
:102150006305040E9050FD566305D6008247638EDA
:10216000070CD050FD566305D60092476387070CD5
:102170003A85A285EFF01FEB824588C0EFF09FEA19
:10218000924588C0EFF01FEA88C045C93747014033
:1021900013070780631BE50085451165EFF09FABD2
:1021A000130700022386040298D4E247884C9385E3
:1021B000C73CEFF01FE219C4F247C84C9385473B78
:1021C000EFF03FE18247814689CB88508D6593854A
:1021D000C539EFF01FE093060010924799CBC85025
:1021E0008D6593E606209385453836C0EFF07FDE97
:1021F0008246A24703C7C40288409CC4B247131654
:102200002700DEA4D247138781843297FEA4C247F9
:102210001386440010C33147C8C09EA8BAA8D6A8E8
:1022200001E48545EFF05FB6C84093858400EFF088
:102230009FA6C8408545EFF0DFB2130141026FD081
:102240007FF819C5EFD27FF7EFF01FEB6FD09FF744
:102250008280EFD29FF68D6783A7873F0D671307B4
:1022600047408A07BA9780438D659385C53C228590
:10227000EFF01FDA05C137050020F1659307450629
:10228000014781460146938505201305450680CF09
:10229000EFF09FE66FD01FF3EFD23FF28347C50206
:1022A000930500021397270093878184BA979C4374
:1022B0008843EFF0FFAE133515006FD0BFF0EFD2BB
:1022C000DFEF8347C5029305000413972700938728
:1022D0008184BA979C438843EFF09FAC1335150077
:1022E0006FD05FEEEFD27FED411137040020AA845A
:1022F0002EC2EFF08FDF9307440683C7C7022AC4BC
:102300001304440685E70347C402938781840A07C0
:10231000BA979C43F1173EC0938781843EC682479B
:10232000C1EF02C2124541016FD0DFE98D6783A77B
:10233000873F0D67130747408A07BA979C438D660E
:102340009385C63C3E853EC0EFF09FCC8D6671D92B
:1023500023060402138781841C4399EF8347C40238
:10236000850793F7F70F2306F402FDD7EFF07FEE12
:102370008347C402C9DB75B702459385C63CEFF0BD
:102380003FC90346C4021387818493172600BA9776
:102390009C438D669C43E393A7FC35D6C1BFEFF009
:1023A000CFD4A247B307F5403335F500E39BA5F63C
:1023B0001307703EE367F7F60245EFF05FF065F153
:1023C0009247A6973EC4A247E38EF4F40245EFF08D
:1023D0001FEF6DFD8347C402324785048A07BA9711
:1023E0009C4383C5F4FF8843EFF01F99E9BF11E5D3
:1023F0007D5582807D556FD0FFDCEFD21FDCAA8433
:102400002E84EFF07FE97DF583C7C4021397270080
:1024100093878184BA979C438843EFF07F9608A006
:102420000145D1BF8280EFD25FD9EFF00FC7EFE057
:102430000FEEEFE03FF4F5BFEFD23FD8EFF0AFCBB8
:102440006FD05FD819CDEFD25FD72A84EFF0AFCA33
:10245000AA84C93FEFF02FCA058DE36C85FE6FD0CB
:102460007FD68280511106C409205111194506C436
:1024700049240545EF001039AA85814601460145EA
:10248000ADAB2946814511AB5111971700009387D9
:10249000672F22C2171400001304C42E1D8C26C0FF
:1024A00006C40984BE8419E41244A2408244310166
:1024B0006FF0CFD37D1493172400A6979C43829787
:1024C000DDB7511122C2971700009387272B1714ED
:1024D00000001304A42A1D8C26C006C4098481446C
:1024E00063968402EFF0AFD0971700009387072917
:1024F00017140000130404291D8C0984814463927D
:102500008402A24012448244310182801397240045
:102510003E97184385040297971700009387072674
:10252000C1B7139724003E97184385040297971765
:1025300000009387A724E1B70325C50E8280938707
:10254000C1809C439C5389E797E7FF1F9387C7B4DB
:1025500003A5C70E82809387C180AA85884315A8EA
:1025600091ED71118A85014501CA795591C61C22E8
:102570009CC108223335A00011018280014509CA9F
:10258000795599C61C229CC108223335A00082804F
:102590008280411126C293843500F19806C622C478
:1025A000A104B14763F5F404B14463E4B4042AC060
:1025B000F1291387C18414438247368439E0138795
:1025C0000185184301EB3E8581453EC0692823A85B
:1025D000A18482473E85A6853EC071207D578247F3
:1025E0006314E506314798C33E85552129A0E3DEF3
:1025F00004FAB1471CC10145B24022449244410152
:1026000082801840058F634E07022D466376E600F0
:1026100018C03A9404C031A058406392860223A6A1
:10262000E1843E85AD211305B40013074400619990
:10263000B307E540F1D33E94098F18C075BFD8C2E7
:10264000CDB7A28640409DBF130435007198E303C7
:1026500085FCB305A4403E853EC031207D578247AE
:10266000E31AE5FA41B7511122C22A842E8523A22A
:1026700001B606C4EFF06FB5FD576317F5009387F9
:1026800041B69C4391C31CC0A240124431018280D8
:10269000FD4763F6B700D9471CC17D5582807C4158
:1026A000411122C406C62E862A8491C7139725009D
:1026B000BA97984319EB228532C08528AA852285CE
:1026C00022440246B24041011DA8854601456308E7
:1026D000D700FD566319D700D9471CC00545B24045
:1026E0002244410182802E8523A0070002970145E4
:1026F000FDB79387C180AA8588436FF07FF9511198
:1027000022C22A842E85B28523A201B606C4EF0018
:10271000B00EFD576317F500938741B69C4391C3F4
:102720001CC0A2401244310182806F00300C93F52E
:10273000F50F1C2191C76393B70082800505D5BFB3
:1027400091C101458280AA87850703C7F7FF6DFF06
:102750003385A7407D15828041119387C18022C4B3
:10276000804326C206C63C4CAA84B1EF130500057F
:102770002EC0EFF05FDE824528CC23200500232207
:102780000500232405002326050023280500232A0D
:102790000500232C050023240502232605022328F7
:1027A0000502232A0502232C0502232E05022320DD
:1027B0000504232205042324050423260504230EEF
:1027C000050023220502304C2244B2402685924463
:1027D0008546410109A009E5084219E182803E854C
:1027E0009307150003C3F7FF2E8705078342F7FF02
:1027F00063980200631003022320060001458280D3
:10280000E31553FEE9FE1CC22300050082808147C8
:1028100039A889E6850703C3F7FF2E870507834696
:10282000F7FFE318D3FEE30403FEA38F07FE1CC2E9
:102830008280130141FD26D006D422D22AC62EC0A2
:1028400032C2AE84138414008347F4FF3A8536CA3B
:102850003EC83AC4EFF05FCEC2472247D2463E950B
:102860000C31A189E1E11307D002639FE70A1C2024
:10287000054613842400638C061041476390E602EA
:1028800013070003639CE7001C201307800593F7E0
:10289000F70D6399E70E1C30C1460904B7040080A8
:1028A00019E293C4F4FFB68526853ECC32CA36C8F9
:1028B000EFD0DF96C2462AC42685B685EFD05F9357
:1028C000E2475246C246AA82814501456547938345
:1028D00007FD2543637873009383F7FB63607706F6
:1028E000938397FC63D3D306FD576389F502FD55A7
:1028F00063E6A2026395A200A24763C17702AA859C
:1029000036851ECE16CC32CA36C8EFD07F8CF24345
:10291000E2425246C2461E958545654705048347F7
:10292000F4FF75B7A28439BF1307B0026384E700D0
:10293000014691B71C2013842400DDBF9383F7F96F
:1029400063657700938397FA71BFFD57639FF50026
:1029500032479307200226851CC3924789EFA25075
:10296000125482541301C102828019C23305A0405F
:102970009247F5D781C59307F4FF3EC092470247BF
:1029800098C3F1BF9307000391FAA14601BF130753
:102990000003E38BE7EEA94611B79387C1809C4300
:1029A000B286985309E717D7FF1F1307E76E2E86E5
:1029B000AA853E856FF0FFE7511122C206C42A8422
:1029C000EFF0FFB722951C3109478D8B6393E70029
:1029D00001142285A24012443101828089CD9307DF
:1029E000F00F63F7C7009307A0081CC17D558280D4
:1029F00090A10545828001458280938741859C4353
:102A0000AA8399EF138781AD23AAE18417D5FFFF2D
:102A10001305455FBA8709C51C4123A0F1B6BA87E3
:102A2000D8437D437D556346E304638D030203A3CE
:102A3000870863000304931227009A9223A0C20020
:102A40000325031005463316E600518D2320A310FD
:102A500023A0D20889466397D30083264310558E5E
:102A60002322C310930617000A07D4C3BA978CC752
:102A70000145828097D7FFFF9387C75899C71705ED
:102A800000001305A5A06FF03F9F828082808280A6
:102A9000130141FD06D422D226D02A87AE87639146
:102AA0000620B68432832A8463FEC50EC166AE82D8
:102AB0006363D626B70600016367D648935586013F
:102AC000E14497160000938666BBAE969422B694B6
:102AD00093060002858E99CAB397D700B354970026
:102AE0003313D600B3E2F4003314D7009354030138
:102AF000A68516851AC216C0EFD04FF21243824245
:102B00002AC693170301C183A68516851AC43EC041
:102B1000EFD00FEEAA852AC20245EFD06FEB324705
:102B20009357040192464207D98F224363FAA700C4
:102B30009A971387F6FF63E4670063ECA742BA86AF
:102B4000898FA6853E8536C61AC83EC4EFD00FEDE4
:102B5000A247A6852AC23E85EFD08FE9AA85AA841E
:102B6000024542044180EFD0AFE69242B246C20233
:102B700033E48200637CA40042439387F4FF1A94F9
:102B800063656400F9146363A400BE84939706012F
:102B900033E597008146B685A25012548254130142
:102BA000C102828011EA2EC22AC081450545EFD0BC
:102BB0002FE4924702472A83C1666365D314B706A0
:102BC00000016366D33813568301E1449716000071
:102BD0009386C6AAB29683C2060013060002A69286
:102BE0003306564063120614131703014183B3875B
:102BF0006740935403013AC08546A6853E8536C892
:102C00001AC63EC2EFD08FE192472AC4A6853E8500
:102C1000EFD00FDE82452AC2EFD08FDB22479357D9
:102C2000040132434207D98FC24663FBA700124614
:102C30009A971307F6FF63E4670063EFA7323AC27F
:102C4000898FA6853E8536C81ACA3EC6EFD00FDDED
:102C5000B247A6852AC43E85EFD08FD98245AA8483
:102C60004204EFD0EFD6A2424180C246C20233E412
:102C70008200637CA40052439387F4FF1A94636537
:102C80006400F9146363A400BE849247C20733E56D
:102C90009700B685A250125482541301C10282805B
:102CA00063E1D504C16563E7B604B705000163E8D5
:102CB000B62893D586016143171500001305059CBE
:102CC0002E950C219A95130300023303B340631D24
:102CD000031063E2F628B337C70013C51700814617
:102CE00019A081460145B685A250125482541301A1
:102CF000C10282809305F00F63F2D52693D586003A
:102D000021435DBF9306F00F1A86E3F166EC13567C
:102D10008300A14465BD9306F00FB285E3F3C6DAE4
:102D200093558600A14471BB3313C300B3D657003B
:102D300093540301B397C700B35257003314C7002D
:102D400013170301B3E7F2004183A68536853EC21F
:102D50001AC83AC036C4EFD06FCCA2462AC6A685A0
:102D60003685EFD0EFC8AA852AC40245EFD04FC6FA
:102D700032469247A2464206C183D18F424363FB4B
:102D8000A7009A971387F6FF63E3671E63F1A71EF8
:102D9000F9169A973387A740A6853A8536CA1AC886
:102DA0003AC4EFD0AFC722472AC6A6853A85EFD0EE
:102DB0002FC4AA852AC40245EFD08FC1B247308202
:102DC0002247C207D18F4243D24663FBA7009A979E
:102DD0001306F7FF63E9671863F7A71879179A973F
:102DE000C206898FD98E11BD3355B600B3966600E1
:102DF000C98EB353B7003ACC3317660013D406011B
:102E0000B3D4B7003AC4B397670013970601B3E78A
:102E1000F3004183A28526853EC01ACA36C83AC24D
:102E2000EFD0CFBF2AC6A2852685EFD06FBCAA857A
:102E3000AA841245EFD0CFB9B2438247C246C2033B
:102E400013D6070133E6C30052436247637BA600F3
:102E500036969385F4FF636AD6106378A610F9144A
:102E60003696098EA28532853ACC1ACA36CE32C839
:102E7000EFD0CFBA4246A2852AC63285EFD04FB7EF
:102E8000AA852A841245EFD0AFB4B24230805243B3
:102E9000C20233E6C2006247637CA600F246930595
:102EA000F4FF3696636FD60A637DA60A79143696C8
:102EB000C1669382F6FFA24693970401C18F33F453
:102EC0005700098EB3F2560032C293D3070193D450
:102ED000060122859685EFD0AFAF2AC0A685228550
:102EE000EFD00FAF2A8496851E85EFD06FAEAA82F1
:102EF000A6851E85EFD0CFAD82461694C18236944A
:102F000063745400C1663695935604013695924613
:102F100063E3A6026385A6003E858146E9B3416668
:102F200082457D16B376C400C2066D8E33176700E6
:102F3000B296E373D7FE1385F7FF81466DB393D541
:102F40000601414395BB93550601C1449DBE1356EE
:102F50000301C144A5B98146054571B3B685014356
:102F6000A1BB2E84B1B73287A5BDAE84DDBDBA86C4
:102F700015B5F9169A97E9B61307E6FF3AC29A977C
:102F8000C1B121112AC236C006CAAA8622C826C6E5
:102F9000328732C48147014501433386660093730B
:102FA00017003304F50093D2F6010583B3346600AD
:102FB0008607638503003385840032838606B3E782
:102FC000570061FFAA8789C52245EFD06FA0AA9755
:102FD000024711C71245BA85EFD08F9FAA97D240FA
:102FE0004244B2441A85BE85610182809307800500
:102FF00023A2F1B67D5582809307800523A2F1B606
:103000007D55828001A00000466F726D6174746905
:103010006E6720524F4D2E2E2E00000020446F6E02
:10302000652E00004E6F20646174612E0000000068
:10303000506C6179696E672000000000206E6F742B
:1030400065732E2E2E0000004E6F74655B0000002D
:103050005D20416464723A00487A20284475723ACF
:10306000000000002041746B3A00000020446563BA
:103070003A0000000A3E20000A5B53595354454D64
:103080005D2057726974696E6720746F203933430D
:1030900036362E2E2E00000020444F4E45210000D3
:1030A0000A5B5245432053544152545D20000000B6
:1030B0000A4B6579626F617264204D6F64652045CB
:1030C0007869742E000000000D4B65793A200000ED
:1030D000205069616E6F3A2000000000205B52456D
:1030E000433A00005D0000000D4D757465202020FE
:1030F0002020202020000000454E44002C2000000D
:103100000A2D2D2D204B6579626F61726420262077
:103110005265636F72646572202846617374205231
:103120006573706F6E736529202D2D2D00000000D2
:103130004C6F7765723A20612D6B207C204869675F
:103140006865723A2053686966742B412D4B207C68
:10315000205265633A2052207C20457869743A20D9
:1031600051000000416464726573735B00000000ED
:103170005D3A20002D2D2D2046756C6C20524F4D50
:103180002044756D70202D2D2D000000577269743C
:1031900074656E200000000020746F2000000000A5
:1031A0000A2D2D2D2053747265616D204261746368
:1031B00068205772697465204D6F6465202D2D2D30
:1031C00000000000456E7465722076616C75657351
:1031D0002073657061726174656420627920636F29
:1031E0006D6D61732E20547970652027454E4427FC
:1031F00020746F20657869742E00000053494C4597
:103200004E5400004E4F524D414C00000A2D2D2DC2
:1032100020554941506475696E6F20524F4D204DC5
:10322000616E616765722056332E3039202D2D2D49
:10323000000000004D6F64653A2000005B525D2085
:103240002020202020202020203A204C6973742048
:10325000416C6C2044617461000000005B5220618D
:103260006464725D20202020203A20526561642031
:10327000576F72642066726F6D204164647265736B
:10328000730000005B5720616464722076616C5D9E
:10329000203A20577269746520576F726420746FEA
:1032A0002041646472657373000000005B575D2009
:1032B0002020202020202020203A20537472656195
:1032C0006D204261746368204D6F646500000000EA
:1032D0005B505D202020202020202020203A2050FC
:1032E0006C61792066726F6D20524F4D00000000B6
:1032F0005B5420616464725D20202020203A2054B9
:10330000657374204E6F746520617420416464722B
:10331000657373005B4B5D2020202020202020203F
:10332000203A204B6579626F6172642026205265D5
:10333000636F7264657200005B4D5D202020202069
:1033400020202020203A20546F67676C6520446954
:1033500073706C6179204D6F646500005B435D2084
:103360002020202020202020203A20466F726D61EE
:103370007420524F4D2028436C6561722900000073
:103380003E2000002300000000380140180000002B
:10339000FFFFFFFF0000000000000000120000001F
:1033A000003801400B000000FFFFFFFF000000009D
:1033B0000000000026000000003801401800000056
:1033C000FFFFFFFF000000000000000025000000DC
:1033D000003801400B000000FFFFFFFF000000006D
:1033E00000000000010000000000000006000000D6
:1033F0000C0000000D0000000F0000001000000095
:103400000E0000000100000002000000100000009B
:103410001100000012000000130000001400000062
:10342000150000001600000017000000200000003A
:103430002100000022000000230000002400000002
:10344000250000002600000027000000000000000A
:1034500000000000B4130000EC130000AA130000E9
:10346000AE130000B0130000CE130000B013000034
:103470002E1800005E1800000D0A0000981E0000C3
:10348000C61E0000CA1E0000D41E0000DC1E000084
:10349000E01E0000EA1E0000F21E0000FA1E0000FE
:1034A000FE1E00000A1F0000161F0000221F000061
:1034B000261F0000321F00003E1F00004A1F0000B0
:1034C0004E1F0000541F0000581F0000601F000026
:1034D000641F00006C1F0000701F0000781F0000B8
:1034E0007C1F0000881F0000010000000200000097
:1034F0000400000008000000100000002000000090
:10350000400000008000000043000000504F53497D
:1035100058000000002020202020202020202828E3
:103520002828282020202020202020202020202083
:1035300020202020208810101010101010101010C3
:1035400010101010100404040404040404040410F3
:103550001010101010104141414141410101010181
:10356000010101010101010101010101010101014B
:103570001010101010104242424242420202020257
:10358000020202020202020202020202020202021B
:1035900010101010200000000000000000000000CB
:1035A000000000000000000000000000000000001B
:1035B000000000000000000000000000000000000B
:1035C00000000000000000000000000000000000FB
:1035D00000000000000000000000000000000000EB
:1035E00000000000000000000000000000000000DB
:1035F00000000000000000000000000000000000CB
:1036000000000000000000000000000000000000BA
:1036100000000000000000000000000000000000AA
:10362000000000000000000000000000000000009A
:10363000000000000000000000000000000000008A
:10364000000000000000000000000000000000007A
:10365000000000000000000000000000000000006A
:10366000000000000000000000000000000000005A
:103670000000000000000000000102020303030339
:1036800004040404040404040505050505050505F2
:1036900005050505050505050606060606060606D2
:1036A00006060606060606060606060606060606BA
:1036B00006060606060606060707070707070707A2
:1036C000070707070707070707070707070707078A
:1036D000070707070707070707070707070707077A
:1036E000070707070707070707070707070707076A
:1036F0000707070707070707080808080808080852
:103700000808080808080808080808080808080839
:103710000808080808080808080808080808080829
:103720000808080808080808080808080808080819
:103730000808080808080808080808080808080809
:1037400008080808080808080808080808080808F9
:1037500008080808080808080808080808080808E9
:1037600008080808080808080808080808080808D9
:08377000080808080808080811
:08377800742A00005215000044
:103780001400000000000000140000000000000011
:103790001400000000000000140000000000000001
:1037A00014000000000000001400000000000000F1
:1037B00014000000000000001400000000000000E1
:1037C0000204060804080C100810182010203040CD
:1037D000204060800102030405060708010203047B
:1037E00005060708000000000000000000000000BF
:1037F000000000000000000000000000FFFFFFFFCD
:10380000FFFFFFFFFFFFFFFFFFFFFFFF00000000C4
:103810000100000043000000000000000000000064
:103820000000000000000000000000000000000098
:103830000000000043000000000000000000000045
:103840000000000000000000000000000000000078
:103850000000000043000000000000000000000025
:103860000000000000000000000000000000000058
:103870000000000043000000000000000000000005
:103880000000000000000000000000000000000038
:1038900000000000430000000000000000000000E5
:1038A0000000000000000000000000000000000018
:1038B00000000000430000000000000000000000C5
:1038C00000000000000000000000000000000000F8
:1038D00000000000430000000000000000000000A5
:1038E00000000000000000000000000000000000D8
:1038F00000000000DC29000060250000000000003E
:103900001435000094300000D8300000D83000009A
:10391000D8300000D8300000D8300000D830000087
:10392000D8300000D8300000D8300000FFFFFFFF83
:10393000FFFFFFFFFFFFFFFFFFFF000001004153FC
:1039400043494900000000000000000000000000A2
:1039500000000000000000000000000000004153D3
:103960004349490000000000000000000000000082
:103970000000000000000000000000000000000047
:1039800000000000383600005836000018360000ED
:103990000000000000000000000000000000000027
:1039A0000000000000000000000000000000000017
:1039B0000000000000000000000000000000000007
:1039C00000000000000000000000000000000000F7
:1039D00000000000000000000000000000000000E7
:1039E000FFFFFFFFC8050020006CDC020002002082
:1039F0000607080900100020003000000000000049
:00000001FF
