:100000006F001061000000005C0900006009000042
:1000100000000000000000000000000000000000E0
:1000200000000000000000000000000000000000D0
:10003000C806000000000000E00D00000000000005
:10004000E20D0000E40D0000E60D0000E80D0000E8
:100050006A070000EC0D0000EE0D0000F00D00003E
:10006000F20D0000F40D0000F60D0000F80D000088
:10007000FA0D0000FC0D0000FE0D0000000E000057
:10008000020E0000040E0000060E00001005000025
:100090000A0E0000A8050000B605000000000000E0
:1000A000511126C022C206C4828282441244A24058
:1000B000310182802A86014593F6150091C232955E
:1000C00085810606F5F9828000000000634E050276
:1000D00063C305042E86AA857D5515C285466378BF
:1000E000B6006356C00006068606E36CB6FE014500
:1000F00063E4C500918D558D85820582F5FA828075
:100100008682C93F2E8582823305A04063D70500D1
:10011000B305B040C1B7B305B0408682653F330533
:10012000A0408282868263C70500634905005D376F
:100130002E858282B305B040E35B05FE3305A04007
:10014000513F3305B04082820000B7170240984FFC
:10015000B70610FFFD161367070198CFD84F136736
:100160001700D8CFB71701409843419B98C39843D5
:100170001367B70098C39843758F98C39843B70621
:100180008000558F98C3D84713670702D8C7B707B1
:1001900000401307F0029AB7130700089AA3DA2F5A
:1001A000420741831377F7F842074183DAAFDA2F2A
:1001B00013670706DAAF9A33136707109AB39A23C7
:1001C000136717009AA3828001E9B707004023AEA6
:1001D0000702239607028280EFF29FECAA8537453B
:1001E0000F0013050524DD35B7070040DA37420557
:1001F00041816305E500CAB7239207027DB511E589
:10020000B707004023AE07028280EFF27FE9370490
:100210000040AA854A34793D93054006653D420574
:10022000418148DC59B5EFF2BFE72A840A21311138
:1002300019ED2A20B707004023AE0702EF00B07780
:10024000B70700207D5723ACE70E5101B9BDB704B5
:1002500000402EC0953FDE349305400613954700BD
:100260001D8D8D3DC8DC6545EF00F0745C201620C7
:100270002398F18023AA01800247938741813EC4DD
:10028000BD473EC2938401816384E60095473EC228
:100290002A20930540061D15153D930740062AC6E2
:1002A0003EC08A20A93F9E2012476357F700794736
:1002B000637FF700FD179EA03245EF00D06F8247A5
:1002C000FD173EC0F9FF1A20B7070020ADBF3EC89A
:1002D000A2474C308843050588C31D3571FDC247D0
:1002E000D1BFEFF2FFDBB70700207D5723ACE70E4D
:1002F00085642398018023AA018071119384443E70
:100300008147138401815947FD556383E700EE203F
:1003100026853EC0093F82475D4799048507E394DF
:10032000E7FE0A2011C9E13D1E2013052003FD1739
:100330001EA0EF005068F5B7B707004023AE0702D4
:100340001101A5B3EFF2DFD50935613FB9BBEFF27B
:100350003FD5371401401C4493F7070285E313058A
:100360002003EF0050651C4493F7070281EB953F93
:10037000371701401C4793F70702EDDF3DB30145F6
:10038000828082807D558280EFF29FD11C41711165
:10039000CC81DC439305310005468297110131B3CE
:1003A000EFF21FD07111930531004105EF00705B32
:1003B00001E588811101D5B97D55EDBFEFF25FCE22
:1003C0002E85B285EF00F049CDB113F7F50FC54783
:1003D00063EDE70085679387074F0A073E9793F71A
:1003E00005700C43CD8F5CD5828093F6050C130607
:1003F000000CFD57E399C6FE9306700CE3E5E6FE9C
:1004000093F7F50305671307074D8A07BA979C43CF
:1004100005671307074F8A07BA9793F505709C4342
:10042000D1B713F7F50FC54763EDE70085679387ED
:10043000074F0A073E9793F705700C43CD8F1CD5E5
:10044000828093F6050C1306000CFD57E399C6FE57
:100450009306700CE3E5E6FE93F7F50305671307D3
:10046000074D8A07BA979C4305671307074F8A070A
:10047000BA9793F505709C43D1B7EFF27FC293070B
:10048000803E1CC58567938707541CC10CC9232275
:1004900005009305600C2A840D3F9305500C2285BE
:1004A000493758541C546314F700FD575CD4FD576A
:1004B0001CD85CD8DDBEEFF2BFBEB74501409385C6
:1004C000058013850183553FCDB6EFF27FBD1845FA
:1004D00019E3EF0050505C458297C1BE11E101A0C5
:1004E000EFF21FBC2A84084185450D2B0DC11C402D
:1004F000DE27858B89CF2285EF00101A08415C5DCD
:1005000081C713054503D13708408545252371BEB2
:1005100003A5818119C11105D1377300203011E184
:1005200001A01C41DA27098B11EBDA27118B19E79F
:10053000DA27218B01E7DA27418B35C7EFF25FB667
:100540002A8489453E85D9291C400DC189453E85AF
:10055000D52185442285EF0030140841920493840C
:10056000440326951C4591C38D3781B63E85914540
:1005700075211C4011C591453E856D298944D9BF1F
:100580003E85A14561291C4011C5A1453E855D21DF
:100590008D44C9B7C1453E8551214DDD0840C14557
:1005A0009144492945BF828003A5818119C1110564
:1005B000BD3773002030711122C0138481814840FF
:1005C00011C51105213F48401105913F0244110119
:1005D00073002030EFF2DFAC2A84EF00103D48C4F6
:1005E0001C402285DC4B8297635A0500EF00F03BEC
:1005F0005C441D8D1C44E365F5FE7D557DB4EFF232
:100600003FAA6111AA8401442EC232C0630DC40006
:100610002685C9376349050092450246B3878500A0
:1006200088A30504D5B72285210141B4EFF25FA765
:100630005111014495C6B684AA8701443E8532C44F
:100640002EC23EC0413F634D05009245630AB5008E
:10065000224682473307860008A30504E39084FE00
:100660002285310199B4EFF2BFA3E1203DBCEFF246
:100670003FA385476300F50211C589476302F50270
:10068000014525B4114585459D2E371501401305BB
:100690000580C5BF414585459D2637150140D5B725
:1006A000130500028545A12E3715014013050540AD
:1006B000C9BF03A5018283A5418282808280EFF2B7
:1006C0003F9EC53F6FF07F9E9387018203A3070083
:1006D00083A34700130713003335670098C3B3069D
:1006E0007500D4C3E13FB7F700E023A20700730011
:1006F0002030EFF2FF9A37F400E023220400232099
:10070000040023240400B707002003A5C70F9305A6
:10071000803EEFF03F9C7D1508C8BD471CC07D574B
:10072000B7E700E02386E740056723A0E7106FF0F6
:10073000DF97EFF2FF96753F6FF03F9781470547D0
:100740006307E5008507058193F7F70FD5BF3707E6
:1007500000208E0713070700BA97DC4391C7EFF21A
:100760003F9482976FF07F948280611122C226C0ED
:100770000544A1442285152019C522853528131565
:1007800004014181653FFD140604EDF412448244E6
:1007900021017300203082808280B70701401387D7
:1007A000074083A70740584B698F09C77D8D3335B4
:1007B000A000828001458280B707014023AAA7409C
:1007C00082809C45611122C226C013F7070113F3F2
:1007D000F70001C7D8413363E30092211377F60F86
:1007E00029C7832305000147130480029304800472
:1007F0008546B395E600B376B6006392D5029312B0
:100800002700BD46B396560093C6F6FFB3F37600B5
:10081000B3125300B3E37200639787064CC9050710
:10082000A146E317D7FC232075001307F00F637868
:10083000C70483234500A146130480029304800467
:100840000547B312D700337756006394E20213973B
:1008500026000117BD45B395E50093C5F5FFB3F339
:1008600075003317E300B363770063928702232A8E
:10087000550085064147E395E6FC232275001244A6
:10088000824421018280E39C97F80CC949BFE3921E
:1008900097FE23285500F1BF37030140032743008B
:1008A0009317350063D00702B707C0FFF517F98F1C
:1008B00037070007D98FD9CD370700F07D17798D1D
:1008C000C98F49A8635D0500B707E0FFED17F98FF1
:1008D00037070007D98FBDCD06050581D5B7B70706
:1008E0003000931605013376F500C1826313F602DA
:1008F000370600F97D16B377C70003274300798ECA
:100900002322C300A1C95581131745003395E60082
:1009100045BF9317B50063D407029357050113F63B
:10092000F7008D47B397C70093C7F7FFF98F3707D5
:100930000007D98F85C1135755011207C1BF5581D3
:1009400012053395A6009347F5FFF98F3707000787
:10095000D98FBDF5370701405CC38280730020301A
:1009600001A0EFF2EFF3371702405C4391462A846F
:10097000B18B6385D700A146638DD706B7376E016B
:10098000938707601CC0B7160240DC42918313F7BF
:10099000F700B707002093874705BA978C23DC42FE
:1009A000184093F5F50F93F707083355B70081E723
:1009B0003A85EFF02FF248C008C448C4B717024088
:1009C000DC43AD83FD8B13D737008A07F18BD98FBA
:1009D00093F637010D476373D700D117370700200F
:1009E00013070704BA978C23EFF0CFEE08C86FF017
:1009F000CFEB5C43B777DC02938707C061B799C53B
:100A0000371702401C4F5D8D08CF8280B717024018
:100A1000984F1345F5FF798D88CF82801E294A258E
:100A2000ED8F4205418189C76D8D3335A0008280ED
:100A30000145828093C5F5FFC205C1810EA9828060
:100A4000EFF20FE61629F577FD17F58FF621DA2577
:100A50002111D58F1EA95625FD779387379FF58FD6
:100A6000D6212A842EC0D58F9625D58FB625D58F31
:100A70005EA55E29C207C18393F7F7CF5D8F5AA9A0
:100A80004800C535B7470140938707808245631208
:100A9000F406C2475A24139517003E9542070E05E7
:100AA00041873E958C41635807048605EFF08FE23D
:100AB000930540062AC0EFF0EFE18247931445000A
:100AC000930540063E85EFF0AFE35E24C207C18781
:100AD00063D507020E059305400613052503EFF0C5
:100AE0006FDF1D89C98CC204C18006A461016FF04B
:100AF000CFDBB24745B78A0555BF120593054006BF
:100B000013052503EFF00FDD3D89E9BF91C55E2593
:100B10000967D98F5EA582805A25F977FD17F98F6D
:100B2000D5BF93F5F51F4EA182804A211375F51F9D
:100B300082805E2989C593E787005EA98280C2070B
:100B4000C183DD9BC207C183CDBF0A216D8D3335C3
:100B5000A0008280B71702409843B706FFFC1367D6
:100B6000170098C3D843758FD8C39843B706F7FECC
:100B7000FD16758F98C39843B706FCFFFD16758F59
:100B800098C3D44341777D17F98ED4C3B7069F002D
:100B900094C7B72602409042719A90C29042136661
:100BA000160090C2D443D4C3D443758FD8C3D8435E
:100BB000B7060001D8C39843558F98C3984393163E
:100BC0006700E3DD06FED843B7160240719BD8C329
:100BD000D84313672700D8C32147DC42B18BE39E7B
:100BE000E7FE8280EFF2CFCB311102C402C602C809
:100BF000FD576313F50001A093D7854093F4F707E1
:100C00009377F5001397270085679387075DBA9759
:100C10009C4311813D892E843EC0EFF05FA52AC21E
:100C20009DC085450545E13B9387F4FF6947636CAB
:100C3000F70005678A0713074756BA979C438287D0
:100C400085450545913993572440137734008D8BA2
:100C50007DC73AC609476380E70E0D47638FE70CEF
:100C600005476388E70CC1473EC8EDA08145D1BF69
:100C70008545370500100905F1B785453705401052
:100C8000DDBF8145E5BF85453705008011055DBFA6
:100C90008545370520807DB7854537052080FDB720
:100CA0008145E5BF3705160085451305050459BF85
:100CB0008545370516001305050869B785453705CD
:100CC00016001305050CBDBF8145D5BF37051800BB
:100CD000854513050510BDB7370518008545130573
:100CE00005208DB78545370518001305053099BFD8
:100CF0008145D5BF85452165B1B78145EDBF8545A6
:100D0000370520008DBF8145E5BF854537052000AB
:100D1000B5BF8145E5BF85453705200069BF8145E1
:100D2000E5BF8545370530001305054021BF8145E6
:100D3000D5BFD14715BFE14705BFF14735B70547D7
:100D40006383E70299C789466381D70293078002CC
:100D500021BF02C8824712452C007C84EFF07FA699
:100D600051016FF08FB4914701B711840D8893073B
:100D70008004E31DE4FCCDBDFD577D57631CF500E9
:100D800082806398A700EFF2AFB18C45A13D6FF070
:100D9000CFB1B1059C41E396E7FE01A07D579C4190
:100DA0006394E700014582806394A700C841828074
:100DB000B105F5B7FD576307F500EFF26FAEF93FE8
:100DC0006FF0AFAE014582806305B50019C181E5C2
:100DD000AA852E8582808145EDBF01A001A001A0DA
:100DE00001A001A001A001A001A001A001A001A0FB
:100DF00001A001A001A001A001A001A001A001A0EB
:100E000001A001A001A001A001A001A001A001A0DA
:100E100097010020938181AE138181F017150000A6
:100E20001305C58397F5FF1F9385C51D13860181A3
:100E300063FAC5008322050023A055001105910522
:100E4000E3EAC5FE13850181938581906377B50040
:100E5000232005001105E36DB5FE93020008739091
:100E600002308D427390428097F2FFFF9382821985
:100E700093E2320073905230170500001305A53736
:100E8000A5266D26EFF01FCD970200009382023158
:100E9000739012347300203071158280EFF24FA0EE
:100EA0001301C1FDAA84084D32C605662EC4930500
:100EB000864B3ACA36C8FD3D2AD0C84C8566938514
:100EC000064ACD3D2A848850856593858548DD3561
:100ED0002AC0C850856593850547E93D02570566D8
:100EE00085662AC232CC36CE6302070ED04CFD5640
:100EF0006304D600630C040C9050FD566305D600C5
:100F000082476385070CD050FD566305D600924793
:100F1000638E070A3A85A285453D824588C06D35B6
:100F2000924588C0553588C055C1374701401307E1
:100F30000780631BE50085451165EFF05FAC130783
:100F400000022386040298D4E247884C9385874B9D
:100F5000253511C4F247C84C9385074A313D824775
:100F6000814681CB885085659385854831359306C8
:100F70000010924791CBC850856593E60620938573
:100F8000054736C0D53B8246A24703C7C402884006
:100F90009CC4B24713162700DEA4D2471387818270
:100FA0003297FEA4C2471386440010C33147C8C01D
:100FB0009EA8BAA8D6A819E08545A53EC840938545
:100FC0008400EFF0FFA7C840854589361301410230
:100FD0006FF0AF8DEFF2CF8C856783A7474E056723
:100FE0001307074F8A07BA97804385659385854B1A
:100FF0002285C93319CD37050020F16593074506D1
:10100000014781460146938505201305450680CF9B
:1010100071356FF08F89EFF2AF888347C502930572
:1010200000021397270093878182BA979C438843D5
:10103000EFF0BFB1133515006FF02F87EFF24F8639
:101040008347C50293050004139727009387818285
:10105000BA979C438843EFF05FAF133515006FF0EC
:10106000CF84EFF2EF83411137040020AA842EC20F
:10107000EFF02FE49307440683C7C7022AC4130482
:10108000440685E70347C402938781820A07BA971B
:101090009C43F1173EC0938781823EC68247C9EBCD
:1010A00002C2124541016FF04F80856783A7474E0A
:1010B00005671307074F8A07BA979C438566938590
:1010C000864B3E853EC0FD31856679D923060402F4
:1010D000138781821C4391EF8347C402850793F7EE
:1010E000F70F2306F402FDD7F5358347C402D9DB99
:1010F00045BF02459385864B75390346C402138765
:10110000818293172600BA979C4385669C43E3959A
:10111000A7FC2DDAD1BFEFF0CFD9A247B307F54036
:101120003335F500E39EA5F61307703EE36AF7F644
:10113000024529376DF19247A6973EC4A247E38244
:10114000F4F60245E53D75FD8347C4023247850448
:101150008A07BA979C4383C5F4FF8843EFF07F9CCE
:10116000F1BF11E57D5582807D556FE01FF4EFE200
:101170003FF3AA842E84453565F983C7C4021397CB
:10118000270093878182BA979C438843EFF0FF99A9
:1011900008A00145D9BF8280EFE29FF0EFF0AFCC0D
:1011A000EFF04F9AEFF0AF9AF5BFEFE27FEFEFF07D
:1011B0000FD16FE09FEF19CDEFE29FEE2A84EFF0A1
:1011C0000FD0AA84C93FEFF08FCF058DE36C85FE69
:1011D0006FE0BFED8280511106C4092051111945FD
:1011E00006C40D220545F52AAA858146014601451A
:1011F000A9A25111970700009387474622C21704FE
:1012000000001304A4451D8C26C006C40984BE84B6
:1012100019E41244A240824431016FF0CFD77D140B
:1012200093172400A6979C438297DDB7511122C2E1
:1012300097070000938707421704000013048441B6
:101240001D8C26C006C40984814463968402EFF095
:10125000AFD4970700009387E73F170400001304FB
:10126000E43F1D8C0984814463928402A2401244AD
:10127000824431018280139724003E9718438504ED
:101280000297970700009387E73CC1B713972400A4
:101290003E97184385040297970700009387873B82
:1012A000E1B7FD4763F6B700D9471CC17D55828081
:1012B0007C41411122C406C62E862A8491C7139709
:1012C0002500BA97984319EB228532C0B520AA852C
:1012D000228522440246B240410115A885460145B7
:1012E0006308D700FD566319D700D9471CC00545D0
:1012F000B2402244410182802E8523A0070002973C
:101300000145FDB793878180AA85884359BF511154
:1013100022C22A842E85B28523A2019006C46528A4
:10132000FD576317F500938741909C4391C31CC000
:10133000A24012443101828049A89387C1829C4314
:10134000AA8399EF1387818723A6E18217F5FFFF10
:10135000130545CBBA8709C51C4123A0F190BA8774
:10136000D8437D437D556346E304638D030203A3A5
:10137000870863000304931227009A9223A0C200F7
:101380000325031005463316E600518D2320A310D4
:1013900023A0D20889466397D30083264310558E35
:1013A0002322C310930617000A07D4C3BA978CC729
:1013B0000145828097F7FFFF9387C7C491C7170540
:1013C0000000130545E30DB582809307800523A235
:1013D000F1907D5582809307800523A2F1907D5581
:1013E000828001A09302B004300A100390012A0603
:1013F000100340062D129302B004300A4B029001F4
:101400002A060B0240062D124B02200328089302E5
:1014100020032808100320032D0893022003280826
:101420004B02600930140000900100009302B004E8
:10143000300A100390012A06100340062D12930271
:10144000B004300A4B0290012A060B0240062D120E
:101450004B0220032808930220032D084B0220038F
:101460002A080B02200328060B02D00732140000C2
:10147000230000000038014018000000FFFFFFFFBC
:1014800000000000000000001200000000380140D1
:101490000B000000FFFFFFFF000000000000000045
:1014A000260000000038014018000000FFFFFFFF89
:1014B000000000000000000025000000003801408E
:1014C0000B000000FFFFFFFF000000000000000015
:1014D0000100000000000000060000000C000000F9
:1014E0000D0000000F000000100000000E000000C2
:1014F00001000000020000001000000011000000C8
:10150000120000001300000014000000150000008D
:10151000160000001700000020000000210000005D
:10152000220000002300000024000000250000002D
:10153000260000002700000000000000000000005E
:1015400088030000BC0300007E030000820300004B
:1015500084030000A003000084030000FE050000D7
:101560002C060000400C00006C0C0000700C000009
:101570007A0C0000820C0000860C0000900C000029
:10158000980C0000A00C0000A40C0000B00C00009F
:10159000BC0C0000C80C0000CC0C0000D80C0000F3
:1015A000E40C0000F00C0000F40C0000FA0C000049
:1015B000FE0C0000060D00000A0D0000120D0000D8
:1015C000160D00001E0D0000220D00002E0D000063
:1015D00001000000020000000400000008000000FC
:1015E000100000002000000040000000800000000B
:1015F00000000000000000000000000000000000EB
:1016000000000000000000000000000000000000DA
:1016100000000000000000000000000000000000CA
:1016200000000000000000000000000000000000BA
:1016300000000000000000000000000000000000AA
:10164000000000000000000000000000000000009A
:08165000B4130000B604000011
:10165800140000000000000014000000000000005A
:10166800140000000000000014000000000000004A
:10167800140000000000000014000000000000003A
:10168800140000000000000014000000000000002A
:101698000204060804080C10081018201020304016
:1016A80020406080010203040506070801020304C4
:1016B8000506070800000000000000000000000008
:1016C800000000000000000000000000FFFFFFFF16
:1016D800FFFFFFFFFFFFFFFFFFFFFFFF000000000E
:1016E8000100000000000000101600003016000085
:1016F800F0150000000000000000000000000000DD
:1017080000000000000000000000000000000000D1
:1017180000000000000000000000000000000000C1
:1017280000000000000000000000000000000000B1
:1017380000000000000000000000000000000000A1
:101748000000000000000000FFFFFFFF006CDC024B
:081758009400002000000000D5
:00000001FF
