:100000006F006068000000003A0100003C01000041
:1000100000000000000000000000000000000000E0
:1000200000000000000000000000000000000000D0
:1000300084060000000000008406000000000000AC
:100040008406000084060000840600008406000088
:100050008406000084060000840600008406000078
:100060008406000084060000840600008406000068
:100070008406000084060000840600008406000058
:100080008406000084060000840600008406000048
:100090008406000084060000D601000084060000EB
:0800A0008406000000000000CE
:1000A800511126C022C206C4828282441244A24050
:1000B80031018280634E050263C305042E86AA853A
:1000C8007D5515C285466378B6006356C00006069E
:1000D8008606E36CB6FE014563E4C500918D558D37
:1000E80085820582F5FA82808682C93F2E858282C2
:1000F8003305A0406347B000B305B040C1B7B305AE
:10010800B0408682653F3305A0408282868263C7FD
:100118000500634905005D372E858282B305B0402E
:10012800E35B05FE3305A040513F3305B0408282B2
:10013800000001A0B707EFBE37E700E09387070884
:100148003CC701A0EFF2DFF583C72182B144056403
:10015800B38797021304C45D856683A50670A297CA
:100168008843EF10A00D056683254670EF001059EF
:10017800EF10803A23A8A18083C72182856683A5D2
:100188000670B3879702A297C843EF10200B056645
:1001980083254670EF009056EF10003823A6A18003
:1001A80083C72182856683A50670B38797023E942C
:1001B8000844EF10A008056683254670EF00105428
:1001C800EF108035B707002023A8A700F9BD51110B
:1001D80085453705004022C426C2EF00F04F63056D
:1001E800050E370700208327C70003A6C1818507AE
:1001F8002326F70003A70181329713F67700329779
:1002080023AEE18003A6818183A6C180B29613D66E
:1002180017001D8AB29623ACD1803706002003A5AB
:1002280041810326060189839D8B2A963E9683C7C2
:10023800018223AAC180B7050020C1CFB7071000EB
:1002480023A4F50003A4850065C49357870113D739
:1002580086019356860103C5118249ED056613068A
:100268000660B297329736969C231823142203A46B
:1002780085003304F40283A7850083A485009305D1
:10028800D02FB387E7025180056713071788B38417
:10029800D402D1833305F4003EC0D18026953305BE
:1002A800E502293D8247420541813737014013075E
:1002B80007C040DB1CDF44DFB7070040C8DB8545CB
:1002C80037050040EF00D0422244924431017300C8
:1002D8002030B707002003A3850003A50700637833
:1002E800650003A5070083A78500898F91BF23A414
:1002F800050089BF03C511820546E31AC5F61396A2
:10030800870161868147634406009307F00F13163F
:10031800870161860147634406001307F00F1396AF
:10032800860161868146E34406F49306F00F81B79F
:1003380081448147014595BFEFF29FD60563397126
:10034800130553A38545EF00900585450545EF0046
:10035800F0063165EF00500337140140D1470547D7
:100368007C866C00E147130504403ECA3AC845291B
:1003780089446C001305048064865521A1466C00ED
:1003880037150140748661291306000670866C00D3
:10039800130680041305044032CA51211306800451
:1003A8006C003715014032CA64869529A1466C0055
:1003B80013050440748602CA9D210547C1466C0096
:1003C80037150140788636CA372401408929B7068F
:1003D8000E0005472C101305044036DA230EE102FF
:1003E80002D402D602D802DC05261305044085454E
:1003F8009D263734014002C21307F00F8A85130582
:1004080004C0788202C023140100EF00007D416718
:100418001307070602D02C08130504C03ACC231092
:10042800910202CE02D2EF0010022C08130504C07C
:10043800EF00F00B2C08130504C0EF00D0181305CB
:1004480004C08545EF00D026130504C08545EF009C
:10045800D0200563930403888A85370500406482A9
:10046800EF00A0772C0837050040EF00C07DB7E704
:1004780000E01307000423A2E71005468545370569
:100488000040EF005024854537050040EF00F01C80
:10049800216121B9EFF2DFC031110D226531693DCB
:1004A8008547014485443EC0371701409305000243
:1004B800130507403EC8F92E371701402AC2930595
:1004C800000413050740F9262AC489453715014059
:1004D800D126C2472AC60547639DE700924791EB9C
:1004E80003C511828D45050515311375F50FA380D8
:1004F800A1828547639EF400B24799EB03C5218228
:100508008D45050521311375F50F2381A1821D390C
:10051800A247C1E3024785476316F704B7240140A1
:100528009145138504409D460546912C85451385C4
:100538000440152CB7270140894513850740D12C65
:1005480075D913850440D1249307B00A3305F50201
:100558008565FD15A5369307E00B898F37070020C1
:100568002320F70085472380F18283C7018291E722
:10057800B707002083A4870085C005468545371541
:100588000140392EA284A2472684B2443EC0924735
:1005980021BF23800182D1BFB16705049387F73457
:1005A800E3FD87FC0146854537150140D52CB7A7E3
:1005B800070093870712E3E887FCE9B7EFF25FAE1D
:1005C8008946B72702403714024094C31C403707B6
:1005D800FF68C17493E717001CC05C40FD14F98FD5
:1005E8005CC01C403707D7FE6D17F98F370710001E
:1005F800D98F1CC01C403707FCFF7D17F98F1CC022
:100608005C40E58F5CC0B7079D001CC41C4C93E799
:1006180007021CCCB717014093870740984313770C
:10062800F7F098C398431367070898C394CBB52C81
:100638005C4037070001B70600025CC05C40E58FEC
:100648005CC05C405CC01C40D98F1CC0B71702401E
:100658009843758F75DFD843B7160240719BD8C38E
:10066800D84313672700D8C32147DC42B18BE39EE8
:10067800E7FEB7270240094798C305BC01A09701C8
:1006880000209381211817210020130121971715A5
:1006980000001305A52197050020938525961706C8
:1006A80000201306269663FAC5008322050023A0BE
:1006B800550011059105E3EAC5FE1705002013054D
:1006C8006594938541826377B50023200500110561
:1006D800E36DB5FE896293820288739002308D4281
:1006E80073904280970200009382429193E2320015
:1006F80073905230EFF09FEC970200009382C2D9BA
:1007080073901234730020305841B707F1FF938774
:10071800F7EF7D8FDC419441A207D58FD98F5CC15B
:100728001845B7F7F1FF9387D77FD4457D8F9C494C
:10073800D58F94458606D58FD98F1CC55855B707D0
:1007480010FFFD177D8FDC29FD1793F7F70FD207F0
:10075800D98F5CD582801C4589C593E717001CC5D5
:100768008280F99BEDBF1C4591C537075000D98F92
:100778001CC582803707B0FF7D17F98FD5BF0D479D
:100788003387E502032305019D47B397E70093C725
:10079800F7FFB3F76700B396E600DD8E14C99947F3
:1007A80063E2C70295477D163306F6025859FD479E
:1007B800B397C70093C7F7FFF98F3396C5005D8ECF
:1007C80050D98280B14763E2C70295476516330660
:1007D800F6021859FD47B397C70093C7F7FFF98F7B
:1007E8003396C5005D8E10D9828095474D16330625
:1007F800F6025855FD47B397C70093C7F7FFF98F1F
:10080800B395C500DD8D4CD5828068454205418190
:1008180082801C4133F5F5003335A0008280944571
:1008280093F7060113F3F60081C7DC413363F30045
:1008380083D2050093F7F20FA9CF0C41611122C2B0
:1008480026C08147930380023D44930480040547F2
:100858003317F70033F6E2006310C7026397760296
:1008680058C9139627003317C4001347F7FF6D8F35
:100878003316C300B365E60085072147E399E7FC13
:1008880012440CC1824421018280E39C96FC18C961
:10089800C9BF82801C4533F5F5003335A00082803E
:1008A80019C20CC982804CC98280EFF26FFF5111C6
:1008B80085451305C00302C002C202C4CD24B7F7A0
:1008C800FF1F03A74770B706520093860660937709
:1008D800F7F06386D70A63E2F60CB706240093861E
:1008E80006606380D72063E0F604B706220093868B
:1008F8000660638FD72463EFF600C1779387F7F01C
:10090800F98F3707200013070760639BE7009307F9
:10091800900F35A837072300130707606384E72083
:1009280031016FF08FF8B706500093860660638335
:10093800D71A63E0F604C1779387F7F07D8FB7077E
:10094800400093870760E39DE7FC9307900E3714F8
:1009580001407C808A8593078002130504803EC489
:100968007D3D9307F0077C808A85130504C0453DCB
:1009780045BF3707510013070760E393E7FA93076A
:100988009006371401407C808A85930780021305FE
:1009980004803EC46935AD47F9B7370764001307CB
:1009A8000760E386E7F66361F70637076200130717
:1009B8000760E38CE7F86364F7043707530013070D
:1009C8000760638DE70C3707610013070760E39939
:1009D800E7F493070008371401407C808A85930761
:1009E8008002130504803EC41D3D930740078A8595
:1009F800130504C07C8025359307800CADA037070C
:100A080063001307076081B7371773001307078060
:100A18006386E702636BF7003717700013070780D8
:100A28006388E704370771004DB737177400130759
:100A38000780E397E7EE9307000C71BF9307000C5C
:100A4800371401407C808A8593078002130504804F
:100A58003EC4F133930740078A85130504C07C80A0
:100A68007D3B9307900C7C808A853715014001B740
:100A78009307000C371401407C808A859307800215
:100A8800130504803EC4613B930740078A8513051C
:100A980004C07C8069339307B00CF1B793079006C4
:100AA800371401407C808A859307800213050480EF
:100AB8003EC4B533AD478A85130504C07C808533B1
:100AC8009307C0028A85371501407C80893B9307CC
:100AD800C006A1A09307800C7C80930780023EC4C7
:100AE80061B79307900F371401407C808A8593077C
:100AF8008002130504803EC41D339307F0078A85DE
:100B0800130504C07C80213B9307900E8A85371516
:100B180001407C8029339307D0087C808A8513059F
:100B28000440B1B59307900F371401407C808A8543
:100B380093078002130504803EC4D5319307F0075C
:100B48008A85130504C07C80D939930760029DBF4C
:100B58009307900F371401407C808A8593078002A1
:100B6800130504803EC465399307F0078A85130589
:100B780004C07C806D31930700028A8537150140D7
:100B88007C807139B54751BFB7160240DC42370740
:100B9800FF7F1307F77FF98FC98FDCC2828099C561
:100BA800371702401C4FC98F1CCF8280B7170240ED
:100BB800984F1345F5FF798D88CF828099C53717EF
:100BC80002405C4FC98F5CCF8280B7170240D84F74
:100BD8001345F5FF798DC8CF8280B73701409387D9
:100BE80007C06306F500B7070040631DF5021E2124
:100BF800BA21C207C18393F7F7F8D98FFA2193F77F
:100C0800F7CFD98F1EA1DE215EB59E211EB5B7375D
:100C18000140938707C06314F5009C251EB98547DA
:100C28005EA98280B717004093870780631CF50090
:100C38001E21BA21C207C18393F7F7F8D98F1EA1E5
:100C4800DE215EA582801E319A2103D38500C2076A
:100C5800C183F99BC207C1831EB11E315221162DD3
:100C6800C207C183C206C18293F6C6F8D98EBA21DB
:100C7800F59B42063367E300D98F373701401307E6
:100C880007C041826316E502BA25DD9B03D3E50060
:100C9800D98FDA21ED9B1376F6CFD98FDA25336712
:100CA8006700598EFA2152A116AD58D91EB182801B
:100CB80037070040E318E5FE0357450406034207DB
:100CC8004183499B420741832312E504835245042B
:100CD800DA2183D3A5000983B3E272003367570092
:100CE80033676700420741832312E50465BF1E315D
:100CF80065771307F7CFC207C183BD9BC207C183BE
:100D08001EB11E315221162D03D38500C207F98E5C
:100D18009A21C18393F7F7FD2207D98EBA2142069B
:100D2800C2063367E3001207D98F37370140C2077D
:100D3800130707C04182C182C1836314E504BA2541
:100D480093F7F7F703D3C5001207D98FDA21C20743
:100D5800C183120793F7F7FBD98F7D771307F73F06
:100D6800718FF225C207C183336666000A06518F68
:100D7800131607014182FA2152A116AD18DD1EB1E2
:100D8800828037070040E318E5FE035745040E0349
:100D9800420741831377D7FC420741832312E504B6
:100DA800BA25835245040A073367670003D3450011
:100DB8001353130033E3620033676700420741832C
:100DC8002312E5044DBF1E3103D38500C207C1833A
:100DD80093F7F7EFC207C1831EB1123156215A2D7E
:100DE8009E214206420741831377C7F85D8FBE21D3
:100DF80041821376F6DFB3E76700A2075D8EB73747
:100E08000140C2064206938707C0C182418263102F
:100E1800F504FD779387F77FF18FB22503D3C500DB
:100E28002206D18FD221C207C183220693F7F7BFCA
:100E3800D18F13960701F577FD17F58FF6254182B7
:100E4800B3E666009206D58F93960701C182FE210C
:100E580056A15AAD5CDD12B18280B7370140938745
:100E680007C09DC16306F500B70700406317F5008A
:100E78001E2193E717001EA139A0B71700409387DA
:100E88000780E307F5FE82806306F500B707004098
:100E98006319F5001E21C207C183F99BC207C183EC
:100EA800D9BFB717004093870780E31EF5FCDDB76D
:100EB8008357450491C52167D98F2312F504828091
:100EC800C607C583DDBF5E2501C6CD8F5EA58280BE
:100ED80093C5F5FFED8FDDBF1E294A25ED8F42052D
:100EE800418189C76D8D3335A0008280014582809C
:100EF80093C5F5FFC205C1810EA982801301C1FD0A
:100F08009357750126CC9316950006D022CE93F7F9
:100F1800F70FAE84A5821357F501E1C31306F00F4E
:100F28006382C70C8E0637060004D18E138317F828
:100F38000144814293D774019395940093F7F70F76
:100F4800A581FD80B5CB1306F00F6383C70A8E0514
:100F580037060004D18D938717F80145BD43334602
:100F680097003303F34063EC831A970300009383DD
:100F780063790A041E941C409E9782879307F00F9A
:100F880001478250724413957701598D7E06E244D9
:100F9800518D1301410282808D476389F200854794
:100FA800639BF20E2A8681470147E1BF01469307FA
:100FB800F00F37074000F1B7D1E913641400B547C3
:100FC80033469700E3EC87FA970500009385857709
:100FD8000A042E941C40AE978287A1EA114401436B
:100FE800854289BF95EE21441303F00F894299B7D2
:100FF80095E1136424007514AD4533469700E3E486
:1010080085FA17050000130565770A042A940C4031
:10101800AA958285136434009307F00F0D453DBFF0
:1010280031441303F00F8D4231B736853AC236C0CA
:101038002D2B82469307B5FF1247B396F600930708
:10104800A0F83383A74001448142EDB52E851AC824
:1010580036C616C43AC22EC0092B82459307B5FF7F
:101068001247B395F5009307A0F8898FA242B246BC
:1010780042430145E5B5130313F089473A85E39DDB
:10108800F2F02A869307F00F0147E5BD8D47E30F7D
:10109800F5F02685AE862A869307F307635FF0028C
:1010A80013F7760019C713F7F60091456303B700E5
:1010B800910637070008758F19C7B70700F8FD179D
:1010C800FD8E930703081307E00FE349F7EA139728
:1010D8006600258393F7F70F6DB5854599C79D8DF4
:1010E8006D4581470147E34EB5E81307E309339798
:1010F800E6003337E000B3D7B600D98F13F777008F
:1011080019C713F7F70091466303D700910737070C
:1011180000047D8F630D0710854701479DB5C167A2
:1011280093945500FD1713D70401E58F3AC03EC2CA
:1011380063FEB60A3685BA8532C81AC636C4EFE0E9
:10114800FFF79247A24632434246B302F5022A8489
:10115800B6877D13814682453E8532CA36C816C693
:101168001AC4EFE07FF8C246B24293170501D58F43
:101178002243524663F85700A6979306F4FF63F399
:10118800970A36848245B38757403E8532CA1AC8C3
:101198003EC6EFE0BFF2924782452AC4B303F50288
:1011A800B2473E851EC2EFE03FF492439316050115
:1011B800A2424243524663F17602B3879600B3B522
:1011C800D7001385F2FFBE8699E563F67700F9121A
:1011D800B386970011A0AA8213170401B38676403C
:1011E80033675700B336D000D98E7DB5824593D783
:1011F80016003E8532CA1AC836C63EC4EFE01FEC58
:10120800B24692475246FE06B302F5024243A2474F
:101218002A84C18289B726852A8671B30146370791
:10122800400085B3E3FF57F47914A697A1BF9A0746
:1012380013D797008147B1B32685A1B5011126CAF6
:10124800935475011316950006CE22CC93F4F40F2F
:1012580025829356F501638704109307F00F63887E
:10126800F4100E06B70700045D8E938414F8014746
:10127800814293D775011394950093F7F70F258052
:10128800FD81E9C71305F00F638FA704938717F84B
:10129800370500040E04498C338597009304150024
:1012A800294326C08147634CE30E33C3B600894601
:1012B8009A8363C9E6047D17854563E7E514638E61
:1012C800D70A05471E836391E70681478143F240A9
:1012D800624413957701336575007E03D244336504
:1012E8006500056182801385F40F49CC938404104E
:1012F80033C3B60026C013673700A9449A8363C472
:10130800E4208D4785463397E6009376075399CEB8
:1013180089476384F2068D476384F20296870547FE
:1013280032841E83E383E7FA024591A29376072469
:1013380081EA1377870869CBAE832286BE82C9BF4C
:1013480001439307F00FB703400051B751E02685DA
:101358009304150013671700294326C08547E356F1
:10136800E3F435A821E611478144854219B715EA07
:1013780021479304F00F8942EDBD1E839307F00FB8
:101388008143B1B7938704103EC0136727002943F0
:10139800B9438947E35BE3F02D47E38FE3F8B6836E
:1013A80085BF31479304F00F8D42E1B532852EC4D5
:1013B80036C232C05D2A02469307B5FF9304A0F8EF
:1013C8009246A2453316F600898C0147814255B5ED
:1013D800228532C816C63AC42EC236C0792293076F
:1013E800B5FF3385A4401305A5F8224793041500DB
:1013F8008246294326C03314F4009245B24242463D
:101408008147E354E3EA61BFC1631387F3FF93564F
:10141800060193520401798E618FB305C7023387A1
:10142800E60293D705013386C2023A96B297B3868D
:10143800560263F3E7009E9641667D1633F7C700B0
:10144800F18D42072E971316670013D4070169839D
:10145800B337C0003694D98F1A045D8CB7070008DB
:10146800E18F91C702459357140005885D8C930757
:10147800F5076350F0041377740019C71377F40065
:1014880091466303D700110437070008618F19C715
:10149800B70700F8FD177D8C930705081307E00FC1
:1014A800634AF7049313640093D3930093F7F70FF9
:1014B80039BD054799C71D8FED4681478143E3C86C
:1014C800E6E01305E5093315A400B357E400333704
:1014D800A000D98F13F7770019C713F7F7009146C3
:1014E8006303D7009107370700047D8F01CB854739
:1014F8008143F1BB9307F00F8143D1BB9A0793D384
:1015080097008147E9B33D450143B7034000E30035
:10151800A7DCAD438D4749B51357750137068000E1
:101528009307F6FF1377F70F9305E007B3F6A700C5
:101538009357F501014563D3E50091C38280930772
:10154800E0097D55E3CCE7FE93055009B3E7C600F3
:1015580063D7E5001305A7F63395A7008280130526
:101568006009198D33D5A7008280C1676375F502BC
:101578009337051093C717008E07130700021D8FB6
:101588003355F5009707000093874722AA978823C9
:101598003305A7408280B7070001637FF500C14784
:1015A8003355F5009707000093874720AA978823AB
:1015B80041473305A7408280E1473355F500970737
:1015C80000009387A71EAA97882321473305A740C1
:1015D800828000006646A543F6E8CD430A17F84323
:1015E800F628DC4300700A44AE4725443313FA4317
:1015F8003D3A1C448FC23B44808386898C8F9295E8
:10160800989C9FA2A5A8ABAEB0B3B6B9BCBFC1C4E5
:10161800C7C9CCCED1D3D5D8DADCDEE0E2E4E6E83F
:10162800EAECEDEFF0F2F3F5F6F7F8F9FAFBFCFC6B
:10163800FDFEFEFFFFFFFFFFFFFFFFFFFFFFFEFEB8
:10164800FDFCFCFBFAF9F8F7F6F5F3F2F0EFEDEC38
:10165800EAE8E6E4E2E0DEDCDAD8D5D3D1CECCC9DC
:10166800C7C4C1BFBCB9B6B3B0AEABA8A5A29F9C56
:101678009895928F8C898683807C797673706D6A51
:101688006763605D5A5754514F4C494643403E3B4F
:10169800383633312E2C2A272523211F1D1B1917D5
:1016A800151312100F0D0C0A090807060504030389
:1016B800020101000000000000000000000001011C
:1016C8000203030405060708090A0C0D0F1012137C
:1016D8001517191B1D1F212325272A2C2E313336B8
:1016E800383B3E404346494C4F5154575A5D60631E
:1016F800676A6D707376797C0000804F0044AC4651
:101708001EFAFFFF7CF8FFFFA6F8FFFF8CF9FFFF2A
:10171800A6F8FFFFACF8FFFFA6F8FFFF8CF9FFFF64
:101728007CF8FFFF7CF8FFFFACF8FFFF8CF9FFFFA8
:101738007AF9FFFF7AF9FFFF7AF9FFFFACF8FFFFAC
:101748003CF8FFFF3CF8FFFF66F8FFFFD6FAFFFF03
:1017580066F8FFFF6CF8FFFF66F8FFFFD6FAFFFF99
:101768003CF8FFFF3CF8FFFF6CF8FFFFD6FAFFFFDD
:101778003AF9FFFF3AF9FFFFC0FAFFFF2EF8FFFF23
:10178800A4FAFFFF2EF8FFFFC0FAFFFF04F8FFFFDF
:1017980004F8FFFFA4FAFFFFC0FAFFFFFEF8FFFFFF
:1017A800FEF8FFFFFEF8FFFF000102020303030338
:1017B80004040404040404040505050505050505D9
:1017C80005050505050505050606060606060606B9
:1017D80006060606060606060606060606060606A1
:1017E8000606060606060606070707070707070789
:1017F8000707070707070707070707070707070771
:101808000707070707070707070707070707070760
:101818000707070707070707070707070707070750
:101828000707070707070707080808080808080838
:101838000808080808080808080808080808080820
:101848000808080808080808080808080808080810
:101858000808080808080808080808080808080800
:1018680008080808080808080808080808080808F0
:1018780008080808080808080808080808080808E0
:1018880008080808080808080808080808080808D0
:1018980008080808080808080808080808080808C0
:0818A8000808080808080808F8
:0818B0006400000000000000CC
:00000001FF
